{
    "contractName": "StrategyDodoDodoUsdcLp",
    "abi": [
        {
            "inputs": [
                {
                    "internalType": "address",
                    "name": "_governance",
                    "type": "address"
                },
                {
                    "internalType": "address",
                    "name": "_strategist",
                    "type": "address"
                },
                {
                    "internalType": "address",
                    "name": "_controller",
                    "type": "address"
                },
                {
                    "internalType": "address",
                    "name": "_timelock",
                    "type": "address"
                }
            ],
            "stateMutability": "nonpayable",
            "type": "constructor"
        },
        {
            "inputs": [],
            "name": "balanceOf",
            "outputs": [
                {
                    "internalType": "uint256",
                    "name": "",
                    "type": "uint256"
                }
            ],
            "stateMutability": "view",
            "type": "function"
        },
        {
            "inputs": [],
            "name": "balanceOfPool",
            "outputs": [
                {
                    "internalType": "uint256",
                    "name": "",
                    "type": "uint256"
                }
            ],
            "stateMutability": "view",
            "type": "function"
        },
        {
            "inputs": [],
            "name": "balanceOfWant",
            "outputs": [
                {
                    "internalType": "uint256",
                    "name": "",
                    "type": "uint256"
                }
            ],
            "stateMutability": "view",
            "type": "function"
        },
        {
            "inputs": [],
            "name": "controller",
            "outputs": [
                {
                    "internalType": "address",
                    "name": "",
                    "type": "address"
                }
            ],
            "stateMutability": "view",
            "type": "function"
        },
        {
            "inputs": [],
            "name": "deposit",
            "outputs": [],
            "stateMutability": "nonpayable",
            "type": "function"
        },
        {
            "inputs": [],
            "name": "dodo",
            "outputs": [
                {
                    "internalType": "address",
                    "name": "",
                    "type": "address"
                }
            ],
            "stateMutability": "view",
            "type": "function"
        },
        {
            "inputs": [],
            "name": "dodoSwap",
            "outputs": [
                {
                    "internalType": "address",
                    "name": "",
                    "type": "address"
                }
            ],
            "stateMutability": "view",
            "type": "function"
        },
        {
            "inputs": [],
            "name": "dodoUsdcPair",
            "outputs": [
                {
                    "internalType": "address",
                    "name": "",
                    "type": "address"
                }
            ],
            "stateMutability": "view",
            "type": "function"
        },
        {
            "inputs": [
                {
                    "internalType": "uint256",
                    "name": "",
                    "type": "uint256"
                }
            ],
            "name": "dodoUsdcRoute",
            "outputs": [
                {
                    "internalType": "address",
                    "name": "",
                    "type": "address"
                }
            ],
            "stateMutability": "view",
            "type": "function"
        },
        {
            "inputs": [],
            "name": "dodo_approve",
            "outputs": [
                {
                    "internalType": "address",
                    "name": "",
                    "type": "address"
                }
            ],
            "stateMutability": "view",
            "type": "function"
        },
        {
            "inputs": [],
            "name": "dodo_dodo_usdc_lp",
            "outputs": [
                {
                    "internalType": "address",
                    "name": "",
                    "type": "address"
                }
            ],
            "stateMutability": "view",
            "type": "function"
        },
        {
            "inputs": [
                {
                    "internalType": "address",
                    "name": "_target",
                    "type": "address"
                },
                {
                    "internalType": "bytes",
                    "name": "_data",
                    "type": "bytes"
                }
            ],
            "name": "execute",
            "outputs": [
                {
                    "internalType": "bytes",
                    "name": "response",
                    "type": "bytes"
                }
            ],
            "stateMutability": "payable",
            "type": "function"
        },
        {
            "inputs": [],
            "name": "getHarvestable",
            "outputs": [
                {
                    "internalType": "uint256",
                    "name": "",
                    "type": "uint256"
                }
            ],
            "stateMutability": "view",
            "type": "function"
        },
        {
            "inputs": [],
            "name": "getName",
            "outputs": [
                {
                    "internalType": "string",
                    "name": "",
                    "type": "string"
                }
            ],
            "stateMutability": "pure",
            "type": "function"
        },
        {
            "inputs": [],
            "name": "governance",
            "outputs": [
                {
                    "internalType": "address",
                    "name": "",
                    "type": "address"
                }
            ],
            "stateMutability": "view",
            "type": "function"
        },
        {
            "inputs": [],
            "name": "harvest",
            "outputs": [],
            "stateMutability": "nonpayable",
            "type": "function"
        },
        {
            "inputs": [
                {
                    "internalType": "address",
                    "name": "",
                    "type": "address"
                }
            ],
            "name": "harvesters",
            "outputs": [
                {
                    "internalType": "bool",
                    "name": "",
                    "type": "bool"
                }
            ],
            "stateMutability": "view",
            "type": "function"
        },
        {
            "inputs": [],
            "name": "performanceDevFee",
            "outputs": [
                {
                    "internalType": "uint256",
                    "name": "",
                    "type": "uint256"
                }
            ],
            "stateMutability": "view",
            "type": "function"
        },
        {
            "inputs": [],
            "name": "performanceDevMax",
            "outputs": [
                {
                    "internalType": "uint256",
                    "name": "",
                    "type": "uint256"
                }
            ],
            "stateMutability": "view",
            "type": "function"
        },
        {
            "inputs": [],
            "name": "performanceTreasuryFee",
            "outputs": [
                {
                    "internalType": "uint256",
                    "name": "",
                    "type": "uint256"
                }
            ],
            "stateMutability": "view",
            "type": "function"
        },
        {
            "inputs": [],
            "name": "performanceTreasuryMax",
            "outputs": [
                {
                    "internalType": "uint256",
                    "name": "",
                    "type": "uint256"
                }
            ],
            "stateMutability": "view",
            "type": "function"
        },
        {
            "inputs": [
                {
                    "internalType": "address[]",
                    "name": "_harvesters",
                    "type": "address[]"
                }
            ],
            "name": "revokeHarvesters",
            "outputs": [],
            "stateMutability": "nonpayable",
            "type": "function"
        },
        {
            "inputs": [],
            "name": "rewards",
            "outputs": [
                {
                    "internalType": "address",
                    "name": "",
                    "type": "address"
                }
            ],
            "stateMutability": "view",
            "type": "function"
        },
        {
            "inputs": [
                {
                    "internalType": "address",
                    "name": "_controller",
                    "type": "address"
                }
            ],
            "name": "setController",
            "outputs": [],
            "stateMutability": "nonpayable",
            "type": "function"
        },
        {
            "inputs": [
                {
                    "internalType": "address",
                    "name": "_governance",
                    "type": "address"
                }
            ],
            "name": "setGovernance",
            "outputs": [],
            "stateMutability": "nonpayable",
            "type": "function"
        },
        {
            "inputs": [
                {
                    "internalType": "uint256",
                    "name": "_performanceDevFee",
                    "type": "uint256"
                }
            ],
            "name": "setPerformanceDevFee",
            "outputs": [],
            "stateMutability": "nonpayable",
            "type": "function"
        },
        {
            "inputs": [
                {
                    "internalType": "uint256",
                    "name": "_performanceTreasuryFee",
                    "type": "uint256"
                }
            ],
            "name": "setPerformanceTreasuryFee",
            "outputs": [],
            "stateMutability": "nonpayable",
            "type": "function"
        },
        {
            "inputs": [
                {
                    "internalType": "address",
                    "name": "_strategist",
                    "type": "address"
                }
            ],
            "name": "setStrategist",
            "outputs": [],
            "stateMutability": "nonpayable",
            "type": "function"
        },
        {
            "inputs": [
                {
                    "internalType": "address",
                    "name": "_timelock",
                    "type": "address"
                }
            ],
            "name": "setTimelock",
            "outputs": [],
            "stateMutability": "nonpayable",
            "type": "function"
        },
        {
            "inputs": [
                {
                    "internalType": "uint256",
                    "name": "_withdrawalDevFundFee",
                    "type": "uint256"
                }
            ],
            "name": "setWithdrawalDevFundFee",
            "outputs": [],
            "stateMutability": "nonpayable",
            "type": "function"
        },
        {
            "inputs": [
                {
                    "internalType": "uint256",
                    "name": "_withdrawalTreasuryFee",
                    "type": "uint256"
                }
            ],
            "name": "setWithdrawalTreasuryFee",
            "outputs": [],
            "stateMutability": "nonpayable",
            "type": "function"
        },
        {
            "inputs": [],
            "name": "strategist",
            "outputs": [
                {
                    "internalType": "address",
                    "name": "",
                    "type": "address"
                }
            ],
            "stateMutability": "view",
            "type": "function"
        },
        {
            "inputs": [],
            "name": "sushiRouter",
            "outputs": [
                {
                    "internalType": "address",
                    "name": "",
                    "type": "address"
                }
            ],
            "stateMutability": "view",
            "type": "function"
        },
        {
            "inputs": [],
            "name": "timelock",
            "outputs": [
                {
                    "internalType": "address",
                    "name": "",
                    "type": "address"
                }
            ],
            "stateMutability": "view",
            "type": "function"
        },
        {
            "inputs": [],
            "name": "usdc",
            "outputs": [
                {
                    "internalType": "address",
                    "name": "",
                    "type": "address"
                }
            ],
            "stateMutability": "view",
            "type": "function"
        },
        {
            "inputs": [],
            "name": "want",
            "outputs": [
                {
                    "internalType": "address",
                    "name": "",
                    "type": "address"
                }
            ],
            "stateMutability": "view",
            "type": "function"
        },
        {
            "inputs": [],
            "name": "weth",
            "outputs": [
                {
                    "internalType": "address",
                    "name": "",
                    "type": "address"
                }
            ],
            "stateMutability": "view",
            "type": "function"
        },
        {
            "inputs": [
                {
                    "internalType": "address[]",
                    "name": "_harvesters",
                    "type": "address[]"
                }
            ],
            "name": "whitelistHarvesters",
            "outputs": [],
            "stateMutability": "nonpayable",
            "type": "function"
        },
        {
            "inputs": [
                {
                    "internalType": "uint256",
                    "name": "_amount",
                    "type": "uint256"
                }
            ],
            "name": "withdraw",
            "outputs": [],
            "stateMutability": "nonpayable",
            "type": "function"
        },
        {
            "inputs": [
                {
                    "internalType": "contract IERC20",
                    "name": "_asset",
                    "type": "address"
                }
            ],
            "name": "withdraw",
            "outputs": [
                {
                    "internalType": "uint256",
                    "name": "balance",
                    "type": "uint256"
                }
            ],
            "stateMutability": "nonpayable",
            "type": "function"
        },
        {
            "inputs": [],
            "name": "withdrawAll",
            "outputs": [
                {
                    "internalType": "uint256",
                    "name": "balance",
                    "type": "uint256"
                }
            ],
            "stateMutability": "nonpayable",
            "type": "function"
        },
        {
            "inputs": [
                {
                    "internalType": "uint256",
                    "name": "_amount",
                    "type": "uint256"
                }
            ],
            "name": "withdrawForSwap",
            "outputs": [
                {
                    "internalType": "uint256",
                    "name": "balance",
                    "type": "uint256"
                }
            ],
            "stateMutability": "nonpayable",
            "type": "function"
        },
        {
            "inputs": [],
            "name": "withdrawalDevFundFee",
            "outputs": [
                {
                    "internalType": "uint256",
                    "name": "",
                    "type": "uint256"
                }
            ],
            "stateMutability": "view",
            "type": "function"
        },
        {
            "inputs": [],
            "name": "withdrawalDevFundMax",
            "outputs": [
                {
                    "internalType": "uint256",
                    "name": "",
                    "type": "uint256"
                }
            ],
            "stateMutability": "view",
            "type": "function"
        },
        {
            "inputs": [],
            "name": "withdrawalTreasuryFee",
            "outputs": [
                {
                    "internalType": "uint256",
                    "name": "",
                    "type": "uint256"
                }
            ],
            "stateMutability": "view",
            "type": "function"
        },
        {
            "inputs": [],
            "name": "withdrawalTreasuryMax",
            "outputs": [
                {
                    "internalType": "uint256",
                    "name": "",
                    "type": "uint256"
                }
            ],
            "stateMutability": "view",
            "type": "function"
        }
    ],
    "bytecode": "6107d0600090815560018181556002829055600391909155600980546001600160a01b031916731b02da8cb0d097eb8d57a175b88c7d8b4799750617905560a0604052736a58c68ff5c4e4d90eb6561449cc74a64f818da560809081526200006b91600b9190620002ba565b503480156200007957600080fd5b5060405162002df738038062002df78339810160408190526200009c916200036c565b736a58c68ff5c4e4d90eb6561449cc74a64f818da5848484846001600160a01b038416620000c957600080fd5b6001600160a01b038316620000dd57600080fd5b6001600160a01b038216620000f157600080fd5b6001600160a01b0381166200010557600080fd5b600480546001600160a01b03199081166001600160a01b0397881617825560058054821696881696909617909555600780548616948716949094179093556006805485169286169290921790915560088054909316931692909217905560405163095ea7b360e01b81527369eb4fa4a2fbd498c257c57ea8b7655a2559a5819163095ea7b391620001b19173a867241cdc8d3b0c07c85cc06f25a0cd3b5474d8916000199101620003f5565b602060405180830381600087803b158015620001cc57600080fd5b505af1158015620001e1573d6000803e3d6000fd5b505050506040513d601f19601f82011682018060405250810190620002079190620003cc565b5060405163095ea7b360e01b815273ff970a61a04b1ca14834a43f5de4533ebddb5cc89063095ea7b390620002599073a867241cdc8d3b0c07c85cc06f25a0cd3b5474d89060001990600401620003f5565b602060405180830381600087803b1580156200027457600080fd5b505af115801562000289573d6000803e3d6000fd5b505050506040513d601f19601f82011682018060405250810190620002af9190620003cc565b50505050506200040e565b82805482825590600052602060002090810192821562000312579160200282015b828111156200031257825182546001600160a01b0319166001600160a01b03909116178255602090920191600190910190620002db565b506200032092915062000324565b5090565b6200034b91905b80821115620003205780546001600160a01b03191681556001016200032b565b90565b80516001600160a01b03811681146200036657600080fd5b92915050565b6000806000806080858703121562000382578384fd5b6200038e86866200034e565b93506200039f86602087016200034e565b9250620003b086604087016200034e565b9150620003c186606087016200034e565b905092959194509250565b600060208284031215620003de578081fd5b81518015158114620003ee578182fd5b9392505050565b6001600160a01b03929092168252602082015260400190565b6129d9806200041e6000396000f3fe60806040526004361061027d5760003560e01c8063722713f71161014f578063ab73e433116100c1578063c65e32421161007a578063c65e32421461066c578063c7b9d5301461068c578063d0e30db0146106ac578063d33219b4146106c1578063f77c4791146106d6578063fe1f8f7a146104195761027d565b8063ab73e433146105c2578063b1f55bd4146105e2578063bdacb30314610602578063c1a3d44c14610622578063c6223e2614610637578063c64bca29146106575761027d565b806388993f221161011357806388993f22146105435780638ccdbb70146105585780638d59db83146103a557806392eefe9b1461056d5780639ec5a8941461058d578063ab033ea9146105a25761027d565b8063722713f7146104b757806382378594146104cc578063853828b6146104ec5780638797658314610501578063885375f71461052e5761027d565b80632e1a7d4d116101f357806351cff8d9116101ac57806351cff8d91461042e57806351f3d0b81461044e57806359739ec4146104635780635aa6e675146104785780635fa823741461048d5780636d13582c146104a25761027d565b80632e1a7d4d146103ba5780633e413bee146103da5780633fc8cef3146103ef5780634641257d14610404578063479119be146104195780634fe809cc146103905761027d565b80631cff79cd116102455780631cff79cd146103335780631f1fcd51146103465780631fe4a6861461035b578063249fb9b41461037057806326e886c6146103905780632a951451146103a55761027d565b80630547104d1461028257806309f2423d146102ad5780630e364fb6146102da57806311588086146102fc57806317d7de7c14610311575b600080fd5b34801561028e57600080fd5b506102976106eb565b6040516102a49190612949565b60405180910390f35b3480156102b957600080fd5b506102cd6102c8366004612516565b610791565b6040516102a491906125ce565b3480156102e657600080fd5b506102fa6102f536600461248a565b6107b8565b005b34801561030857600080fd5b50610297610881565b34801561031d57600080fd5b506103266108bd565b6040516102a491906126f5565b6103266103413660046123da565b6108ed565b34801561035257600080fd5b506102cd610990565b34801561036757600080fd5b506102cd61099f565b34801561037c57600080fd5b506102fa61038b366004612516565b6109ae565b34801561039c57600080fd5b506102976109dd565b3480156103b157600080fd5b506102cd6109e3565b3480156103c657600080fd5b506102fa6103d5366004612516565b6109fb565b3480156103e657600080fd5b506102cd610d0f565b3480156103fb57600080fd5b506102cd610d27565b34801561041057600080fd5b506102fa610d3f565b34801561042557600080fd5b5061029761144d565b34801561043a57600080fd5b506102976104493660046123a2565b611454565b34801561045a57600080fd5b50610297611553565b34801561046f57600080fd5b50610297611559565b34801561048457600080fd5b506102cd61155f565b34801561049957600080fd5b506102cd61156e565b3480156104ae57600080fd5b506102cd611586565b3480156104c357600080fd5b50610297611595565b3480156104d857600080fd5b506102fa6104e7366004612516565b6115bb565b3480156104f857600080fd5b506102976115ea565b34801561050d57600080fd5b5061052161051c3660046123a2565b611771565b6040516102a491906126ea565b34801561053a57600080fd5b506102cd611786565b34801561054f57600080fd5b5061029761179e565b34801561056457600080fd5b506102976117a4565b34801561057957600080fd5b506102fa6105883660046123a2565b6117aa565b34801561059957600080fd5b506102cd6117f6565b3480156105ae57600080fd5b506102fa6105bd3660046123a2565b61180e565b3480156105ce57600080fd5b506102fa6105dd366004612516565b61185a565b3480156105ee57600080fd5b506102fa6105fd36600461248a565b611889565b34801561060e57600080fd5b506102fa61061d3660046123a2565b61192a565b34801561062e57600080fd5b50610297611976565b34801561064357600080fd5b50610297610652366004612516565b6119f8565b34801561066357600080fd5b506102cd611b83565b34801561067857600080fd5b506102fa610687366004612516565b611b9b565b34801561069857600080fd5b506102fa6106a73660046123a2565b611bca565b3480156106b857600080fd5b506102fa611c16565b3480156106cd57600080fd5b506102cd611d6b565b3480156106e257600080fd5b506102cd611d7a565b6040516216d1e160e31b815260009081907338dbb42c4972116c88e27edfacd2451cf1b142559062b68f089061073b9030907369eb4fa4a2fbd498c257c57ea8b7655a2559a581906004016125e2565b60206040518083038186803b15801561075357600080fd5b505afa158015610767573d6000803e3d6000fd5b505050506040513d601f19601f8201168201806040525081019061078b919061252e565b91505090565b600b818154811061079e57fe5b6000918252602090912001546001600160a01b0316905081565b6005546001600160a01b03163314806107db57506007546001600160a01b031633145b806107f55750336000908152600a602052604090205460ff165b61081a5760405162461bcd60e51b8152600401610811906127c8565b60405180910390fd5b60005b8181101561087c576001600a600085858581811061083757fe5b905060200201602081019061084c91906123a2565b6001600160a01b031681526020810191909152604001600020805460ff191691151591909117905560010161081d565b505050565b6040516370a0823160e01b815260009081907338dbb42c4972116c88e27edfacd2451cf1b14255906370a082319061073b9030906004016125ce565b60408051808201909152601681527505374726174656779446f646f446f646f557364634c760541b602082015290565b6008546060906001600160a01b0316331461091a5760405162461bcd60e51b8152600401610811906128d0565b6001600160a01b0383166109405760405162461bcd60e51b81526004016108119061272d565b600080835160208501866113885a03f43d6040519250601f19601f6020830101168301604052808352806000602085013e81156001811461098057610987565b8160208501fd5b50505092915050565b6004546001600160a01b031681565b6007546001600160a01b031681565b6008546001600160a01b031633146109d85760405162461bcd60e51b8152600401610811906128d0565b600055565b61271081565b736a58c68ff5c4e4d90eb6561449cc74a64f818da581565b6006546001600160a01b03163314610a255760405162461bcd60e51b81526004016108119061274e565b600480546040516370a0823160e01b81526000926001600160a01b03909216916370a0823191610a57913091016125ce565b60206040518083038186803b158015610a6f57600080fd5b505afa158015610a83573d6000803e3d6000fd5b505050506040513d601f19601f82011682018060405250810190610aa7919061252e565b905081811015610ade57610ac9610ac4838363ffffffff611d8916565b611dd4565b9150610adb828263ffffffff611e4616565b91505b6000610b08620186a0610afc60035486611e6b90919063ffffffff16565b9063ffffffff611ea516565b9050610bac600660009054906101000a90046001600160a01b03166001600160a01b0316638d8f1e676040518163ffffffff1660e01b815260040160206040518083038186803b158015610b5b57600080fd5b505afa158015610b6f573d6000803e3d6000fd5b505050506040513d601f19601f82011682018060405250810190610b9391906123be565b6004546001600160a01b0316908363ffffffff611ee716565b6000610bca620186a0610afc60025487611e6b90919063ffffffff16565b9050610c1d600660009054906101000a90046001600160a01b03166001600160a01b03166361d027b36040518163ffffffff1660e01b815260040160206040518083038186803b158015610b5b57600080fd5b60065460048054604051636535246160e11b81526000936001600160a01b039081169363ca6a48c293610c5393921691016125ce565b60206040518083038186803b158015610c6b57600080fd5b505afa158015610c7f573d6000803e3d6000fd5b505050506040513d601f19601f82011682018060405250810190610ca391906123be565b90506001600160a01b038116610ccb5760405162461bcd60e51b815260040161081190612831565b610d0881610cef84610ce3898863ffffffff611d8916565b9063ffffffff611d8916565b6004546001600160a01b0316919063ffffffff611ee716565b5050505050565b73ff970a61a04b1ca14834a43f5de4533ebddb5cc881565b7382af49447d8a07e3bd95bd0d56f35241523fbab181565b336000908152600a602052604090205460ff1680610d6757506005546001600160a01b031633145b80610d7c57506007546001600160a01b031633145b610d8557600080fd5b7338dbb42c4972116c88e27edfacd2451cf1b142556001600160a01b0316630b83a7276040518163ffffffff1660e01b8152600401600060405180830381600087803b158015610dd457600080fd5b505af1158015610de8573d6000803e3d6000fd5b50506040516370a0823160e01b8152600092507369eb4fa4a2fbd498c257c57ea8b7655a2559a58191506370a0823190610e269030906004016125ce565b60206040518083038186803b158015610e3e57600080fd5b505afa158015610e52573d6000803e3d6000fd5b505050506040513d601f19601f82011682018060405250810190610e76919061252e565b90508015610fb15760408051600180825281830190925260609160208083019080368337019050509050736a58c68ff5c4e4d90eb6561449cc74a64f818da581600081518110610ec257fe5b6001600160a01b03909216602092830291909101909101527388cbf433471a0cd8240d2a12354362988b4593e563f87dc1b77369eb4fa4a2fbd498c257c57ea8b7655a2559a58173ff970a61a04b1ca14834a43f5de4533ebddb5cc8610f2f86600263ffffffff611ea516565b60018660008042603c016040518963ffffffff1660e01b8152600401610f5c9897969594939291906125fc565b602060405180830381600087803b158015610f7657600080fd5b505af1158015610f8a573d6000803e3d6000fd5b505050506040513d601f19601f82011682018060405250810190610fae919061252e565b50505b6040516370a0823160e01b81527369eb4fa4a2fbd498c257c57ea8b7655a2559a581906370a0823190610fe89030906004016125ce565b60206040518083038186803b15801561100057600080fd5b505afa158015611014573d6000803e3d6000fd5b505050506040513d601f19601f82011682018060405250810190611038919061252e565b6040516370a0823160e01b815290915060009073ff970a61a04b1ca14834a43f5de4533ebddb5cc8906370a08231906110759030906004016125ce565b60206040518083038186803b15801561108d57600080fd5b505afa1580156110a1573d6000803e3d6000fd5b505050506040513d601f19601f820116820180604052508101906110c5919061252e565b90506000821180156110d75750600081115b15611441576040516333a6ca1160e11b81527388cbf433471a0cd8240d2a12354362988b4593e59063674d94229061113890736a58c68ff5c4e4d90eb6561449cc74a64f818da590869086906001908190600090603c4201906004016126ac565b606060405180830381600087803b15801561115257600080fd5b505af1158015611166573d6000803e3d6000fd5b505050506040513d601f19601f8201168201806040525081019061118a9190612546565b5050600654604080516361d027b360e01b815290517369eb4fa4a2fbd498c257c57ea8b7655a2559a581935063a9059cbb926001600160a01b0316916361d027b3916004808301926020929190829003018186803b1580156111eb57600080fd5b505afa1580156111ff573d6000803e3d6000fd5b505050506040513d601f19601f8201168201806040525081019061122391906123be565b6040516370a0823160e01b81527369eb4fa4a2fbd498c257c57ea8b7655a2559a581906370a082319061125a9030906004016125ce565b60206040518083038186803b15801561127257600080fd5b505afa158015611286573d6000803e3d6000fd5b505050506040513d601f19601f820116820180604052508101906112aa919061252e565b6040518363ffffffff1660e01b81526004016112c7929190612693565b602060405180830381600087803b1580156112e157600080fd5b505af11580156112f5573d6000803e3d6000fd5b505050506040513d601f19601f8201168201806040525081019061131991906124f6565b50600654604080516361d027b360e01b81529051611441926001600160a01b0316916361d027b3916004808301926020929190829003018186803b15801561136057600080fd5b505afa158015611374573d6000803e3d6000fd5b505050506040513d601f19601f8201168201806040525081019061139891906123be565b6040516370a0823160e01b815273ff970a61a04b1ca14834a43f5de4533ebddb5cc8906370a08231906113cf9030906004016125ce565b60206040518083038186803b1580156113e757600080fd5b505afa1580156113fb573d6000803e3d6000fd5b505050506040513d601f19601f8201168201806040525081019061141f919061252e565b73ff970a61a04b1ca14834a43f5de4533ebddb5cc8919063ffffffff611ee716565b611449611f3d565b5050565b620186a081565b6006546000906001600160a01b031633146114815760405162461bcd60e51b81526004016108119061274e565b6004546001600160a01b03838116911614156114af5760405162461bcd60e51b8152600401610811906127aa565b6040516370a0823160e01b81526001600160a01b038316906370a08231906114db9030906004016125ce565b60206040518083038186803b1580156114f357600080fd5b505afa158015611507573d6000803e3d6000fd5b505050506040513d601f19601f8201168201806040525081019061152b919061252e565b60065490915061154e906001600160a01b0384811691168363ffffffff611ee716565b919050565b60035481565b60005481565b6005546001600160a01b031681565b73a867241cdc8d3b0c07c85cc06f25a0cd3b5474d881565b6009546001600160a01b031681565b60006115b66115a2610881565b6115aa611976565b9063ffffffff611e4616565b905090565b6008546001600160a01b031633146115e55760405162461bcd60e51b8152600401610811906128d0565b600255565b6006546000906001600160a01b031633146116175760405162461bcd60e51b81526004016108119061274e565b61161f612101565b600480546040516370a0823160e01b81526001600160a01b03909116916370a082319161164e913091016125ce565b60206040518083038186803b15801561166657600080fd5b505afa15801561167a573d6000803e3d6000fd5b505050506040513d601f19601f8201168201806040525081019061169e919061252e565b60065460048054604051636535246160e11b81529394506000936001600160a01b039384169363ca6a48c2936116d89390911691016125ce565b60206040518083038186803b1580156116f057600080fd5b505afa158015611704573d6000803e3d6000fd5b505050506040513d601f19601f8201168201806040525081019061172891906123be565b90506001600160a01b0381166117505760405162461bcd60e51b815260040161081190612831565b60045461176d906001600160a01b0316828463ffffffff611ee716565b5090565b600a6020526000908152604090205460ff1681565b7388cbf433471a0cd8240d2a12354362988b4593e581565b60015481565b60025481565b6008546001600160a01b031633146117d45760405162461bcd60e51b8152600401610811906128d0565b600680546001600160a01b0319166001600160a01b0392909216919091179055565b7338dbb42c4972116c88e27edfacd2451cf1b1425581565b6005546001600160a01b031633146118385760405162461bcd60e51b815260040161081190612708565b600580546001600160a01b0319166001600160a01b0392909216919091179055565b6008546001600160a01b031633146118845760405162461bcd60e51b8152600401610811906128d0565b600355565b6005546001600160a01b03163314806118ac57506007546001600160a01b031633145b6118c85760405162461bcd60e51b8152600401610811906127c8565b60005b8181101561087c576000600a60008585858181106118e557fe5b90506020020160208101906118fa91906123a2565b6001600160a01b031681526020810191909152604001600020805460ff19169115159190911790556001016118cb565b6008546001600160a01b031633146119545760405162461bcd60e51b8152600401610811906128d0565b600880546001600160a01b0319166001600160a01b0392909216919091179055565b600480546040516370a0823160e01b81526000926001600160a01b03909216916370a08231916119a8913091016125ce565b60206040518083038186803b1580156119c057600080fd5b505afa1580156119d4573d6000803e3d6000fd5b505050506040513d601f19601f820116820180604052508101906115b6919061252e565b6006546000906001600160a01b03163314611a255760405162461bcd60e51b81526004016108119061274e565b611a2e82611dd4565b50600480546040516370a0823160e01b81526001600160a01b03909116916370a0823191611a5e913091016125ce565b60206040518083038186803b158015611a7657600080fd5b505afa158015611a8a573d6000803e3d6000fd5b505050506040513d601f19601f82011682018060405250810190611aae919061252e565b60065460048054604051636535246160e11b81529394506000936001600160a01b039384169363ca6a48c293611ae89390911691016125ce565b60206040518083038186803b158015611b0057600080fd5b505afa158015611b14573d6000803e3d6000fd5b505050506040513d601f19601f82011682018060405250810190611b3891906123be565b90506001600160a01b038116611b605760405162461bcd60e51b815260040161081190612831565b600454611b7d906001600160a01b0316828463ffffffff611ee716565b50919050565b7369eb4fa4a2fbd498c257c57ea8b7655a2559a58181565b6008546001600160a01b03163314611bc55760405162461bcd60e51b8152600401610811906128d0565b600155565b6005546001600160a01b03163314611bf45760405162461bcd60e51b815260040161081190612708565b600780546001600160a01b0319166001600160a01b0392909216919091179055565b600480546040516370a0823160e01b81526000926001600160a01b03909216916370a0823191611c48913091016125ce565b60206040518083038186803b158015611c6057600080fd5b505afa158015611c74573d6000803e3d6000fd5b505050506040513d601f19601f82011682018060405250810190611c98919061252e565b90508015611d6857600454611cd2906001600160a01b03167338dbb42c4972116c88e27edfacd2451cf1b14255600063ffffffff61210c16565b600454611d03906001600160a01b03167338dbb42c4972116c88e27edfacd2451cf1b142558363ffffffff61210c16565b60405163b6b55f2560e01b81527338dbb42c4972116c88e27edfacd2451cf1b142559063b6b55f2590611d3a908490600401612949565b600060405180830381600087803b158015611d5457600080fd5b505af1158015610d08573d6000803e3d6000fd5b50565b6008546001600160a01b031681565b6006546001600160a01b031681565b6000611dcb83836040518060400160405280601e81526020017f536166654d6174683a207375627472616374696f6e206f766572666c6f7700008152506121cf565b90505b92915050565b604051632e1a7d4d60e01b81526000907338dbb42c4972116c88e27edfacd2451cf1b1425590632e1a7d4d90611e0e908590600401612949565b600060405180830381600087803b158015611e2857600080fd5b505af1158015611e3c573d6000803e3d6000fd5b5093949350505050565b600082820183811015611dcb5760405162461bcd60e51b815260040161081190612773565b600082611e7a57506000611dce565b82820282848281611e8757fe5b0414611dcb5760405162461bcd60e51b8152600401610811906127f0565b6000611dcb83836040518060400160405280601a81526020017f536166654d6174683a206469766973696f6e206279207a65726f0000000000008152506121fb565b61087c8363a9059cbb60e01b8484604051602401611f06929190612693565b60408051601f198184030181529190526020810180516001600160e01b03166001600160e01b031990931692909217909152612232565b600480546040516370a0823160e01b81526000926001600160a01b03909216916370a0823191611f6f913091016125ce565b60206040518083038186803b158015611f8757600080fd5b505afa158015611f9b573d6000803e3d6000fd5b505050506040513d601f19601f82011682018060405250810190611fbf919061252e565b90508015611d6857600654604080516361d027b360e01b81529051612060926001600160a01b0316916361d027b3916004808301926020929190829003018186803b15801561200d57600080fd5b505afa158015612021573d6000803e3d6000fd5b505050506040513d601f19601f8201168201806040525081019061204591906123be565b610cef612710610afc60005486611e6b90919063ffffffff16565b60065460408051638d8f1e6760e01b815290516120f9926001600160a01b031691638d8f1e67916004808301926020929190829003018186803b1580156120a657600080fd5b505afa1580156120ba573d6000803e3d6000fd5b505050506040513d601f19601f820116820180604052508101906120de91906123be565b610cef612710610afc60015486611e6b90919063ffffffff16565b611d68611c16565b611d68610ac4610881565b8015806121945750604051636eb1769f60e11b81526001600160a01b0384169063dd62ed3e9061214290309086906004016125e2565b60206040518083038186803b15801561215a57600080fd5b505afa15801561216e573d6000803e3d6000fd5b505050506040513d601f19601f82011682018060405250810190612192919061252e565b155b6121b05760405162461bcd60e51b8152600401610811906128f3565b61087c8363095ea7b360e01b8484604051602401611f06929190612693565b600081848411156121f35760405162461bcd60e51b815260040161081191906126f5565b505050900390565b6000818361221c5760405162461bcd60e51b815260040161081191906126f5565b50600083858161222857fe5b0495945050505050565b6060612287826040518060400160405280602081526020017f5361666545524332303a206c6f772d6c6576656c2063616c6c206661696c6564815250856001600160a01b03166122c19092919063ffffffff16565b80519091501561087c57808060200190518101906122a591906124f6565b61087c5760405162461bcd60e51b815260040161081190612886565b60606122d084846000856122d8565b949350505050565b60606122e38561239c565b6122ff5760405162461bcd60e51b81526004016108119061284f565b60006060866001600160a01b0316858760405161231c91906125b2565b60006040518083038185875af1925050503d8060008114612359576040519150601f19603f3d011682016040523d82523d6000602084013e61235e565b606091505b509150915081156123725791506122d09050565b8051156123825780518082602001fd5b8360405162461bcd60e51b815260040161081191906126f5565b3b151590565b6000602082840312156123b3578081fd5b8135611dcb8161298e565b6000602082840312156123cf578081fd5b8151611dcb8161298e565b600080604083850312156123ec578081fd5b82356123f78161298e565b9150602083013567ffffffffffffffff80821115612413578283fd5b81850186601f820112612424578384fd5b8035925081831115612434578384fd5b604051601f8401601f191681016020018381118282101715612454578586fd5b60405283815281840160200188101561246b578485fd5b61247c846020830160208501612952565b809450505050509250929050565b6000806020838503121561249c578182fd5b823567ffffffffffffffff808211156124b3578384fd5b81850186601f8201126124c4578485fd5b80359250818311156124d4578485fd5b86602080850283010111156124e7578485fd5b60200196919550909350505050565b600060208284031215612507578081fd5b81518015158114611dcb578182fd5b600060208284031215612527578081fd5b5035919050565b60006020828403121561253f578081fd5b5051919050565b60008060006060848603121561255a578081fd5b8351925060208401519150604084015190509250925092565b6001600160a01b03169052565b15159052565b6000815180845261259e81602086016020860161295e565b601f01601f19169290920160200192915050565b600082516125c481846020870161295e565b9190910192915050565b6001600160a01b0391909116815260200190565b6001600160a01b0392831681529116602082015260400190565b6001600160a01b0389811682528816602080830191909152604082018890526060820187905261010060808301819052865190830181905260009161012084019188820191845b8281101561266657612656858551612573565b9381019392810192600101612643565b5050505060a08301869052905061268060c0830185612580565b8260e08301529998505050505050505050565b6001600160a01b03929092168252602082015260400190565b6001600160a01b03979097168752602087019590955260408601939093526060850191909152608084015260ff1660a083015260c082015260e00190565b901515815260200190565b600060208252611dcb6020830184612586565b6020808252600b908201526a21676f7665726e616e636560a81b604082015260600190565b602080825260079082015266085d185c99d95d60ca1b604082015260600190565b6020808252600b908201526a10b1b7b73a3937b63632b960a91b604082015260600190565b6020808252601b908201527f536166654d6174683a206164646974696f6e206f766572666c6f770000000000604082015260600190565b6020808252600490820152631dd85b9d60e21b604082015260600190565b6020808252600e908201526d1b9bdd08185d5d1a1bdc9a5e995960921b604082015260600190565b60208082526021908201527f536166654d6174683a206d756c7469706c69636174696f6e206f766572666c6f6040820152607760f81b606082015260800190565b60208082526004908201526310b530b960e11b604082015260600190565b6020808252601d908201527f416464726573733a2063616c6c20746f206e6f6e2d636f6e7472616374000000604082015260600190565b6020808252602a908201527f5361666545524332303a204552433230206f7065726174696f6e20646964206e6040820152691bdd081cdd58d8d9595960b21b606082015260800190565b6020808252600990820152682174696d656c6f636b60b81b604082015260600190565b60208082526036908201527f5361666545524332303a20617070726f76652066726f6d206e6f6e2d7a65726f60408201527520746f206e6f6e2d7a65726f20616c6c6f77616e636560501b606082015260800190565b90815260200190565b82818337506000910152565b60005b83811015612979578181015183820152602001612961565b83811115612988576000848401525b50505050565b6001600160a01b0381168114611d6857600080fdfea2646970667358221220bd29f7789da4f318cbc4d322aeae8be842da85129c2bdbe6c0ea53453bbdb24264736f6c63430006070033",
    "sourcePath": "/home/magic/Documents/WorkSpace/picke-finance/protocol/src/strategies/arbitrum/dodo/strategy-dodo-dodo-usdc-lp.sol",
    "compiler": {
        "name": "solc",
        "version": "0.6.7+commit.b8d736ae"
    },
    "functionHashes": {
        "balanceOf()": "722713f7",
        "balanceOfPool()": "11588086",
        "balanceOfWant()": "c1a3d44c",
        "controller()": "f77c4791",
        "deposit()": "d0e30db0",
        "dodo()": "c64bca29",
        "dodoSwap()": "885375f7",
        "dodoUsdcPair()": "2a951451",
        "dodoUsdcRoute(uint256)": "09f2423d",
        "dodo_approve()": "5fa82374",
        "dodo_dodo_usdc_lp()": "8d59db83",
        "execute(address,bytes)": "1cff79cd",
        "getHarvestable()": "0547104d",
        "getName()": "17d7de7c",
        "governance()": "5aa6e675",
        "harvest()": "4641257d",
        "harvesters(address)": "87976583",
        "performanceDevFee()": "88993f22",
        "performanceDevMax()": "4fe809cc",
        "performanceTreasuryFee()": "59739ec4",
        "performanceTreasuryMax()": "26e886c6",
        "revokeHarvesters(address[])": "b1f55bd4",
        "rewards()": "9ec5a894",
        "setController(address)": "92eefe9b",
        "setGovernance(address)": "ab033ea9",
        "setPerformanceDevFee(uint256)": "c65e3242",
        "setPerformanceTreasuryFee(uint256)": "249fb9b4",
        "setStrategist(address)": "c7b9d530",
        "setTimelock(address)": "bdacb303",
        "setWithdrawalDevFundFee(uint256)": "ab73e433",
        "setWithdrawalTreasuryFee(uint256)": "82378594",
        "strategist()": "1fe4a686",
        "sushiRouter()": "6d13582c",
        "timelock()": "d33219b4",
        "usdc()": "3e413bee",
        "want()": "1f1fcd51",
        "weth()": "3fc8cef3",
        "whitelistHarvesters(address[])": "0e364fb6",
        "withdraw(address)": "51cff8d9",
        "withdraw(uint256)": "2e1a7d4d",
        "withdrawAll()": "853828b6",
        "withdrawForSwap(uint256)": "c6223e26",
        "withdrawalDevFundFee()": "51f3d0b8",
        "withdrawalDevFundMax()": "479119be",
        "withdrawalTreasuryFee()": "8ccdbb70",
        "withdrawalTreasuryMax()": "fe1f8f7a"
    },
    "gasEstimates": {
        "creation": {
            "codeDepositCost": "2142600",
            "executionCost": "infinite",
            "totalCost": "infinite"
        },
        "external": {
            "balanceOf()": "infinite",
            "balanceOfPool()": "infinite",
            "balanceOfWant()": "infinite",
            "controller()": "1202",
            "deposit()": "infinite",
            "dodo()": "407",
            "dodoSwap()": "386",
            "dodoUsdcPair()": "408",
            "dodoUsdcRoute(uint256)": "2107",
            "dodo_approve()": "385",
            "dodo_dodo_usdc_lp()": "341",
            "execute(address,bytes)": "infinite",
            "getHarvestable()": "infinite",
            "getName()": "infinite",
            "governance()": "1181",
            "harvest()": "infinite",
            "harvesters(address)": "1374",
            "performanceDevFee()": "1073",
            "performanceDevMax()": "384",
            "performanceTreasuryFee()": "1117",
            "performanceTreasuryMax()": "362",
            "revokeHarvesters(address[])": "infinite",
            "rewards()": "385",
            "setController(address)": "22120",
            "setGovernance(address)": "22164",
            "setPerformanceDevFee(uint256)": "21108",
            "setPerformanceTreasuryFee(uint256)": "21176",
            "setStrategist(address)": "22075",
            "setTimelock(address)": "22098",
            "setWithdrawalDevFundFee(uint256)": "21109",
            "setWithdrawalTreasuryFee(uint256)": "21132",
            "strategist()": "1160",
            "sushiRouter()": "1225",
            "timelock()": "1180",
            "usdc()": "320",
            "want()": "1138",
            "weth()": "342",
            "whitelistHarvesters(address[])": "infinite",
            "withdraw(address)": "infinite",
            "withdraw(uint256)": "infinite",
            "withdrawAll()": "infinite",
            "withdrawForSwap(uint256)": "infinite",
            "withdrawalDevFundFee()": "1095",
            "withdrawalDevFundMax()": "362",
            "withdrawalTreasuryFee()": "1095",
            "withdrawalTreasuryMax()": "382"
        },
        "internal": {
            "_withdrawSome(uint256)": "infinite"
        }
    }
}