{
    "contractName": "StrategyDodoMcbUsdcLp",
    "abi": [
        {
            "inputs": [
                {
                    "internalType": "address",
                    "name": "_governance",
                    "type": "address"
                },
                {
                    "internalType": "address",
                    "name": "_strategist",
                    "type": "address"
                },
                {
                    "internalType": "address",
                    "name": "_controller",
                    "type": "address"
                },
                {
                    "internalType": "address",
                    "name": "_timelock",
                    "type": "address"
                }
            ],
            "stateMutability": "nonpayable",
            "type": "constructor"
        },
        {
            "inputs": [],
            "name": "balanceOf",
            "outputs": [
                {
                    "internalType": "uint256",
                    "name": "",
                    "type": "uint256"
                }
            ],
            "stateMutability": "view",
            "type": "function"
        },
        {
            "inputs": [],
            "name": "balanceOfPool",
            "outputs": [
                {
                    "internalType": "uint256",
                    "name": "",
                    "type": "uint256"
                }
            ],
            "stateMutability": "view",
            "type": "function"
        },
        {
            "inputs": [],
            "name": "balanceOfWant",
            "outputs": [
                {
                    "internalType": "uint256",
                    "name": "",
                    "type": "uint256"
                }
            ],
            "stateMutability": "view",
            "type": "function"
        },
        {
            "inputs": [],
            "name": "controller",
            "outputs": [
                {
                    "internalType": "address",
                    "name": "",
                    "type": "address"
                }
            ],
            "stateMutability": "view",
            "type": "function"
        },
        {
            "inputs": [],
            "name": "deposit",
            "outputs": [],
            "stateMutability": "nonpayable",
            "type": "function"
        },
        {
            "inputs": [],
            "name": "dodo",
            "outputs": [
                {
                    "internalType": "address",
                    "name": "",
                    "type": "address"
                }
            ],
            "stateMutability": "view",
            "type": "function"
        },
        {
            "inputs": [],
            "name": "dodoSwap",
            "outputs": [
                {
                    "internalType": "address",
                    "name": "",
                    "type": "address"
                }
            ],
            "stateMutability": "view",
            "type": "function"
        },
        {
            "inputs": [],
            "name": "dodoUsdcPair",
            "outputs": [
                {
                    "internalType": "address",
                    "name": "",
                    "type": "address"
                }
            ],
            "stateMutability": "view",
            "type": "function"
        },
        {
            "inputs": [],
            "name": "dodo_approve",
            "outputs": [
                {
                    "internalType": "address",
                    "name": "",
                    "type": "address"
                }
            ],
            "stateMutability": "view",
            "type": "function"
        },
        {
            "inputs": [],
            "name": "dodo_mcb_usdc_lp",
            "outputs": [
                {
                    "internalType": "address",
                    "name": "",
                    "type": "address"
                }
            ],
            "stateMutability": "view",
            "type": "function"
        },
        {
            "inputs": [
                {
                    "internalType": "address",
                    "name": "_target",
                    "type": "address"
                },
                {
                    "internalType": "bytes",
                    "name": "_data",
                    "type": "bytes"
                }
            ],
            "name": "execute",
            "outputs": [
                {
                    "internalType": "bytes",
                    "name": "response",
                    "type": "bytes"
                }
            ],
            "stateMutability": "payable",
            "type": "function"
        },
        {
            "inputs": [],
            "name": "getHarvestable",
            "outputs": [
                {
                    "internalType": "uint256",
                    "name": "",
                    "type": "uint256"
                },
                {
                    "internalType": "uint256",
                    "name": "",
                    "type": "uint256"
                }
            ],
            "stateMutability": "view",
            "type": "function"
        },
        {
            "inputs": [],
            "name": "getName",
            "outputs": [
                {
                    "internalType": "string",
                    "name": "",
                    "type": "string"
                }
            ],
            "stateMutability": "pure",
            "type": "function"
        },
        {
            "inputs": [],
            "name": "governance",
            "outputs": [
                {
                    "internalType": "address",
                    "name": "",
                    "type": "address"
                }
            ],
            "stateMutability": "view",
            "type": "function"
        },
        {
            "inputs": [],
            "name": "harvest",
            "outputs": [],
            "stateMutability": "nonpayable",
            "type": "function"
        },
        {
            "inputs": [
                {
                    "internalType": "address",
                    "name": "",
                    "type": "address"
                }
            ],
            "name": "harvesters",
            "outputs": [
                {
                    "internalType": "bool",
                    "name": "",
                    "type": "bool"
                }
            ],
            "stateMutability": "view",
            "type": "function"
        },
        {
            "inputs": [],
            "name": "mcb",
            "outputs": [
                {
                    "internalType": "address",
                    "name": "",
                    "type": "address"
                }
            ],
            "stateMutability": "view",
            "type": "function"
        },
        {
            "inputs": [
                {
                    "internalType": "uint256",
                    "name": "",
                    "type": "uint256"
                }
            ],
            "name": "mcbUsdcRoute",
            "outputs": [
                {
                    "internalType": "address",
                    "name": "",
                    "type": "address"
                }
            ],
            "stateMutability": "view",
            "type": "function"
        },
        {
            "inputs": [],
            "name": "performanceDevFee",
            "outputs": [
                {
                    "internalType": "uint256",
                    "name": "",
                    "type": "uint256"
                }
            ],
            "stateMutability": "view",
            "type": "function"
        },
        {
            "inputs": [],
            "name": "performanceDevMax",
            "outputs": [
                {
                    "internalType": "uint256",
                    "name": "",
                    "type": "uint256"
                }
            ],
            "stateMutability": "view",
            "type": "function"
        },
        {
            "inputs": [],
            "name": "performanceTreasuryFee",
            "outputs": [
                {
                    "internalType": "uint256",
                    "name": "",
                    "type": "uint256"
                }
            ],
            "stateMutability": "view",
            "type": "function"
        },
        {
            "inputs": [],
            "name": "performanceTreasuryMax",
            "outputs": [
                {
                    "internalType": "uint256",
                    "name": "",
                    "type": "uint256"
                }
            ],
            "stateMutability": "view",
            "type": "function"
        },
        {
            "inputs": [
                {
                    "internalType": "address[]",
                    "name": "_harvesters",
                    "type": "address[]"
                }
            ],
            "name": "revokeHarvesters",
            "outputs": [],
            "stateMutability": "nonpayable",
            "type": "function"
        },
        {
            "inputs": [],
            "name": "rewards",
            "outputs": [
                {
                    "internalType": "address",
                    "name": "",
                    "type": "address"
                }
            ],
            "stateMutability": "view",
            "type": "function"
        },
        {
            "inputs": [
                {
                    "internalType": "address",
                    "name": "_controller",
                    "type": "address"
                }
            ],
            "name": "setController",
            "outputs": [],
            "stateMutability": "nonpayable",
            "type": "function"
        },
        {
            "inputs": [
                {
                    "internalType": "address",
                    "name": "_governance",
                    "type": "address"
                }
            ],
            "name": "setGovernance",
            "outputs": [],
            "stateMutability": "nonpayable",
            "type": "function"
        },
        {
            "inputs": [
                {
                    "internalType": "uint256",
                    "name": "_performanceDevFee",
                    "type": "uint256"
                }
            ],
            "name": "setPerformanceDevFee",
            "outputs": [],
            "stateMutability": "nonpayable",
            "type": "function"
        },
        {
            "inputs": [
                {
                    "internalType": "uint256",
                    "name": "_performanceTreasuryFee",
                    "type": "uint256"
                }
            ],
            "name": "setPerformanceTreasuryFee",
            "outputs": [],
            "stateMutability": "nonpayable",
            "type": "function"
        },
        {
            "inputs": [
                {
                    "internalType": "address",
                    "name": "_strategist",
                    "type": "address"
                }
            ],
            "name": "setStrategist",
            "outputs": [],
            "stateMutability": "nonpayable",
            "type": "function"
        },
        {
            "inputs": [
                {
                    "internalType": "address",
                    "name": "_timelock",
                    "type": "address"
                }
            ],
            "name": "setTimelock",
            "outputs": [],
            "stateMutability": "nonpayable",
            "type": "function"
        },
        {
            "inputs": [
                {
                    "internalType": "uint256",
                    "name": "_withdrawalDevFundFee",
                    "type": "uint256"
                }
            ],
            "name": "setWithdrawalDevFundFee",
            "outputs": [],
            "stateMutability": "nonpayable",
            "type": "function"
        },
        {
            "inputs": [
                {
                    "internalType": "uint256",
                    "name": "_withdrawalTreasuryFee",
                    "type": "uint256"
                }
            ],
            "name": "setWithdrawalTreasuryFee",
            "outputs": [],
            "stateMutability": "nonpayable",
            "type": "function"
        },
        {
            "inputs": [],
            "name": "strategist",
            "outputs": [
                {
                    "internalType": "address",
                    "name": "",
                    "type": "address"
                }
            ],
            "stateMutability": "view",
            "type": "function"
        },
        {
            "inputs": [],
            "name": "sushiRouter",
            "outputs": [
                {
                    "internalType": "address",
                    "name": "",
                    "type": "address"
                }
            ],
            "stateMutability": "view",
            "type": "function"
        },
        {
            "inputs": [],
            "name": "timelock",
            "outputs": [
                {
                    "internalType": "address",
                    "name": "",
                    "type": "address"
                }
            ],
            "stateMutability": "view",
            "type": "function"
        },
        {
            "inputs": [],
            "name": "usdc",
            "outputs": [
                {
                    "internalType": "address",
                    "name": "",
                    "type": "address"
                }
            ],
            "stateMutability": "view",
            "type": "function"
        },
        {
            "inputs": [],
            "name": "usdcEthPair",
            "outputs": [
                {
                    "internalType": "address",
                    "name": "",
                    "type": "address"
                }
            ],
            "stateMutability": "view",
            "type": "function"
        },
        {
            "inputs": [],
            "name": "want",
            "outputs": [
                {
                    "internalType": "address",
                    "name": "",
                    "type": "address"
                }
            ],
            "stateMutability": "view",
            "type": "function"
        },
        {
            "inputs": [],
            "name": "weth",
            "outputs": [
                {
                    "internalType": "address",
                    "name": "",
                    "type": "address"
                }
            ],
            "stateMutability": "view",
            "type": "function"
        },
        {
            "inputs": [
                {
                    "internalType": "address[]",
                    "name": "_harvesters",
                    "type": "address[]"
                }
            ],
            "name": "whitelistHarvesters",
            "outputs": [],
            "stateMutability": "nonpayable",
            "type": "function"
        },
        {
            "inputs": [
                {
                    "internalType": "uint256",
                    "name": "_amount",
                    "type": "uint256"
                }
            ],
            "name": "withdraw",
            "outputs": [],
            "stateMutability": "nonpayable",
            "type": "function"
        },
        {
            "inputs": [
                {
                    "internalType": "contract IERC20",
                    "name": "_asset",
                    "type": "address"
                }
            ],
            "name": "withdraw",
            "outputs": [
                {
                    "internalType": "uint256",
                    "name": "balance",
                    "type": "uint256"
                }
            ],
            "stateMutability": "nonpayable",
            "type": "function"
        },
        {
            "inputs": [],
            "name": "withdrawAll",
            "outputs": [
                {
                    "internalType": "uint256",
                    "name": "balance",
                    "type": "uint256"
                }
            ],
            "stateMutability": "nonpayable",
            "type": "function"
        },
        {
            "inputs": [
                {
                    "internalType": "uint256",
                    "name": "_amount",
                    "type": "uint256"
                }
            ],
            "name": "withdrawForSwap",
            "outputs": [
                {
                    "internalType": "uint256",
                    "name": "balance",
                    "type": "uint256"
                }
            ],
            "stateMutability": "nonpayable",
            "type": "function"
        },
        {
            "inputs": [],
            "name": "withdrawalDevFundFee",
            "outputs": [
                {
                    "internalType": "uint256",
                    "name": "",
                    "type": "uint256"
                }
            ],
            "stateMutability": "view",
            "type": "function"
        },
        {
            "inputs": [],
            "name": "withdrawalDevFundMax",
            "outputs": [
                {
                    "internalType": "uint256",
                    "name": "",
                    "type": "uint256"
                }
            ],
            "stateMutability": "view",
            "type": "function"
        },
        {
            "inputs": [],
            "name": "withdrawalTreasuryFee",
            "outputs": [
                {
                    "internalType": "uint256",
                    "name": "",
                    "type": "uint256"
                }
            ],
            "stateMutability": "view",
            "type": "function"
        },
        {
            "inputs": [],
            "name": "withdrawalTreasuryMax",
            "outputs": [
                {
                    "internalType": "uint256",
                    "name": "",
                    "type": "uint256"
                }
            ],
            "stateMutability": "view",
            "type": "function"
        }
    ],
    "bytecode": "6107d0600090815560018181556002829055600391909155600980546001600160a01b031916731b02da8cb0d097eb8d57a175b88c7d8b4799750617905560a06040527334851ea13bde818b1efe26d31377906b47c9bbe260809081526200006b91600b919062000362565b503480156200007957600080fd5b5060405162003353380380620033538339810160408190526200009c9162000414565b7334851ea13bde818b1efe26d31377906b47c9bbe2848484846001600160a01b038416620000c957600080fd5b6001600160a01b038316620000dd57600080fd5b6001600160a01b038216620000f157600080fd5b6001600160a01b0381166200010557600080fd5b600480546001600160a01b03199081166001600160a01b0397881617825560058054821696881696909617909555600780548616948716949094179093556006805485169286169290921790915560088054909316931692909217905560405163095ea7b360e01b81527369eb4fa4a2fbd498c257c57ea8b7655a2559a5819163095ea7b391620001b19173a867241cdc8d3b0c07c85cc06f25a0cd3b5474d89160001991016200049d565b602060405180830381600087803b158015620001cc57600080fd5b505af1158015620001e1573d6000803e3d6000fd5b505050506040513d601f19601f8201168201806040525081019062000207919062000474565b5060405163095ea7b360e01b8152734e352cf164e64adcbad318c3a1e222e9eba4ce429063095ea7b390620002599073a867241cdc8d3b0c07c85cc06f25a0cd3b5474d890600019906004016200049d565b602060405180830381600087803b1580156200027457600080fd5b505af115801562000289573d6000803e3d6000fd5b505050506040513d601f19601f82011682018060405250810190620002af919062000474565b5060405163095ea7b360e01b815273ff970a61a04b1ca14834a43f5de4533ebddb5cc89063095ea7b390620003019073a867241cdc8d3b0c07c85cc06f25a0cd3b5474d890600019906004016200049d565b602060405180830381600087803b1580156200031c57600080fd5b505af115801562000331573d6000803e3d6000fd5b505050506040513d601f19601f8201168201806040525081019062000357919062000474565b5050505050620004b6565b828054828255906000526020600020908101928215620003ba579160200282015b82811115620003ba57825182546001600160a01b0319166001600160a01b0390911617825560209092019160019091019062000383565b50620003c8929150620003cc565b5090565b620003f391905b80821115620003c85780546001600160a01b0319168155600101620003d3565b90565b80516001600160a01b03811681146200040e57600080fd5b92915050565b600080600080608085870312156200042a578384fd5b620004368686620003f6565b9350620004478660208701620003f6565b9250620004588660408701620003f6565b9150620004698660608701620003f6565b905092959194509250565b60006020828403121562000486578081fd5b8151801515811462000496578182fd5b9392505050565b6001600160a01b03929092168252602082015260400190565b612e8d80620004c66000396000f3fe6080604052600436106102935760003560e01c806381192eb71161015a578063ac78dcfa116100c1578063c65e32421161007a578063c65e3242146106cf578063c7b9d530146106ef578063d0e30db01461070f578063d33219b414610724578063f77c479114610739578063fe1f8f7a1461041d57610293565b8063ac78dcfa14610625578063b1f55bd414610645578063bdacb30314610665578063c1a3d44c14610685578063c6223e261461069a578063c64bca29146106ba57610293565b80638ccdbb70116101135780638ccdbb701461058657806392eefe9b1461059b5780639ec5a894146105bb578063a38ae7a7146105d0578063ab033ea9146105e5578063ab73e4331461060557610293565b806381192eb7146104e557806382378594146104fa578063853828b61461051a578063879765831461052f578063885375f71461055c57806388993f221461057157610293565b80633fc8cef3116101fe57806359739ec4116101b757806359739ec4146104675780635aa6e6751461047c5780635fa823741461049157806360f33cfe146104a65780636d13582c146104bb578063722713f7146104d057610293565b80633fc8cef3146103f35780634641257d14610408578063479119be1461041d5780634fe809cc1461039457806351cff8d91461043257806351f3d0b81461045257610293565b80631fe4a686116102505780631fe4a6861461035f578063249fb9b41461037457806326e886c6146103945780632a951451146103a95780632e1a7d4d146103be5780633e413bee146103de57610293565b80630547104d146102985780630e364fb6146102c457806311588086146102e657806317d7de7c146103085780631cff79cd1461032a5780631f1fcd511461033d575b600080fd5b3480156102a457600080fd5b506102ad61074e565b6040516102bb929190612dfc565b60405180910390f35b3480156102d057600080fd5b506102e46102df36600461293f565b61089c565b005b3480156102f257600080fd5b506102fb610965565b6040516102bb9190612df3565b34801561031457600080fd5b5061031d6109f7565b6040516102bb9190612b9f565b61031d61033836600461288f565b610a26565b34801561034957600080fd5b50610352610ac9565b6040516102bb9190612ab3565b34801561036b57600080fd5b50610352610ad8565b34801561038057600080fd5b506102e461038f3660046129cb565b610ae7565b3480156103a057600080fd5b506102fb610b16565b3480156103b557600080fd5b50610352610b1c565b3480156103ca57600080fd5b506102e46103d93660046129cb565b610b34565b3480156103ea57600080fd5b50610352610e48565b3480156103ff57600080fd5b50610352610e60565b34801561041457600080fd5b506102e4610e78565b34801561042957600080fd5b506102fb611893565b34801561043e57600080fd5b506102fb61044d366004612857565b61189a565b34801561045e57600080fd5b506102fb611999565b34801561047357600080fd5b506102fb61199f565b34801561048857600080fd5b506103526119a5565b34801561049d57600080fd5b506103526119b4565b3480156104b257600080fd5b506103526119cc565b3480156104c757600080fd5b506103526119e4565b3480156104dc57600080fd5b506102fb6119f3565b3480156104f157600080fd5b50610352611a19565b34801561050657600080fd5b506102e46105153660046129cb565b611a31565b34801561052657600080fd5b506102fb611a60565b34801561053b57600080fd5b5061054f61054a366004612857565b611be7565b6040516102bb9190612b94565b34801561056857600080fd5b50610352611bfc565b34801561057d57600080fd5b506102fb611c14565b34801561059257600080fd5b506102fb611c1a565b3480156105a757600080fd5b506102e46105b6366004612857565b611c20565b3480156105c757600080fd5b50610352611c6c565b3480156105dc57600080fd5b50610352611c84565b3480156105f157600080fd5b506102e4610600366004612857565b611c9c565b34801561061157600080fd5b506102e46106203660046129cb565b611ce8565b34801561063157600080fd5b506103526106403660046129cb565b611d17565b34801561065157600080fd5b506102e461066036600461293f565b611d3e565b34801561067157600080fd5b506102e4610680366004612857565b611ddf565b34801561069157600080fd5b506102fb611e2b565b3480156106a657600080fd5b506102fb6106b53660046129cb565b611ead565b3480156106c657600080fd5b50610352612038565b3480156106db57600080fd5b506102e46106ea3660046129cb565b612050565b3480156106fb57600080fd5b506102e461070a366004612857565b61207f565b34801561071b57600080fd5b506102e46120cb565b34801561073057600080fd5b50610352612220565b34801561074557600080fd5b5061035261222f565b6040516216d1e160e31b8152600090819081907306633cd8e46c3048621a517d6bb5f0a84b4919c69062b68f08906107a09030907369eb4fa4a2fbd498c257c57ea8b7655a2559a58190600401612ac7565b60206040518083038186803b1580156107b857600080fd5b505afa1580156107cc573d6000803e3d6000fd5b505050506040513d601f19601f820116820180604052508101906107f091906129e3565b6040516216d1e160e31b81529091506000907306633cd8e46c3048621a517d6bb5f0a84b4919c69062b68f0890610841903090734e352cf164e64adcbad318c3a1e222e9eba4ce4290600401612ac7565b60206040518083038186803b15801561085957600080fd5b505afa15801561086d573d6000803e3d6000fd5b505050506040513d601f19601f8201168201806040525081019061089191906129e3565b919350909150509091565b6005546001600160a01b03163314806108bf57506007546001600160a01b031633145b806108d95750336000908152600a602052604090205460ff165b6108fe5760405162461bcd60e51b81526004016108f590612c72565b60405180910390fd5b60005b81811015610960576001600a600085858581811061091b57fe5b90506020020160208101906109309190612857565b6001600160a01b031681526020810191909152604001600020805460ff1916911515919091179055600101610901565b505050565b6040516370a0823160e01b815260009081907306633cd8e46c3048621a517d6bb5f0a84b4919c6906370a08231906109a1903090600401612ab3565b60206040518083038186803b1580156109b957600080fd5b505afa1580156109cd573d6000803e3d6000fd5b505050506040513d601f19601f820116820180604052508101906109f191906129e3565b91505090565b60408051808201909152601581527405374726174656779446f646f4d6362557364634c7605c1b602082015290565b6008546060906001600160a01b03163314610a535760405162461bcd60e51b81526004016108f590612d7a565b6001600160a01b038316610a795760405162461bcd60e51b81526004016108f590612bd7565b600080835160208501866113885a03f43d6040519250601f19601f6020830101168301604052808352806000602085013e811560018114610ab957610ac0565b8160208501fd5b50505092915050565b6004546001600160a01b031681565b6007546001600160a01b031681565b6008546001600160a01b03163314610b115760405162461bcd60e51b81526004016108f590612d7a565b600055565b61271081565b736a58c68ff5c4e4d90eb6561449cc74a64f818da581565b6006546001600160a01b03163314610b5e5760405162461bcd60e51b81526004016108f590612bf8565b600480546040516370a0823160e01b81526000926001600160a01b03909216916370a0823191610b9091309101612ab3565b60206040518083038186803b158015610ba857600080fd5b505afa158015610bbc573d6000803e3d6000fd5b505050506040513d601f19601f82011682018060405250810190610be091906129e3565b905081811015610c1757610c02610bfd838363ffffffff61223e16565b612289565b9150610c14828263ffffffff6122fb16565b91505b6000610c41620186a0610c356003548661232090919063ffffffff16565b9063ffffffff61235a16565b9050610ce5600660009054906101000a90046001600160a01b03166001600160a01b0316638d8f1e676040518163ffffffff1660e01b815260040160206040518083038186803b158015610c9457600080fd5b505afa158015610ca8573d6000803e3d6000fd5b505050506040513d601f19601f82011682018060405250810190610ccc9190612873565b6004546001600160a01b0316908363ffffffff61239c16565b6000610d03620186a0610c356002548761232090919063ffffffff16565b9050610d56600660009054906101000a90046001600160a01b03166001600160a01b03166361d027b36040518163ffffffff1660e01b815260040160206040518083038186803b158015610c9457600080fd5b60065460048054604051636535246160e11b81526000936001600160a01b039081169363ca6a48c293610d8c9392169101612ab3565b60206040518083038186803b158015610da457600080fd5b505afa158015610db8573d6000803e3d6000fd5b505050506040513d601f19601f82011682018060405250810190610ddc9190612873565b90506001600160a01b038116610e045760405162461bcd60e51b81526004016108f590612cdb565b610e4181610e2884610e1c898863ffffffff61223e16565b9063ffffffff61223e16565b6004546001600160a01b0316919063ffffffff61239c16565b5050505050565b73ff970a61a04b1ca14834a43f5de4533ebddb5cc881565b7382af49447d8a07e3bd95bd0d56f35241523fbab181565b336000908152600a602052604090205460ff1680610ea057506005546001600160a01b031633145b80610eb557506007546001600160a01b031633145b610ebe57600080fd5b7306633cd8e46c3048621a517d6bb5f0a84b4919c66001600160a01b0316630b83a7276040518163ffffffff1660e01b8152600401600060405180830381600087803b158015610f0d57600080fd5b505af1158015610f21573d6000803e3d6000fd5b50506040516370a0823160e01b8152600092507369eb4fa4a2fbd498c257c57ea8b7655a2559a58191506370a0823190610f5f903090600401612ab3565b60206040518083038186803b158015610f7757600080fd5b505afa158015610f8b573d6000803e3d6000fd5b505050506040513d601f19601f82011682018060405250810190610faf91906129e3565b905080156110da5760408051600180825281830190925260609160208083019080368337019050509050736a58c68ff5c4e4d90eb6561449cc74a64f818da581600081518110610ffb57fe5b6001600160a01b039092166020928302919091019091015260405163f87dc1b760e01b81527388cbf433471a0cd8240d2a12354362988b4593e59063f87dc1b790611085907369eb4fa4a2fbd498c257c57ea8b7655a2559a5819073ff970a61a04b1ca14834a43f5de4533ebddb5cc890879060019088908290600090603c420190600401612ae1565b602060405180830381600087803b15801561109f57600080fd5b505af11580156110b3573d6000803e3d6000fd5b505050506040513d601f19601f820116820180604052508101906110d791906129e3565b50505b6040516370a0823160e01b8152600090734e352cf164e64adcbad318c3a1e222e9eba4ce42906370a0823190611114903090600401612ab3565b60206040518083038186803b15801561112c57600080fd5b505afa158015611140573d6000803e3d6000fd5b505050506040513d601f19601f8201168201806040525081019061116491906129e3565b60408051600180825281830190925291925060609190602080830190803683370190505090507334851ea13bde818b1efe26d31377906b47c9bbe2816000815181106111ac57fe5b6001600160a01b039092166020928302919091019091015281156112905760405163f87dc1b760e01b81527388cbf433471a0cd8240d2a12354362988b4593e59063f87dc1b79061123c90734e352cf164e64adcbad318c3a1e222e9eba4ce429073ff970a61a04b1ca14834a43f5de4533ebddb5cc890879060019088908290600090603c420190600401612ae1565b602060405180830381600087803b15801561125657600080fd5b505af115801561126a573d6000803e3d6000fd5b505050506040513d601f19601f8201168201806040525081019061128e91906129e3565b505b6040516370a0823160e01b815260009073ff970a61a04b1ca14834a43f5de4533ebddb5cc8906370a08231906112ca903090600401612ab3565b60206040518083038186803b1580156112e257600080fd5b505afa1580156112f6573d6000803e3d6000fd5b505050506040513d601f19601f8201168201806040525081019061131a91906129e3565b905080156113f8577388cbf433471a0cd8240d2a12354362988b4593e563f87dc1b773ff970a61a04b1ca14834a43f5de4533ebddb5cc8734e352cf164e64adcbad318c3a1e222e9eba4ce4261137785600263ffffffff61235a16565b60018760008042603c016040518963ffffffff1660e01b81526004016113a4989796959493929190612ae1565b602060405180830381600087803b1580156113be57600080fd5b505af11580156113d2573d6000803e3d6000fd5b505050506040513d601f19601f820116820180604052508101906113f691906129e3565b505b6040516370a0823160e01b8152734e352cf164e64adcbad318c3a1e222e9eba4ce42906370a082319061142f903090600401612ab3565b60206040518083038186803b15801561144757600080fd5b505afa15801561145b573d6000803e3d6000fd5b505050506040513d601f19601f8201168201806040525081019061147f91906129e3565b6040516370a0823160e01b815290935073ff970a61a04b1ca14834a43f5de4533ebddb5cc8906370a08231906114b9903090600401612ab3565b60206040518083038186803b1580156114d157600080fd5b505afa1580156114e5573d6000803e3d6000fd5b505050506040513d601f19601f8201168201806040525081019061150991906129e3565b905060008311801561151b5750600081115b15611885576040516333a6ca1160e11b81527388cbf433471a0cd8240d2a12354362988b4593e59063674d94229061157c907334851ea13bde818b1efe26d31377906b47c9bbe290879086906001908190600090603c420190600401612b56565b606060405180830381600087803b15801561159657600080fd5b505af11580156115aa573d6000803e3d6000fd5b505050506040513d601f19601f820116820180604052508101906115ce91906129fb565b5050600654604080516361d027b360e01b81529051734e352cf164e64adcbad318c3a1e222e9eba4ce42935063a9059cbb926001600160a01b0316916361d027b3916004808301926020929190829003018186803b15801561162f57600080fd5b505afa158015611643573d6000803e3d6000fd5b505050506040513d601f19601f820116820180604052508101906116679190612873565b6040516370a0823160e01b8152734e352cf164e64adcbad318c3a1e222e9eba4ce42906370a082319061169e903090600401612ab3565b60206040518083038186803b1580156116b657600080fd5b505afa1580156116ca573d6000803e3d6000fd5b505050506040513d601f19601f820116820180604052508101906116ee91906129e3565b6040518363ffffffff1660e01b815260040161170b929190612b3d565b602060405180830381600087803b15801561172557600080fd5b505af1158015611739573d6000803e3d6000fd5b505050506040513d601f19601f8201168201806040525081019061175d91906129ab565b50600654604080516361d027b360e01b81529051611885926001600160a01b0316916361d027b3916004808301926020929190829003018186803b1580156117a457600080fd5b505afa1580156117b8573d6000803e3d6000fd5b505050506040513d601f19601f820116820180604052508101906117dc9190612873565b6040516370a0823160e01b815273ff970a61a04b1ca14834a43f5de4533ebddb5cc8906370a0823190611813903090600401612ab3565b60206040518083038186803b15801561182b57600080fd5b505afa15801561183f573d6000803e3d6000fd5b505050506040513d601f19601f8201168201806040525081019061186391906129e3565b73ff970a61a04b1ca14834a43f5de4533ebddb5cc8919063ffffffff61239c16565b61188d6123f2565b50505050565b620186a081565b6006546000906001600160a01b031633146118c75760405162461bcd60e51b81526004016108f590612bf8565b6004546001600160a01b03838116911614156118f55760405162461bcd60e51b81526004016108f590612c54565b6040516370a0823160e01b81526001600160a01b038316906370a0823190611921903090600401612ab3565b60206040518083038186803b15801561193957600080fd5b505afa15801561194d573d6000803e3d6000fd5b505050506040513d601f19601f8201168201806040525081019061197191906129e3565b600654909150611994906001600160a01b0384811691168363ffffffff61239c16565b919050565b60035481565b60005481565b6005546001600160a01b031681565b73a867241cdc8d3b0c07c85cc06f25a0cd3b5474d881565b7334851ea13bde818b1efe26d31377906b47c9bbe281565b6009546001600160a01b031681565b6000611a14611a00610965565b611a08611e2b565b9063ffffffff6122fb16565b905090565b734e352cf164e64adcbad318c3a1e222e9eba4ce4281565b6008546001600160a01b03163314611a5b5760405162461bcd60e51b81526004016108f590612d7a565b600255565b6006546000906001600160a01b03163314611a8d5760405162461bcd60e51b81526004016108f590612bf8565b611a956125b6565b600480546040516370a0823160e01b81526001600160a01b03909116916370a0823191611ac491309101612ab3565b60206040518083038186803b158015611adc57600080fd5b505afa158015611af0573d6000803e3d6000fd5b505050506040513d601f19601f82011682018060405250810190611b1491906129e3565b60065460048054604051636535246160e11b81529394506000936001600160a01b039384169363ca6a48c293611b4e939091169101612ab3565b60206040518083038186803b158015611b6657600080fd5b505afa158015611b7a573d6000803e3d6000fd5b505050506040513d601f19601f82011682018060405250810190611b9e9190612873565b90506001600160a01b038116611bc65760405162461bcd60e51b81526004016108f590612cdb565b600454611be3906001600160a01b0316828463ffffffff61239c16565b5090565b600a6020526000908152604090205460ff1681565b7388cbf433471a0cd8240d2a12354362988b4593e581565b60015481565b60025481565b6008546001600160a01b03163314611c4a5760405162461bcd60e51b81526004016108f590612d7a565b600680546001600160a01b0319166001600160a01b0392909216919091179055565b7306633cd8e46c3048621a517d6bb5f0a84b4919c681565b73905dfcd5649217c42684f23958568e533c711aa381565b6005546001600160a01b03163314611cc65760405162461bcd60e51b81526004016108f590612bb2565b600580546001600160a01b0319166001600160a01b0392909216919091179055565b6008546001600160a01b03163314611d125760405162461bcd60e51b81526004016108f590612d7a565b600355565b600b8181548110611d2457fe5b6000918252602090912001546001600160a01b0316905081565b6005546001600160a01b0316331480611d6157506007546001600160a01b031633145b611d7d5760405162461bcd60e51b81526004016108f590612c72565b60005b81811015610960576000600a6000858585818110611d9a57fe5b9050602002016020810190611daf9190612857565b6001600160a01b031681526020810191909152604001600020805460ff1916911515919091179055600101611d80565b6008546001600160a01b03163314611e095760405162461bcd60e51b81526004016108f590612d7a565b600880546001600160a01b0319166001600160a01b0392909216919091179055565b600480546040516370a0823160e01b81526000926001600160a01b03909216916370a0823191611e5d91309101612ab3565b60206040518083038186803b158015611e7557600080fd5b505afa158015611e89573d6000803e3d6000fd5b505050506040513d601f19601f82011682018060405250810190611a1491906129e3565b6006546000906001600160a01b03163314611eda5760405162461bcd60e51b81526004016108f590612bf8565b611ee382612289565b50600480546040516370a0823160e01b81526001600160a01b03909116916370a0823191611f1391309101612ab3565b60206040518083038186803b158015611f2b57600080fd5b505afa158015611f3f573d6000803e3d6000fd5b505050506040513d601f19601f82011682018060405250810190611f6391906129e3565b60065460048054604051636535246160e11b81529394506000936001600160a01b039384169363ca6a48c293611f9d939091169101612ab3565b60206040518083038186803b158015611fb557600080fd5b505afa158015611fc9573d6000803e3d6000fd5b505050506040513d601f19601f82011682018060405250810190611fed9190612873565b90506001600160a01b0381166120155760405162461bcd60e51b81526004016108f590612cdb565b600454612032906001600160a01b0316828463ffffffff61239c16565b50919050565b7369eb4fa4a2fbd498c257c57ea8b7655a2559a58181565b6008546001600160a01b0316331461207a5760405162461bcd60e51b81526004016108f590612d7a565b600155565b6005546001600160a01b031633146120a95760405162461bcd60e51b81526004016108f590612bb2565b600780546001600160a01b0319166001600160a01b0392909216919091179055565b600480546040516370a0823160e01b81526000926001600160a01b03909216916370a08231916120fd91309101612ab3565b60206040518083038186803b15801561211557600080fd5b505afa158015612129573d6000803e3d6000fd5b505050506040513d601f19601f8201168201806040525081019061214d91906129e3565b9050801561221d57600454612187906001600160a01b03167306633cd8e46c3048621a517d6bb5f0a84b4919c6600063ffffffff6125c116565b6004546121b8906001600160a01b03167306633cd8e46c3048621a517d6bb5f0a84b4919c68363ffffffff6125c116565b60405163b6b55f2560e01b81527306633cd8e46c3048621a517d6bb5f0a84b4919c69063b6b55f25906121ef908490600401612df3565b600060405180830381600087803b15801561220957600080fd5b505af1158015610e41573d6000803e3d6000fd5b50565b6008546001600160a01b031681565b6006546001600160a01b031681565b600061228083836040518060400160405280601e81526020017f536166654d6174683a207375627472616374696f6e206f766572666c6f770000815250612684565b90505b92915050565b604051632e1a7d4d60e01b81526000907306633cd8e46c3048621a517d6bb5f0a84b4919c690632e1a7d4d906122c3908590600401612df3565b600060405180830381600087803b1580156122dd57600080fd5b505af11580156122f1573d6000803e3d6000fd5b5093949350505050565b6000828201838110156122805760405162461bcd60e51b81526004016108f590612c1d565b60008261232f57506000612283565b8282028284828161233c57fe5b04146122805760405162461bcd60e51b81526004016108f590612c9a565b600061228083836040518060400160405280601a81526020017f536166654d6174683a206469766973696f6e206279207a65726f0000000000008152506126b0565b6109608363a9059cbb60e01b84846040516024016123bb929190612b3d565b60408051601f198184030181529190526020810180516001600160e01b03166001600160e01b0319909316929092179091526126e7565b600480546040516370a0823160e01b81526000926001600160a01b03909216916370a082319161242491309101612ab3565b60206040518083038186803b15801561243c57600080fd5b505afa158015612450573d6000803e3d6000fd5b505050506040513d601f19601f8201168201806040525081019061247491906129e3565b9050801561221d57600654604080516361d027b360e01b81529051612515926001600160a01b0316916361d027b3916004808301926020929190829003018186803b1580156124c257600080fd5b505afa1580156124d6573d6000803e3d6000fd5b505050506040513d601f19601f820116820180604052508101906124fa9190612873565b610e28612710610c356000548661232090919063ffffffff16565b60065460408051638d8f1e6760e01b815290516125ae926001600160a01b031691638d8f1e67916004808301926020929190829003018186803b15801561255b57600080fd5b505afa15801561256f573d6000803e3d6000fd5b505050506040513d601f19601f820116820180604052508101906125939190612873565b610e28612710610c356001548661232090919063ffffffff16565b61221d6120cb565b61221d610bfd610965565b8015806126495750604051636eb1769f60e11b81526001600160a01b0384169063dd62ed3e906125f79030908690600401612ac7565b60206040518083038186803b15801561260f57600080fd5b505afa158015612623573d6000803e3d6000fd5b505050506040513d601f19601f8201168201806040525081019061264791906129e3565b155b6126655760405162461bcd60e51b81526004016108f590612d9d565b6109608363095ea7b360e01b84846040516024016123bb929190612b3d565b600081848411156126a85760405162461bcd60e51b81526004016108f59190612b9f565b505050900390565b600081836126d15760405162461bcd60e51b81526004016108f59190612b9f565b5060008385816126dd57fe5b0495945050505050565b606061273c826040518060400160405280602081526020017f5361666545524332303a206c6f772d6c6576656c2063616c6c206661696c6564815250856001600160a01b03166127769092919063ffffffff16565b805190915015610960578080602001905181019061275a91906129ab565b6109605760405162461bcd60e51b81526004016108f590612d30565b6060612785848460008561278d565b949350505050565b606061279885612851565b6127b45760405162461bcd60e51b81526004016108f590612cf9565b60006060866001600160a01b031685876040516127d19190612a97565b60006040518083038185875af1925050503d806000811461280e576040519150601f19603f3d011682016040523d82523d6000602084013e612813565b606091505b509150915081156128275791506127859050565b8051156128375780518082602001fd5b8360405162461bcd60e51b81526004016108f59190612b9f565b3b151590565b600060208284031215612868578081fd5b813561228081612e42565b600060208284031215612884578081fd5b815161228081612e42565b600080604083850312156128a1578081fd5b82356128ac81612e42565b9150602083013567ffffffffffffffff808211156128c8578283fd5b81850186601f8201126128d9578384fd5b80359250818311156128e9578384fd5b604051601f8401601f191681016020018381118282101715612909578586fd5b604052838152818401602001881015612920578485fd5b612931846020830160208501612e0a565b809450505050509250929050565b60008060208385031215612951578182fd5b823567ffffffffffffffff80821115612968578384fd5b81850186601f820112612979578485fd5b8035925081831115612989578485fd5b866020808502830101111561299c578485fd5b60200196919550909350505050565b6000602082840312156129bc578081fd5b81518015158114612280578182fd5b6000602082840312156129dc578081fd5b5035919050565b6000602082840312156129f4578081fd5b5051919050565b600080600060608486031215612a0f578081fd5b8351925060208401519150604084015190509250925092565b6000815180845260208085019450808401835b83811015612a605781516001600160a01b031687529582019590820190600101612a3b565b509495945050505050565b60008151808452612a83816020860160208601612e16565b601f01601f19169290920160200192915050565b60008251612aa9818460208701612e16565b9190910192915050565b6001600160a01b0391909116815260200190565b6001600160a01b0392831681529116602082015260400190565b6001600160a01b03898116825288166020820152604081018790526060810186905261010060808201819052600090612b1c83820188612a28565b60a0840196909652505091151560c083015260e09091015295945050505050565b6001600160a01b03929092168252602082015260400190565b6001600160a01b03979097168752602087019590955260408601939093526060850191909152608084015260ff1660a083015260c082015260e00190565b901515815260200190565b6000602082526122806020830184612a6b565b6020808252600b908201526a21676f7665726e616e636560a81b604082015260600190565b602080825260079082015266085d185c99d95d60ca1b604082015260600190565b6020808252600b908201526a10b1b7b73a3937b63632b960a91b604082015260600190565b6020808252601b908201527f536166654d6174683a206164646974696f6e206f766572666c6f770000000000604082015260600190565b6020808252600490820152631dd85b9d60e21b604082015260600190565b6020808252600e908201526d1b9bdd08185d5d1a1bdc9a5e995960921b604082015260600190565b60208082526021908201527f536166654d6174683a206d756c7469706c69636174696f6e206f766572666c6f6040820152607760f81b606082015260800190565b60208082526004908201526310b530b960e11b604082015260600190565b6020808252601d908201527f416464726573733a2063616c6c20746f206e6f6e2d636f6e7472616374000000604082015260600190565b6020808252602a908201527f5361666545524332303a204552433230206f7065726174696f6e20646964206e6040820152691bdd081cdd58d8d9595960b21b606082015260800190565b6020808252600990820152682174696d656c6f636b60b81b604082015260600190565b60208082526036908201527f5361666545524332303a20617070726f76652066726f6d206e6f6e2d7a65726f60408201527520746f206e6f6e2d7a65726f20616c6c6f77616e636560501b606082015260800190565b90815260200190565b918252602082015260400190565b82818337506000910152565b60005b83811015612e31578181015183820152602001612e19565b8381111561188d5750506000910152565b6001600160a01b038116811461221d57600080fdfea264697066735822122096964c5a52e88d7de21f5aa7346795d573ed6ee4eafc007ff0630c325ff955d164736f6c63430006070033",
    "sourcePath": "/home/magic/Documents/WorkSpace/picke-finance/protocol/src/strategies/arbitrum/dodo/strategy-dodo-mcb-usdc.sol",
    "compiler": {
        "name": "solc",
        "version": "0.6.7+commit.b8d736ae"
    },
    "functionHashes": {
        "balanceOf()": "722713f7",
        "balanceOfPool()": "11588086",
        "balanceOfWant()": "c1a3d44c",
        "controller()": "f77c4791",
        "deposit()": "d0e30db0",
        "dodo()": "c64bca29",
        "dodoSwap()": "885375f7",
        "dodoUsdcPair()": "2a951451",
        "dodo_approve()": "5fa82374",
        "dodo_mcb_usdc_lp()": "60f33cfe",
        "execute(address,bytes)": "1cff79cd",
        "getHarvestable()": "0547104d",
        "getName()": "17d7de7c",
        "governance()": "5aa6e675",
        "harvest()": "4641257d",
        "harvesters(address)": "87976583",
        "mcb()": "81192eb7",
        "mcbUsdcRoute(uint256)": "ac78dcfa",
        "performanceDevFee()": "88993f22",
        "performanceDevMax()": "4fe809cc",
        "performanceTreasuryFee()": "59739ec4",
        "performanceTreasuryMax()": "26e886c6",
        "revokeHarvesters(address[])": "b1f55bd4",
        "rewards()": "9ec5a894",
        "setController(address)": "92eefe9b",
        "setGovernance(address)": "ab033ea9",
        "setPerformanceDevFee(uint256)": "c65e3242",
        "setPerformanceTreasuryFee(uint256)": "249fb9b4",
        "setStrategist(address)": "c7b9d530",
        "setTimelock(address)": "bdacb303",
        "setWithdrawalDevFundFee(uint256)": "ab73e433",
        "setWithdrawalTreasuryFee(uint256)": "82378594",
        "strategist()": "1fe4a686",
        "sushiRouter()": "6d13582c",
        "timelock()": "d33219b4",
        "usdc()": "3e413bee",
        "usdcEthPair()": "a38ae7a7",
        "want()": "1f1fcd51",
        "weth()": "3fc8cef3",
        "whitelistHarvesters(address[])": "0e364fb6",
        "withdraw(address)": "51cff8d9",
        "withdraw(uint256)": "2e1a7d4d",
        "withdrawAll()": "853828b6",
        "withdrawForSwap(uint256)": "c6223e26",
        "withdrawalDevFundFee()": "51f3d0b8",
        "withdrawalDevFundMax()": "479119be",
        "withdrawalTreasuryFee()": "8ccdbb70",
        "withdrawalTreasuryMax()": "fe1f8f7a"
    },
    "gasEstimates": {
        "creation": {
            "codeDepositCost": "2383400",
            "executionCost": "infinite",
            "totalCost": "infinite"
        },
        "external": {
            "balanceOf()": "infinite",
            "balanceOfPool()": "infinite",
            "balanceOfWant()": "infinite",
            "controller()": "1202",
            "deposit()": "infinite",
            "dodo()": "407",
            "dodoSwap()": "386",
            "dodoUsdcPair()": "364",
            "dodo_approve()": "341",
            "dodo_mcb_usdc_lp()": "363",
            "execute(address,bytes)": "infinite",
            "getHarvestable()": "infinite",
            "getName()": "infinite",
            "governance()": "1137",
            "harvest()": "infinite",
            "harvesters(address)": "1374",
            "mcb()": "298",
            "mcbUsdcRoute(uint256)": "2083",
            "performanceDevFee()": "1184",
            "performanceDevMax()": "340",
            "performanceTreasuryFee()": "1073",
            "performanceTreasuryMax()": "318",
            "revokeHarvesters(address[])": "infinite",
            "rewards()": "341",
            "setController(address)": "22076",
            "setGovernance(address)": "22142",
            "setPerformanceDevFee(uint256)": "21108",
            "setPerformanceTreasuryFee(uint256)": "21132",
            "setStrategist(address)": "22075",
            "setTimelock(address)": "22098",
            "setWithdrawalDevFundFee(uint256)": "21219",
            "setWithdrawalTreasuryFee(uint256)": "21132",
            "strategist()": "1116",
            "sushiRouter()": "1203",
            "timelock()": "1180",
            "usdc()": "408",
            "usdcEthPair()": "363",
            "want()": "1227",
            "weth()": "298",
            "whitelistHarvesters(address[])": "infinite",
            "withdraw(address)": "infinite",
            "withdraw(uint256)": "infinite",
            "withdrawAll()": "infinite",
            "withdrawForSwap(uint256)": "infinite",
            "withdrawalDevFundFee()": "1184",
            "withdrawalDevFundMax()": "318",
            "withdrawalTreasuryFee()": "1073",
            "withdrawalTreasuryMax()": "382"
        },
        "internal": {
            "_withdrawSome(uint256)": "infinite"
        }
    }
}