{
    "contractName": "StrategyDodoDodoUsdcLp",
    "abi": [
        {
            "inputs": [
                {
                    "internalType": "address",
                    "name": "_governance",
                    "type": "address"
                },
                {
                    "internalType": "address",
                    "name": "_strategist",
                    "type": "address"
                },
                {
                    "internalType": "address",
                    "name": "_controller",
                    "type": "address"
                },
                {
                    "internalType": "address",
                    "name": "_timelock",
                    "type": "address"
                }
            ],
            "stateMutability": "nonpayable",
            "type": "constructor"
        },
        {
            "inputs": [],
            "name": "balanceOf",
            "outputs": [
                {
                    "internalType": "uint256",
                    "name": "",
                    "type": "uint256"
                }
            ],
            "stateMutability": "view",
            "type": "function"
        },
        {
            "inputs": [],
            "name": "balanceOfPool",
            "outputs": [
                {
                    "internalType": "uint256",
                    "name": "",
                    "type": "uint256"
                }
            ],
            "stateMutability": "view",
            "type": "function"
        },
        {
            "inputs": [],
            "name": "balanceOfWant",
            "outputs": [
                {
                    "internalType": "uint256",
                    "name": "",
                    "type": "uint256"
                }
            ],
            "stateMutability": "view",
            "type": "function"
        },
        {
            "inputs": [],
            "name": "controller",
            "outputs": [
                {
                    "internalType": "address",
                    "name": "",
                    "type": "address"
                }
            ],
            "stateMutability": "view",
            "type": "function"
        },
        {
            "inputs": [],
            "name": "deposit",
            "outputs": [],
            "stateMutability": "nonpayable",
            "type": "function"
        },
        {
            "inputs": [],
            "name": "dodo",
            "outputs": [
                {
                    "internalType": "address",
                    "name": "",
                    "type": "address"
                }
            ],
            "stateMutability": "view",
            "type": "function"
        },
        {
            "inputs": [
                {
                    "internalType": "uint256",
                    "name": "",
                    "type": "uint256"
                }
            ],
            "name": "dodoEthAdapters",
            "outputs": [
                {
                    "internalType": "address",
                    "name": "",
                    "type": "address"
                }
            ],
            "stateMutability": "view",
            "type": "function"
        },
        {
            "inputs": [
                {
                    "internalType": "uint256",
                    "name": "",
                    "type": "uint256"
                }
            ],
            "name": "dodoEthPairs",
            "outputs": [
                {
                    "internalType": "address",
                    "name": "",
                    "type": "address"
                }
            ],
            "stateMutability": "view",
            "type": "function"
        },
        {
            "inputs": [
                {
                    "internalType": "uint256",
                    "name": "",
                    "type": "uint256"
                }
            ],
            "name": "dodoEthSwapTo",
            "outputs": [
                {
                    "internalType": "address",
                    "name": "",
                    "type": "address"
                }
            ],
            "stateMutability": "view",
            "type": "function"
        },
        {
            "inputs": [],
            "name": "dodoSwap",
            "outputs": [
                {
                    "internalType": "address",
                    "name": "",
                    "type": "address"
                }
            ],
            "stateMutability": "view",
            "type": "function"
        },
        {
            "inputs": [],
            "name": "dodoUsdcPair",
            "outputs": [
                {
                    "internalType": "address",
                    "name": "",
                    "type": "address"
                }
            ],
            "stateMutability": "view",
            "type": "function"
        },
        {
            "inputs": [
                {
                    "internalType": "uint256",
                    "name": "",
                    "type": "uint256"
                }
            ],
            "name": "dodoUsdcRoute",
            "outputs": [
                {
                    "internalType": "address",
                    "name": "",
                    "type": "address"
                }
            ],
            "stateMutability": "view",
            "type": "function"
        },
        {
            "inputs": [],
            "name": "dodo_approve",
            "outputs": [
                {
                    "internalType": "address",
                    "name": "",
                    "type": "address"
                }
            ],
            "stateMutability": "view",
            "type": "function"
        },
        {
            "inputs": [],
            "name": "dodo_dodo_usdc_lp",
            "outputs": [
                {
                    "internalType": "address",
                    "name": "",
                    "type": "address"
                }
            ],
            "stateMutability": "view",
            "type": "function"
        },
        {
            "inputs": [
                {
                    "internalType": "address",
                    "name": "_target",
                    "type": "address"
                },
                {
                    "internalType": "bytes",
                    "name": "_data",
                    "type": "bytes"
                }
            ],
            "name": "execute",
            "outputs": [
                {
                    "internalType": "bytes",
                    "name": "response",
                    "type": "bytes"
                }
            ],
            "stateMutability": "payable",
            "type": "function"
        },
        {
            "inputs": [],
            "name": "getHarvestable",
            "outputs": [
                {
                    "internalType": "uint256",
                    "name": "",
                    "type": "uint256"
                }
            ],
            "stateMutability": "view",
            "type": "function"
        },
        {
            "inputs": [],
            "name": "getName",
            "outputs": [
                {
                    "internalType": "string",
                    "name": "",
                    "type": "string"
                }
            ],
            "stateMutability": "pure",
            "type": "function"
        },
        {
            "inputs": [],
            "name": "governance",
            "outputs": [
                {
                    "internalType": "address",
                    "name": "",
                    "type": "address"
                }
            ],
            "stateMutability": "view",
            "type": "function"
        },
        {
            "inputs": [],
            "name": "harvest",
            "outputs": [],
            "stateMutability": "nonpayable",
            "type": "function"
        },
        {
            "inputs": [
                {
                    "internalType": "address",
                    "name": "",
                    "type": "address"
                }
            ],
            "name": "harvesters",
            "outputs": [
                {
                    "internalType": "bool",
                    "name": "",
                    "type": "bool"
                }
            ],
            "stateMutability": "view",
            "type": "function"
        },
        {
            "inputs": [],
            "name": "performanceDevFee",
            "outputs": [
                {
                    "internalType": "uint256",
                    "name": "",
                    "type": "uint256"
                }
            ],
            "stateMutability": "view",
            "type": "function"
        },
        {
            "inputs": [],
            "name": "performanceDevMax",
            "outputs": [
                {
                    "internalType": "uint256",
                    "name": "",
                    "type": "uint256"
                }
            ],
            "stateMutability": "view",
            "type": "function"
        },
        {
            "inputs": [],
            "name": "performanceTreasuryFee",
            "outputs": [
                {
                    "internalType": "uint256",
                    "name": "",
                    "type": "uint256"
                }
            ],
            "stateMutability": "view",
            "type": "function"
        },
        {
            "inputs": [],
            "name": "performanceTreasuryMax",
            "outputs": [
                {
                    "internalType": "uint256",
                    "name": "",
                    "type": "uint256"
                }
            ],
            "stateMutability": "view",
            "type": "function"
        },
        {
            "inputs": [
                {
                    "internalType": "address[]",
                    "name": "_harvesters",
                    "type": "address[]"
                }
            ],
            "name": "revokeHarvesters",
            "outputs": [],
            "stateMutability": "nonpayable",
            "type": "function"
        },
        {
            "inputs": [],
            "name": "rewards",
            "outputs": [
                {
                    "internalType": "address",
                    "name": "",
                    "type": "address"
                }
            ],
            "stateMutability": "view",
            "type": "function"
        },
        {
            "inputs": [
                {
                    "internalType": "address",
                    "name": "_controller",
                    "type": "address"
                }
            ],
            "name": "setController",
            "outputs": [],
            "stateMutability": "nonpayable",
            "type": "function"
        },
        {
            "inputs": [
                {
                    "internalType": "address",
                    "name": "_governance",
                    "type": "address"
                }
            ],
            "name": "setGovernance",
            "outputs": [],
            "stateMutability": "nonpayable",
            "type": "function"
        },
        {
            "inputs": [
                {
                    "internalType": "uint256",
                    "name": "_performanceDevFee",
                    "type": "uint256"
                }
            ],
            "name": "setPerformanceDevFee",
            "outputs": [],
            "stateMutability": "nonpayable",
            "type": "function"
        },
        {
            "inputs": [
                {
                    "internalType": "uint256",
                    "name": "_performanceTreasuryFee",
                    "type": "uint256"
                }
            ],
            "name": "setPerformanceTreasuryFee",
            "outputs": [],
            "stateMutability": "nonpayable",
            "type": "function"
        },
        {
            "inputs": [
                {
                    "internalType": "address",
                    "name": "_strategist",
                    "type": "address"
                }
            ],
            "name": "setStrategist",
            "outputs": [],
            "stateMutability": "nonpayable",
            "type": "function"
        },
        {
            "inputs": [
                {
                    "internalType": "address",
                    "name": "_timelock",
                    "type": "address"
                }
            ],
            "name": "setTimelock",
            "outputs": [],
            "stateMutability": "nonpayable",
            "type": "function"
        },
        {
            "inputs": [
                {
                    "internalType": "uint256",
                    "name": "_withdrawalDevFundFee",
                    "type": "uint256"
                }
            ],
            "name": "setWithdrawalDevFundFee",
            "outputs": [],
            "stateMutability": "nonpayable",
            "type": "function"
        },
        {
            "inputs": [
                {
                    "internalType": "uint256",
                    "name": "_withdrawalTreasuryFee",
                    "type": "uint256"
                }
            ],
            "name": "setWithdrawalTreasuryFee",
            "outputs": [],
            "stateMutability": "nonpayable",
            "type": "function"
        },
        {
            "inputs": [],
            "name": "strategist",
            "outputs": [
                {
                    "internalType": "address",
                    "name": "",
                    "type": "address"
                }
            ],
            "stateMutability": "view",
            "type": "function"
        },
        {
            "inputs": [],
            "name": "sushiRouter",
            "outputs": [
                {
                    "internalType": "address",
                    "name": "",
                    "type": "address"
                }
            ],
            "stateMutability": "view",
            "type": "function"
        },
        {
            "inputs": [],
            "name": "timelock",
            "outputs": [
                {
                    "internalType": "address",
                    "name": "",
                    "type": "address"
                }
            ],
            "stateMutability": "view",
            "type": "function"
        },
        {
            "inputs": [],
            "name": "usdc",
            "outputs": [
                {
                    "internalType": "address",
                    "name": "",
                    "type": "address"
                }
            ],
            "stateMutability": "view",
            "type": "function"
        },
        {
            "inputs": [],
            "name": "want",
            "outputs": [
                {
                    "internalType": "address",
                    "name": "",
                    "type": "address"
                }
            ],
            "stateMutability": "view",
            "type": "function"
        },
        {
            "inputs": [],
            "name": "weth",
            "outputs": [
                {
                    "internalType": "address",
                    "name": "",
                    "type": "address"
                }
            ],
            "stateMutability": "view",
            "type": "function"
        },
        {
            "inputs": [
                {
                    "internalType": "address[]",
                    "name": "_harvesters",
                    "type": "address[]"
                }
            ],
            "name": "whitelistHarvesters",
            "outputs": [],
            "stateMutability": "nonpayable",
            "type": "function"
        },
        {
            "inputs": [
                {
                    "internalType": "uint256",
                    "name": "_amount",
                    "type": "uint256"
                }
            ],
            "name": "withdraw",
            "outputs": [],
            "stateMutability": "nonpayable",
            "type": "function"
        },
        {
            "inputs": [
                {
                    "internalType": "contract IERC20",
                    "name": "_asset",
                    "type": "address"
                }
            ],
            "name": "withdraw",
            "outputs": [
                {
                    "internalType": "uint256",
                    "name": "balance",
                    "type": "uint256"
                }
            ],
            "stateMutability": "nonpayable",
            "type": "function"
        },
        {
            "inputs": [],
            "name": "withdrawAll",
            "outputs": [
                {
                    "internalType": "uint256",
                    "name": "balance",
                    "type": "uint256"
                }
            ],
            "stateMutability": "nonpayable",
            "type": "function"
        },
        {
            "inputs": [
                {
                    "internalType": "uint256",
                    "name": "_amount",
                    "type": "uint256"
                }
            ],
            "name": "withdrawForSwap",
            "outputs": [
                {
                    "internalType": "uint256",
                    "name": "balance",
                    "type": "uint256"
                }
            ],
            "stateMutability": "nonpayable",
            "type": "function"
        },
        {
            "inputs": [],
            "name": "withdrawalDevFundFee",
            "outputs": [
                {
                    "internalType": "uint256",
                    "name": "",
                    "type": "uint256"
                }
            ],
            "stateMutability": "view",
            "type": "function"
        },
        {
            "inputs": [],
            "name": "withdrawalDevFundMax",
            "outputs": [
                {
                    "internalType": "uint256",
                    "name": "",
                    "type": "uint256"
                }
            ],
            "stateMutability": "view",
            "type": "function"
        },
        {
            "inputs": [],
            "name": "withdrawalTreasuryFee",
            "outputs": [
                {
                    "internalType": "uint256",
                    "name": "",
                    "type": "uint256"
                }
            ],
            "stateMutability": "view",
            "type": "function"
        },
        {
            "inputs": [],
            "name": "withdrawalTreasuryMax",
            "outputs": [
                {
                    "internalType": "uint256",
                    "name": "",
                    "type": "uint256"
                }
            ],
            "stateMutability": "view",
            "type": "function"
        }
    ],
    "bytecode": "6107d0600090815560018181556002829055600391909155600980546001600160a01b031916731b02da8cb0d097eb8d57a175b88c7d8b4799750617905560a0604052736a58c68ff5c4e4d90eb6561449cc74a64f818da560809081526200006b91600e9190620002ba565b503480156200007957600080fd5b5060405162002eaf38038062002eaf8339810160408190526200009c916200036c565b736a58c68ff5c4e4d90eb6561449cc74a64f818da5848484846001600160a01b038416620000c957600080fd5b6001600160a01b038316620000dd57600080fd5b6001600160a01b038216620000f157600080fd5b6001600160a01b0381166200010557600080fd5b600480546001600160a01b03199081166001600160a01b0397881617825560058054821696881696909617909555600780548616948716949094179093556006805485169286169290921790915560088054909316931692909217905560405163095ea7b360e01b81527369eb4fa4a2fbd498c257c57ea8b7655a2559a5819163095ea7b391620001b19173a867241cdc8d3b0c07c85cc06f25a0cd3b5474d8916000199101620003f5565b602060405180830381600087803b158015620001cc57600080fd5b505af1158015620001e1573d6000803e3d6000fd5b505050506040513d601f19601f82011682018060405250810190620002079190620003cc565b5060405163095ea7b360e01b815273ff970a61a04b1ca14834a43f5de4533ebddb5cc89063095ea7b390620002599073a867241cdc8d3b0c07c85cc06f25a0cd3b5474d89060001990600401620003f5565b602060405180830381600087803b1580156200027457600080fd5b505af115801562000289573d6000803e3d6000fd5b505050506040513d601f19601f82011682018060405250810190620002af9190620003cc565b50505050506200040e565b82805482825590600052602060002090810192821562000312579160200282015b828111156200031257825182546001600160a01b0319166001600160a01b03909116178255602090920191600190910190620002db565b506200032092915062000324565b5090565b6200034b91905b80821115620003205780546001600160a01b03191681556001016200032b565b90565b80516001600160a01b03811681146200036657600080fd5b92915050565b6000806000806080858703121562000382578384fd5b6200038e86866200034e565b93506200039f86602087016200034e565b9250620003b086604087016200034e565b9150620003c186606087016200034e565b905092959194509250565b600060208284031215620003de578081fd5b81518015158114620003ee578182fd5b9392505050565b6001600160a01b03929092168252602082015260400190565b612a91806200041e6000396000f3fe6080604052600436106102ae5760003560e01c80636d13582c11610175578063ab73e433116100dc578063c65e324211610095578063d33219b41161006f578063d33219b414610732578063d5138de114610747578063f77c479114610767578063fe1f8f7a1461048a576102ae565b8063c65e3242146106dd578063c7b9d530146106fd578063d0e30db01461071d576102ae565b8063ab73e43314610633578063b1f55bd414610653578063bdacb30314610673578063c1a3d44c14610693578063c6223e26146106a8578063c64bca29146106c8576102ae565b806388993f221161012e57806388993f22146105b45780638ccdbb70146105c95780638d59db83146103f657806392eefe9b146105de5780639ec5a894146105fe578063ab033ea914610613576102ae565b80636d13582c14610513578063722713f714610528578063823785941461053d578063853828b61461055d5780638797658314610572578063885375f71461059f576102ae565b80632e1a7d4d116102195780634fe809cc116101d25780634fe809cc146103e157806351cff8d91461049f57806351f3d0b8146104bf57806359739ec4146104d45780635aa6e675146104e95780635fa82374146104fe576102ae565b80632e1a7d4d1461040b57806335d188dd1461042b5780633e413bee1461044b5780633fc8cef3146104605780634641257d14610475578063479119be1461048a576102ae565b80631f1fcd511161026b5780631f1fcd51146103775780631fe4a6861461038c57806321b1fc4f146103a1578063249fb9b4146103c157806326e886c6146103e15780632a951451146103f6576102ae565b80630547104d146102b357806309f2423d146102de5780630e364fb61461030b578063115880861461032d57806317d7de7c146103425780631cff79cd14610364575b600080fd5b3480156102bf57600080fd5b506102c861077c565b6040516102d59190612a01565b60405180910390f35b3480156102ea57600080fd5b506102fe6102f93660046125ce565b610822565b6040516102d59190612686565b34801561031757600080fd5b5061032b610326366004612542565b610849565b005b34801561033957600080fd5b506102c8610912565b34801561034e57600080fd5b5061035761094e565b6040516102d591906127ad565b610357610372366004612492565b61097e565b34801561038357600080fd5b506102fe610a21565b34801561039857600080fd5b506102fe610a30565b3480156103ad57600080fd5b506102fe6103bc3660046125ce565b610a3f565b3480156103cd57600080fd5b5061032b6103dc3660046125ce565b610a4c565b3480156103ed57600080fd5b506102c8610a7b565b34801561040257600080fd5b506102fe610a81565b34801561041757600080fd5b5061032b6104263660046125ce565b610a99565b34801561043757600080fd5b506102fe6104463660046125ce565b610dad565b34801561045757600080fd5b506102fe610dba565b34801561046c57600080fd5b506102fe610dd2565b34801561048157600080fd5b5061032b610dea565b34801561049657600080fd5b506102c86114f8565b3480156104ab57600080fd5b506102c86104ba36600461245a565b6114ff565b3480156104cb57600080fd5b506102c86115fe565b3480156104e057600080fd5b506102c8611604565b3480156104f557600080fd5b506102fe61160a565b34801561050a57600080fd5b506102fe611619565b34801561051f57600080fd5b506102fe611631565b34801561053457600080fd5b506102c8611640565b34801561054957600080fd5b5061032b6105583660046125ce565b611666565b34801561056957600080fd5b506102c8611695565b34801561057e57600080fd5b5061059261058d36600461245a565b61181c565b6040516102d591906127a2565b3480156105ab57600080fd5b506102fe611831565b3480156105c057600080fd5b506102c8611849565b3480156105d557600080fd5b506102c861184f565b3480156105ea57600080fd5b5061032b6105f936600461245a565b611855565b34801561060a57600080fd5b506102fe6118a1565b34801561061f57600080fd5b5061032b61062e36600461245a565b6118b9565b34801561063f57600080fd5b5061032b61064e3660046125ce565b611905565b34801561065f57600080fd5b5061032b61066e366004612542565b611934565b34801561067f57600080fd5b5061032b61068e36600461245a565b6119d5565b34801561069f57600080fd5b506102c8611a21565b3480156106b457600080fd5b506102c86106c33660046125ce565b611aa3565b3480156106d457600080fd5b506102fe611c2e565b3480156106e957600080fd5b5061032b6106f83660046125ce565b611c46565b34801561070957600080fd5b5061032b61071836600461245a565b611c75565b34801561072957600080fd5b5061032b611cc1565b34801561073e57600080fd5b506102fe611e16565b34801561075357600080fd5b506102fe6107623660046125ce565b611e25565b34801561077357600080fd5b506102fe611e32565b6040516216d1e160e31b815260009081907338dbb42c4972116c88e27edfacd2451cf1b142559062b68f08906107cc9030907369eb4fa4a2fbd498c257c57ea8b7655a2559a5819060040161269a565b60206040518083038186803b1580156107e457600080fd5b505afa1580156107f8573d6000803e3d6000fd5b505050506040513d601f19601f8201168201806040525081019061081c91906125e6565b91505090565b600e818154811061082f57fe5b6000918252602090912001546001600160a01b0316905081565b6005546001600160a01b031633148061086c57506007546001600160a01b031633145b806108865750336000908152600a602052604090205460ff165b6108ab5760405162461bcd60e51b81526004016108a290612880565b60405180910390fd5b60005b8181101561090d576001600a60008585858181106108c857fe5b90506020020160208101906108dd919061245a565b6001600160a01b031681526020810191909152604001600020805460ff19169115159190911790556001016108ae565b505050565b6040516370a0823160e01b815260009081907338dbb42c4972116c88e27edfacd2451cf1b14255906370a08231906107cc903090600401612686565b60408051808201909152601681527505374726174656779446f646f446f646f557364634c760541b602082015290565b6008546060906001600160a01b031633146109ab5760405162461bcd60e51b81526004016108a290612988565b6001600160a01b0383166109d15760405162461bcd60e51b81526004016108a2906127e5565b600080835160208501866113885a03f43d6040519250601f19601f6020830101168301604052808352806000602085013e811560018114610a1157610a18565b8160208501fd5b50505092915050565b6004546001600160a01b031681565b6007546001600160a01b031681565b600d818154811061082f57fe5b6008546001600160a01b03163314610a765760405162461bcd60e51b81526004016108a290612988565b600055565b61271081565b736a58c68ff5c4e4d90eb6561449cc74a64f818da581565b6006546001600160a01b03163314610ac35760405162461bcd60e51b81526004016108a290612806565b600480546040516370a0823160e01b81526000926001600160a01b03909216916370a0823191610af591309101612686565b60206040518083038186803b158015610b0d57600080fd5b505afa158015610b21573d6000803e3d6000fd5b505050506040513d601f19601f82011682018060405250810190610b4591906125e6565b905081811015610b7c57610b67610b62838363ffffffff611e4116565b611e8c565b9150610b79828263ffffffff611efe16565b91505b6000610ba6620186a0610b9a60035486611f2390919063ffffffff16565b9063ffffffff611f5d16565b9050610c4a600660009054906101000a90046001600160a01b03166001600160a01b0316638d8f1e676040518163ffffffff1660e01b815260040160206040518083038186803b158015610bf957600080fd5b505afa158015610c0d573d6000803e3d6000fd5b505050506040513d601f19601f82011682018060405250810190610c319190612476565b6004546001600160a01b0316908363ffffffff611f9f16565b6000610c68620186a0610b9a60025487611f2390919063ffffffff16565b9050610cbb600660009054906101000a90046001600160a01b03166001600160a01b03166361d027b36040518163ffffffff1660e01b815260040160206040518083038186803b158015610bf957600080fd5b60065460048054604051636535246160e11b81526000936001600160a01b039081169363ca6a48c293610cf19392169101612686565b60206040518083038186803b158015610d0957600080fd5b505afa158015610d1d573d6000803e3d6000fd5b505050506040513d601f19601f82011682018060405250810190610d419190612476565b90506001600160a01b038116610d695760405162461bcd60e51b81526004016108a2906128e9565b610da681610d8d84610d81898863ffffffff611e4116565b9063ffffffff611e4116565b6004546001600160a01b0316919063ffffffff611f9f16565b5050505050565b600c818154811061082f57fe5b73ff970a61a04b1ca14834a43f5de4533ebddb5cc881565b7382af49447d8a07e3bd95bd0d56f35241523fbab181565b336000908152600a602052604090205460ff1680610e1257506005546001600160a01b031633145b80610e2757506007546001600160a01b031633145b610e3057600080fd5b7338dbb42c4972116c88e27edfacd2451cf1b142556001600160a01b0316630b83a7276040518163ffffffff1660e01b8152600401600060405180830381600087803b158015610e7f57600080fd5b505af1158015610e93573d6000803e3d6000fd5b50506040516370a0823160e01b8152600092507369eb4fa4a2fbd498c257c57ea8b7655a2559a58191506370a0823190610ed1903090600401612686565b60206040518083038186803b158015610ee957600080fd5b505afa158015610efd573d6000803e3d6000fd5b505050506040513d601f19601f82011682018060405250810190610f2191906125e6565b9050801561105c5760408051600180825281830190925260609160208083019080368337019050509050736a58c68ff5c4e4d90eb6561449cc74a64f818da581600081518110610f6d57fe5b6001600160a01b03909216602092830291909101909101527388cbf433471a0cd8240d2a12354362988b4593e563f87dc1b77369eb4fa4a2fbd498c257c57ea8b7655a2559a58173ff970a61a04b1ca14834a43f5de4533ebddb5cc8610fda86600263ffffffff611f5d16565b60018660008042603c016040518963ffffffff1660e01b81526004016110079897969594939291906126b4565b602060405180830381600087803b15801561102157600080fd5b505af1158015611035573d6000803e3d6000fd5b505050506040513d601f19601f8201168201806040525081019061105991906125e6565b50505b6040516370a0823160e01b81527369eb4fa4a2fbd498c257c57ea8b7655a2559a581906370a0823190611093903090600401612686565b60206040518083038186803b1580156110ab57600080fd5b505afa1580156110bf573d6000803e3d6000fd5b505050506040513d601f19601f820116820180604052508101906110e391906125e6565b6040516370a0823160e01b815290915060009073ff970a61a04b1ca14834a43f5de4533ebddb5cc8906370a0823190611120903090600401612686565b60206040518083038186803b15801561113857600080fd5b505afa15801561114c573d6000803e3d6000fd5b505050506040513d601f19601f8201168201806040525081019061117091906125e6565b90506000821180156111825750600081115b156114ec576040516333a6ca1160e11b81527388cbf433471a0cd8240d2a12354362988b4593e59063674d9422906111e390736a58c68ff5c4e4d90eb6561449cc74a64f818da590869086906001908190600090603c420190600401612764565b606060405180830381600087803b1580156111fd57600080fd5b505af1158015611211573d6000803e3d6000fd5b505050506040513d601f19601f8201168201806040525081019061123591906125fe565b5050600654604080516361d027b360e01b815290517369eb4fa4a2fbd498c257c57ea8b7655a2559a581935063a9059cbb926001600160a01b0316916361d027b3916004808301926020929190829003018186803b15801561129657600080fd5b505afa1580156112aa573d6000803e3d6000fd5b505050506040513d601f19601f820116820180604052508101906112ce9190612476565b6040516370a0823160e01b81527369eb4fa4a2fbd498c257c57ea8b7655a2559a581906370a0823190611305903090600401612686565b60206040518083038186803b15801561131d57600080fd5b505afa158015611331573d6000803e3d6000fd5b505050506040513d601f19601f8201168201806040525081019061135591906125e6565b6040518363ffffffff1660e01b815260040161137292919061274b565b602060405180830381600087803b15801561138c57600080fd5b505af11580156113a0573d6000803e3d6000fd5b505050506040513d601f19601f820116820180604052508101906113c491906125ae565b50600654604080516361d027b360e01b815290516114ec926001600160a01b0316916361d027b3916004808301926020929190829003018186803b15801561140b57600080fd5b505afa15801561141f573d6000803e3d6000fd5b505050506040513d601f19601f820116820180604052508101906114439190612476565b6040516370a0823160e01b815273ff970a61a04b1ca14834a43f5de4533ebddb5cc8906370a082319061147a903090600401612686565b60206040518083038186803b15801561149257600080fd5b505afa1580156114a6573d6000803e3d6000fd5b505050506040513d601f19601f820116820180604052508101906114ca91906125e6565b73ff970a61a04b1ca14834a43f5de4533ebddb5cc8919063ffffffff611f9f16565b6114f4611ff5565b5050565b620186a081565b6006546000906001600160a01b0316331461152c5760405162461bcd60e51b81526004016108a290612806565b6004546001600160a01b038381169116141561155a5760405162461bcd60e51b81526004016108a290612862565b6040516370a0823160e01b81526001600160a01b038316906370a0823190611586903090600401612686565b60206040518083038186803b15801561159e57600080fd5b505afa1580156115b2573d6000803e3d6000fd5b505050506040513d601f19601f820116820180604052508101906115d691906125e6565b6006549091506115f9906001600160a01b0384811691168363ffffffff611f9f16565b919050565b60035481565b60005481565b6005546001600160a01b031681565b73a867241cdc8d3b0c07c85cc06f25a0cd3b5474d881565b6009546001600160a01b031681565b600061166161164d610912565b611655611a21565b9063ffffffff611efe16565b905090565b6008546001600160a01b031633146116905760405162461bcd60e51b81526004016108a290612988565b600255565b6006546000906001600160a01b031633146116c25760405162461bcd60e51b81526004016108a290612806565b6116ca6121b9565b600480546040516370a0823160e01b81526001600160a01b03909116916370a08231916116f991309101612686565b60206040518083038186803b15801561171157600080fd5b505afa158015611725573d6000803e3d6000fd5b505050506040513d601f19601f8201168201806040525081019061174991906125e6565b60065460048054604051636535246160e11b81529394506000936001600160a01b039384169363ca6a48c293611783939091169101612686565b60206040518083038186803b15801561179b57600080fd5b505afa1580156117af573d6000803e3d6000fd5b505050506040513d601f19601f820116820180604052508101906117d39190612476565b90506001600160a01b0381166117fb5760405162461bcd60e51b81526004016108a2906128e9565b600454611818906001600160a01b0316828463ffffffff611f9f16565b5090565b600a6020526000908152604090205460ff1681565b7388cbf433471a0cd8240d2a12354362988b4593e581565b60015481565b60025481565b6008546001600160a01b0316331461187f5760405162461bcd60e51b81526004016108a290612988565b600680546001600160a01b0319166001600160a01b0392909216919091179055565b7338dbb42c4972116c88e27edfacd2451cf1b1425581565b6005546001600160a01b031633146118e35760405162461bcd60e51b81526004016108a2906127c0565b600580546001600160a01b0319166001600160a01b0392909216919091179055565b6008546001600160a01b0316331461192f5760405162461bcd60e51b81526004016108a290612988565b600355565b6005546001600160a01b031633148061195757506007546001600160a01b031633145b6119735760405162461bcd60e51b81526004016108a290612880565b60005b8181101561090d576000600a600085858581811061199057fe5b90506020020160208101906119a5919061245a565b6001600160a01b031681526020810191909152604001600020805460ff1916911515919091179055600101611976565b6008546001600160a01b031633146119ff5760405162461bcd60e51b81526004016108a290612988565b600880546001600160a01b0319166001600160a01b0392909216919091179055565b600480546040516370a0823160e01b81526000926001600160a01b03909216916370a0823191611a5391309101612686565b60206040518083038186803b158015611a6b57600080fd5b505afa158015611a7f573d6000803e3d6000fd5b505050506040513d601f19601f8201168201806040525081019061166191906125e6565b6006546000906001600160a01b03163314611ad05760405162461bcd60e51b81526004016108a290612806565b611ad982611e8c565b50600480546040516370a0823160e01b81526001600160a01b03909116916370a0823191611b0991309101612686565b60206040518083038186803b158015611b2157600080fd5b505afa158015611b35573d6000803e3d6000fd5b505050506040513d601f19601f82011682018060405250810190611b5991906125e6565b60065460048054604051636535246160e11b81529394506000936001600160a01b039384169363ca6a48c293611b93939091169101612686565b60206040518083038186803b158015611bab57600080fd5b505afa158015611bbf573d6000803e3d6000fd5b505050506040513d601f19601f82011682018060405250810190611be39190612476565b90506001600160a01b038116611c0b5760405162461bcd60e51b81526004016108a2906128e9565b600454611c28906001600160a01b0316828463ffffffff611f9f16565b50919050565b7369eb4fa4a2fbd498c257c57ea8b7655a2559a58181565b6008546001600160a01b03163314611c705760405162461bcd60e51b81526004016108a290612988565b600155565b6005546001600160a01b03163314611c9f5760405162461bcd60e51b81526004016108a2906127c0565b600780546001600160a01b0319166001600160a01b0392909216919091179055565b600480546040516370a0823160e01b81526000926001600160a01b03909216916370a0823191611cf391309101612686565b60206040518083038186803b158015611d0b57600080fd5b505afa158015611d1f573d6000803e3d6000fd5b505050506040513d601f19601f82011682018060405250810190611d4391906125e6565b90508015611e1357600454611d7d906001600160a01b03167338dbb42c4972116c88e27edfacd2451cf1b14255600063ffffffff6121c416565b600454611dae906001600160a01b03167338dbb42c4972116c88e27edfacd2451cf1b142558363ffffffff6121c416565b60405163b6b55f2560e01b81527338dbb42c4972116c88e27edfacd2451cf1b142559063b6b55f2590611de5908490600401612a01565b600060405180830381600087803b158015611dff57600080fd5b505af1158015610da6573d6000803e3d6000fd5b50565b6008546001600160a01b031681565b600b818154811061082f57fe5b6006546001600160a01b031681565b6000611e8383836040518060400160405280601e81526020017f536166654d6174683a207375627472616374696f6e206f766572666c6f770000815250612287565b90505b92915050565b604051632e1a7d4d60e01b81526000907338dbb42c4972116c88e27edfacd2451cf1b1425590632e1a7d4d90611ec6908590600401612a01565b600060405180830381600087803b158015611ee057600080fd5b505af1158015611ef4573d6000803e3d6000fd5b5093949350505050565b600082820183811015611e835760405162461bcd60e51b81526004016108a29061282b565b600082611f3257506000611e86565b82820282848281611f3f57fe5b0414611e835760405162461bcd60e51b81526004016108a2906128a8565b6000611e8383836040518060400160405280601a81526020017f536166654d6174683a206469766973696f6e206279207a65726f0000000000008152506122b3565b61090d8363a9059cbb60e01b8484604051602401611fbe92919061274b565b60408051601f198184030181529190526020810180516001600160e01b03166001600160e01b0319909316929092179091526122ea565b600480546040516370a0823160e01b81526000926001600160a01b03909216916370a082319161202791309101612686565b60206040518083038186803b15801561203f57600080fd5b505afa158015612053573d6000803e3d6000fd5b505050506040513d601f19601f8201168201806040525081019061207791906125e6565b90508015611e1357600654604080516361d027b360e01b81529051612118926001600160a01b0316916361d027b3916004808301926020929190829003018186803b1580156120c557600080fd5b505afa1580156120d9573d6000803e3d6000fd5b505050506040513d601f19601f820116820180604052508101906120fd9190612476565b610d8d612710610b9a60005486611f2390919063ffffffff16565b60065460408051638d8f1e6760e01b815290516121b1926001600160a01b031691638d8f1e67916004808301926020929190829003018186803b15801561215e57600080fd5b505afa158015612172573d6000803e3d6000fd5b505050506040513d601f19601f820116820180604052508101906121969190612476565b610d8d612710610b9a60015486611f2390919063ffffffff16565b611e13611cc1565b611e13610b62610912565b80158061224c5750604051636eb1769f60e11b81526001600160a01b0384169063dd62ed3e906121fa903090869060040161269a565b60206040518083038186803b15801561221257600080fd5b505afa158015612226573d6000803e3d6000fd5b505050506040513d601f19601f8201168201806040525081019061224a91906125e6565b155b6122685760405162461bcd60e51b81526004016108a2906129ab565b61090d8363095ea7b360e01b8484604051602401611fbe92919061274b565b600081848411156122ab5760405162461bcd60e51b81526004016108a291906127ad565b505050900390565b600081836122d45760405162461bcd60e51b81526004016108a291906127ad565b5060008385816122e057fe5b0495945050505050565b606061233f826040518060400160405280602081526020017f5361666545524332303a206c6f772d6c6576656c2063616c6c206661696c6564815250856001600160a01b03166123799092919063ffffffff16565b80519091501561090d578080602001905181019061235d91906125ae565b61090d5760405162461bcd60e51b81526004016108a29061293e565b60606123888484600085612390565b949350505050565b606061239b85612454565b6123b75760405162461bcd60e51b81526004016108a290612907565b60006060866001600160a01b031685876040516123d4919061266a565b60006040518083038185875af1925050503d8060008114612411576040519150601f19603f3d011682016040523d82523d6000602084013e612416565b606091505b5091509150811561242a5791506123889050565b80511561243a5780518082602001fd5b8360405162461bcd60e51b81526004016108a291906127ad565b3b151590565b60006020828403121561246b578081fd5b8135611e8381612a46565b600060208284031215612487578081fd5b8151611e8381612a46565b600080604083850312156124a4578081fd5b82356124af81612a46565b9150602083013567ffffffffffffffff808211156124cb578283fd5b81850186601f8201126124dc578384fd5b80359250818311156124ec578384fd5b604051601f8401601f19168101602001838111828210171561250c578586fd5b604052838152818401602001881015612523578485fd5b612534846020830160208501612a0a565b809450505050509250929050565b60008060208385031215612554578182fd5b823567ffffffffffffffff8082111561256b578384fd5b81850186601f82011261257c578485fd5b803592508183111561258c578485fd5b866020808502830101111561259f578485fd5b60200196919550909350505050565b6000602082840312156125bf578081fd5b81518015158114611e83578182fd5b6000602082840312156125df578081fd5b5035919050565b6000602082840312156125f7578081fd5b5051919050565b600080600060608486031215612612578081fd5b8351925060208401519150604084015190509250925092565b6001600160a01b03169052565b15159052565b60008151808452612656816020860160208601612a16565b601f01601f19169290920160200192915050565b6000825161267c818460208701612a16565b9190910192915050565b6001600160a01b0391909116815260200190565b6001600160a01b0392831681529116602082015260400190565b6001600160a01b0389811682528816602080830191909152604082018890526060820187905261010060808301819052865190830181905260009161012084019188820191845b8281101561271e5761270e85855161262b565b93810193928101926001016126fb565b5050505060a08301869052905061273860c0830185612638565b8260e08301529998505050505050505050565b6001600160a01b03929092168252602082015260400190565b6001600160a01b03979097168752602087019590955260408601939093526060850191909152608084015260ff1660a083015260c082015260e00190565b901515815260200190565b600060208252611e83602083018461263e565b6020808252600b908201526a21676f7665726e616e636560a81b604082015260600190565b602080825260079082015266085d185c99d95d60ca1b604082015260600190565b6020808252600b908201526a10b1b7b73a3937b63632b960a91b604082015260600190565b6020808252601b908201527f536166654d6174683a206164646974696f6e206f766572666c6f770000000000604082015260600190565b6020808252600490820152631dd85b9d60e21b604082015260600190565b6020808252600e908201526d1b9bdd08185d5d1a1bdc9a5e995960921b604082015260600190565b60208082526021908201527f536166654d6174683a206d756c7469706c69636174696f6e206f766572666c6f6040820152607760f81b606082015260800190565b60208082526004908201526310b530b960e11b604082015260600190565b6020808252601d908201527f416464726573733a2063616c6c20746f206e6f6e2d636f6e7472616374000000604082015260600190565b6020808252602a908201527f5361666545524332303a204552433230206f7065726174696f6e20646964206e6040820152691bdd081cdd58d8d9595960b21b606082015260800190565b6020808252600990820152682174696d656c6f636b60b81b604082015260600190565b60208082526036908201527f5361666545524332303a20617070726f76652066726f6d206e6f6e2d7a65726f60408201527520746f206e6f6e2d7a65726f20616c6c6f77616e636560501b606082015260800190565b90815260200190565b82818337506000910152565b60005b83811015612a31578181015183820152602001612a19565b83811115612a40576000848401525b50505050565b6001600160a01b0381168114611e1357600080fdfea2646970667358221220fec628038415ad939e548987a949a211a5929d52a1ac6d3f4c88fa0e8290dd0064736f6c63430006070033",
    "sourcePath": "/home/magic/Documents/WorkSpace/picke-finance/protocol/src/strategies/arbitrum/dodo/strategy-dodo-dodo-usdc-lp.sol",
    "compiler": {
        "name": "solc",
        "version": "0.6.7+commit.b8d736ae"
    },
    "functionHashes": {
        "balanceOf()": "722713f7",
        "balanceOfPool()": "11588086",
        "balanceOfWant()": "c1a3d44c",
        "controller()": "f77c4791",
        "deposit()": "d0e30db0",
        "dodo()": "c64bca29",
        "dodoEthAdapters(uint256)": "d5138de1",
        "dodoEthPairs(uint256)": "35d188dd",
        "dodoEthSwapTo(uint256)": "21b1fc4f",
        "dodoSwap()": "885375f7",
        "dodoUsdcPair()": "2a951451",
        "dodoUsdcRoute(uint256)": "09f2423d",
        "dodo_approve()": "5fa82374",
        "dodo_dodo_usdc_lp()": "8d59db83",
        "execute(address,bytes)": "1cff79cd",
        "getHarvestable()": "0547104d",
        "getName()": "17d7de7c",
        "governance()": "5aa6e675",
        "harvest()": "4641257d",
        "harvesters(address)": "87976583",
        "performanceDevFee()": "88993f22",
        "performanceDevMax()": "4fe809cc",
        "performanceTreasuryFee()": "59739ec4",
        "performanceTreasuryMax()": "26e886c6",
        "revokeHarvesters(address[])": "b1f55bd4",
        "rewards()": "9ec5a894",
        "setController(address)": "92eefe9b",
        "setGovernance(address)": "ab033ea9",
        "setPerformanceDevFee(uint256)": "c65e3242",
        "setPerformanceTreasuryFee(uint256)": "249fb9b4",
        "setStrategist(address)": "c7b9d530",
        "setTimelock(address)": "bdacb303",
        "setWithdrawalDevFundFee(uint256)": "ab73e433",
        "setWithdrawalTreasuryFee(uint256)": "82378594",
        "strategist()": "1fe4a686",
        "sushiRouter()": "6d13582c",
        "timelock()": "d33219b4",
        "usdc()": "3e413bee",
        "want()": "1f1fcd51",
        "weth()": "3fc8cef3",
        "whitelistHarvesters(address[])": "0e364fb6",
        "withdraw(address)": "51cff8d9",
        "withdraw(uint256)": "2e1a7d4d",
        "withdrawAll()": "853828b6",
        "withdrawForSwap(uint256)": "c6223e26",
        "withdrawalDevFundFee()": "51f3d0b8",
        "withdrawalDevFundMax()": "479119be",
        "withdrawalTreasuryFee()": "8ccdbb70",
        "withdrawalTreasuryMax()": "fe1f8f7a"
    },
    "gasEstimates": {
        "creation": {
            "codeDepositCost": "2179400",
            "executionCost": "infinite",
            "totalCost": "infinite"
        },
        "external": {
            "balanceOf()": "infinite",
            "balanceOfPool()": "infinite",
            "balanceOfWant()": "infinite",
            "controller()": "1180",
            "deposit()": "infinite",
            "dodo()": "407",
            "dodoEthAdapters(uint256)": "2126",
            "dodoEthPairs(uint256)": "2106",
            "dodoEthSwapTo(uint256)": "2128",
            "dodoSwap()": "408",
            "dodoUsdcPair()": "408",
            "dodoUsdcRoute(uint256)": "2107",
            "dodo_approve()": "407",
            "dodo_dodo_usdc_lp()": "341",
            "execute(address,bytes)": "infinite",
            "getHarvestable()": "infinite",
            "getName()": "infinite",
            "governance()": "1203",
            "harvest()": "infinite",
            "harvesters(address)": "1396",
            "performanceDevFee()": "1073",
            "performanceDevMax()": "273",
            "performanceTreasuryFee()": "1139",
            "performanceTreasuryMax()": "362",
            "revokeHarvesters(address[])": "infinite",
            "rewards()": "385",
            "setController(address)": "22120",
            "setGovernance(address)": "22164",
            "setPerformanceDevFee(uint256)": "21131",
            "setPerformanceTreasuryFee(uint256)": "21176",
            "setStrategist(address)": "22098",
            "setTimelock(address)": "22098",
            "setWithdrawalDevFundFee(uint256)": "21109",
            "setWithdrawalTreasuryFee(uint256)": "21154",
            "strategist()": "1138",
            "sushiRouter()": "1116",
            "timelock()": "1136",
            "usdc()": "342",
            "want()": "1116",
            "weth()": "364",
            "whitelistHarvesters(address[])": "infinite",
            "withdraw(address)": "infinite",
            "withdraw(uint256)": "infinite",
            "withdrawAll()": "infinite",
            "withdrawForSwap(uint256)": "infinite",
            "withdrawalDevFundFee()": "1117",
            "withdrawalDevFundMax()": "384",
            "withdrawalTreasuryFee()": "1095",
            "withdrawalTreasuryMax()": "360"
        },
        "internal": {
            "_withdrawSome(uint256)": "infinite"
        }
    }
}