{
  "address": "0xf0fD3eDF4008d471465A8ef5F6397760Fd623F74",
  "abi": [
    {
      "inputs": [
        {
          "internalType": "address",
          "name": "_governance",
          "type": "address"
        },
        {
          "internalType": "address",
          "name": "_strategist",
          "type": "address"
        },
        {
          "internalType": "address",
          "name": "_controller",
          "type": "address"
        },
        {
          "internalType": "address",
          "name": "_timelock",
          "type": "address"
        }
      ],
      "stateMutability": "nonpayable",
      "type": "constructor"
    },
    {
      "inputs": [],
      "name": "balanceOf",
      "outputs": [
        {
          "internalType": "uint256",
          "name": "",
          "type": "uint256"
        }
      ],
      "stateMutability": "view",
      "type": "function"
    },
    {
      "inputs": [],
      "name": "balanceOfPool",
      "outputs": [
        {
          "internalType": "uint256",
          "name": "",
          "type": "uint256"
        }
      ],
      "stateMutability": "view",
      "type": "function"
    },
    {
      "inputs": [],
      "name": "balanceOfWant",
      "outputs": [
        {
          "internalType": "uint256",
          "name": "",
          "type": "uint256"
        }
      ],
      "stateMutability": "view",
      "type": "function"
    },
    {
      "inputs": [],
      "name": "controller",
      "outputs": [
        {
          "internalType": "address",
          "name": "",
          "type": "address"
        }
      ],
      "stateMutability": "view",
      "type": "function"
    },
    {
      "inputs": [],
      "name": "crv",
      "outputs": [
        {
          "internalType": "address",
          "name": "",
          "type": "address"
        }
      ],
      "stateMutability": "view",
      "type": "function"
    },
    {
      "inputs": [],
      "name": "curve",
      "outputs": [
        {
          "internalType": "address",
          "name": "",
          "type": "address"
        }
      ],
      "stateMutability": "view",
      "type": "function"
    },
    {
      "inputs": [],
      "name": "dai",
      "outputs": [
        {
          "internalType": "address",
          "name": "",
          "type": "address"
        }
      ],
      "stateMutability": "view",
      "type": "function"
    },
    {
      "inputs": [],
      "name": "deposit",
      "outputs": [],
      "stateMutability": "nonpayable",
      "type": "function"
    },
    {
      "inputs": [
        {
          "internalType": "address",
          "name": "_target",
          "type": "address"
        },
        {
          "internalType": "bytes",
          "name": "_data",
          "type": "bytes"
        }
      ],
      "name": "execute",
      "outputs": [
        {
          "internalType": "bytes",
          "name": "response",
          "type": "bytes"
        }
      ],
      "stateMutability": "payable",
      "type": "function"
    },
    {
      "inputs": [],
      "name": "gauge",
      "outputs": [
        {
          "internalType": "address",
          "name": "",
          "type": "address"
        }
      ],
      "stateMutability": "view",
      "type": "function"
    },
    {
      "inputs": [],
      "name": "getHarvestable",
      "outputs": [
        {
          "internalType": "uint256",
          "name": "",
          "type": "uint256"
        }
      ],
      "stateMutability": "nonpayable",
      "type": "function"
    },
    {
      "inputs": [],
      "name": "getMostPremium",
      "outputs": [
        {
          "internalType": "address",
          "name": "",
          "type": "address"
        },
        {
          "internalType": "uint256",
          "name": "",
          "type": "uint256"
        }
      ],
      "stateMutability": "view",
      "type": "function"
    },
    {
      "inputs": [],
      "name": "getName",
      "outputs": [
        {
          "internalType": "string",
          "name": "",
          "type": "string"
        }
      ],
      "stateMutability": "pure",
      "type": "function"
    },
    {
      "inputs": [],
      "name": "governance",
      "outputs": [
        {
          "internalType": "address",
          "name": "",
          "type": "address"
        }
      ],
      "stateMutability": "view",
      "type": "function"
    },
    {
      "inputs": [],
      "name": "harvest",
      "outputs": [],
      "stateMutability": "nonpayable",
      "type": "function"
    },
    {
      "inputs": [
        {
          "internalType": "address",
          "name": "",
          "type": "address"
        }
      ],
      "name": "harvesters",
      "outputs": [
        {
          "internalType": "bool",
          "name": "",
          "type": "bool"
        }
      ],
      "stateMutability": "view",
      "type": "function"
    },
    {
      "inputs": [],
      "name": "keepCRV",
      "outputs": [
        {
          "internalType": "uint256",
          "name": "",
          "type": "uint256"
        }
      ],
      "stateMutability": "view",
      "type": "function"
    },
    {
      "inputs": [],
      "name": "keepCRVMax",
      "outputs": [
        {
          "internalType": "uint256",
          "name": "",
          "type": "uint256"
        }
      ],
      "stateMutability": "view",
      "type": "function"
    },
    {
      "inputs": [],
      "name": "performanceDevFee",
      "outputs": [
        {
          "internalType": "uint256",
          "name": "",
          "type": "uint256"
        }
      ],
      "stateMutability": "view",
      "type": "function"
    },
    {
      "inputs": [],
      "name": "performanceDevMax",
      "outputs": [
        {
          "internalType": "uint256",
          "name": "",
          "type": "uint256"
        }
      ],
      "stateMutability": "view",
      "type": "function"
    },
    {
      "inputs": [],
      "name": "performanceTreasuryFee",
      "outputs": [
        {
          "internalType": "uint256",
          "name": "",
          "type": "uint256"
        }
      ],
      "stateMutability": "view",
      "type": "function"
    },
    {
      "inputs": [],
      "name": "performanceTreasuryMax",
      "outputs": [
        {
          "internalType": "uint256",
          "name": "",
          "type": "uint256"
        }
      ],
      "stateMutability": "view",
      "type": "function"
    },
    {
      "inputs": [
        {
          "internalType": "address[]",
          "name": "_harvesters",
          "type": "address[]"
        }
      ],
      "name": "revokeHarvesters",
      "outputs": [],
      "stateMutability": "nonpayable",
      "type": "function"
    },
    {
      "inputs": [
        {
          "internalType": "address",
          "name": "_controller",
          "type": "address"
        }
      ],
      "name": "setController",
      "outputs": [],
      "stateMutability": "nonpayable",
      "type": "function"
    },
    {
      "inputs": [
        {
          "internalType": "address",
          "name": "_governance",
          "type": "address"
        }
      ],
      "name": "setGovernance",
      "outputs": [],
      "stateMutability": "nonpayable",
      "type": "function"
    },
    {
      "inputs": [
        {
          "internalType": "uint256",
          "name": "_keepCRV",
          "type": "uint256"
        }
      ],
      "name": "setKeepCRV",
      "outputs": [],
      "stateMutability": "nonpayable",
      "type": "function"
    },
    {
      "inputs": [
        {
          "internalType": "uint256",
          "name": "_performanceDevFee",
          "type": "uint256"
        }
      ],
      "name": "setPerformanceDevFee",
      "outputs": [],
      "stateMutability": "nonpayable",
      "type": "function"
    },
    {
      "inputs": [
        {
          "internalType": "uint256",
          "name": "_performanceTreasuryFee",
          "type": "uint256"
        }
      ],
      "name": "setPerformanceTreasuryFee",
      "outputs": [],
      "stateMutability": "nonpayable",
      "type": "function"
    },
    {
      "inputs": [
        {
          "internalType": "address",
          "name": "_strategist",
          "type": "address"
        }
      ],
      "name": "setStrategist",
      "outputs": [],
      "stateMutability": "nonpayable",
      "type": "function"
    },
    {
      "inputs": [
        {
          "internalType": "address",
          "name": "_timelock",
          "type": "address"
        }
      ],
      "name": "setTimelock",
      "outputs": [],
      "stateMutability": "nonpayable",
      "type": "function"
    },
    {
      "inputs": [
        {
          "internalType": "uint256",
          "name": "_withdrawalDevFundFee",
          "type": "uint256"
        }
      ],
      "name": "setWithdrawalDevFundFee",
      "outputs": [],
      "stateMutability": "nonpayable",
      "type": "function"
    },
    {
      "inputs": [
        {
          "internalType": "uint256",
          "name": "_withdrawalTreasuryFee",
          "type": "uint256"
        }
      ],
      "name": "setWithdrawalTreasuryFee",
      "outputs": [],
      "stateMutability": "nonpayable",
      "type": "function"
    },
    {
      "inputs": [],
      "name": "strategist",
      "outputs": [
        {
          "internalType": "address",
          "name": "",
          "type": "address"
        }
      ],
      "stateMutability": "view",
      "type": "function"
    },
    {
      "inputs": [],
      "name": "three_crv",
      "outputs": [
        {
          "internalType": "address",
          "name": "",
          "type": "address"
        }
      ],
      "stateMutability": "view",
      "type": "function"
    },
    {
      "inputs": [],
      "name": "three_gauge",
      "outputs": [
        {
          "internalType": "address",
          "name": "",
          "type": "address"
        }
      ],
      "stateMutability": "view",
      "type": "function"
    },
    {
      "inputs": [],
      "name": "three_pool",
      "outputs": [
        {
          "internalType": "address",
          "name": "",
          "type": "address"
        }
      ],
      "stateMutability": "view",
      "type": "function"
    },
    {
      "inputs": [],
      "name": "timelock",
      "outputs": [
        {
          "internalType": "address",
          "name": "",
          "type": "address"
        }
      ],
      "stateMutability": "view",
      "type": "function"
    },
    {
      "inputs": [],
      "name": "univ2Router2",
      "outputs": [
        {
          "internalType": "address",
          "name": "",
          "type": "address"
        }
      ],
      "stateMutability": "view",
      "type": "function"
    },
    {
      "inputs": [],
      "name": "usdc",
      "outputs": [
        {
          "internalType": "address",
          "name": "",
          "type": "address"
        }
      ],
      "stateMutability": "view",
      "type": "function"
    },
    {
      "inputs": [],
      "name": "usdt",
      "outputs": [
        {
          "internalType": "address",
          "name": "",
          "type": "address"
        }
      ],
      "stateMutability": "view",
      "type": "function"
    },
    {
      "inputs": [],
      "name": "want",
      "outputs": [
        {
          "internalType": "address",
          "name": "",
          "type": "address"
        }
      ],
      "stateMutability": "view",
      "type": "function"
    },
    {
      "inputs": [],
      "name": "weth",
      "outputs": [
        {
          "internalType": "address",
          "name": "",
          "type": "address"
        }
      ],
      "stateMutability": "view",
      "type": "function"
    },
    {
      "inputs": [
        {
          "internalType": "address[]",
          "name": "_harvesters",
          "type": "address[]"
        }
      ],
      "name": "whitelistHarvesters",
      "outputs": [],
      "stateMutability": "nonpayable",
      "type": "function"
    },
    {
      "inputs": [
        {
          "internalType": "uint256",
          "name": "_amount",
          "type": "uint256"
        }
      ],
      "name": "withdraw",
      "outputs": [],
      "stateMutability": "nonpayable",
      "type": "function"
    },
    {
      "inputs": [
        {
          "internalType": "contract IERC20",
          "name": "_asset",
          "type": "address"
        }
      ],
      "name": "withdraw",
      "outputs": [
        {
          "internalType": "uint256",
          "name": "balance",
          "type": "uint256"
        }
      ],
      "stateMutability": "nonpayable",
      "type": "function"
    },
    {
      "inputs": [],
      "name": "withdrawAll",
      "outputs": [
        {
          "internalType": "uint256",
          "name": "balance",
          "type": "uint256"
        }
      ],
      "stateMutability": "nonpayable",
      "type": "function"
    },
    {
      "inputs": [
        {
          "internalType": "uint256",
          "name": "_amount",
          "type": "uint256"
        }
      ],
      "name": "withdrawForSwap",
      "outputs": [
        {
          "internalType": "uint256",
          "name": "balance",
          "type": "uint256"
        }
      ],
      "stateMutability": "nonpayable",
      "type": "function"
    },
    {
      "inputs": [],
      "name": "withdrawalDevFundFee",
      "outputs": [
        {
          "internalType": "uint256",
          "name": "",
          "type": "uint256"
        }
      ],
      "stateMutability": "view",
      "type": "function"
    },
    {
      "inputs": [],
      "name": "withdrawalDevFundMax",
      "outputs": [
        {
          "internalType": "uint256",
          "name": "",
          "type": "uint256"
        }
      ],
      "stateMutability": "view",
      "type": "function"
    },
    {
      "inputs": [],
      "name": "withdrawalTreasuryFee",
      "outputs": [
        {
          "internalType": "uint256",
          "name": "",
          "type": "uint256"
        }
      ],
      "stateMutability": "view",
      "type": "function"
    },
    {
      "inputs": [],
      "name": "withdrawalTreasuryMax",
      "outputs": [
        {
          "internalType": "uint256",
          "name": "",
          "type": "uint256"
        }
      ],
      "stateMutability": "view",
      "type": "function"
    },
    {
      "inputs": [],
      "name": "wmatic",
      "outputs": [
        {
          "internalType": "address",
          "name": "",
          "type": "address"
        }
      ],
      "stateMutability": "view",
      "type": "function"
    }
  ],
  "transactionHash": "0x66c8cdb0e15a28aaa787f4d141e025cefc730ccdd5308b0d45fa3a1d3345d925",
  "args": [
    "0xaCfE4511CE883C14c4eA40563F176C3C09b4c47C",
    "0xaCfE4511CE883C14c4eA40563F176C3C09b4c47C",
    "0x83074F0aB8EDD2c1508D3F657CeB5F27f6092d09",
    "0x63A991b9c34D2590A411584799B030414C9b0D6F"
  ],
  "solcInputHash": "b4c218a3105c6a2dd467f518b045ef1f",
  "bytecode": "0x60806040526107d06000908155600181905560028190556003819055600980546001600160a01b0319908116731b02da8cb0d097eb8d57a175b88c7d8b4799750617909155600d80548216738f3cf7ad23cd3cadbd9735aff958023239c6a063179055600e80548216732791bca1f2de4661ed88a30c99a7a9449aa84174179055600f8054821673c2132d05d31c914a87c6611c10748aeb04b58e8f17905560108054821673172370d5cd63279efa6d502dab29171933a610af17905560119190915561271060125560138054821673445fe580ef8d70ff569ab36e80c647af338db3511790556014805482167319793b454d3afc7b454f206ffe95ade26ca6912c1790556015805490911673e7a24ef0c5e95ffb0f6684b813a78f2a3ad7d1711790553480156200013057600080fd5b50604051620031c7380380620031c7833981810160405260808110156200015657600080fd5b50805160208201516040830151606090930151601354601454601554949593946001600160a01b03928316929182169116868686868484848484846200019b57600080fd5b6001600160a01b038416620001af57600080fd5b6001600160a01b038316620001c357600080fd5b6001600160a01b038216620001d757600080fd5b6001600160a01b038116620001eb57600080fd5b600480546001600160a01b03199081166001600160a01b03978816179091556005805482169587169590951790945560078054851693861693909317909255600680548416918516919091179055600880548316918416919091179055600c8054821699831699909917909855600b805490981696169590951790955550612f4297508796506200028595506000945050505050396000f3fe6080604052600436106102ff5760003560e01c806382ccf45b11610190578063bdacb303116100dc578063d25ff39711610095578063f4b9fa751161006f578063f4b9fa7514610a6d578063f77c479114610a82578063fb41be1614610a97578063fe1f8f7a146105fe576102ff565b8063d25ff39714610a2e578063d33219b414610a43578063e9751f6b14610a58576102ff565b8063bdacb3031461094a578063c1a3d44c1461097d578063c6223e2614610992578063c65e3242146109bc578063c7b9d530146109e6578063d0e30db014610a19576102ff565b806392eefe9b11610149578063ab033ea911610123578063ab033ea91461085d578063ab73e43314610890578063b1f55bd4146108ba578063b9e3748914610935576102ff565b806392eefe9b146107eb578063955383bd1461081e578063a6f19c8414610848576102ff565b806382ccf45b1461073b578063853828b614610750578063879765831461076557806388993f22146107ac5780638ab19830146107c15780638ccdbb70146107d6576102ff565b80634641257d1161024f57806359739ec4116102085780637165485d116101e25780637165485d146106d2578063722713f7146106e75780637fef901a146106fc5780638237859414610711576102ff565b806359739ec4146106935780635aa6e675146106a85780636a4874a1146106bd576102ff565b80634641257d146105e9578063479119be146105fe57806348677dbe146106135780634fe809cc1461056b57806351cff8d91461064b57806351f3d0b81461067e576102ff565b80631fe4a686116102bc5780632e1a7d4d116102965780632e1a7d4d146105805780632f48ab7d146105aa5780633e413bee146105bf5780633fc8cef3146105d4576102ff565b80631fe4a6861461052c578063249fb9b41461054157806326e886c61461056b576102ff565b80630547104d146103045780630e364fb61461032b57806311588086146103a857806317d7de7c146103bd5780631cff79cd146104475780631f1fcd51146104fb575b600080fd5b34801561031057600080fd5b50610319610aac565b60408051918252519081900360200190f35b34801561033757600080fd5b506103a66004803603602081101561034e57600080fd5b810190602081018135600160201b81111561036857600080fd5b82018360208201111561037a57600080fd5b803590602001918460208302840111600160201b8311171561039b57600080fd5b509092509050610b29565b005b3480156103b457600080fd5b50610319610c03565b3480156103c957600080fd5b506103d2610c62565b6040805160208082528351818301528351919283929083019185019080838360005b8381101561040c5781810151838201526020016103f4565b50505050905090810190601f1680156104395780820380516001836020036101000a031916815260200191505b509250505060405180910390f35b6103d26004803603604081101561045d57600080fd5b6001600160a01b038235169190810190604081016020820135600160201b81111561048757600080fd5b82018360208201111561049957600080fd5b803590602001918460018302840111600160201b831117156104ba57600080fd5b91908080601f016020809104026020016040519081016040528093929190818152602001838380828437600092019190915250929550610c8f945050505050565b34801561050757600080fd5b50610510610d72565b604080516001600160a01b039092168252519081900360200190f35b34801561053857600080fd5b50610510610d81565b34801561054d57600080fd5b506103a66004803603602081101561056457600080fd5b5035610d90565b34801561057757600080fd5b50610319610de0565b34801561058c57600080fd5b506103a6600480360360208110156105a357600080fd5b5035610de6565b3480156105b657600080fd5b506105106110f9565b3480156105cb57600080fd5b50610510611108565b3480156105e057600080fd5b50610510611117565b3480156105f557600080fd5b506103a661112f565b34801561060a57600080fd5b50610319611532565b34801561061f57600080fd5b50610628611539565b604080516001600160a01b03909316835260208301919091528051918290030190f35b34801561065757600080fd5b506103196004803603602081101561066e57600080fd5b50356001600160a01b031661187f565b34801561068a57600080fd5b506103196119af565b34801561069f57600080fd5b506103196119b5565b3480156106b457600080fd5b506105106119bb565b3480156106c957600080fd5b506105106119ca565b3480156106de57600080fd5b506105106119d9565b3480156106f357600080fd5b506103196119e8565b34801561070857600080fd5b50610319611a08565b34801561071d57600080fd5b506103a66004803603602081101561073457600080fd5b5035611a0e565b34801561074757600080fd5b50610510611a5e565b34801561075c57600080fd5b50610319611a6d565b34801561077157600080fd5b506107986004803603602081101561078857600080fd5b50356001600160a01b0316611c21565b604080519115158252519081900360200190f35b3480156107b857600080fd5b50610319611c36565b3480156107cd57600080fd5b50610510611c3c565b3480156107e257600080fd5b50610319611c4b565b3480156107f757600080fd5b506103a66004803603602081101561080e57600080fd5b50356001600160a01b0316611c51565b34801561082a57600080fd5b506103a66004803603602081101561084157600080fd5b5035611cbe565b34801561085457600080fd5b50610510611d10565b34801561086957600080fd5b506103a66004803603602081101561088057600080fd5b50356001600160a01b0316611d1f565b34801561089c57600080fd5b506103a6600480360360208110156108b357600080fd5b5035611d8e565b3480156108c657600080fd5b506103a6600480360360208110156108dd57600080fd5b810190602081018135600160201b8111156108f757600080fd5b82018360208201111561090957600080fd5b803590602001918460208302840111600160201b8311171561092a57600080fd5b509092509050611dde565b34801561094157600080fd5b50610510611e99565b34801561095657600080fd5b506103a66004803603602081101561096d57600080fd5b50356001600160a01b0316611ea8565b34801561098957600080fd5b50610319611f15565b34801561099e57600080fd5b50610319600480360360208110156109b557600080fd5b5035611f64565b3480156109c857600080fd5b506103a6600480360360208110156109df57600080fd5b503561211c565b3480156109f257600080fd5b506103a660048036036020811015610a0957600080fd5b50356001600160a01b031661216c565b348015610a2557600080fd5b506103a66121db565b348015610a3a57600080fd5b506105106122fd565b348015610a4f57600080fd5b5061051061230c565b348015610a6457600080fd5b5061031961231b565b348015610a7957600080fd5b50610510612321565b348015610a8e57600080fd5b50610510612330565b348015610aa357600080fd5b5061051061233f565b600b5460408051633313458360e01b815230600482015290516000926001600160a01b031691633313458391602480830192602092919082900301818787803b158015610af857600080fd5b505af1158015610b0c573d6000803e3d6000fd5b505050506040513d6020811015610b2257600080fd5b5051905090565b6005546001600160a01b0316331480610b4c57506007546001600160a01b031633145b80610b665750336000908152600a602052604090205460ff165b610ba8576040805162461bcd60e51b815260206004820152600e60248201526d1b9bdd08185d5d1a1bdc9a5e995960921b604482015290519081900360640190fd5b60005b81811015610bfe576001600a6000858585818110610bc557fe5b602090810292909201356001600160a01b0316835250810191909152604001600020805460ff1916911515919091179055600101610bab565b505050565b600b54604080516370a0823160e01b815230600482015290516000926001600160a01b0316916370a08231916024808301926020929190829003018186803b158015610c4e57600080fd5b505afa158015610b0c573d6000803e3d6000fd5b60408051808201909152601381527229ba3930ba32b3bca1bab93b3299a1a92b3b1960691b602082015290565b6008546060906001600160a01b03163314610cdd576040805162461bcd60e51b81526020600482015260096024820152682174696d656c6f636b60b81b604482015290519081900360640190fd5b6001600160a01b038316610d22576040805162461bcd60e51b8152602060048201526007602482015266085d185c99d95d60ca1b604482015290519081900360640190fd5b600080835160208501866113885a03f43d6040519250601f19601f6020830101168301604052808352806000602085013e811560018114610d6257610d69565b8160208501fd5b50505092915050565b6004546001600160a01b031681565b6007546001600160a01b031681565b6008546001600160a01b03163314610ddb576040805162461bcd60e51b81526020600482015260096024820152682174696d656c6f636b60b81b604482015290519081900360640190fd5b600055565b61271081565b6006546001600160a01b03163314610e33576040805162461bcd60e51b815260206004820152600b60248201526a10b1b7b73a3937b63632b960a91b604482015290519081900360640190fd5b60048054604080516370a0823160e01b81523093810193909352516000926001600160a01b03909216916370a08231916024808301926020929190829003018186803b158015610e8257600080fd5b505afa158015610e96573d6000803e3d6000fd5b505050506040513d6020811015610eac57600080fd5b5051905081811015610ed957610eca610ec58383612357565b6123a2565b9150610ed6828261240c565b91505b6000610efd620186a0610ef76003548661246690919063ffffffff16565b906124bf565b9050610f8f600660009054906101000a90046001600160a01b03166001600160a01b0316638d8f1e676040518163ffffffff1660e01b815260040160206040518083038186803b158015610f5057600080fd5b505afa158015610f64573d6000803e3d6000fd5b505050506040513d6020811015610f7a57600080fd5b50516004546001600160a01b03169083612501565b6000610fad620186a0610ef76002548761246690919063ffffffff16565b9050611000600660009054906101000a90046001600160a01b03166001600160a01b03166361d027b36040518163ffffffff1660e01b815260040160206040518083038186803b158015610f5057600080fd5b6006546004805460408051636535246160e11b81526001600160a01b039283169381019390935251600093919091169163ca6a48c2916024808301926020929190829003018186803b15801561105557600080fd5b505afa158015611069573d6000803e3d6000fd5b505050506040513d602081101561107f57600080fd5b505190506001600160a01b0381166110c7576040805162461bcd60e51b8152602060048083019190915260248201526310b530b960e11b604482015290519081900360640190fd5b6110f2816110df846110d98988612357565b90612357565b6004546001600160a01b03169190612501565b5050505050565b600f546001600160a01b031681565b600e546001600160a01b031681565b737ceb23fd6bc0add59e62ac25578270cff1b9f61981565b336000908152600a602052604090205460ff168061115757506005546001600160a01b031633145b8061116c57506007546001600160a01b031633145b61117557600080fd5b600080611180611539565b600b5460408051634274debf60e11b815230600482015290519395509193506001600160a01b0316916384e9bd7e9160248082019260009290919082900301818387803b1580156111d057600080fd5b505af11580156111e4573d6000803e3d6000fd5b5050601054604080516370a0823160e01b81523060048201529051600094506001600160a01b0390921692506370a08231916024808301926020929190829003018186803b15801561123557600080fd5b505afa158015611249573d6000803e3d6000fd5b505050506040513d602081101561125f57600080fd5b5051905080156112bb57600954601054611287916001600160a01b0391821691166000612553565b6009546010546112a4916001600160a01b03918216911683612553565b6010546112bb906001600160a01b03168483612666565b604080516370a0823160e01b81523060048201529051600091730d500b1d8e8ef31e21c99d1db9a6444d3adf1270916370a0823191602480820192602092909190829003018186803b15801561131057600080fd5b505afa158015611324573d6000803e3d6000fd5b505050506040513d602081101561133a57600080fd5b5051905080156113bc5760095461137190730d500b1d8e8ef31e21c99d1db9a6444d3adf1270906001600160a01b03166000612553565b60095461139d90730d500b1d8e8ef31e21c99d1db9a6444d3adf1270906001600160a01b031683612553565b6113bc730d500b1d8e8ef31e21c99d1db9a6444d3adf12708583612666565b6000846001600160a01b03166370a08231306040518263ffffffff1660e01b815260040180826001600160a01b0316815260200191505060206040518083038186803b15801561140b57600080fd5b505afa15801561141f573d6000803e3d6000fd5b505050506040513d602081101561143557600080fd5b50519050801561152a57600c5461145a906001600160a01b0387811691166000612553565b600c54611474906001600160a01b03878116911683612553565b61147c612e6d565b8181866003811061148957fe5b6020020152600c546040516315b74c9d60e11b81526001600160a01b0390911690632b6e993a90839060009060019060040180846060808383885b838110156114dc5781810151838201526020016114c4565b5050505090500183815260200182151581526020019350505050600060405180830381600087803b15801561151057600080fd5b505af1158015611524573d6000803e3d6000fd5b50505050505b6110f2612990565b620186a081565b6040805160038082526080820190925260009182916060916020820183803683375050600c5460408051634903b0d160e01b81526000600482015290519394506001600160a01b0390911692634903b0d192506024808301926020929190829003018186803b1580156115ab57600080fd5b505afa1580156115bf573d6000803e3d6000fd5b505050506040513d60208110156115d557600080fd5b5051815182906000906115e457fe5b602090810291909101810191909152600c5460408051634903b0d160e01b81526001600482015290516116759364e8d4a51000936001600160a01b031692634903b0d19260248083019392829003018186803b15801561164357600080fd5b505afa158015611657573d6000803e3d6000fd5b505050506040513d602081101561166d57600080fd5b505190612466565b8160018151811061168257fe5b602090810291909101810191909152600c5460408051634903b0d160e01b81526002600482015290516116e19364e8d4a51000936001600160a01b031692634903b0d19260248083019392829003018186803b15801561164357600080fd5b816002815181106116ee57fe5b6020026020010181815250508060018151811061170757fe5b60200260200101518160008151811061171c57fe5b602002602001015110801561175857508060028151811061173957fe5b60200260200101518160008151811061174e57fe5b6020026020010151105b15611774575050600d546001600160a01b03169050600061187b565b8060008151811061178157fe5b60200260200101518160018151811061179657fe5b60200260200101511080156117d25750806002815181106117b357fe5b6020026020010151816001815181106117c857fe5b6020026020010151105b156117ee575050600e546001600160a01b03169050600161187b565b806000815181106117fb57fe5b60200260200101518160028151811061181057fe5b602002602001015110801561184c57508060018151811061182d57fe5b60200260200101518160028151811061184257fe5b6020026020010151105b15611868575050600f546001600160a01b03169050600261187b565b5050600d546001600160a01b0316905060005b9091565b6006546000906001600160a01b031633146118cf576040805162461bcd60e51b815260206004820152600b60248201526a10b1b7b73a3937b63632b960a91b604482015290519081900360640190fd5b6004546001600160a01b038381169116141561191b576040805162461bcd60e51b815260206004808301919091526024820152631dd85b9d60e21b604482015290519081900360640190fd5b604080516370a0823160e01b815230600482015290516001600160a01b038416916370a08231916024808301926020929190829003018186803b15801561196157600080fd5b505afa158015611975573d6000803e3d6000fd5b505050506040513d602081101561198b57600080fd5b50516006549091506119aa906001600160a01b03848116911683612501565b919050565b60035481565b60005481565b6005546001600160a01b031681565b6010546001600160a01b031681565b600c546001600160a01b031681565b6000611a036119f5610c03565b6119fd611f15565b9061240c565b905090565b60115481565b6008546001600160a01b03163314611a59576040805162461bcd60e51b81526020600482015260096024820152682174696d656c6f636b60b81b604482015290519081900360640190fd5b600255565b6015546001600160a01b031681565b6006546000906001600160a01b03163314611abd576040805162461bcd60e51b815260206004820152600b60248201526a10b1b7b73a3937b63632b960a91b604482015290519081900360640190fd5b611ac5612b2b565b60048054604080516370a0823160e01b81523093810193909352516001600160a01b03909116916370a08231916024808301926020929190829003018186803b158015611b1157600080fd5b505afa158015611b25573d6000803e3d6000fd5b505050506040513d6020811015611b3b57600080fd5b50516006546004805460408051636535246160e11b81526001600160a01b03928316938101939093525193945060009392169163ca6a48c291602480820192602092909190829003018186803b158015611b9457600080fd5b505afa158015611ba8573d6000803e3d6000fd5b505050506040513d6020811015611bbe57600080fd5b505190506001600160a01b038116611c06576040805162461bcd60e51b8152602060048083019190915260248201526310b530b960e11b604482015290519081900360640190fd5b600454611c1d906001600160a01b03168284612501565b5090565b600a6020526000908152604090205460ff1681565b60015481565b6014546001600160a01b031681565b60025481565b6008546001600160a01b03163314611c9c576040805162461bcd60e51b81526020600482015260096024820152682174696d656c6f636b60b81b604482015290519081900360640190fd5b600680546001600160a01b0319166001600160a01b0392909216919091179055565b6005546001600160a01b03163314611d0b576040805162461bcd60e51b815260206004820152600b60248201526a21676f7665726e616e636560a81b604482015290519081900360640190fd5b601155565b600b546001600160a01b031681565b6005546001600160a01b03163314611d6c576040805162461bcd60e51b815260206004820152600b60248201526a21676f7665726e616e636560a81b604482015290519081900360640190fd5b600580546001600160a01b0319166001600160a01b0392909216919091179055565b6008546001600160a01b03163314611dd9576040805162461bcd60e51b81526020600482015260096024820152682174696d656c6f636b60b81b604482015290519081900360640190fd5b600355565b6005546001600160a01b0316331480611e0157506007546001600160a01b031633145b611e43576040805162461bcd60e51b815260206004820152600e60248201526d1b9bdd08185d5d1a1bdc9a5e995960921b604482015290519081900360640190fd5b60005b81811015610bfe576000600a6000858585818110611e6057fe5b602090810292909201356001600160a01b0316835250810191909152604001600020805460ff1916911515919091179055600101611e46565b6009546001600160a01b031681565b6008546001600160a01b03163314611ef3576040805162461bcd60e51b81526020600482015260096024820152682174696d656c6f636b60b81b604482015290519081900360640190fd5b600880546001600160a01b0319166001600160a01b0392909216919091179055565b60048054604080516370a0823160e01b81523093810193909352516000926001600160a01b03909216916370a08231916024808301926020929190829003018186803b158015610c4e57600080fd5b6006546000906001600160a01b03163314611fb4576040805162461bcd60e51b815260206004820152600b60248201526a10b1b7b73a3937b63632b960a91b604482015290519081900360640190fd5b611fbd826123a2565b5060048054604080516370a0823160e01b81523093810193909352516001600160a01b03909116916370a08231916024808301926020929190829003018186803b15801561200a57600080fd5b505afa15801561201e573d6000803e3d6000fd5b505050506040513d602081101561203457600080fd5b50516006546004805460408051636535246160e11b81526001600160a01b03928316938101939093525193945060009392169163ca6a48c291602480820192602092909190829003018186803b15801561208d57600080fd5b505afa1580156120a1573d6000803e3d6000fd5b505050506040513d60208110156120b757600080fd5b505190506001600160a01b0381166120ff576040805162461bcd60e51b8152602060048083019190915260248201526310b530b960e11b604482015290519081900360640190fd5b600454612116906001600160a01b03168284612501565b50919050565b6008546001600160a01b03163314612167576040805162461bcd60e51b81526020600482015260096024820152682174696d656c6f636b60b81b604482015290519081900360640190fd5b600155565b6005546001600160a01b031633146121b9576040805162461bcd60e51b815260206004820152600b60248201526a21676f7665726e616e636560a81b604482015290519081900360640190fd5b600780546001600160a01b0319166001600160a01b0392909216919091179055565b60048054604080516370a0823160e01b81523093810193909352516000926001600160a01b03909216916370a08231916024808301926020929190829003018186803b15801561222a57600080fd5b505afa15801561223e573d6000803e3d6000fd5b505050506040513d602081101561225457600080fd5b5051905080156122fa57600b5460045461227c916001600160a01b0391821691166000612553565b600b54600454612299916001600160a01b03918216911683612553565b600b546040805163b6b55f2560e01b81526004810184905290516001600160a01b039092169163b6b55f259160248082019260009290919082900301818387803b1580156122e657600080fd5b505af11580156110f2573d6000803e3d6000fd5b50565b6013546001600160a01b031681565b6008546001600160a01b031681565b60125481565b600d546001600160a01b031681565b6006546001600160a01b031681565b730d500b1d8e8ef31e21c99d1db9a6444d3adf127081565b600061239983836040518060400160405280601e81526020017f536166654d6174683a207375627472616374696f6e206f766572666c6f770000815250612b36565b90505b92915050565b600b5460408051632e1a7d4d60e01b81526004810184905290516000926001600160a01b031691632e1a7d4d916024808301928692919082900301818387803b1580156123ee57600080fd5b505af1158015612402573d6000803e3d6000fd5b5093949350505050565b600082820183811015612399576040805162461bcd60e51b815260206004820152601b60248201527f536166654d6174683a206164646974696f6e206f766572666c6f770000000000604482015290519081900360640190fd5b6000826124755750600061239c565b8282028284828161248257fe5b04146123995760405162461bcd60e51b8152600401808060200182810382526021815260200180612e8c6021913960400191505060405180910390fd5b600061239983836040518060400160405280601a81526020017f536166654d6174683a206469766973696f6e206279207a65726f000000000000815250612bcd565b604080516001600160a01b038416602482015260448082018490528251808303909101815260649091019091526020810180516001600160e01b031663a9059cbb60e01b179052610bfe908490612c32565b8015806125d9575060408051636eb1769f60e11b81523060048201526001600160a01b03848116602483015291519185169163dd62ed3e91604480820192602092909190829003018186803b1580156125ab57600080fd5b505afa1580156125bf573d6000803e3d6000fd5b505050506040513d60208110156125d557600080fd5b5051155b6126145760405162461bcd60e51b8152600401808060200182810382526036815260200180612ed76036913960400191505060405180910390fd5b604080516001600160a01b038416602482015260448082018490528251808303909101815260649091019091526020810180516001600160e01b031663095ea7b360e01b179052610bfe908490612c32565b6001600160a01b03821661267957600080fd5b60606001600160a01b038416737ceb23fd6bc0add59e62ac25578270cff1b9f61914806126c257506001600160a01b038316737ceb23fd6bc0add59e62ac25578270cff1b9f619145b1561274857604080516002808252606082018352909160208301908036833701905050905083816000815181106126f557fe5b60200260200101906001600160a01b031690816001600160a01b031681525050828160018151811061272357fe5b60200260200101906001600160a01b031690816001600160a01b031681525050612808565b604080516003808252608082019092529060208201606080368337019050509050838160008151811061277757fe5b60200260200101906001600160a01b031690816001600160a01b031681525050737ceb23fd6bc0add59e62ac25578270cff1b9f619816001815181106127b957fe5b60200260200101906001600160a01b031690816001600160a01b03168152505082816002815181106127e757fe5b60200260200101906001600160a01b031690816001600160a01b0316815250505b6009546001600160a01b03166338ed1739836000843061282942603c61240c565b6040518663ffffffff1660e01b81526004018086815260200185815260200180602001846001600160a01b03168152602001838152602001828103825285818151815260200191508051906020019060200280838360005b83811015612899578181015183820152602001612881565b505050509050019650505050505050600060405180830381600087803b1580156128c257600080fd5b505af11580156128d6573d6000803e3d6000fd5b505050506040513d6000823e601f3d908101601f1916820160405260208110156128ff57600080fd5b8101908080516040519392919084600160201b82111561291e57600080fd5b90830190602082018581111561293357600080fd5b82518660208202830111600160201b8211171561294f57600080fd5b82525081516020918201928201910280838360005b8381101561297c578181015183820152602001612964565b505050509050016040525050505050505050565b60048054604080516370a0823160e01b81523093810193909352516000926001600160a01b03909216916370a08231916024808301926020929190829003018186803b1580156129df57600080fd5b505afa1580156129f3573d6000803e3d6000fd5b505050506040513d6020811015612a0957600080fd5b5051905080156122fa57600654604080516361d027b360e01b81529051612a9b926001600160a01b0316916361d027b3916004808301926020929190829003018186803b158015612a5957600080fd5b505afa158015612a6d573d6000803e3d6000fd5b505050506040513d6020811015612a8357600080fd5b50516000546110df9061271090610ef7908690612466565b60065460408051638d8f1e6760e01b81529051612b23926001600160a01b031691638d8f1e67916004808301926020929190829003018186803b158015612ae157600080fd5b505afa158015612af5573d6000803e3d6000fd5b505050506040513d6020811015612b0b57600080fd5b50516001546110df9061271090610ef7908690612466565b6122fa6121db565b6122fa610ec5610c03565b60008184841115612bc55760405162461bcd60e51b81526004018080602001828103825283818151815260200191508051906020019080838360005b83811015612b8a578181015183820152602001612b72565b50505050905090810190601f168015612bb75780820380516001836020036101000a031916815260200191505b509250505060405180910390fd5b505050900390565b60008183612c1c5760405162461bcd60e51b8152602060048201818152835160248401528351909283926044909101919085019080838360008315612b8a578181015183820152602001612b72565b506000838581612c2857fe5b0495945050505050565b6060612c87826040518060400160405280602081526020017f5361666545524332303a206c6f772d6c6576656c2063616c6c206661696c6564815250856001600160a01b0316612ce39092919063ffffffff16565b805190915015610bfe57808060200190516020811015612ca657600080fd5b5051610bfe5760405162461bcd60e51b815260040180806020018281038252602a815260200180612ead602a913960400191505060405180910390fd5b6060612cf28484600085612cfa565b949350505050565b6060612d0585612e67565b612d56576040805162461bcd60e51b815260206004820152601d60248201527f416464726573733a2063616c6c20746f206e6f6e2d636f6e7472616374000000604482015290519081900360640190fd5b60006060866001600160a01b031685876040518082805190602001908083835b60208310612d955780518252601f199092019160209182019101612d76565b6001836020036101000a03801982511681845116808217855250505050505090500191505060006040518083038185875af1925050503d8060008114612df7576040519150601f19603f3d011682016040523d82523d6000602084013e612dfc565b606091505b50915091508115612e10579150612cf29050565b805115612e205780518082602001fd5b60405162461bcd60e51b8152602060048201818152865160248401528651879391928392604401919085019080838360008315612b8a578181015183820152602001612b72565b3b151590565b6040518060600160405280600390602082028036833750919291505056fe536166654d6174683a206d756c7469706c69636174696f6e206f766572666c6f775361666545524332303a204552433230206f7065726174696f6e20646964206e6f7420737563636565645361666545524332303a20617070726f76652066726f6d206e6f6e2d7a65726f20746f206e6f6e2d7a65726f20616c6c6f77616e6365a26469706673582212207c26f3157d080221ed7ad343aef5de22154dc99612f4e07f8122b5cce4b8417764736f6c634300060c0033",
  "devdoc": {
    "kind": "dev",
    "methods": {},
    "version": 1
  },
  "userdoc": {
    "kind": "user",
    "methods": {},
    "version": 1
  },
  "storageLayout": {
    "storage": [
      {
        "astId": 23169,
        "contract": "src/strategies/polygon/curve/strategy-curve-am3crv-v2.sol:StrategyCurveAm3CRVv2",
        "label": "performanceTreasuryFee",
        "offset": 0,
        "slot": "0",
        "type": "t_uint256"
      },
      {
        "astId": 23175,
        "contract": "src/strategies/polygon/curve/strategy-curve-am3crv-v2.sol:StrategyCurveAm3CRVv2",
        "label": "performanceDevFee",
        "offset": 0,
        "slot": "1",
        "type": "t_uint256"
      },
      {
        "astId": 23181,
        "contract": "src/strategies/polygon/curve/strategy-curve-am3crv-v2.sol:StrategyCurveAm3CRVv2",
        "label": "withdrawalTreasuryFee",
        "offset": 0,
        "slot": "2",
        "type": "t_uint256"
      },
      {
        "astId": 23187,
        "contract": "src/strategies/polygon/curve/strategy-curve-am3crv-v2.sol:StrategyCurveAm3CRVv2",
        "label": "withdrawalDevFundFee",
        "offset": 0,
        "slot": "3",
        "type": "t_uint256"
      },
      {
        "astId": 23192,
        "contract": "src/strategies/polygon/curve/strategy-curve-am3crv-v2.sol:StrategyCurveAm3CRVv2",
        "label": "want",
        "offset": 0,
        "slot": "4",
        "type": "t_address"
      },
      {
        "astId": 23200,
        "contract": "src/strategies/polygon/curve/strategy-curve-am3crv-v2.sol:StrategyCurveAm3CRVv2",
        "label": "governance",
        "offset": 0,
        "slot": "5",
        "type": "t_address"
      },
      {
        "astId": 23202,
        "contract": "src/strategies/polygon/curve/strategy-curve-am3crv-v2.sol:StrategyCurveAm3CRVv2",
        "label": "controller",
        "offset": 0,
        "slot": "6",
        "type": "t_address"
      },
      {
        "astId": 23204,
        "contract": "src/strategies/polygon/curve/strategy-curve-am3crv-v2.sol:StrategyCurveAm3CRVv2",
        "label": "strategist",
        "offset": 0,
        "slot": "7",
        "type": "t_address"
      },
      {
        "astId": 23206,
        "contract": "src/strategies/polygon/curve/strategy-curve-am3crv-v2.sol:StrategyCurveAm3CRVv2",
        "label": "timelock",
        "offset": 0,
        "slot": "8",
        "type": "t_address"
      },
      {
        "astId": 23209,
        "contract": "src/strategies/polygon/curve/strategy-curve-am3crv-v2.sol:StrategyCurveAm3CRVv2",
        "label": "univ2Router2",
        "offset": 0,
        "slot": "9",
        "type": "t_address"
      },
      {
        "astId": 23213,
        "contract": "src/strategies/polygon/curve/strategy-curve-am3crv-v2.sol:StrategyCurveAm3CRVv2",
        "label": "harvesters",
        "offset": 0,
        "slot": "10",
        "type": "t_mapping(t_address,t_bool)"
      },
      {
        "astId": 24470,
        "contract": "src/strategies/polygon/curve/strategy-curve-am3crv-v2.sol:StrategyCurveAm3CRVv2",
        "label": "gauge",
        "offset": 0,
        "slot": "11",
        "type": "t_address"
      },
      {
        "astId": 24472,
        "contract": "src/strategies/polygon/curve/strategy-curve-am3crv-v2.sol:StrategyCurveAm3CRVv2",
        "label": "curve",
        "offset": 0,
        "slot": "12",
        "type": "t_address"
      },
      {
        "astId": 24475,
        "contract": "src/strategies/polygon/curve/strategy-curve-am3crv-v2.sol:StrategyCurveAm3CRVv2",
        "label": "dai",
        "offset": 0,
        "slot": "13",
        "type": "t_address"
      },
      {
        "astId": 24478,
        "contract": "src/strategies/polygon/curve/strategy-curve-am3crv-v2.sol:StrategyCurveAm3CRVv2",
        "label": "usdc",
        "offset": 0,
        "slot": "14",
        "type": "t_address"
      },
      {
        "astId": 24481,
        "contract": "src/strategies/polygon/curve/strategy-curve-am3crv-v2.sol:StrategyCurveAm3CRVv2",
        "label": "usdt",
        "offset": 0,
        "slot": "15",
        "type": "t_address"
      },
      {
        "astId": 24484,
        "contract": "src/strategies/polygon/curve/strategy-curve-am3crv-v2.sol:StrategyCurveAm3CRVv2",
        "label": "crv",
        "offset": 0,
        "slot": "16",
        "type": "t_address"
      },
      {
        "astId": 24487,
        "contract": "src/strategies/polygon/curve/strategy-curve-am3crv-v2.sol:StrategyCurveAm3CRVv2",
        "label": "keepCRV",
        "offset": 0,
        "slot": "17",
        "type": "t_uint256"
      },
      {
        "astId": 24490,
        "contract": "src/strategies/polygon/curve/strategy-curve-am3crv-v2.sol:StrategyCurveAm3CRVv2",
        "label": "keepCRVMax",
        "offset": 0,
        "slot": "18",
        "type": "t_uint256"
      },
      {
        "astId": 24135,
        "contract": "src/strategies/polygon/curve/strategy-curve-am3crv-v2.sol:StrategyCurveAm3CRVv2",
        "label": "three_pool",
        "offset": 0,
        "slot": "19",
        "type": "t_address"
      },
      {
        "astId": 24138,
        "contract": "src/strategies/polygon/curve/strategy-curve-am3crv-v2.sol:StrategyCurveAm3CRVv2",
        "label": "three_gauge",
        "offset": 0,
        "slot": "20",
        "type": "t_address"
      },
      {
        "astId": 24141,
        "contract": "src/strategies/polygon/curve/strategy-curve-am3crv-v2.sol:StrategyCurveAm3CRVv2",
        "label": "three_crv",
        "offset": 0,
        "slot": "21",
        "type": "t_address"
      }
    ],
    "types": {
      "t_address": {
        "encoding": "inplace",
        "label": "address",
        "numberOfBytes": "20"
      },
      "t_bool": {
        "encoding": "inplace",
        "label": "bool",
        "numberOfBytes": "1"
      },
      "t_mapping(t_address,t_bool)": {
        "encoding": "mapping",
        "key": "t_address",
        "label": "mapping(address => bool)",
        "numberOfBytes": "32",
        "value": "t_bool"
      },
      "t_uint256": {
        "encoding": "inplace",
        "label": "uint256",
        "numberOfBytes": "32"
      }
    }
  }
}