{
  "address": "0xf34514260f18bDB3ED1142b69A6055F51089AC7D",
  "abi": [
    {
      "inputs": [
        {
          "internalType": "address",
          "name": "_governance",
          "type": "address"
        },
        {
          "internalType": "address",
          "name": "_strategist",
          "type": "address"
        },
        {
          "internalType": "address",
          "name": "_controller",
          "type": "address"
        },
        {
          "internalType": "address",
          "name": "_timelock",
          "type": "address"
        }
      ],
      "stateMutability": "nonpayable",
      "type": "constructor"
    },
    {
      "inputs": [],
      "name": "balanceOf",
      "outputs": [
        {
          "internalType": "uint256",
          "name": "",
          "type": "uint256"
        }
      ],
      "stateMutability": "view",
      "type": "function"
    },
    {
      "inputs": [],
      "name": "balanceOfPool",
      "outputs": [
        {
          "internalType": "uint256",
          "name": "",
          "type": "uint256"
        }
      ],
      "stateMutability": "view",
      "type": "function"
    },
    {
      "inputs": [],
      "name": "balanceOfWant",
      "outputs": [
        {
          "internalType": "uint256",
          "name": "",
          "type": "uint256"
        }
      ],
      "stateMutability": "view",
      "type": "function"
    },
    {
      "inputs": [],
      "name": "controller",
      "outputs": [
        {
          "internalType": "address",
          "name": "",
          "type": "address"
        }
      ],
      "stateMutability": "view",
      "type": "function"
    },
    {
      "inputs": [],
      "name": "deposit",
      "outputs": [],
      "stateMutability": "nonpayable",
      "type": "function"
    },
    {
      "inputs": [],
      "name": "depositFee",
      "outputs": [
        {
          "internalType": "uint256",
          "name": "",
          "type": "uint256"
        }
      ],
      "stateMutability": "view",
      "type": "function"
    },
    {
      "inputs": [
        {
          "internalType": "address",
          "name": "_target",
          "type": "address"
        },
        {
          "internalType": "bytes",
          "name": "_data",
          "type": "bytes"
        }
      ],
      "name": "execute",
      "outputs": [
        {
          "internalType": "bytes",
          "name": "response",
          "type": "bytes"
        }
      ],
      "stateMutability": "payable",
      "type": "function"
    },
    {
      "inputs": [],
      "name": "getHarvestable",
      "outputs": [
        {
          "internalType": "uint256",
          "name": "",
          "type": "uint256"
        }
      ],
      "stateMutability": "view",
      "type": "function"
    },
    {
      "inputs": [],
      "name": "getName",
      "outputs": [
        {
          "internalType": "string",
          "name": "",
          "type": "string"
        }
      ],
      "stateMutability": "pure",
      "type": "function"
    },
    {
      "inputs": [],
      "name": "governance",
      "outputs": [
        {
          "internalType": "address",
          "name": "",
          "type": "address"
        }
      ],
      "stateMutability": "view",
      "type": "function"
    },
    {
      "inputs": [],
      "name": "harvest",
      "outputs": [],
      "stateMutability": "nonpayable",
      "type": "function"
    },
    {
      "inputs": [
        {
          "internalType": "address",
          "name": "",
          "type": "address"
        }
      ],
      "name": "harvesters",
      "outputs": [
        {
          "internalType": "bool",
          "name": "",
          "type": "bool"
        }
      ],
      "stateMutability": "view",
      "type": "function"
    },
    {
      "inputs": [],
      "name": "keepReward",
      "outputs": [
        {
          "internalType": "uint256",
          "name": "",
          "type": "uint256"
        }
      ],
      "stateMutability": "view",
      "type": "function"
    },
    {
      "inputs": [],
      "name": "keepRewardMax",
      "outputs": [
        {
          "internalType": "uint256",
          "name": "",
          "type": "uint256"
        }
      ],
      "stateMutability": "view",
      "type": "function"
    },
    {
      "inputs": [],
      "name": "masterChef",
      "outputs": [
        {
          "internalType": "address",
          "name": "",
          "type": "address"
        }
      ],
      "stateMutability": "view",
      "type": "function"
    },
    {
      "inputs": [],
      "name": "masterchef",
      "outputs": [
        {
          "internalType": "address",
          "name": "",
          "type": "address"
        }
      ],
      "stateMutability": "view",
      "type": "function"
    },
    {
      "inputs": [],
      "name": "mimatic",
      "outputs": [
        {
          "internalType": "address",
          "name": "",
          "type": "address"
        }
      ],
      "stateMutability": "view",
      "type": "function"
    },
    {
      "inputs": [],
      "name": "performanceDevFee",
      "outputs": [
        {
          "internalType": "uint256",
          "name": "",
          "type": "uint256"
        }
      ],
      "stateMutability": "view",
      "type": "function"
    },
    {
      "inputs": [],
      "name": "performanceDevMax",
      "outputs": [
        {
          "internalType": "uint256",
          "name": "",
          "type": "uint256"
        }
      ],
      "stateMutability": "view",
      "type": "function"
    },
    {
      "inputs": [],
      "name": "performanceTreasuryFee",
      "outputs": [
        {
          "internalType": "uint256",
          "name": "",
          "type": "uint256"
        }
      ],
      "stateMutability": "view",
      "type": "function"
    },
    {
      "inputs": [],
      "name": "performanceTreasuryMax",
      "outputs": [
        {
          "internalType": "uint256",
          "name": "",
          "type": "uint256"
        }
      ],
      "stateMutability": "view",
      "type": "function"
    },
    {
      "inputs": [],
      "name": "poolId",
      "outputs": [
        {
          "internalType": "uint256",
          "name": "",
          "type": "uint256"
        }
      ],
      "stateMutability": "view",
      "type": "function"
    },
    {
      "inputs": [],
      "name": "qi",
      "outputs": [
        {
          "internalType": "address",
          "name": "",
          "type": "address"
        }
      ],
      "stateMutability": "view",
      "type": "function"
    },
    {
      "inputs": [],
      "name": "quick",
      "outputs": [
        {
          "internalType": "address",
          "name": "",
          "type": "address"
        }
      ],
      "stateMutability": "view",
      "type": "function"
    },
    {
      "inputs": [],
      "name": "quickRouter",
      "outputs": [
        {
          "internalType": "address",
          "name": "",
          "type": "address"
        }
      ],
      "stateMutability": "view",
      "type": "function"
    },
    {
      "inputs": [
        {
          "internalType": "address[]",
          "name": "_harvesters",
          "type": "address[]"
        }
      ],
      "name": "revokeHarvesters",
      "outputs": [],
      "stateMutability": "nonpayable",
      "type": "function"
    },
    {
      "inputs": [],
      "name": "rewardToken",
      "outputs": [
        {
          "internalType": "address",
          "name": "",
          "type": "address"
        }
      ],
      "stateMutability": "view",
      "type": "function"
    },
    {
      "inputs": [
        {
          "internalType": "address",
          "name": "_controller",
          "type": "address"
        }
      ],
      "name": "setController",
      "outputs": [],
      "stateMutability": "nonpayable",
      "type": "function"
    },
    {
      "inputs": [
        {
          "internalType": "address",
          "name": "_governance",
          "type": "address"
        }
      ],
      "name": "setGovernance",
      "outputs": [],
      "stateMutability": "nonpayable",
      "type": "function"
    },
    {
      "inputs": [
        {
          "internalType": "uint256",
          "name": "_keepReward",
          "type": "uint256"
        }
      ],
      "name": "setKeepReward",
      "outputs": [],
      "stateMutability": "nonpayable",
      "type": "function"
    },
    {
      "inputs": [
        {
          "internalType": "uint256",
          "name": "_performanceDevFee",
          "type": "uint256"
        }
      ],
      "name": "setPerformanceDevFee",
      "outputs": [],
      "stateMutability": "nonpayable",
      "type": "function"
    },
    {
      "inputs": [
        {
          "internalType": "uint256",
          "name": "_performanceTreasuryFee",
          "type": "uint256"
        }
      ],
      "name": "setPerformanceTreasuryFee",
      "outputs": [],
      "stateMutability": "nonpayable",
      "type": "function"
    },
    {
      "inputs": [
        {
          "internalType": "address",
          "name": "_strategist",
          "type": "address"
        }
      ],
      "name": "setStrategist",
      "outputs": [],
      "stateMutability": "nonpayable",
      "type": "function"
    },
    {
      "inputs": [
        {
          "internalType": "address",
          "name": "_timelock",
          "type": "address"
        }
      ],
      "name": "setTimelock",
      "outputs": [],
      "stateMutability": "nonpayable",
      "type": "function"
    },
    {
      "inputs": [
        {
          "internalType": "uint256",
          "name": "_withdrawalDevFundFee",
          "type": "uint256"
        }
      ],
      "name": "setWithdrawalDevFundFee",
      "outputs": [],
      "stateMutability": "nonpayable",
      "type": "function"
    },
    {
      "inputs": [
        {
          "internalType": "uint256",
          "name": "_withdrawalTreasuryFee",
          "type": "uint256"
        }
      ],
      "name": "setWithdrawalTreasuryFee",
      "outputs": [],
      "stateMutability": "nonpayable",
      "type": "function"
    },
    {
      "inputs": [],
      "name": "strategist",
      "outputs": [
        {
          "internalType": "address",
          "name": "",
          "type": "address"
        }
      ],
      "stateMutability": "view",
      "type": "function"
    },
    {
      "inputs": [],
      "name": "sushiRouter",
      "outputs": [
        {
          "internalType": "address",
          "name": "",
          "type": "address"
        }
      ],
      "stateMutability": "view",
      "type": "function"
    },
    {
      "inputs": [],
      "name": "sushi_qi_mimatic_lp",
      "outputs": [
        {
          "internalType": "address",
          "name": "",
          "type": "address"
        }
      ],
      "stateMutability": "view",
      "type": "function"
    },
    {
      "inputs": [],
      "name": "timelock",
      "outputs": [
        {
          "internalType": "address",
          "name": "",
          "type": "address"
        }
      ],
      "stateMutability": "view",
      "type": "function"
    },
    {
      "inputs": [],
      "name": "token0",
      "outputs": [
        {
          "internalType": "address",
          "name": "",
          "type": "address"
        }
      ],
      "stateMutability": "view",
      "type": "function"
    },
    {
      "inputs": [],
      "name": "token1",
      "outputs": [
        {
          "internalType": "address",
          "name": "",
          "type": "address"
        }
      ],
      "stateMutability": "view",
      "type": "function"
    },
    {
      "inputs": [
        {
          "internalType": "address",
          "name": "",
          "type": "address"
        },
        {
          "internalType": "uint256",
          "name": "",
          "type": "uint256"
        }
      ],
      "name": "uniswapRoutes",
      "outputs": [
        {
          "internalType": "address",
          "name": "",
          "type": "address"
        }
      ],
      "stateMutability": "view",
      "type": "function"
    },
    {
      "inputs": [],
      "name": "univ2Router2",
      "outputs": [
        {
          "internalType": "address",
          "name": "",
          "type": "address"
        }
      ],
      "stateMutability": "view",
      "type": "function"
    },
    {
      "inputs": [],
      "name": "want",
      "outputs": [
        {
          "internalType": "address",
          "name": "",
          "type": "address"
        }
      ],
      "stateMutability": "view",
      "type": "function"
    },
    {
      "inputs": [],
      "name": "weth",
      "outputs": [
        {
          "internalType": "address",
          "name": "",
          "type": "address"
        }
      ],
      "stateMutability": "view",
      "type": "function"
    },
    {
      "inputs": [
        {
          "internalType": "address[]",
          "name": "_harvesters",
          "type": "address[]"
        }
      ],
      "name": "whitelistHarvesters",
      "outputs": [],
      "stateMutability": "nonpayable",
      "type": "function"
    },
    {
      "inputs": [
        {
          "internalType": "uint256",
          "name": "_amount",
          "type": "uint256"
        }
      ],
      "name": "withdraw",
      "outputs": [],
      "stateMutability": "nonpayable",
      "type": "function"
    },
    {
      "inputs": [
        {
          "internalType": "contract IERC20",
          "name": "_asset",
          "type": "address"
        }
      ],
      "name": "withdraw",
      "outputs": [
        {
          "internalType": "uint256",
          "name": "balance",
          "type": "uint256"
        }
      ],
      "stateMutability": "nonpayable",
      "type": "function"
    },
    {
      "inputs": [],
      "name": "withdrawAll",
      "outputs": [
        {
          "internalType": "uint256",
          "name": "balance",
          "type": "uint256"
        }
      ],
      "stateMutability": "nonpayable",
      "type": "function"
    },
    {
      "inputs": [
        {
          "internalType": "uint256",
          "name": "_amount",
          "type": "uint256"
        }
      ],
      "name": "withdrawForSwap",
      "outputs": [
        {
          "internalType": "uint256",
          "name": "balance",
          "type": "uint256"
        }
      ],
      "stateMutability": "nonpayable",
      "type": "function"
    },
    {
      "inputs": [],
      "name": "withdrawalDevFundFee",
      "outputs": [
        {
          "internalType": "uint256",
          "name": "",
          "type": "uint256"
        }
      ],
      "stateMutability": "view",
      "type": "function"
    },
    {
      "inputs": [],
      "name": "withdrawalDevFundMax",
      "outputs": [
        {
          "internalType": "uint256",
          "name": "",
          "type": "uint256"
        }
      ],
      "stateMutability": "view",
      "type": "function"
    },
    {
      "inputs": [],
      "name": "withdrawalTreasuryFee",
      "outputs": [
        {
          "internalType": "uint256",
          "name": "",
          "type": "uint256"
        }
      ],
      "stateMutability": "view",
      "type": "function"
    },
    {
      "inputs": [],
      "name": "withdrawalTreasuryMax",
      "outputs": [
        {
          "internalType": "uint256",
          "name": "",
          "type": "uint256"
        }
      ],
      "stateMutability": "view",
      "type": "function"
    },
    {
      "inputs": [],
      "name": "wmatic",
      "outputs": [
        {
          "internalType": "address",
          "name": "",
          "type": "address"
        }
      ],
      "stateMutability": "view",
      "type": "function"
    }
  ],
  "transactionHash": "0x25c30a10e2fd03e0a6fd5c982b35d6a770685236a2d2c0607921cd6da1c6be5b",
  "args": [
    "0x9d074E37d408542FD38be78848e8814AFB38db17",
    "0xaCfE4511CE883C14c4eA40563F176C3C09b4c47C",
    "0x6847259b2B3A4c17e7c43C54409810aF48bA5210",
    "0xD92c7fAa0Ca0e6AE4918f3a83d9832d9CAEAA0d3"
  ],
  "solcInputHash": "8a2608861d997221c33b67a14712b94e",
  "bytecode": "0x60806040526107d06000908155600181905560028190556003819055600980546001600160a01b03199081167393bcdc45f7e62f89a8e901dc4a0e2c6c427d9f2517909155600a80548216731b02da8cb0d097eb8d57a175b88c7d8b47997506179055601082905560119190915560148054821673580a84c73811e1839f75d86d75d88cca0c241ff417905560158054821673574fe4e8120c4da1741b5fd45584de7a5b521f0f179055601680548216737afcf11f3e2f01e71b7cc6b8b5e707e42e6ea39717905560178054821673a3fa99a148fa48d14ed51d610c367c61876997f117905560188054821673831753dd7087cac61ab5644b308642cc1c33dc131790556019805490911673a5e0829caced8ffdd4de3c43696c57f7d7a678ff1790553480156200012f57600080fd5b50604051620035d0380380620035d0833981810160405260808110156200015557600080fd5b50805160208201516040830151606090930151601454601554601754601654959694956001600160a01b03938416939283169284928116916002911689898989848484848484620001a557600080fd5b6001600160a01b038416620001b957600080fd5b6001600160a01b038316620001cd57600080fd5b6001600160a01b038216620001e157600080fd5b6001600160a01b038116620001f557600080fd5b600480546001600160a01b03199081166001600160a01b03978816179091556005805482169587169590951790945560078054851693861693909317909255600680548416918516919091179055600880548316918416919091179055601297909755600e80548816998216999099179098555050600f80548516958716959095179094555050600d805482169584169590951790945550600c80549093169181169190911790915560408051808201825260145483168152601754909216602080840182905260009182526013905220620002d391600262000301565b5050601954600a80546001600160a01b0319166001600160a01b03909216919091179055506200038c915050565b82805482825590600052602060002090810192821562000359579160200282015b828111156200035957825182546001600160a01b0319166001600160a01b0390911617825560209092019160019091019062000322565b50620003679291506200036b565b5090565b5b80821115620003675780546001600160a01b03191681556001016200036c565b613234806200039c6000396000f3fe60806040526004361061036a5760003560e01c806382378594116101c6578063c39d4334116100f7578063e80028bf11610095578063fb1db2781161006f578063fb1db27814610b18578063fb41be1614610b2d578063fdd3a87914610b42578063fe1f8f7a146106b75761036a565b8063e80028bf14610624578063f77c479114610aee578063f7c618c114610b035761036a565b8063c7b9d530116100d1578063c7b9d53014610a7c578063d0e30db014610aaf578063d21220a714610ac4578063d33219b414610ad95761036a565b8063c39d433414610a13578063c6223e2614610a28578063c65e324214610a525761036a565b8063ab033ea911610164578063b9e374891161013e578063b9e37489146109a1578063bdacb303146109b6578063c1a3d44c146109e9578063c24d21eb146109fe5761036a565b8063ab033ea9146108c9578063ab73e433146108fc578063b1f55bd4146109265761036a565b806388993f22116101a057806388993f22146108575780638ccdbb701461086c5780638d252c621461088157806392eefe9b146108965761036a565b806382378594146107d1578063853828b6146107fb57806387976583146108105761036a565b80633fc8cef3116102a0578063575a86b21161023e5780635fcd6255116102185780635fcd62551461077d57806367a52793146107925780636d13582c146107a7578063722713f7146107bc5761036a565b8063575a86b21461073e57806359739ec4146107535780635aa6e675146107685761036a565b80634c2798ad1161027a5780634c2798ad146106cc5780634fe809cc1461062457806351cff8d9146106f657806351f3d0b8146107295761036a565b80633fc8cef31461068d5780634641257d146106a2578063479119be146106b75761036a565b80631f1fcd511161030d57806326e886c6116102e757806326e886c6146106245780632e1a7d4d1461063957806334571734146106635780633e0dc34e146106785761036a565b80631f1fcd51146105d05780631fe4a686146105e5578063249fb9b4146105fa5761036a565b80630e364fb6116103495780630e364fb614610400578063115880861461047d57806317d7de7c146104925780631cff79cd1461051c5761036a565b8062b70eb71461036f5780630547104d146103c45780630dfe1681146103eb575b600080fd5b34801561037b57600080fd5b506103a86004803603604081101561039257600080fd5b506001600160a01b038135169060200135610b57565b604080516001600160a01b039092168252519081900360200190f35b3480156103d057600080fd5b506103d9610b8c565b60408051918252519081900360200190f35b3480156103f757600080fd5b506103a8610c18565b34801561040c57600080fd5b5061047b6004803603602081101561042357600080fd5b810190602081018135600160201b81111561043d57600080fd5b82018360208201111561044f57600080fd5b803590602001918460208302840111600160201b8311171561047057600080fd5b509092509050610c27565b005b34801561048957600080fd5b506103d9610d01565b34801561049e57600080fd5b506104a7610d80565b6040805160208082528351818301528351919283929083019185019080838360005b838110156104e15781810151838201526020016104c9565b50505050905090810190601f16801561050e5780820380516001836020036101000a031916815260200191505b509250505060405180910390f35b6104a76004803603604081101561053257600080fd5b6001600160a01b038235169190810190604081016020820135600160201b81111561055c57600080fd5b82018360208201111561056e57600080fd5b803590602001918460018302840111600160201b8311171561058f57600080fd5b91908080601f016020809104026020016040519081016040528093929190818152602001838380828437600092019190915250929550610db0945050505050565b3480156105dc57600080fd5b506103a8610e93565b3480156105f157600080fd5b506103a8610ea2565b34801561060657600080fd5b5061047b6004803603602081101561061d57600080fd5b5035610eb1565b34801561063057600080fd5b506103d9610f01565b34801561064557600080fd5b5061047b6004803603602081101561065c57600080fd5b5035610f07565b34801561066f57600080fd5b506103a861121a565b34801561068457600080fd5b506103d9611229565b34801561069957600080fd5b506103a861122f565b3480156106ae57600080fd5b5061047b611247565b3480156106c357600080fd5b506103d9611e51565b3480156106d857600080fd5b5061047b600480360360208110156106ef57600080fd5b5035611e58565b34801561070257600080fd5b506103d96004803603602081101561071957600080fd5b50356001600160a01b0316611ea8565b34801561073557600080fd5b506103d9611fd8565b34801561074a57600080fd5b506103a8611fde565b34801561075f57600080fd5b506103d9611fed565b34801561077457600080fd5b506103a8611ff3565b34801561078957600080fd5b506103a8612002565b34801561079e57600080fd5b506103d9612011565b3480156107b357600080fd5b506103a8612017565b3480156107c857600080fd5b506103d9612026565b3480156107dd57600080fd5b5061047b600480360360208110156107f457600080fd5b5035612046565b34801561080757600080fd5b506103d9612096565b34801561081c57600080fd5b506108436004803603602081101561083357600080fd5b50356001600160a01b031661224a565b604080519115158252519081900360200190f35b34801561086357600080fd5b506103d961225f565b34801561087857600080fd5b506103d9612265565b34801561088d57600080fd5b506103a861226b565b3480156108a257600080fd5b5061047b600480360360208110156108b957600080fd5b50356001600160a01b031661227a565b3480156108d557600080fd5b5061047b600480360360208110156108ec57600080fd5b50356001600160a01b03166122e7565b34801561090857600080fd5b5061047b6004803603602081101561091f57600080fd5b5035612356565b34801561093257600080fd5b5061047b6004803603602081101561094957600080fd5b810190602081018135600160201b81111561096357600080fd5b82018360208201111561097557600080fd5b803590602001918460208302840111600160201b8311171561099657600080fd5b5090925090506123a6565b3480156109ad57600080fd5b506103a8612461565b3480156109c257600080fd5b5061047b600480360360208110156109d957600080fd5b50356001600160a01b0316612470565b3480156109f557600080fd5b506103d96124dd565b348015610a0a57600080fd5b506103a861255d565b348015610a1f57600080fd5b506103d961256c565b348015610a3457600080fd5b506103d960048036036020811015610a4b57600080fd5b5035612572565b348015610a5e57600080fd5b5061047b60048036036020811015610a7557600080fd5b503561272a565b348015610a8857600080fd5b5061047b60048036036020811015610a9f57600080fd5b50356001600160a01b031661277a565b348015610abb57600080fd5b5061047b6127e9565b348015610ad057600080fd5b506103a8612915565b348015610ae557600080fd5b506103a8612924565b348015610afa57600080fd5b506103a8612933565b348015610b0f57600080fd5b506103a8612942565b348015610b2457600080fd5b506103a8612951565b348015610b3957600080fd5b506103a8612960565b348015610b4e57600080fd5b506103a8612978565b60136020528160005260406000208181548110610b7057fe5b6000918252602090912001546001600160a01b03169150829050565b600c546012546040805163e4c75c2760e01b815260048101929092523060248301525160009283926001600160a01b039091169163e4c75c2791604480820192602092909190829003018186803b158015610be657600080fd5b505afa158015610bfa573d6000803e3d6000fd5b505050506040513d6020811015610c1057600080fd5b505191505090565b600e546001600160a01b031681565b6005546001600160a01b0316331480610c4a57506007546001600160a01b031633145b80610c645750336000908152600b602052604090205460ff165b610ca6576040805162461bcd60e51b815260206004820152600e60248201526d1b9bdd08185d5d1a1bdc9a5e995960921b604482015290519081900360640190fd5b60005b81811015610cfc576001600b6000858585818110610cc357fe5b602090810292909201356001600160a01b0316835250810191909152604001600020805460ff1916911515919091179055600101610ca9565b505050565b600c54601254604080516393f1a40b60e01b81526004810192909252306024830152805160009384936001600160a01b03909116926393f1a40b92604480840193829003018186803b158015610d5657600080fd5b505afa158015610d6a573d6000803e3d6000fd5b505050506040513d6040811015610c1057600080fd5b604080518082019091526016815275053747261746567794d616951694d694d617469634c760541b602082015290565b6008546060906001600160a01b03163314610dfe576040805162461bcd60e51b81526020600482015260096024820152682174696d656c6f636b60b81b604482015290519081900360640190fd5b6001600160a01b038316610e43576040805162461bcd60e51b8152602060048201526007602482015266085d185c99d95d60ca1b604482015290519081900360640190fd5b600080835160208501866113885a03f43d6040519250601f19601f6020830101168301604052808352806000602085013e811560018114610e8357610e8a565b8160208501fd5b50505092915050565b6004546001600160a01b031681565b6007546001600160a01b031681565b6008546001600160a01b03163314610efc576040805162461bcd60e51b81526020600482015260096024820152682174696d656c6f636b60b81b604482015290519081900360640190fd5b600055565b61271081565b6006546001600160a01b03163314610f54576040805162461bcd60e51b815260206004820152600b60248201526a10b1b7b73a3937b63632b960a91b604482015290519081900360640190fd5b60048054604080516370a0823160e01b81523093810193909352516000926001600160a01b03909216916370a08231916024808301926020929190829003018186803b158015610fa357600080fd5b505afa158015610fb7573d6000803e3d6000fd5b505050506040513d6020811015610fcd57600080fd5b5051905081811015610ffa57610feb610fe68383612987565b6129d2565b9150610ff78282612a46565b91505b600061101e620186a061101860035486612aa090919063ffffffff16565b90612af9565b90506110b0600660009054906101000a90046001600160a01b03166001600160a01b0316638d8f1e676040518163ffffffff1660e01b815260040160206040518083038186803b15801561107157600080fd5b505afa158015611085573d6000803e3d6000fd5b505050506040513d602081101561109b57600080fd5b50516004546001600160a01b03169083612b3b565b60006110ce620186a061101860025487612aa090919063ffffffff16565b9050611121600660009054906101000a90046001600160a01b03166001600160a01b03166361d027b36040518163ffffffff1660e01b815260040160206040518083038186803b15801561107157600080fd5b6006546004805460408051636535246160e11b81526001600160a01b039283169381019390935251600093919091169163ca6a48c2916024808301926020929190829003018186803b15801561117657600080fd5b505afa15801561118a573d6000803e3d6000fd5b505050506040513d60208110156111a057600080fd5b505190506001600160a01b0381166111e8576040805162461bcd60e51b8152602060048083019190915260248201526310b530b960e11b604482015290519081900360640190fd5b61121381611200846111fa8988612987565b90612987565b6004546001600160a01b03169190612b3b565b5050505050565b6016546001600160a01b031681565b60125481565b737ceb23fd6bc0add59e62ac25578270cff1b9f61981565b336000908152600b602052604090205460ff168061126f57506005546001600160a01b031633145b8061128457506007546001600160a01b031633145b61128d57600080fd5b600c5460125460408051630441a3e760e41b8152600481019290925260006024830181905290516001600160a01b039093169263441a3e7092604480820193929182900301818387803b1580156112e357600080fd5b505af11580156112f7573d6000803e3d6000fd5b5050600d54604080516370a0823160e01b81523060048201529051600094506001600160a01b0390921692506370a08231916024808301926020929190829003018186803b15801561134857600080fd5b505afa15801561135c573d6000803e3d6000fd5b505050506040513d602081101561137257600080fd5b50519050801561153857600061139961271061101860105485612aa090919063ffffffff16565b905061142c600660009054906101000a90046001600160a01b03166001600160a01b03166361d027b36040518163ffffffff1660e01b815260040160206040518083038186803b1580156113ec57600080fd5b505afa158015611400573d6000803e3d6000fd5b505050506040513d602081101561141657600080fd5b5051600d546001600160a01b0316906000612b8d565b600654604080516361d027b360e01b815290516114b1926001600160a01b0316916361d027b3916004808301926020929190829003018186803b15801561147257600080fd5b505afa158015611486573d6000803e3d6000fd5b505050506040513d602081101561149c57600080fd5b5051600d546001600160a01b03169083612b8d565b600654604080516361d027b360e01b81529051611536926001600160a01b0316916361d027b3916004808301926020929190829003018186803b1580156114f757600080fd5b505afa15801561150b573d6000803e3d6000fd5b505050506040513d602081101561152157600080fd5b5051600d546001600160a01b03169083612b3b565b505b600d54604080516370a0823160e01b815230600482015290516000926001600160a01b0316916370a08231916024808301926020929190829003018186803b15801561158357600080fd5b505afa158015611597573d6000803e3d6000fd5b505050506040513d60208110156115ad57600080fd5b50519050806115bd575050611e4f565b600a54600d546115db916001600160a01b0391821691166000612b8d565b600a54600d546115f8916001600160a01b03918216911683612b8d565b6000611605826002612af9565b905060006116138383612987565b600e546001600160a01b03166000908152601360205260408120549192509060019081101561185357600a54600e546001600160a01b039081166000908152601360205260409081902090516338ed173960e01b815260048101888152602482018690523060648301819052426084840181905260a060448501908152855460a4860181905296909716966338ed1739968c968a969095929160c490910190869080156116e957602002820191906000526020600020905b81546001600160a01b031681526001909101906020018083116116cb575b50509650505050505050600060405180830381600087803b15801561170d57600080fd5b505af1158015611721573d6000803e3d6000fd5b505050506040513d6000823e601f3d908101601f19168201604052602081101561174a57600080fd5b8101908080516040519392919084600160201b82111561176957600080fd5b90830190602082018581111561177e57600080fd5b82518660208202830111600160201b8211171561179a57600080fd5b82525081516020918201928201910280838360005b838110156117c75781810151838201526020016117af565b50505050919091016040818152600e546370a0823160e01b835230600484015290516001600160a01b0390911696506370a082319550602480830195506020945090925090829003018186803b15801561182057600080fd5b505afa158015611834573d6000803e3d6000fd5b505050506040513d602081101561184a57600080fd5b50519150611857565b8391505b600f546001600160a01b031660009081526013602052604081205460011015611a9157600a54600f546001600160a01b039081166000908152601360205260409081902090516338ed173960e01b815260048101888152602482018790523060648301819052426084840181905260a060448501908152855460a4860181905296909716966338ed1739968c968b969095929160c4909101908690801561192757602002820191906000526020600020905b81546001600160a01b03168152600190910190602001808311611909575b50509650505050505050600060405180830381600087803b15801561194b57600080fd5b505af115801561195f573d6000803e3d6000fd5b505050506040513d6000823e601f3d908101601f19168201604052602081101561198857600080fd5b8101908080516040519392919084600160201b8211156119a757600080fd5b9083019060208201858111156119bc57600080fd5b82518660208202830111600160201b821117156119d857600080fd5b82525081516020918201928201910280838360005b83811015611a055781810151838201526020016119ed565b50505050919091016040818152600f546370a0823160e01b835230600484015290516001600160a01b0390911696506370a082319550602480830195506020945090925090829003018186803b158015611a5e57600080fd5b505afa158015611a72573d6000803e3d6000fd5b505050506040513d6020811015611a8857600080fd5b50519050611a94565b50825b600083118015611aa45750600081115b15611e3f57600a54600e54611ac7916001600160a01b0391821691166000612b8d565b600a54600e54611ae4916001600160a01b03918216911685612b8d565b600a54600f54611b02916001600160a01b0391821691166000612b8d565b600a54600f54611b1f916001600160a01b03918216911683612b8d565b600a54600e54600f546040805162e8e33760e81b81526001600160a01b0393841660048201529183166024830152604482018790526064820185905260006084830181905260a483018190523060c4840152603c420160e48401529051929093169263e8e3370092610104808401936060939083900390910190829087803b158015611baa57600080fd5b505af1158015611bbe573d6000803e3d6000fd5b505050506040513d6060811015611bd457600080fd5b5050600e54600654604080516361d027b360e01b815290516001600160a01b039384169363a9059cbb9316916361d027b3916004808301926020929190829003018186803b158015611c2557600080fd5b505afa158015611c39573d6000803e3d6000fd5b505050506040513d6020811015611c4f57600080fd5b5051600e54604080516370a0823160e01b815230600482015290516001600160a01b03909216916370a0823191602480820192602092909190829003018186803b158015611c9c57600080fd5b505afa158015611cb0573d6000803e3d6000fd5b505050506040513d6020811015611cc657600080fd5b5051604080516001600160e01b031960e086901b1681526001600160a01b03909316600484015260248301919091525160448083019260209291908290030181600087803b158015611d1757600080fd5b505af1158015611d2b573d6000803e3d6000fd5b505050506040513d6020811015611d4157600080fd5b5050600654604080516361d027b360e01b81529051611e3f926001600160a01b0316916361d027b3916004808301926020929190829003018186803b158015611d8957600080fd5b505afa158015611d9d573d6000803e3d6000fd5b505050506040513d6020811015611db357600080fd5b5051600f54604080516370a0823160e01b815230600482015290516001600160a01b03909216916370a0823191602480820192602092909190829003018186803b158015611e0057600080fd5b505afa158015611e14573d6000803e3d6000fd5b505050506040513d6020811015611e2a57600080fd5b5051600f546001600160a01b03169190612b3b565b611e47612ca0565b505050505050505b565b620186a081565b6008546001600160a01b03163314611ea3576040805162461bcd60e51b81526020600482015260096024820152682174696d656c6f636b60b81b604482015290519081900360640190fd5b601055565b6006546000906001600160a01b03163314611ef8576040805162461bcd60e51b815260206004820152600b60248201526a10b1b7b73a3937b63632b960a91b604482015290519081900360640190fd5b6004546001600160a01b0383811691161415611f44576040805162461bcd60e51b815260206004808301919091526024820152631dd85b9d60e21b604482015290519081900360640190fd5b604080516370a0823160e01b815230600482015290516001600160a01b038416916370a08231916024808301926020929190829003018186803b158015611f8a57600080fd5b505afa158015611f9e573d6000803e3d6000fd5b505050506040513d6020811015611fb457600080fd5b5051600654909150611fd3906001600160a01b03848116911683612b3b565b919050565b60035481565b6015546001600160a01b031681565b60005481565b6005546001600160a01b031681565b6014546001600160a01b031681565b60115481565b600a546001600160a01b031681565b6000612041612033610d01565b61203b6124dd565b90612a46565b905090565b6008546001600160a01b03163314612091576040805162461bcd60e51b81526020600482015260096024820152682174696d656c6f636b60b81b604482015290519081900360640190fd5b600255565b6006546000906001600160a01b031633146120e6576040805162461bcd60e51b815260206004820152600b60248201526a10b1b7b73a3937b63632b960a91b604482015290519081900360640190fd5b6120ee612e3b565b60048054604080516370a0823160e01b81523093810193909352516001600160a01b03909116916370a08231916024808301926020929190829003018186803b15801561213a57600080fd5b505afa15801561214e573d6000803e3d6000fd5b505050506040513d602081101561216457600080fd5b50516006546004805460408051636535246160e11b81526001600160a01b03928316938101939093525193945060009392169163ca6a48c291602480820192602092909190829003018186803b1580156121bd57600080fd5b505afa1580156121d1573d6000803e3d6000fd5b505050506040513d60208110156121e757600080fd5b505190506001600160a01b03811661222f576040805162461bcd60e51b8152602060048083019190915260248201526310b530b960e11b604482015290519081900360640190fd5b600454612246906001600160a01b03168284612b3b565b5090565b600b6020526000908152604090205460ff1681565b60015481565b60025481565b6019546001600160a01b031681565b6008546001600160a01b031633146122c5576040805162461bcd60e51b81526020600482015260096024820152682174696d656c6f636b60b81b604482015290519081900360640190fd5b600680546001600160a01b0319166001600160a01b0392909216919091179055565b6005546001600160a01b03163314612334576040805162461bcd60e51b815260206004820152600b60248201526a21676f7665726e616e636560a81b604482015290519081900360640190fd5b600580546001600160a01b0319166001600160a01b0392909216919091179055565b6008546001600160a01b031633146123a1576040805162461bcd60e51b81526020600482015260096024820152682174696d656c6f636b60b81b604482015290519081900360640190fd5b600355565b6005546001600160a01b03163314806123c957506007546001600160a01b031633145b61240b576040805162461bcd60e51b815260206004820152600e60248201526d1b9bdd08185d5d1a1bdc9a5e995960921b604482015290519081900360640190fd5b60005b81811015610cfc576000600b600085858581811061242857fe5b602090810292909201356001600160a01b0316835250810191909152604001600020805460ff191691151591909117905560010161240e565b6009546001600160a01b031681565b6008546001600160a01b031633146124bb576040805162461bcd60e51b81526020600482015260096024820152682174696d656c6f636b60b81b604482015290519081900360640190fd5b600880546001600160a01b0319166001600160a01b0392909216919091179055565b60048054604080516370a0823160e01b81523093810193909352516000926001600160a01b03909216916370a08231916024808301926020929190829003018186803b15801561252c57600080fd5b505afa158015612540573d6000803e3d6000fd5b505050506040513d602081101561255657600080fd5b5051905090565b6017546001600160a01b031681565b60105481565b6006546000906001600160a01b031633146125c2576040805162461bcd60e51b815260206004820152600b60248201526a10b1b7b73a3937b63632b960a91b604482015290519081900360640190fd5b6125cb826129d2565b5060048054604080516370a0823160e01b81523093810193909352516001600160a01b03909116916370a08231916024808301926020929190829003018186803b15801561261857600080fd5b505afa15801561262c573d6000803e3d6000fd5b505050506040513d602081101561264257600080fd5b50516006546004805460408051636535246160e11b81526001600160a01b03928316938101939093525193945060009392169163ca6a48c291602480820192602092909190829003018186803b15801561269b57600080fd5b505afa1580156126af573d6000803e3d6000fd5b505050506040513d60208110156126c557600080fd5b505190506001600160a01b03811661270d576040805162461bcd60e51b8152602060048083019190915260248201526310b530b960e11b604482015290519081900360640190fd5b600454612724906001600160a01b03168284612b3b565b50919050565b6008546001600160a01b03163314612775576040805162461bcd60e51b81526020600482015260096024820152682174696d656c6f636b60b81b604482015290519081900360640190fd5b600155565b6005546001600160a01b031633146127c7576040805162461bcd60e51b815260206004820152600b60248201526a21676f7665726e616e636560a81b604482015290519081900360640190fd5b600780546001600160a01b0319166001600160a01b0392909216919091179055565b60048054604080516370a0823160e01b81523093810193909352516000926001600160a01b03909216916370a08231916024808301926020929190829003018186803b15801561283857600080fd5b505afa15801561284c573d6000803e3d6000fd5b505050506040513d602081101561286257600080fd5b50519050801561291257600c5460045461288a916001600160a01b0391821691166000612b8d565b600c546004546128a7916001600160a01b03918216911683612b8d565b600c5460125460408051631c57762b60e31b8152600481019290925260248201849052516001600160a01b039092169163e2bbb1589160448082019260009290919082900301818387803b1580156128fe57600080fd5b505af1158015611213573d6000803e3d6000fd5b50565b600f546001600160a01b031681565b6008546001600160a01b031681565b6006546001600160a01b031681565b600d546001600160a01b031681565b600c546001600160a01b031681565b730d500b1d8e8ef31e21c99d1db9a6444d3adf127081565b6018546001600160a01b031681565b60006129c983836040518060400160405280601e81526020017f536166654d6174683a207375627472616374696f6e206f766572666c6f770000815250612e46565b90505b92915050565b600c5460125460408051630441a3e760e41b8152600481019290925260248201849052516000926001600160a01b03169163441a3e70916044808301928692919082900301818387803b158015612a2857600080fd5b505af1158015612a3c573d6000803e3d6000fd5b5093949350505050565b6000828201838110156129c9576040805162461bcd60e51b815260206004820152601b60248201527f536166654d6174683a206164646974696f6e206f766572666c6f770000000000604482015290519081900360640190fd5b600082612aaf575060006129cc565b82820282848281612abc57fe5b04146129c95760405162461bcd60e51b815260040180806020018281038252602181526020018061317e6021913960400191505060405180910390fd5b60006129c983836040518060400160405280601a81526020017f536166654d6174683a206469766973696f6e206279207a65726f000000000000815250612edd565b604080516001600160a01b038416602482015260448082018490528251808303909101815260649091019091526020810180516001600160e01b031663a9059cbb60e01b179052610cfc908490612f42565b801580612c13575060408051636eb1769f60e11b81523060048201526001600160a01b03848116602483015291519185169163dd62ed3e91604480820192602092909190829003018186803b158015612be557600080fd5b505afa158015612bf9573d6000803e3d6000fd5b505050506040513d6020811015612c0f57600080fd5b5051155b612c4e5760405162461bcd60e51b81526004018080602001828103825260368152602001806131c96036913960400191505060405180910390fd5b604080516001600160a01b038416602482015260448082018490528251808303909101815260649091019091526020810180516001600160e01b031663095ea7b360e01b179052610cfc908490612f42565b60048054604080516370a0823160e01b81523093810193909352516000926001600160a01b03909216916370a08231916024808301926020929190829003018186803b158015612cef57600080fd5b505afa158015612d03573d6000803e3d6000fd5b505050506040513d6020811015612d1957600080fd5b50519050801561291257600654604080516361d027b360e01b81529051612dab926001600160a01b0316916361d027b3916004808301926020929190829003018186803b158015612d6957600080fd5b505afa158015612d7d573d6000803e3d6000fd5b505050506040513d6020811015612d9357600080fd5b50516000546112009061271090611018908690612aa0565b60065460408051638d8f1e6760e01b81529051612e33926001600160a01b031691638d8f1e67916004808301926020929190829003018186803b158015612df157600080fd5b505afa158015612e05573d6000803e3d6000fd5b505050506040513d6020811015612e1b57600080fd5b50516001546112009061271090611018908690612aa0565b6129126127e9565b612912610fe6610d01565b60008184841115612ed55760405162461bcd60e51b81526004018080602001828103825283818151815260200191508051906020019080838360005b83811015612e9a578181015183820152602001612e82565b50505050905090810190601f168015612ec75780820380516001836020036101000a031916815260200191505b509250505060405180910390fd5b505050900390565b60008183612f2c5760405162461bcd60e51b8152602060048201818152835160248401528351909283926044909101919085019080838360008315612e9a578181015183820152602001612e82565b506000838581612f3857fe5b0495945050505050565b6060612f97826040518060400160405280602081526020017f5361666545524332303a206c6f772d6c6576656c2063616c6c206661696c6564815250856001600160a01b0316612ff39092919063ffffffff16565b805190915015610cfc57808060200190516020811015612fb657600080fd5b5051610cfc5760405162461bcd60e51b815260040180806020018281038252602a81526020018061319f602a913960400191505060405180910390fd5b6060613002848460008561300a565b949350505050565b606061301585613177565b613066576040805162461bcd60e51b815260206004820152601d60248201527f416464726573733a2063616c6c20746f206e6f6e2d636f6e7472616374000000604482015290519081900360640190fd5b60006060866001600160a01b031685876040518082805190602001908083835b602083106130a55780518252601f199092019160209182019101613086565b6001836020036101000a03801982511681845116808217855250505050505090500191505060006040518083038185875af1925050503d8060008114613107576040519150601f19603f3d011682016040523d82523d6000602084013e61310c565b606091505b509150915081156131205791506130029050565b8051156131305780518082602001fd5b60405162461bcd60e51b8152602060048201818152865160248401528651879391928392604401919085019080838360008315612e9a578181015183820152602001612e82565b3b15159056fe536166654d6174683a206d756c7469706c69636174696f6e206f766572666c6f775361666545524332303a204552433230206f7065726174696f6e20646964206e6f7420737563636565645361666545524332303a20617070726f76652066726f6d206e6f6e2d7a65726f20746f206e6f6e2d7a65726f20616c6c6f77616e6365a2646970667358221220b6c561837b95c3a052a200482ab1114bb6d6672cd7a27f00d32ec5a36765106264736f6c634300060c0033",
  "devdoc": {
    "kind": "dev",
    "methods": {},
    "version": 1
  },
  "userdoc": {
    "kind": "user",
    "methods": {},
    "version": 1
  },
  "storageLayout": {
    "storage": [
      {
        "astId": 26466,
        "contract": "src/strategies/polygon/mai/strategy-qi-mimatic-lp.sol:StrategyMaiQiMiMaticLp",
        "label": "performanceTreasuryFee",
        "offset": 0,
        "slot": "0",
        "type": "t_uint256"
      },
      {
        "astId": 26472,
        "contract": "src/strategies/polygon/mai/strategy-qi-mimatic-lp.sol:StrategyMaiQiMiMaticLp",
        "label": "performanceDevFee",
        "offset": 0,
        "slot": "1",
        "type": "t_uint256"
      },
      {
        "astId": 26478,
        "contract": "src/strategies/polygon/mai/strategy-qi-mimatic-lp.sol:StrategyMaiQiMiMaticLp",
        "label": "withdrawalTreasuryFee",
        "offset": 0,
        "slot": "2",
        "type": "t_uint256"
      },
      {
        "astId": 26484,
        "contract": "src/strategies/polygon/mai/strategy-qi-mimatic-lp.sol:StrategyMaiQiMiMaticLp",
        "label": "withdrawalDevFundFee",
        "offset": 0,
        "slot": "3",
        "type": "t_uint256"
      },
      {
        "astId": 26489,
        "contract": "src/strategies/polygon/mai/strategy-qi-mimatic-lp.sol:StrategyMaiQiMiMaticLp",
        "label": "want",
        "offset": 0,
        "slot": "4",
        "type": "t_address"
      },
      {
        "astId": 26497,
        "contract": "src/strategies/polygon/mai/strategy-qi-mimatic-lp.sol:StrategyMaiQiMiMaticLp",
        "label": "governance",
        "offset": 0,
        "slot": "5",
        "type": "t_address"
      },
      {
        "astId": 26499,
        "contract": "src/strategies/polygon/mai/strategy-qi-mimatic-lp.sol:StrategyMaiQiMiMaticLp",
        "label": "controller",
        "offset": 0,
        "slot": "6",
        "type": "t_address"
      },
      {
        "astId": 26501,
        "contract": "src/strategies/polygon/mai/strategy-qi-mimatic-lp.sol:StrategyMaiQiMiMaticLp",
        "label": "strategist",
        "offset": 0,
        "slot": "7",
        "type": "t_address"
      },
      {
        "astId": 26503,
        "contract": "src/strategies/polygon/mai/strategy-qi-mimatic-lp.sol:StrategyMaiQiMiMaticLp",
        "label": "timelock",
        "offset": 0,
        "slot": "8",
        "type": "t_address"
      },
      {
        "astId": 26506,
        "contract": "src/strategies/polygon/mai/strategy-qi-mimatic-lp.sol:StrategyMaiQiMiMaticLp",
        "label": "univ2Router2",
        "offset": 0,
        "slot": "9",
        "type": "t_address"
      },
      {
        "astId": 26509,
        "contract": "src/strategies/polygon/mai/strategy-qi-mimatic-lp.sol:StrategyMaiQiMiMaticLp",
        "label": "sushiRouter",
        "offset": 0,
        "slot": "10",
        "type": "t_address"
      },
      {
        "astId": 26513,
        "contract": "src/strategies/polygon/mai/strategy-qi-mimatic-lp.sol:StrategyMaiQiMiMaticLp",
        "label": "harvesters",
        "offset": 0,
        "slot": "11",
        "type": "t_mapping(t_address,t_bool)"
      },
      {
        "astId": 27636,
        "contract": "src/strategies/polygon/mai/strategy-qi-mimatic-lp.sol:StrategyMaiQiMiMaticLp",
        "label": "masterchef",
        "offset": 0,
        "slot": "12",
        "type": "t_address"
      },
      {
        "astId": 27638,
        "contract": "src/strategies/polygon/mai/strategy-qi-mimatic-lp.sol:StrategyMaiQiMiMaticLp",
        "label": "rewardToken",
        "offset": 0,
        "slot": "13",
        "type": "t_address"
      },
      {
        "astId": 27640,
        "contract": "src/strategies/polygon/mai/strategy-qi-mimatic-lp.sol:StrategyMaiQiMiMaticLp",
        "label": "token0",
        "offset": 0,
        "slot": "14",
        "type": "t_address"
      },
      {
        "astId": 27642,
        "contract": "src/strategies/polygon/mai/strategy-qi-mimatic-lp.sol:StrategyMaiQiMiMaticLp",
        "label": "token1",
        "offset": 0,
        "slot": "15",
        "type": "t_address"
      },
      {
        "astId": 27645,
        "contract": "src/strategies/polygon/mai/strategy-qi-mimatic-lp.sol:StrategyMaiQiMiMaticLp",
        "label": "keepReward",
        "offset": 0,
        "slot": "16",
        "type": "t_uint256"
      },
      {
        "astId": 27651,
        "contract": "src/strategies/polygon/mai/strategy-qi-mimatic-lp.sol:StrategyMaiQiMiMaticLp",
        "label": "depositFee",
        "offset": 0,
        "slot": "17",
        "type": "t_uint256"
      },
      {
        "astId": 27653,
        "contract": "src/strategies/polygon/mai/strategy-qi-mimatic-lp.sol:StrategyMaiQiMiMaticLp",
        "label": "poolId",
        "offset": 0,
        "slot": "18",
        "type": "t_uint256"
      },
      {
        "astId": 27658,
        "contract": "src/strategies/polygon/mai/strategy-qi-mimatic-lp.sol:StrategyMaiQiMiMaticLp",
        "label": "uniswapRoutes",
        "offset": 0,
        "slot": "19",
        "type": "t_mapping(t_address,t_array(t_address)dyn_storage)"
      },
      {
        "astId": 26362,
        "contract": "src/strategies/polygon/mai/strategy-qi-mimatic-lp.sol:StrategyMaiQiMiMaticLp",
        "label": "qi",
        "offset": 0,
        "slot": "20",
        "type": "t_address"
      },
      {
        "astId": 26365,
        "contract": "src/strategies/polygon/mai/strategy-qi-mimatic-lp.sol:StrategyMaiQiMiMaticLp",
        "label": "masterChef",
        "offset": 0,
        "slot": "21",
        "type": "t_address"
      },
      {
        "astId": 26368,
        "contract": "src/strategies/polygon/mai/strategy-qi-mimatic-lp.sol:StrategyMaiQiMiMaticLp",
        "label": "sushi_qi_mimatic_lp",
        "offset": 0,
        "slot": "22",
        "type": "t_address"
      },
      {
        "astId": 26371,
        "contract": "src/strategies/polygon/mai/strategy-qi-mimatic-lp.sol:StrategyMaiQiMiMaticLp",
        "label": "mimatic",
        "offset": 0,
        "slot": "23",
        "type": "t_address"
      },
      {
        "astId": 26374,
        "contract": "src/strategies/polygon/mai/strategy-qi-mimatic-lp.sol:StrategyMaiQiMiMaticLp",
        "label": "quick",
        "offset": 0,
        "slot": "24",
        "type": "t_address"
      },
      {
        "astId": 26377,
        "contract": "src/strategies/polygon/mai/strategy-qi-mimatic-lp.sol:StrategyMaiQiMiMaticLp",
        "label": "quickRouter",
        "offset": 0,
        "slot": "25",
        "type": "t_address"
      }
    ],
    "types": {
      "t_address": {
        "encoding": "inplace",
        "label": "address",
        "numberOfBytes": "20"
      },
      "t_array(t_address)dyn_storage": {
        "base": "t_address",
        "encoding": "dynamic_array",
        "label": "address[]",
        "numberOfBytes": "32"
      },
      "t_bool": {
        "encoding": "inplace",
        "label": "bool",
        "numberOfBytes": "1"
      },
      "t_mapping(t_address,t_array(t_address)dyn_storage)": {
        "encoding": "mapping",
        "key": "t_address",
        "label": "mapping(address => address[])",
        "numberOfBytes": "32",
        "value": "t_array(t_address)dyn_storage"
      },
      "t_mapping(t_address,t_bool)": {
        "encoding": "mapping",
        "key": "t_address",
        "label": "mapping(address => bool)",
        "numberOfBytes": "32",
        "value": "t_bool"
      },
      "t_uint256": {
        "encoding": "inplace",
        "label": "uint256",
        "numberOfBytes": "32"
      }
    }
  }
}