{
  "address": "0x6dFcDd474857306c78b7fdad9Ee3125CFd9aB968",
  "abi": [
    {
      "inputs": [],
      "stateMutability": "nonpayable",
      "type": "constructor"
    },
    {
      "inputs": [
        {
          "internalType": "address",
          "name": "_voter",
          "type": "address"
        }
      ],
      "name": "balanceOf",
      "outputs": [
        {
          "internalType": "uint256",
          "name": "",
          "type": "uint256"
        }
      ],
      "stateMutability": "view",
      "type": "function"
    },
    {
      "inputs": [],
      "name": "decimals",
      "outputs": [
        {
          "internalType": "uint8",
          "name": "",
          "type": "uint8"
        }
      ],
      "stateMutability": "pure",
      "type": "function"
    },
    {
      "inputs": [],
      "name": "dill",
      "outputs": [
        {
          "internalType": "contract Dill",
          "name": "",
          "type": "address"
        }
      ],
      "stateMutability": "view",
      "type": "function"
    },
    {
      "inputs": [],
      "name": "name",
      "outputs": [
        {
          "internalType": "string",
          "name": "",
          "type": "string"
        }
      ],
      "stateMutability": "pure",
      "type": "function"
    },
    {
      "inputs": [],
      "name": "symbol",
      "outputs": [
        {
          "internalType": "string",
          "name": "",
          "type": "string"
        }
      ],
      "stateMutability": "pure",
      "type": "function"
    },
    {
      "inputs": [],
      "name": "totalSupply",
      "outputs": [
        {
          "internalType": "uint256",
          "name": "",
          "type": "uint256"
        }
      ],
      "stateMutability": "view",
      "type": "function"
    }
  ],
  "transactionHash": "0xbc2da6ff58e0c6b225275a1bf114d29fcbc3621a944092ddae6e4049a8939df9",
  "args": [],
  "solcInputHash": "aa903d8f51fdfdf50af3af0986c22453",
  "bytecode": "0x608060405234801561001057600080fd5b5061032f806100206000396000f3fe608060405234801561001057600080fd5b50600436106100625760003560e01c806306fdde031461006757806318160ddd146100e4578063313ce567146100fe578063398b9cac1461011c57806370a082311461014057806395d89b4114610166575b600080fd5b61006f61016e565b6040805160208082528351818301528351919283929083019185019080838360005b838110156100a9578181015183820152602001610091565b50505050905090810190601f1680156100d65780820380516001836020036101000a031916815260200191505b509250505060405180910390f35b6100ec6101a5565b60408051918252519081900360200190f35b610106610225565b6040805160ff9092168252519081900360200190f35b61012461022a565b604080516001600160a01b039092168252519081900360200190f35b6100ec6004803603602081101561015657600080fd5b50356001600160a01b0316610242565b61006f6102d7565b60408051808201909152601981527f5049434b4c457320496e20546865204369746164656c20563300000000000000602082015290565b600073bbcf169ee191a1ba7371f30a1c344bfc498b29cf6001600160a01b03166318160ddd6040518163ffffffff1660e01b815260040160206040518083038186803b1580156101f457600080fd5b505afa158015610208573d6000803e3d6000fd5b505050506040513d602081101561021e57600080fd5b5051905090565b601290565b73bbcf169ee191a1ba7371f30a1c344bfc498b29cf81565b600073bbcf169ee191a1ba7371f30a1c344bfc498b29cf6001600160a01b03166370a08231836040518263ffffffff1660e01b815260040180826001600160a01b0316815260200191505060206040518083038186803b1580156102a557600080fd5b505afa1580156102b9573d6000803e3d6000fd5b505050506040513d60208110156102cf57600080fd5b505192915050565b6040805180820190915260088152675049434b4c45204360c01b60208201529056fea2646970667358221220da40609bb81f123ed35dd35c1413db3867848abce1d4dff225187aa4e20c6f9664736f6c634300060c0033",
  "devdoc": {
    "kind": "dev",
    "methods": {},
    "version": 1
  },
  "userdoc": {
    "kind": "user",
    "methods": {},
    "version": 1
  },
  "storageLayout": {
    "storage": [],
    "types": null
  }
}