{
  "address": "0x88680F1c56AbcAf3D351e8CFEc7244ca458B64E3",
  "abi": [
    {
      "inputs": [
        {
          "internalType": "address",
          "name": "_controller",
          "type": "address"
        },
        {
          "internalType": "address",
          "name": "_timelock",
          "type": "address"
        }
      ],
      "stateMutability": "nonpayable",
      "type": "constructor"
    },
    {
      "inputs": [],
      "name": "balanceOf",
      "outputs": [
        {
          "internalType": "uint256",
          "name": "",
          "type": "uint256"
        }
      ],
      "stateMutability": "view",
      "type": "function"
    },
    {
      "inputs": [],
      "name": "balanceOfPool",
      "outputs": [
        {
          "internalType": "uint256",
          "name": "",
          "type": "uint256"
        }
      ],
      "stateMutability": "view",
      "type": "function"
    },
    {
      "inputs": [],
      "name": "balanceOfWant",
      "outputs": [
        {
          "internalType": "uint256",
          "name": "",
          "type": "uint256"
        }
      ],
      "stateMutability": "view",
      "type": "function"
    },
    {
      "inputs": [],
      "name": "controller",
      "outputs": [
        {
          "internalType": "address",
          "name": "",
          "type": "address"
        }
      ],
      "stateMutability": "view",
      "type": "function"
    },
    {
      "inputs": [],
      "name": "crv_eurs_lp",
      "outputs": [
        {
          "internalType": "address",
          "name": "",
          "type": "address"
        }
      ],
      "stateMutability": "view",
      "type": "function"
    },
    {
      "inputs": [],
      "name": "deposit",
      "outputs": [],
      "stateMutability": "nonpayable",
      "type": "function"
    },
    {
      "inputs": [
        {
          "internalType": "address",
          "name": "_target",
          "type": "address"
        },
        {
          "internalType": "bytes",
          "name": "_data",
          "type": "bytes"
        }
      ],
      "name": "execute",
      "outputs": [
        {
          "internalType": "bytes",
          "name": "response",
          "type": "bytes"
        }
      ],
      "stateMutability": "payable",
      "type": "function"
    },
    {
      "inputs": [],
      "name": "getName",
      "outputs": [
        {
          "internalType": "string",
          "name": "",
          "type": "string"
        }
      ],
      "stateMutability": "nonpayable",
      "type": "function"
    },
    {
      "inputs": [],
      "name": "name",
      "outputs": [
        {
          "internalType": "string",
          "name": "",
          "type": "string"
        }
      ],
      "stateMutability": "view",
      "type": "function"
    },
    {
      "inputs": [
        {
          "internalType": "address",
          "name": "_controller",
          "type": "address"
        }
      ],
      "name": "setController",
      "outputs": [],
      "stateMutability": "nonpayable",
      "type": "function"
    },
    {
      "inputs": [],
      "name": "timelock",
      "outputs": [
        {
          "internalType": "address",
          "name": "",
          "type": "address"
        }
      ],
      "stateMutability": "view",
      "type": "function"
    },
    {
      "inputs": [],
      "name": "vault",
      "outputs": [
        {
          "internalType": "address",
          "name": "",
          "type": "address"
        }
      ],
      "stateMutability": "view",
      "type": "function"
    },
    {
      "inputs": [],
      "name": "want",
      "outputs": [
        {
          "internalType": "address",
          "name": "",
          "type": "address"
        }
      ],
      "stateMutability": "view",
      "type": "function"
    },
    {
      "inputs": [
        {
          "internalType": "uint256",
          "name": "_amount",
          "type": "uint256"
        }
      ],
      "name": "withdraw",
      "outputs": [],
      "stateMutability": "nonpayable",
      "type": "function"
    },
    {
      "inputs": [
        {
          "internalType": "contract IERC20",
          "name": "_asset",
          "type": "address"
        }
      ],
      "name": "withdraw",
      "outputs": [
        {
          "internalType": "uint256",
          "name": "balance",
          "type": "uint256"
        }
      ],
      "stateMutability": "nonpayable",
      "type": "function"
    },
    {
      "inputs": [],
      "name": "withdrawAll",
      "outputs": [
        {
          "internalType": "uint256",
          "name": "balance",
          "type": "uint256"
        }
      ],
      "stateMutability": "nonpayable",
      "type": "function"
    },
    {
      "inputs": [
        {
          "internalType": "uint256",
          "name": "_amount",
          "type": "uint256"
        }
      ],
      "name": "withdrawForSwap",
      "outputs": [
        {
          "internalType": "uint256",
          "name": "balance",
          "type": "uint256"
        }
      ],
      "stateMutability": "nonpayable",
      "type": "function"
    },
    {
      "inputs": [],
      "name": "yVault",
      "outputs": [
        {
          "internalType": "address",
          "name": "",
          "type": "address"
        }
      ],
      "stateMutability": "view",
      "type": "function"
    }
  ],
  "transactionHash": "0x8874a5d07f9fa350c37bdad0a2e164642ad06a11608fee97b1a7d10990bd9cd8",
  "args": [
    "0x6847259b2B3A4c17e7c43C54409810aF48bA5210",
    "0xD92c7fAa0Ca0e6AE4918f3a83d9832d9CAEAA0d3"
  ],
  "solcInputHash": "9df243fd751a1214b195d9f1dd913e46",
  "bytecode": "0x6080604052600580546001600160a01b031990811673194ebd173f6cdace046c53eacce9b953f28411d117909155600680549091167398b058b2cbacf5e99bc7012df757ea7cfebd35bc1790553480156200005957600080fd5b50604051620018e3380380620018e3833981810160405260408110156200007f57600080fd5b5080516020909101516005546006546001600160a01b039182169116838383620000a857600080fd5b6001600160a01b038216620000bc57600080fd5b600280546001600160a01b038087166001600160a01b0319928316811790935560008054868316908416178155600180548684169085161790556004805492881692909316919091178255604080516395d89b4160e01b815290516395d89b41938281019392829003018186803b1580156200013757600080fd5b505afa1580156200014c573d6000803e3d6000fd5b505050506040513d6000823e601f3d908101601f1916820160405260208110156200017657600080fd5b81019080805160405193929190846401000000008211156200019757600080fd5b908301906020820185811115620001ad57600080fd5b8251640100000000811182820188101715620001c857600080fd5b82525081516020918201929091019080838360005b83811015620001f7578181015183820152602001620001dd565b50505050905090810190601f168015620002255780820380516001836020036101000a031916815260200191505b506040525050506040516020018080607960f81b81525060010182805190602001908083835b602083106200026c5780518252601f1990920191602091820191016200024b565b51815160209384036101000a60001901801990921691161790527f20763120416666696c69617465205374726174656779000000000000000000009190930190815260408051808303600919018152601690920190528051620002d99550600394509201919050620003ef565b50836001600160a01b031663095ea7b3846000196040518363ffffffff1660e01b815260040180836001600160a01b0316815260200182815260200192505050602060405180830381600087803b1580156200033457600080fd5b505af115801562000349573d6000803e3d6000fd5b505050506040513d60208110156200036057600080fd5b50506040805163095ea7b360e01b81526001600160a01b038516600482018190526000196024830152915163095ea7b3916044808201926020929091908290030181600087803b158015620003b457600080fd5b505af1158015620003c9573d6000803e3d6000fd5b505050506040513d6020811015620003e057600080fd5b506200048b9650505050505050565b828054600181600116156101000203166002900490600052602060002090601f016020900481019282601f106200043257805160ff191683800117855562000462565b8280016001018555821562000462579182015b828111156200046257825182559160200191906001019062000445565b506200047092915062000474565b5090565b5b8082111562000470576000815560010162000475565b611448806200049b6000396000f3fe6080604052600436106101095760003560e01c8063722713f711610095578063c6223e2611610064578063c6223e26146103b6578063d0e30db0146103e0578063d33219b4146103f5578063f77c47911461040a578063fbfa77cf1461041f57610109565b8063722713f714610344578063853828b61461035957806392eefe9b1461036e578063c1a3d44c146103a157610109565b80631f1fcd51116100dc5780631f1fcd511461028a5780632e1a7d4d146102bb57806333303f8e146102e757806351cff8d9146102fc5780636c04f2ac1461032f57610109565b806306fdde031461010e578063115880861461019857806317d7de7c146101bf5780631cff79cd146101d4575b600080fd5b34801561011a57600080fd5b50610123610434565b6040805160208082528351818301528351919283929083019185019080838360005b8381101561015d578181015183820152602001610145565b50505050905090810190601f16801561018a5780820380516001836020036101000a031916815260200191505b509250505060405180910390f35b3480156101a457600080fd5b506101ad6104c2565b60408051918252519081900360200190f35b3480156101cb57600080fd5b506101236104d1565b610123600480360360408110156101ea57600080fd5b6001600160a01b03823516919081019060408101602082013564010000000081111561021557600080fd5b82018360208201111561022757600080fd5b8035906020019184600183028401116401000000008311171561024957600080fd5b91908080601f016020809104026020016040519081016040528093929190818152602001838380828437600092019190915250929550610567945050505050565b34801561029657600080fd5b5061029f61064a565b604080516001600160a01b039092168252519081900360200190f35b3480156102c757600080fd5b506102e5600480360360208110156102de57600080fd5b5035610659565b005b3480156102f357600080fd5b5061029f610808565b34801561030857600080fd5b506101ad6004803603602081101561031f57600080fd5b50356001600160a01b0316610817565b34801561033b57600080fd5b5061029f610945565b34801561035057600080fd5b506101ad610954565b34801561036557600080fd5b506101ad6109d5565b34801561037a57600080fd5b506102e56004803603602081101561039157600080fd5b50356001600160a01b0316610b8b565b3480156103ad57600080fd5b506101ad610bf8565b3480156103c257600080fd5b506101ad600480360360208110156103d957600080fd5b5035610bfd565b3480156103ec57600080fd5b506102e5610dae565b34801561040157600080fd5b5061029f610ed4565b34801561041657600080fd5b5061029f610ee3565b34801561042b57600080fd5b5061029f610ef2565b6003805460408051602060026001851615610100026000190190941693909304601f810184900484028201840190925281815292918301828280156104ba5780601f1061048f576101008083540402835291602001916104ba565b820191906000526020600020905b81548152906001019060200180831161049d57829003601f168201915b505050505081565b60006104cc610954565b905090565b60038054604080516020601f600260001961010060018816150201909516949094049384018190048102820181019092528281526060939092909183018282801561055d5780601f106105325761010080835404028352916020019161055d565b820191906000526020600020905b81548152906001019060200180831161054057829003601f168201915b5050505050905090565b6001546060906001600160a01b031633146105b5576040805162461bcd60e51b81526020600482015260096024820152682174696d656c6f636b60b81b604482015290519081900360640190fd5b6001600160a01b0383166105fa576040805162461bcd60e51b8152602060048201526007602482015266085d185c99d95d60ca1b604482015290519081900360640190fd5b600080835160208501866113885a03f43d6040519250601f19601f6020830101168301604052808352806000602085013e81156001811461063a57610641565b8160208501fd5b50505092915050565b6002546001600160a01b031681565b6000546001600160a01b031633146106a6576040805162461bcd60e51b815260206004820152600b60248201526a10b1b7b73a3937b63632b960a91b604482015290519081900360640190fd5b6106af81610f01565b600254604080516370a0823160e01b815230600482015290516000926001600160a01b0316916370a08231916024808301926020929190829003018186803b1580156106fa57600080fd5b505afa15801561070e573d6000803e3d6000fd5b505050506040513d602081101561072457600080fd5b50516000805460025460408051636535246160e11b81526001600160a01b0392831660048201529051949550929391169163ca6a48c2916024808301926020929190829003018186803b15801561077a57600080fd5b505afa15801561078e573d6000803e3d6000fd5b505050506040513d60208110156107a457600080fd5b505190506001600160a01b0381166107ec576040805162461bcd60e51b8152602060048083019190915260248201526310b530b960e11b604482015290519081900360640190fd5b600254610803906001600160a01b03168284610ff4565b505050565b6004546001600160a01b031681565b600080546001600160a01b03163314610865576040805162461bcd60e51b815260206004820152600b60248201526a10b1b7b73a3937b63632b960a91b604482015290519081900360640190fd5b6002546001600160a01b03838116911614156108b1576040805162461bcd60e51b815260206004808301919091526024820152631dd85b9d60e21b604482015290519081900360640190fd5b604080516370a0823160e01b815230600482015290516001600160a01b038416916370a08231916024808301926020929190829003018186803b1580156108f757600080fd5b505afa15801561090b573d6000803e3d6000fd5b505050506040513d602081101561092157600080fd5b5051600054909150610940906001600160a01b03848116911683610ff4565b919050565b6005546001600160a01b031681565b6000600460009054906101000a90046001600160a01b03166001600160a01b031663b69ef8a86040518163ffffffff1660e01b815260040160206040518083038186803b1580156109a457600080fd5b505afa1580156109b8573d6000803e3d6000fd5b505050506040513d60208110156109ce57600080fd5b5051905090565b600080546001600160a01b03163314610a23576040805162461bcd60e51b815260206004820152600b60248201526a10b1b7b73a3937b63632b960a91b604482015290519081900360640190fd5b610a33610a2e610954565b610f01565b600254604080516370a0823160e01b815230600482015290516001600160a01b03909216916370a0823191602480820192602092909190829003018186803b158015610a7e57600080fd5b505afa158015610a92573d6000803e3d6000fd5b505050506040513d6020811015610aa857600080fd5b50516000805460025460408051636535246160e11b81526001600160a01b0392831660048201529051949550929391169163ca6a48c2916024808301926020929190829003018186803b158015610afe57600080fd5b505afa158015610b12573d6000803e3d6000fd5b505050506040513d6020811015610b2857600080fd5b505190506001600160a01b038116610b70576040805162461bcd60e51b8152602060048083019190915260248201526310b530b960e11b604482015290519081900360640190fd5b600254610b87906001600160a01b03168284610ff4565b5090565b6001546001600160a01b03163314610bd6576040805162461bcd60e51b81526020600482015260096024820152682174696d656c6f636b60b81b604482015290519081900360640190fd5b600080546001600160a01b0319166001600160a01b0392909216919091179055565b600090565b600080546001600160a01b03163314610c4b576040805162461bcd60e51b815260206004820152600b60248201526a10b1b7b73a3937b63632b960a91b604482015290519081900360640190fd5b610c5482610f01565b600254604080516370a0823160e01b815230600482015290516001600160a01b03909216916370a0823191602480820192602092909190829003018186803b158015610c9f57600080fd5b505afa158015610cb3573d6000803e3d6000fd5b505050506040513d6020811015610cc957600080fd5b50516000805460025460408051636535246160e11b81526001600160a01b0392831660048201529051949550929391169163ca6a48c2916024808301926020929190829003018186803b158015610d1f57600080fd5b505afa158015610d33573d6000803e3d6000fd5b505050506040513d6020811015610d4957600080fd5b505190506001600160a01b038116610d91576040805162461bcd60e51b8152602060048083019190915260248201526310b530b960e11b604482015290519081900360640190fd5b600254610da8906001600160a01b03168284610ff4565b50919050565b6000546001600160a01b03163314610dfb576040805162461bcd60e51b815260206004820152600b60248201526a10b1b7b73a3937b63632b960a91b604482015290519081900360640190fd5b600254604080516370a0823160e01b815230600482015290516000926001600160a01b0316916370a08231916024808301926020929190829003018186803b158015610e4657600080fd5b505afa158015610e5a573d6000803e3d6000fd5b505050506040513d6020811015610e7057600080fd5b50516004805460408051631bcbec4d60e31b815290519394506001600160a01b039091169263de5f62689282810192600092919082900301818387803b158015610eb957600080fd5b505af1158015610ecd573d6000803e3d6000fd5b5050505050565b6001546001600160a01b031681565b6000546001600160a01b031681565b6006546001600160a01b031681565b6004805460408051631df1ee3f60e21b81529051600093610f8b936001600160a01b0316926377c7b8fc9281830192602092829003018186803b158015610f4757600080fd5b505afa158015610f5b573d6000803e3d6000fd5b505050506040513d6020811015610f7157600080fd5b5051610f8584670de0b6b3a7640000611046565b906110a8565b6004805460408051632e1a7d4d60e01b8152928301849052519293506001600160a01b031691632e1a7d4d9160248082019260009290919082900301818387803b158015610fd857600080fd5b505af1158015610fec573d6000803e3d6000fd5b505050505050565b604080516001600160a01b038416602482015260448082018490528251808303909101815260649091019091526020810180516001600160e01b031663a9059cbb60e01b1790526108039084906110ea565b600082611055575060006110a2565b8282028284828161106257fe5b041461109f5760405162461bcd60e51b81526004018080602001828103825260218152602001806113c86021913960400191505060405180910390fd5b90505b92915050565b600061109f83836040518060400160405280601a81526020017f536166654d6174683a206469766973696f6e206279207a65726f00000000000081525061119b565b606061113f826040518060400160405280602081526020017f5361666545524332303a206c6f772d6c6576656c2063616c6c206661696c6564815250856001600160a01b031661123d9092919063ffffffff16565b8051909150156108035780806020019051602081101561115e57600080fd5b50516108035760405162461bcd60e51b815260040180806020018281038252602a8152602001806113e9602a913960400191505060405180910390fd5b600081836112275760405162461bcd60e51b81526004018080602001828103825283818151815260200191508051906020019080838360005b838110156111ec5781810151838201526020016111d4565b50505050905090810190601f1680156112195780820380516001836020036101000a031916815260200191505b509250505060405180910390fd5b50600083858161123357fe5b0495945050505050565b606061124c8484600085611254565b949350505050565b606061125f856113c1565b6112b0576040805162461bcd60e51b815260206004820152601d60248201527f416464726573733a2063616c6c20746f206e6f6e2d636f6e7472616374000000604482015290519081900360640190fd5b60006060866001600160a01b031685876040518082805190602001908083835b602083106112ef5780518252601f1990920191602091820191016112d0565b6001836020036101000a03801982511681845116808217855250505050505090500191505060006040518083038185875af1925050503d8060008114611351576040519150601f19603f3d011682016040523d82523d6000602084013e611356565b606091505b5091509150811561136a57915061124c9050565b80511561137a5780518082602001fd5b60405162461bcd60e51b81526020600482018181528651602484015286518793919283926044019190850190808383600083156111ec5781810151838201526020016111d4565b3b15159056fe536166654d6174683a206d756c7469706c69636174696f6e206f766572666c6f775361666545524332303a204552433230206f7065726174696f6e20646964206e6f742073756363656564a2646970667358221220d89aa1399da0650f8852d4ff1114db15f7fa984a7f218dedd26333d48d429cc764736f6c634300060c0033",
  "devdoc": {
    "kind": "dev",
    "methods": {},
    "version": 1
  },
  "userdoc": {
    "kind": "user",
    "methods": {},
    "version": 1
  },
  "storageLayout": {
    "storage": [
      {
        "astId": 24703,
        "contract": "src/strategies/yearn/strategy-yearn-seurs.sol:StrategyYearnCrvEurs",
        "label": "controller",
        "offset": 0,
        "slot": "0",
        "type": "t_address"
      },
      {
        "astId": 24705,
        "contract": "src/strategies/yearn/strategy-yearn-seurs.sol:StrategyYearnCrvEurs",
        "label": "timelock",
        "offset": 0,
        "slot": "1",
        "type": "t_address"
      },
      {
        "astId": 24707,
        "contract": "src/strategies/yearn/strategy-yearn-seurs.sol:StrategyYearnCrvEurs",
        "label": "want",
        "offset": 0,
        "slot": "2",
        "type": "t_address"
      },
      {
        "astId": 24709,
        "contract": "src/strategies/yearn/strategy-yearn-seurs.sol:StrategyYearnCrvEurs",
        "label": "name",
        "offset": 0,
        "slot": "3",
        "type": "t_string_storage"
      },
      {
        "astId": 24711,
        "contract": "src/strategies/yearn/strategy-yearn-seurs.sol:StrategyYearnCrvEurs",
        "label": "yVault",
        "offset": 0,
        "slot": "4",
        "type": "t_address"
      },
      {
        "astId": 25808,
        "contract": "src/strategies/yearn/strategy-yearn-seurs.sol:StrategyYearnCrvEurs",
        "label": "crv_eurs_lp",
        "offset": 0,
        "slot": "5",
        "type": "t_address"
      },
      {
        "astId": 25811,
        "contract": "src/strategies/yearn/strategy-yearn-seurs.sol:StrategyYearnCrvEurs",
        "label": "vault",
        "offset": 0,
        "slot": "6",
        "type": "t_address"
      }
    ],
    "types": {
      "t_address": {
        "encoding": "inplace",
        "label": "address",
        "numberOfBytes": "20"
      },
      "t_string_storage": {
        "encoding": "bytes",
        "label": "string",
        "numberOfBytes": "32"
      }
    }
  }
}