{
  "address": "0xeFf9D9e776a7A381aa6A348E3A81E578b6699346",
  "abi": [
    {
      "inputs": [
        {
          "internalType": "address",
          "name": "_governance",
          "type": "address"
        },
        {
          "internalType": "address",
          "name": "_strategist",
          "type": "address"
        },
        {
          "internalType": "address",
          "name": "_controller",
          "type": "address"
        },
        {
          "internalType": "address",
          "name": "_timelock",
          "type": "address"
        }
      ],
      "stateMutability": "nonpayable",
      "type": "constructor"
    },
    {
      "inputs": [],
      "name": "balanceOf",
      "outputs": [
        {
          "internalType": "uint256",
          "name": "",
          "type": "uint256"
        }
      ],
      "stateMutability": "view",
      "type": "function"
    },
    {
      "inputs": [],
      "name": "balanceOfPool",
      "outputs": [
        {
          "internalType": "uint256",
          "name": "",
          "type": "uint256"
        }
      ],
      "stateMutability": "view",
      "type": "function"
    },
    {
      "inputs": [],
      "name": "balanceOfWant",
      "outputs": [
        {
          "internalType": "uint256",
          "name": "",
          "type": "uint256"
        }
      ],
      "stateMutability": "view",
      "type": "function"
    },
    {
      "inputs": [],
      "name": "controller",
      "outputs": [
        {
          "internalType": "address",
          "name": "",
          "type": "address"
        }
      ],
      "stateMutability": "view",
      "type": "function"
    },
    {
      "inputs": [],
      "name": "deposit",
      "outputs": [],
      "stateMutability": "nonpayable",
      "type": "function"
    },
    {
      "inputs": [
        {
          "internalType": "address",
          "name": "_target",
          "type": "address"
        },
        {
          "internalType": "bytes",
          "name": "_data",
          "type": "bytes"
        }
      ],
      "name": "execute",
      "outputs": [
        {
          "internalType": "bytes",
          "name": "response",
          "type": "bytes"
        }
      ],
      "stateMutability": "payable",
      "type": "function"
    },
    {
      "inputs": [],
      "name": "getHarvestable",
      "outputs": [
        {
          "internalType": "uint256",
          "name": "",
          "type": "uint256"
        }
      ],
      "stateMutability": "view",
      "type": "function"
    },
    {
      "inputs": [],
      "name": "getName",
      "outputs": [
        {
          "internalType": "string",
          "name": "",
          "type": "string"
        }
      ],
      "stateMutability": "pure",
      "type": "function"
    },
    {
      "inputs": [],
      "name": "governance",
      "outputs": [
        {
          "internalType": "address",
          "name": "",
          "type": "address"
        }
      ],
      "stateMutability": "view",
      "type": "function"
    },
    {
      "inputs": [],
      "name": "harvest",
      "outputs": [],
      "stateMutability": "nonpayable",
      "type": "function"
    },
    {
      "inputs": [
        {
          "internalType": "address",
          "name": "",
          "type": "address"
        }
      ],
      "name": "harvesters",
      "outputs": [
        {
          "internalType": "bool",
          "name": "",
          "type": "bool"
        }
      ],
      "stateMutability": "view",
      "type": "function"
    },
    {
      "inputs": [],
      "name": "keepSUSHI",
      "outputs": [
        {
          "internalType": "uint256",
          "name": "",
          "type": "uint256"
        }
      ],
      "stateMutability": "view",
      "type": "function"
    },
    {
      "inputs": [],
      "name": "keepSUSHIMax",
      "outputs": [
        {
          "internalType": "uint256",
          "name": "",
          "type": "uint256"
        }
      ],
      "stateMutability": "view",
      "type": "function"
    },
    {
      "inputs": [],
      "name": "masterChef",
      "outputs": [
        {
          "internalType": "address",
          "name": "",
          "type": "address"
        }
      ],
      "stateMutability": "view",
      "type": "function"
    },
    {
      "inputs": [],
      "name": "performanceDevFee",
      "outputs": [
        {
          "internalType": "uint256",
          "name": "",
          "type": "uint256"
        }
      ],
      "stateMutability": "view",
      "type": "function"
    },
    {
      "inputs": [],
      "name": "performanceDevMax",
      "outputs": [
        {
          "internalType": "uint256",
          "name": "",
          "type": "uint256"
        }
      ],
      "stateMutability": "view",
      "type": "function"
    },
    {
      "inputs": [],
      "name": "performanceTreasuryFee",
      "outputs": [
        {
          "internalType": "uint256",
          "name": "",
          "type": "uint256"
        }
      ],
      "stateMutability": "view",
      "type": "function"
    },
    {
      "inputs": [],
      "name": "performanceTreasuryMax",
      "outputs": [
        {
          "internalType": "uint256",
          "name": "",
          "type": "uint256"
        }
      ],
      "stateMutability": "view",
      "type": "function"
    },
    {
      "inputs": [],
      "name": "poolId",
      "outputs": [
        {
          "internalType": "uint256",
          "name": "",
          "type": "uint256"
        }
      ],
      "stateMutability": "view",
      "type": "function"
    },
    {
      "inputs": [
        {
          "internalType": "address[]",
          "name": "_harvesters",
          "type": "address[]"
        }
      ],
      "name": "revokeHarvesters",
      "outputs": [],
      "stateMutability": "nonpayable",
      "type": "function"
    },
    {
      "inputs": [
        {
          "internalType": "address",
          "name": "_controller",
          "type": "address"
        }
      ],
      "name": "setController",
      "outputs": [],
      "stateMutability": "nonpayable",
      "type": "function"
    },
    {
      "inputs": [
        {
          "internalType": "address",
          "name": "_governance",
          "type": "address"
        }
      ],
      "name": "setGovernance",
      "outputs": [],
      "stateMutability": "nonpayable",
      "type": "function"
    },
    {
      "inputs": [
        {
          "internalType": "uint256",
          "name": "_keepSUSHI",
          "type": "uint256"
        }
      ],
      "name": "setKeepSUSHI",
      "outputs": [],
      "stateMutability": "nonpayable",
      "type": "function"
    },
    {
      "inputs": [
        {
          "internalType": "uint256",
          "name": "_performanceDevFee",
          "type": "uint256"
        }
      ],
      "name": "setPerformanceDevFee",
      "outputs": [],
      "stateMutability": "nonpayable",
      "type": "function"
    },
    {
      "inputs": [
        {
          "internalType": "uint256",
          "name": "_performanceTreasuryFee",
          "type": "uint256"
        }
      ],
      "name": "setPerformanceTreasuryFee",
      "outputs": [],
      "stateMutability": "nonpayable",
      "type": "function"
    },
    {
      "inputs": [
        {
          "internalType": "address",
          "name": "_strategist",
          "type": "address"
        }
      ],
      "name": "setStrategist",
      "outputs": [],
      "stateMutability": "nonpayable",
      "type": "function"
    },
    {
      "inputs": [
        {
          "internalType": "address",
          "name": "_timelock",
          "type": "address"
        }
      ],
      "name": "setTimelock",
      "outputs": [],
      "stateMutability": "nonpayable",
      "type": "function"
    },
    {
      "inputs": [
        {
          "internalType": "uint256",
          "name": "_withdrawalDevFundFee",
          "type": "uint256"
        }
      ],
      "name": "setWithdrawalDevFundFee",
      "outputs": [],
      "stateMutability": "nonpayable",
      "type": "function"
    },
    {
      "inputs": [
        {
          "internalType": "uint256",
          "name": "_withdrawalTreasuryFee",
          "type": "uint256"
        }
      ],
      "name": "setWithdrawalTreasuryFee",
      "outputs": [],
      "stateMutability": "nonpayable",
      "type": "function"
    },
    {
      "inputs": [],
      "name": "strategist",
      "outputs": [
        {
          "internalType": "address",
          "name": "",
          "type": "address"
        }
      ],
      "stateMutability": "view",
      "type": "function"
    },
    {
      "inputs": [],
      "name": "sushi",
      "outputs": [
        {
          "internalType": "address",
          "name": "",
          "type": "address"
        }
      ],
      "stateMutability": "view",
      "type": "function"
    },
    {
      "inputs": [],
      "name": "sushiRouter",
      "outputs": [
        {
          "internalType": "address",
          "name": "",
          "type": "address"
        }
      ],
      "stateMutability": "view",
      "type": "function"
    },
    {
      "inputs": [],
      "name": "sushi_eth_yvboost_lp",
      "outputs": [
        {
          "internalType": "address",
          "name": "",
          "type": "address"
        }
      ],
      "stateMutability": "view",
      "type": "function"
    },
    {
      "inputs": [],
      "name": "sushi_yvboost_poolId",
      "outputs": [
        {
          "internalType": "uint256",
          "name": "",
          "type": "uint256"
        }
      ],
      "stateMutability": "view",
      "type": "function"
    },
    {
      "inputs": [],
      "name": "timelock",
      "outputs": [
        {
          "internalType": "address",
          "name": "",
          "type": "address"
        }
      ],
      "stateMutability": "view",
      "type": "function"
    },
    {
      "inputs": [],
      "name": "token1",
      "outputs": [
        {
          "internalType": "address",
          "name": "",
          "type": "address"
        }
      ],
      "stateMutability": "view",
      "type": "function"
    },
    {
      "inputs": [],
      "name": "univ2Router2",
      "outputs": [
        {
          "internalType": "address",
          "name": "",
          "type": "address"
        }
      ],
      "stateMutability": "view",
      "type": "function"
    },
    {
      "inputs": [],
      "name": "want",
      "outputs": [
        {
          "internalType": "address",
          "name": "",
          "type": "address"
        }
      ],
      "stateMutability": "view",
      "type": "function"
    },
    {
      "inputs": [],
      "name": "weth",
      "outputs": [
        {
          "internalType": "address",
          "name": "",
          "type": "address"
        }
      ],
      "stateMutability": "view",
      "type": "function"
    },
    {
      "inputs": [
        {
          "internalType": "address[]",
          "name": "_harvesters",
          "type": "address[]"
        }
      ],
      "name": "whitelistHarvesters",
      "outputs": [],
      "stateMutability": "nonpayable",
      "type": "function"
    },
    {
      "inputs": [
        {
          "internalType": "uint256",
          "name": "_amount",
          "type": "uint256"
        }
      ],
      "name": "withdraw",
      "outputs": [],
      "stateMutability": "nonpayable",
      "type": "function"
    },
    {
      "inputs": [
        {
          "internalType": "contract IERC20",
          "name": "_asset",
          "type": "address"
        }
      ],
      "name": "withdraw",
      "outputs": [
        {
          "internalType": "uint256",
          "name": "balance",
          "type": "uint256"
        }
      ],
      "stateMutability": "nonpayable",
      "type": "function"
    },
    {
      "inputs": [],
      "name": "withdrawAll",
      "outputs": [
        {
          "internalType": "uint256",
          "name": "balance",
          "type": "uint256"
        }
      ],
      "stateMutability": "nonpayable",
      "type": "function"
    },
    {
      "inputs": [
        {
          "internalType": "uint256",
          "name": "_amount",
          "type": "uint256"
        }
      ],
      "name": "withdrawForSwap",
      "outputs": [
        {
          "internalType": "uint256",
          "name": "balance",
          "type": "uint256"
        }
      ],
      "stateMutability": "nonpayable",
      "type": "function"
    },
    {
      "inputs": [],
      "name": "withdrawalDevFundFee",
      "outputs": [
        {
          "internalType": "uint256",
          "name": "",
          "type": "uint256"
        }
      ],
      "stateMutability": "view",
      "type": "function"
    },
    {
      "inputs": [],
      "name": "withdrawalDevFundMax",
      "outputs": [
        {
          "internalType": "uint256",
          "name": "",
          "type": "uint256"
        }
      ],
      "stateMutability": "view",
      "type": "function"
    },
    {
      "inputs": [],
      "name": "withdrawalTreasuryFee",
      "outputs": [
        {
          "internalType": "uint256",
          "name": "",
          "type": "uint256"
        }
      ],
      "stateMutability": "view",
      "type": "function"
    },
    {
      "inputs": [],
      "name": "withdrawalTreasuryMax",
      "outputs": [
        {
          "internalType": "uint256",
          "name": "",
          "type": "uint256"
        }
      ],
      "stateMutability": "view",
      "type": "function"
    },
    {
      "inputs": [],
      "name": "yvboost",
      "outputs": [
        {
          "internalType": "address",
          "name": "",
          "type": "address"
        }
      ],
      "stateMutability": "view",
      "type": "function"
    }
  ],
  "transactionHash": "0x9bc81856454a6ea60973d2a5f4ed006e316c1bd57d6681b1558746b31465efa3",
  "args": [
    "0xD92c7fAa0Ca0e6AE4918f3a83d9832d9CAEAA0d3",
    "0x1CbF903De5D688eDa7D6D895ea2F0a8F2A521E99",
    "0x6847259b2B3A4c17e7c43C54409810aF48bA5210",
    "0xD92c7fAa0Ca0e6AE4918f3a83d9832d9CAEAA0d3"
  ],
  "solcInputHash": "f712ce4c9b3d0d60f02c4e9eed2248b7",
  "bytecode": "0x60806040526107d06000908155600181905560028190556003819055600980546001600160a01b0319908116737a250d5630b4cf539739df2c5dacb4c659f2488d17909155600a8054821673d9e1ce17f2641f24ae83637ab66a2cca9c378b9f179055600d9190915560bd600f55601080548216739461173740d27311b176476fa27e94c681b1ea6b17905560118054909116739d409a0a012cfba9b15f6d4b36ac57a46966ab9a179055348015620000b757600080fd5b5060405162003ab438038062003ab483398181016040526080811015620000dd57600080fd5b50805160208201516040830151606090930151601154600f54601054949593946001600160a01b039283169216868686868484848484846200011e57600080fd5b6001600160a01b0384166200013257600080fd5b6001600160a01b0383166200014657600080fd5b6001600160a01b0382166200015a57600080fd5b6001600160a01b0381166200016e57600080fd5b600480546001600160a01b03199081166001600160a01b03978816179091556005805482169587169590951790945560078054851693861693909317909255600680548416918516919091179055600880548316918416919091179055600e889055600c8054909116898316179055600a546200021191736b3595068778dd592e39a122f4f5a5cf09c90fe291166000196200025e602090811b62002cd317901c565b600a546200024d9073c02aaa39b223fe8d0a0e5c4f27ead9083c756cc2906001600160a01b03166000196200025e602090811b62002cd317901c565b505050505050505050505062000627565b801580620002e8575060408051636eb1769f60e11b81523060048201526001600160a01b03848116602483015291519185169163dd62ed3e91604480820192602092909190829003018186803b158015620002b857600080fd5b505afa158015620002cd573d6000803e3d6000fd5b505050506040513d6020811015620002e457600080fd5b5051155b620003255760405162461bcd60e51b815260040180806020018281038252603681526020018062003a7e6036913960400191505060405180910390fd5b604080516001600160a01b038416602482015260448082018490528251808303909101815260649091019091526020810180516001600160e01b0390811663095ea7b360e01b179091526200037d9185916200038216565b505050565b6060620003de826040518060400160405280602081526020017f5361666545524332303a206c6f772d6c6576656c2063616c6c206661696c6564815250856001600160a01b03166200043e60201b620031be179092919060201c565b8051909150156200037d57808060200190516020811015620003ff57600080fd5b50516200037d5760405162461bcd60e51b815260040180806020018281038252602a81526020018062003a54602a913960400191505060405180910390fd5b60606200045884846000856001600160e01b036200046016565b949350505050565b606062000476856001600160e01b036200062116565b620004c8576040805162461bcd60e51b815260206004820152601d60248201527f416464726573733a2063616c6c20746f206e6f6e2d636f6e7472616374000000604482015290519081900360640190fd5b60006060866001600160a01b031685876040518082805190602001908083835b60208310620005095780518252601f199092019160209182019101620004e8565b6001836020036101000a03801982511681845116808217855250505050505090500191505060006040518083038185875af1925050503d80600081146200056d576040519150601f19603f3d011682016040523d82523d6000602084013e62000572565b606091505b5091509150811562000588579150620004589050565b805115620005995780518082602001fd5b8360405162461bcd60e51b81526004018080602001828103825283818151815260200191508051906020019080838360005b83811015620005e5578181015183820152602001620005cb565b50505050905090810190601f168015620006135780820380516001836020036101000a031916815260200191505b509250505060405180910390fd5b3b151590565b61341d80620006376000396000f3fe60806040526004361061031e5760003560e01c8063665b8155116101a5578063b9e37489116100ec578063c99142f111610095578063d33219b41161006f578063d33219b414610a1b578063e7ec97a414610a30578063f77c479114610a45578063fe1f8f7a146106215761031e565b8063c99142f1146105a3578063d0e30db0146109f1578063d21220a714610a065761031e565b8063c6223e26116100c6578063c6223e261461096a578063c65e324214610994578063c7b9d530146109be5761031e565b8063b9e374891461090d578063bdacb30314610922578063c1a3d44c146109555761031e565b806388993f221161014e578063ab033ea911610128578063ab033ea914610833578063ab73e43314610866578063b1f55bd4146108905761031e565b806388993f22146107d65780638ccdbb70146107eb57806392eefe9b146108005761031e565b8063823785941161017f5780638237859414610750578063853828b61461077a578063879765831461078f5761031e565b8063665b8155146107115780636d13582c14610726578063722713f71461073b5761031e565b80633fc8cef311610269578063575a86b2116102125780635aa6e675116101ec5780635aa6e675146106d257806365148511146106e757806365b543a4146106fc5761031e565b8063575a86b21461067e57806359274a041461069357806359739ec4146106bd5761031e565b80634fe809cc116102435780634fe809cc146105a357806351cff8d91461063657806351f3d0b8146106695761031e565b80633fc8cef3146105f75780634641257d1461060c578063479119be146106215761031e565b80631f1fcd51116102cb57806326e886c6116102a557806326e886c6146105a35780632e1a7d4d146105b85780633e0dc34e146105e25761031e565b80631f1fcd511461054f5780631fe4a68614610564578063249fb9b4146105795761031e565b806311588086116102fc57806311588086146103fa57806317d7de7c1461040f5780631cff79cd146104995761031e565b80630547104d146103235780630a0879031461034a5780630e364fb61461037b575b600080fd5b34801561032f57600080fd5b50610338610a5a565b60408051918252519081900360200190f35b34801561035657600080fd5b5061035f610b03565b604080516001600160a01b039092168252519081900360200190f35b34801561038757600080fd5b506103f86004803603602081101561039e57600080fd5b8101906020810181356401000000008111156103b957600080fd5b8201836020820111156103cb57600080fd5b803590602001918460208302840111640100000000831117156103ed57600080fd5b509092509050610b1b565b005b34801561040657600080fd5b50610338610c22565b34801561041b57600080fd5b50610424610ccb565b6040805160208082528351818301528351919283929083019185019080838360005b8381101561045e578181015183820152602001610446565b50505050905090810190601f16801561048b5780820380516001836020036101000a031916815260200191505b509250505060405180910390f35b610424600480360360408110156104af57600080fd5b6001600160a01b0382351691908101906040810160208201356401000000008111156104da57600080fd5b8201836020820111156104ec57600080fd5b8035906020019184600183028401116401000000008311171561050e57600080fd5b91908080601f016020809104026020016040519081016040528093929190818152602001838380828437600092019190915250929550610d02945050505050565b34801561055b57600080fd5b5061035f610e0f565b34801561057057600080fd5b5061035f610e1e565b34801561058557600080fd5b506103f86004803603602081101561059c57600080fd5b5035610e2d565b3480156105af57600080fd5b50610338610e91565b3480156105c457600080fd5b506103f8600480360360208110156105db57600080fd5b5035610e97565b3480156105ee57600080fd5b50610338611218565b34801561060357600080fd5b5061035f61121e565b34801561061857600080fd5b506103f8611236565b34801561062d57600080fd5b50610338611a53565b34801561064257600080fd5b506103386004803603602081101561065957600080fd5b50356001600160a01b0316611a5a565b34801561067557600080fd5b50610338611bbb565b34801561068a57600080fd5b5061035f611bc1565b34801561069f57600080fd5b506103f8600480360360208110156106b657600080fd5b5035611bd9565b3480156106c957600080fd5b50610338611c3d565b3480156106de57600080fd5b5061035f611c43565b3480156106f357600080fd5b5061035f611c52565b34801561070857600080fd5b50610338611c61565b34801561071d57600080fd5b50610338611c67565b34801561073257600080fd5b5061035f611c6d565b34801561074757600080fd5b50610338611c7c565b34801561075c57600080fd5b506103f86004803603602081101561077357600080fd5b5035611ca2565b34801561078657600080fd5b50610338611d06565b34801561079b57600080fd5b506107c2600480360360208110156107b257600080fd5b50356001600160a01b0316611f04565b604080519115158252519081900360200190f35b3480156107e257600080fd5b50610338611f19565b3480156107f757600080fd5b50610338611f1f565b34801561080c57600080fd5b506103f86004803603602081101561082357600080fd5b50356001600160a01b0316611f25565b34801561083f57600080fd5b506103f86004803603602081101561085657600080fd5b50356001600160a01b0316611fbe565b34801561087257600080fd5b506103f86004803603602081101561088957600080fd5b5035612057565b34801561089c57600080fd5b506103f8600480360360208110156108b357600080fd5b8101906020810181356401000000008111156108ce57600080fd5b8201836020820111156108e057600080fd5b8035906020019184602083028401116401000000008311171561090257600080fd5b5090925090506120bb565b34801561091957600080fd5b5061035f6121a3565b34801561092e57600080fd5b506103f86004803603602081101561094557600080fd5b50356001600160a01b03166121b2565b34801561096157600080fd5b5061033861224b565b34801561097657600080fd5b506103386004803603602081101561098d57600080fd5b503561229a565b3480156109a057600080fd5b506103f8600480360360208110156109b757600080fd5b503561249c565b3480156109ca57600080fd5b506103f8600480360360208110156109e157600080fd5b50356001600160a01b0316612500565b3480156109fd57600080fd5b506103f8612599565b348015610a1257600080fd5b5061035f6126fa565b348015610a2757600080fd5b5061035f612709565b348015610a3c57600080fd5b5061035f612718565b348015610a5157600080fd5b5061035f612727565b600e54604080517f195426ec00000000000000000000000000000000000000000000000000000000815260048101929092523060248301525160009173c2edad668740f1aa35e4d8f227fb8e17dca888cd9163195426ec91604480820192602092909190829003018186803b158015610ad257600080fd5b505afa158015610ae6573d6000803e3d6000fd5b505050506040513d6020811015610afc57600080fd5b5051905090565b736b3595068778dd592e39a122f4f5a5cf09c90fe281565b6005546001600160a01b0316331480610b3e57506007546001600160a01b031633145b80610b585750336000908152600b602052604090205460ff165b610ba9576040805162461bcd60e51b815260206004820152600e60248201527f6e6f7420617574686f72697a6564000000000000000000000000000000000000604482015290519081900360640190fd5b60005b81811015610c1d576001600b6000858585818110610bc657fe5b602090810292909201356001600160a01b031683525081019190915260400160002080547fffffffffffffffffffffffffffffffffffffffffffffffffffffffffffffff0016911515919091179055600101610bac565b505050565b600e54604080517f93f1a40b00000000000000000000000000000000000000000000000000000000815260048101929092523060248301528051600092839273c2edad668740f1aa35e4d8f227fb8e17dca888cd926393f1a40b926044808201939291829003018186803b158015610c9957600080fd5b505afa158015610cad573d6000803e3d6000fd5b505050506040513d6040811015610cc357600080fd5b505191505090565b60408051808201909152601981527f537472617465677953757368694574685976426f6f73744c7000000000000000602082015290565b6008546060906001600160a01b03163314610d64576040805162461bcd60e51b815260206004820152600960248201527f2174696d656c6f636b0000000000000000000000000000000000000000000000604482015290519081900360640190fd5b6001600160a01b038316610dbf576040805162461bcd60e51b815260206004820152600760248201527f2174617267657400000000000000000000000000000000000000000000000000604482015290519081900360640190fd5b600080835160208501866113885a03f43d6040519250601f19601f6020830101168301604052808352806000602085013e811560018114610dff57610e06565b8160208501fd5b50505092915050565b6004546001600160a01b031681565b6007546001600160a01b031681565b6008546001600160a01b03163314610e8c576040805162461bcd60e51b815260206004820152600960248201527f2174696d656c6f636b0000000000000000000000000000000000000000000000604482015290519081900360640190fd5b600055565b61271081565b6006546001600160a01b03163314610ef6576040805162461bcd60e51b815260206004820152600b60248201527f21636f6e74726f6c6c6572000000000000000000000000000000000000000000604482015290519081900360640190fd5b60048054604080516370a0823160e01b81523093810193909352516000926001600160a01b03909216916370a08231916024808301926020929190829003018186803b158015610f4557600080fd5b505afa158015610f59573d6000803e3d6000fd5b505050506040513d6020811015610f6f57600080fd5b5051905081811015610fa857610f93610f8e838363ffffffff61273616565b612781565b9150610fa5828263ffffffff61280516565b91505b6000610fd2620186a0610fc66003548661285f90919063ffffffff16565b9063ffffffff6128b816565b905061106a600660009054906101000a90046001600160a01b03166001600160a01b0316638d8f1e676040518163ffffffff1660e01b815260040160206040518083038186803b15801561102557600080fd5b505afa158015611039573d6000803e3d6000fd5b505050506040513d602081101561104f57600080fd5b50516004546001600160a01b0316908363ffffffff6128fa16565b6000611088620186a0610fc66002548761285f90919063ffffffff16565b90506110db600660009054906101000a90046001600160a01b03166001600160a01b03166361d027b36040518163ffffffff1660e01b815260040160206040518083038186803b15801561102557600080fd5b60065460048054604080517fca6a48c20000000000000000000000000000000000000000000000000000000081526001600160a01b039283169381019390935251600093919091169163ca6a48c2916024808301926020929190829003018186803b15801561114957600080fd5b505afa15801561115d573d6000803e3d6000fd5b505050506040513d602081101561117357600080fd5b505190506001600160a01b0381166111d4576040805162461bcd60e51b8152602060048083019190915260248201527f216a617200000000000000000000000000000000000000000000000000000000604482015290519081900360640190fd5b611211816111f8846111ec898863ffffffff61273616565b9063ffffffff61273616565b6004546001600160a01b0316919063ffffffff6128fa16565b5050505050565b600e5481565b73c02aaa39b223fe8d0a0e5c4f27ead9083c756cc281565b336000908152600b602052604090205460ff168061125e57506005546001600160a01b031633145b8061127357506007546001600160a01b031633145b61127c57600080fd5b73c2edad668740f1aa35e4d8f227fb8e17dca888cd6001600160a01b031663e2bbb158600e5460006040518363ffffffff1660e01b81526004018083815260200182815260200192505050600060405180830381600087803b1580156112e157600080fd5b505af11580156112f5573d6000803e3d6000fd5b5050604080516370a0823160e01b8152306004820152905160009350736b3595068778dd592e39a122f4f5a5cf09c90fe292506370a0823191602480820192602092909190829003018186803b15801561134e57600080fd5b505afa158015611362573d6000803e3d6000fd5b505050506040513d602081101561137857600080fd5b50519050801561148457600061139f612710610fc6600d548561285f90919063ffffffff16565b9050611440600660009054906101000a90046001600160a01b03166001600160a01b03166361d027b36040518163ffffffff1660e01b815260040160206040518083038186803b1580156113f257600080fd5b505afa158015611406573d6000803e3d6000fd5b505050506040513d602081101561141c57600080fd5b5051736b3595068778dd592e39a122f4f5a5cf09c90fe2908363ffffffff6128fa16565b611482736b3595068778dd592e39a122f4f5a5cf09c90fe273c02aaa39b223fe8d0a0e5c4f27ead9083c756cc261147d858563ffffffff61273616565b61297a565b505b604080516370a0823160e01b8152306004820152905160009173c02aaa39b223fe8d0a0e5c4f27ead9083c756cc2916370a0823191602480820192602092909190829003018186803b1580156114d957600080fd5b505afa1580156114ed573d6000803e3d6000fd5b505050506040513d602081101561150357600080fd5b50519050801561154457600c546115449073c02aaa39b223fe8d0a0e5c4f27ead9083c756cc2906001600160a01b031661147d84600263ffffffff6128b816565b604080516370a0823160e01b8152306004820152905173c02aaa39b223fe8d0a0e5c4f27ead9083c756cc2916370a08231916024808301926020929190829003018186803b15801561159557600080fd5b505afa1580156115a9573d6000803e3d6000fd5b505050506040513d60208110156115bf57600080fd5b5051600c54604080516370a0823160e01b815230600482015290519293506000926001600160a01b03909216916370a0823191602480820192602092909190829003018186803b15801561161257600080fd5b505afa158015611626573d6000803e3d6000fd5b505050506040513d602081101561163c57600080fd5b50519050811580159061164f5750600081115b15611a4b57600a54600c54611678916001600160a01b039182169116600063ffffffff612cd316565b600a54600c5461169b916001600160a01b0391821691168363ffffffff612cd316565b600a54600c54604080517fe8e3370000000000000000000000000000000000000000000000000000000000815273c02aaa39b223fe8d0a0e5c4f27ead9083c756cc260048201526001600160a01b039283166024820152604481018690526064810185905260006084820181905260a482018190523060c4830152603c420160e48301529151929093169263e8e33700926101048083019360609383900390910190829087803b15801561174e57600080fd5b505af1158015611762573d6000803e3d6000fd5b505050506040513d606081101561177857600080fd5b5050600654604080517f61d027b3000000000000000000000000000000000000000000000000000000008152905173c02aaa39b223fe8d0a0e5c4f27ead9083c756cc29263a9059cbb926001600160a01b03909116916361d027b391600480820192602092909190829003018186803b1580156117f457600080fd5b505afa158015611808573d6000803e3d6000fd5b505050506040513d602081101561181e57600080fd5b5051604080516370a0823160e01b8152306004820152905173c02aaa39b223fe8d0a0e5c4f27ead9083c756cc2916370a08231916024808301926020929190829003018186803b15801561187157600080fd5b505afa158015611885573d6000803e3d6000fd5b505050506040513d602081101561189b57600080fd5b5051604080517fffffffff0000000000000000000000000000000000000000000000000000000060e086901b1681526001600160a01b03909316600484015260248301919091525160448083019260209291908290030181600087803b15801561190457600080fd5b505af1158015611918573d6000803e3d6000fd5b505050506040513d602081101561192e57600080fd5b5050600654604080517f61d027b30000000000000000000000000000000000000000000000000000000081529051611a4b926001600160a01b0316916361d027b3916004808301926020929190829003018186803b15801561198f57600080fd5b505afa1580156119a3573d6000803e3d6000fd5b505050506040513d60208110156119b957600080fd5b5051600c54604080516370a0823160e01b815230600482015290516001600160a01b03909216916370a0823191602480820192602092909190829003018186803b158015611a0657600080fd5b505afa158015611a1a573d6000803e3d6000fd5b505050506040513d6020811015611a3057600080fd5b5051600c546001600160a01b0316919063ffffffff6128fa16565b610c1d612e2d565b620186a081565b6006546000906001600160a01b03163314611abc576040805162461bcd60e51b815260206004820152600b60248201527f21636f6e74726f6c6c6572000000000000000000000000000000000000000000604482015290519081900360640190fd5b6004546001600160a01b0383811691161415611b21576040805162461bcd60e51b8152602060048083019190915260248201527f77616e7400000000000000000000000000000000000000000000000000000000604482015290519081900360640190fd5b604080516370a0823160e01b815230600482015290516001600160a01b038416916370a08231916024808301926020929190829003018186803b158015611b6757600080fd5b505afa158015611b7b573d6000803e3d6000fd5b505050506040513d6020811015611b9157600080fd5b5051600654909150611bb6906001600160a01b0384811691168363ffffffff6128fa16565b919050565b60035481565b73c2edad668740f1aa35e4d8f227fb8e17dca888cd81565b6008546001600160a01b03163314611c38576040805162461bcd60e51b815260206004820152600960248201527f2174696d656c6f636b0000000000000000000000000000000000000000000000604482015290519081900360640190fd5b600d55565b60005481565b6005546001600160a01b031681565b6011546001600160a01b031681565b600f5481565b600d5481565b600a546001600160a01b031681565b6000611c9d611c89610c22565b611c9161224b565b9063ffffffff61280516565b905090565b6008546001600160a01b03163314611d01576040805162461bcd60e51b815260206004820152600960248201527f2174696d656c6f636b0000000000000000000000000000000000000000000000604482015290519081900360640190fd5b600255565b6006546000906001600160a01b03163314611d68576040805162461bcd60e51b815260206004820152600b60248201527f21636f6e74726f6c6c6572000000000000000000000000000000000000000000604482015290519081900360640190fd5b611d70613006565b60048054604080516370a0823160e01b81523093810193909352516001600160a01b03909116916370a08231916024808301926020929190829003018186803b158015611dbc57600080fd5b505afa158015611dd0573d6000803e3d6000fd5b505050506040513d6020811015611de657600080fd5b505160065460048054604080517fca6a48c20000000000000000000000000000000000000000000000000000000081526001600160a01b03928316938101939093525193945060009392169163ca6a48c291602480820192602092909190829003018186803b158015611e5857600080fd5b505afa158015611e6c573d6000803e3d6000fd5b505050506040513d6020811015611e8257600080fd5b505190506001600160a01b038116611ee3576040805162461bcd60e51b8152602060048083019190915260248201527f216a617200000000000000000000000000000000000000000000000000000000604482015290519081900360640190fd5b600454611f00906001600160a01b0316828463ffffffff6128fa16565b5090565b600b6020526000908152604090205460ff1681565b60015481565b60025481565b6008546001600160a01b03163314611f84576040805162461bcd60e51b815260206004820152600960248201527f2174696d656c6f636b0000000000000000000000000000000000000000000000604482015290519081900360640190fd5b600680547fffffffffffffffffffffffff0000000000000000000000000000000000000000166001600160a01b0392909216919091179055565b6005546001600160a01b0316331461201d576040805162461bcd60e51b815260206004820152600b60248201527f21676f7665726e616e6365000000000000000000000000000000000000000000604482015290519081900360640190fd5b600580547fffffffffffffffffffffffff0000000000000000000000000000000000000000166001600160a01b0392909216919091179055565b6008546001600160a01b031633146120b6576040805162461bcd60e51b815260206004820152600960248201527f2174696d656c6f636b0000000000000000000000000000000000000000000000604482015290519081900360640190fd5b600355565b6005546001600160a01b03163314806120de57506007546001600160a01b031633145b61212f576040805162461bcd60e51b815260206004820152600e60248201527f6e6f7420617574686f72697a6564000000000000000000000000000000000000604482015290519081900360640190fd5b60005b81811015610c1d576000600b600085858581811061214c57fe5b602090810292909201356001600160a01b031683525081019190915260400160002080547fffffffffffffffffffffffffffffffffffffffffffffffffffffffffffffff0016911515919091179055600101612132565b6009546001600160a01b031681565b6008546001600160a01b03163314612211576040805162461bcd60e51b815260206004820152600960248201527f2174696d656c6f636b0000000000000000000000000000000000000000000000604482015290519081900360640190fd5b600880547fffffffffffffffffffffffff0000000000000000000000000000000000000000166001600160a01b0392909216919091179055565b60048054604080516370a0823160e01b81523093810193909352516000926001600160a01b03909216916370a08231916024808301926020929190829003018186803b158015610ad257600080fd5b6006546000906001600160a01b031633146122fc576040805162461bcd60e51b815260206004820152600b60248201527f21636f6e74726f6c6c6572000000000000000000000000000000000000000000604482015290519081900360640190fd5b61230582612781565b5060048054604080516370a0823160e01b81523093810193909352516001600160a01b03909116916370a08231916024808301926020929190829003018186803b15801561235257600080fd5b505afa158015612366573d6000803e3d6000fd5b505050506040513d602081101561237c57600080fd5b505160065460048054604080517fca6a48c20000000000000000000000000000000000000000000000000000000081526001600160a01b03928316938101939093525193945060009392169163ca6a48c291602480820192602092909190829003018186803b1580156123ee57600080fd5b505afa158015612402573d6000803e3d6000fd5b505050506040513d602081101561241857600080fd5b505190506001600160a01b038116612479576040805162461bcd60e51b8152602060048083019190915260248201527f216a617200000000000000000000000000000000000000000000000000000000604482015290519081900360640190fd5b600454612496906001600160a01b0316828463ffffffff6128fa16565b50919050565b6008546001600160a01b031633146124fb576040805162461bcd60e51b815260206004820152600960248201527f2174696d656c6f636b0000000000000000000000000000000000000000000000604482015290519081900360640190fd5b600155565b6005546001600160a01b0316331461255f576040805162461bcd60e51b815260206004820152600b60248201527f21676f7665726e616e6365000000000000000000000000000000000000000000604482015290519081900360640190fd5b600780547fffffffffffffffffffffffff0000000000000000000000000000000000000000166001600160a01b0392909216919091179055565b60048054604080516370a0823160e01b81523093810193909352516000926001600160a01b03909216916370a08231916024808301926020929190829003018186803b1580156125e857600080fd5b505afa1580156125fc573d6000803e3d6000fd5b505050506040513d602081101561261257600080fd5b5051905080156126f75760045461264e906001600160a01b031673c2edad668740f1aa35e4d8f227fb8e17dca888cd600063ffffffff612cd316565b60045461267f906001600160a01b031673c2edad668740f1aa35e4d8f227fb8e17dca888cd8363ffffffff612cd316565b73c2edad668740f1aa35e4d8f227fb8e17dca888cd6001600160a01b031663e2bbb158600e54836040518363ffffffff1660e01b81526004018083815260200182815260200192505050600060405180830381600087803b1580156126e357600080fd5b505af1158015611211573d6000803e3d6000fd5b50565b600c546001600160a01b031681565b6008546001600160a01b031681565b6010546001600160a01b031681565b6006546001600160a01b031681565b600061277883836040518060400160405280601e81526020017f536166654d6174683a207375627472616374696f6e206f766572666c6f770000815250613011565b90505b92915050565b600073c2edad668740f1aa35e4d8f227fb8e17dca888cd6001600160a01b031663441a3e70600e54846040518363ffffffff1660e01b81526004018083815260200182815260200192505050600060405180830381600087803b1580156127e757600080fd5b505af11580156127fb573d6000803e3d6000fd5b5093949350505050565b600082820183811015612778576040805162461bcd60e51b815260206004820152601b60248201527f536166654d6174683a206164646974696f6e206f766572666c6f770000000000604482015290519081900360640190fd5b60008261286e5750600061277b565b8282028284828161287b57fe5b04146127785760405162461bcd60e51b81526004018080602001828103825260218152602001806133676021913960400191505060405180910390fd5b600061277883836040518060400160405280601a81526020017f536166654d6174683a206469766973696f6e206279207a65726f0000000000008152506130a8565b604080516001600160a01b038416602482015260448082018490528251808303909101815260649091019091526020810180517bffffffffffffffffffffffffffffffffffffffffffffffffffffffff167fa9059cbb00000000000000000000000000000000000000000000000000000000179052610c1d90849061310d565b6001600160a01b03821661298d57600080fd5b60606001600160a01b03841673c02aaa39b223fe8d0a0e5c4f27ead9083c756cc214806129d657506001600160a01b03831673c02aaa39b223fe8d0a0e5c4f27ead9083c756cc2145b15612a5c5760408051600280825260608201835290916020830190803683370190505090508381600081518110612a0957fe5b60200260200101906001600160a01b031690816001600160a01b0316815250508281600181518110612a3757fe5b60200260200101906001600160a01b031690816001600160a01b031681525050612b1c565b6040805160038082526080820190925290602082016060803683370190505090508381600081518110612a8b57fe5b60200260200101906001600160a01b031690816001600160a01b03168152505073c02aaa39b223fe8d0a0e5c4f27ead9083c756cc281600181518110612acd57fe5b60200260200101906001600160a01b031690816001600160a01b0316815250508281600281518110612afb57fe5b60200260200101906001600160a01b031690816001600160a01b0316815250505b600a546001600160a01b03166338ed17398360008430612b4342603c63ffffffff61280516565b6040518663ffffffff1660e01b81526004018086815260200185815260200180602001846001600160a01b03166001600160a01b03168152602001838152602001828103825285818151815260200191508051906020019060200280838360005b83811015612bbc578181015183820152602001612ba4565b505050509050019650505050505050600060405180830381600087803b158015612be557600080fd5b505af1158015612bf9573d6000803e3d6000fd5b505050506040513d6000823e601f3d9081017fffffffffffffffffffffffffffffffffffffffffffffffffffffffffffffffe01682016040526020811015612c4057600080fd5b8101908080516040519392919084640100000000821115612c6057600080fd5b908301906020820185811115612c7557600080fd5b8251866020820283011164010000000082111715612c9257600080fd5b82525081516020918201928201910280838360005b83811015612cbf578181015183820152602001612ca7565b505050509050016040525050505050505050565b801580612d725750604080517fdd62ed3e0000000000000000000000000000000000000000000000000000000081523060048201526001600160a01b03848116602483015291519185169163dd62ed3e91604480820192602092909190829003018186803b158015612d4457600080fd5b505afa158015612d58573d6000803e3d6000fd5b505050506040513d6020811015612d6e57600080fd5b5051155b612dad5760405162461bcd60e51b81526004018080602001828103825260368152602001806133b26036913960400191505060405180910390fd5b604080516001600160a01b038416602482015260448082018490528251808303909101815260649091019091526020810180517bffffffffffffffffffffffffffffffffffffffffffffffffffffffff167f095ea7b300000000000000000000000000000000000000000000000000000000179052610c1d90849061310d565b60048054604080516370a0823160e01b81523093810193909352516000926001600160a01b03909216916370a08231916024808301926020929190829003018186803b158015612e7c57600080fd5b505afa158015612e90573d6000803e3d6000fd5b505050506040513d6020811015612ea657600080fd5b5051905080156126f757600654604080517f61d027b30000000000000000000000000000000000000000000000000000000081529051612f57926001600160a01b0316916361d027b3916004808301926020929190829003018186803b158015612f0f57600080fd5b505afa158015612f23573d6000803e3d6000fd5b505050506040513d6020811015612f3957600080fd5b50516000546111f89061271090610fc690869063ffffffff61285f16565b600654604080517f8d8f1e670000000000000000000000000000000000000000000000000000000081529051612ffe926001600160a01b031691638d8f1e67916004808301926020929190829003018186803b158015612fb657600080fd5b505afa158015612fca573d6000803e3d6000fd5b505050506040513d6020811015612fe057600080fd5b50516001546111f89061271090610fc690869063ffffffff61285f16565b6126f7612599565b6126f7610f8e610c22565b600081848411156130a05760405162461bcd60e51b81526004018080602001828103825283818151815260200191508051906020019080838360005b8381101561306557818101518382015260200161304d565b50505050905090810190601f1680156130925780820380516001836020036101000a031916815260200191505b509250505060405180910390fd5b505050900390565b600081836130f75760405162461bcd60e51b815260206004820181815283516024840152835190928392604490910191908501908083836000831561306557818101518382015260200161304d565b50600083858161310357fe5b0495945050505050565b6060613162826040518060400160405280602081526020017f5361666545524332303a206c6f772d6c6576656c2063616c6c206661696c6564815250856001600160a01b03166131be9092919063ffffffff16565b805190915015610c1d5780806020019051602081101561318157600080fd5b5051610c1d5760405162461bcd60e51b815260040180806020018281038252602a815260200180613388602a913960400191505060405180910390fd5b60606131cd84846000856131d5565b949350505050565b60606131e085613360565b613231576040805162461bcd60e51b815260206004820152601d60248201527f416464726573733a2063616c6c20746f206e6f6e2d636f6e7472616374000000604482015290519081900360640190fd5b60006060866001600160a01b031685876040518082805190602001908083835b6020831061328e57805182527fffffffffffffffffffffffffffffffffffffffffffffffffffffffffffffffe09092019160209182019101613251565b6001836020036101000a03801982511681845116808217855250505050505090500191505060006040518083038185875af1925050503d80600081146132f0576040519150601f19603f3d011682016040523d82523d6000602084013e6132f5565b606091505b509150915081156133095791506131cd9050565b8051156133195780518082602001fd5b60405162461bcd60e51b815260206004820181815286516024840152865187939192839260440191908501908083836000831561306557818101518382015260200161304d565b3b15159056fe536166654d6174683a206d756c7469706c69636174696f6e206f766572666c6f775361666545524332303a204552433230206f7065726174696f6e20646964206e6f7420737563636565645361666545524332303a20617070726f76652066726f6d206e6f6e2d7a65726f20746f206e6f6e2d7a65726f20616c6c6f77616e6365a264697066735822122094c638ed46ce82f5ae8b00c54a5f1599290282b7b4342e0edb350e940988e6d064736f6c634300060700335361666545524332303a204552433230206f7065726174696f6e20646964206e6f7420737563636565645361666545524332303a20617070726f76652066726f6d206e6f6e2d7a65726f20746f206e6f6e2d7a65726f20616c6c6f77616e6365",
  "devdoc": {
    "methods": {}
  },
  "userdoc": {
    "methods": {}
  },
  "storageLayout": {
    "storage": [
      {
        "astId": 15566,
        "contract": "src/strategies/sushiswap/strategy-sushi-eth-yvboost-lp.sol:StrategySushiEthYvBoostLp",
        "label": "performanceTreasuryFee",
        "offset": 0,
        "slot": "0",
        "type": "t_uint256"
      },
      {
        "astId": 15572,
        "contract": "src/strategies/sushiswap/strategy-sushi-eth-yvboost-lp.sol:StrategySushiEthYvBoostLp",
        "label": "performanceDevFee",
        "offset": 0,
        "slot": "1",
        "type": "t_uint256"
      },
      {
        "astId": 15578,
        "contract": "src/strategies/sushiswap/strategy-sushi-eth-yvboost-lp.sol:StrategySushiEthYvBoostLp",
        "label": "withdrawalTreasuryFee",
        "offset": 0,
        "slot": "2",
        "type": "t_uint256"
      },
      {
        "astId": 15584,
        "contract": "src/strategies/sushiswap/strategy-sushi-eth-yvboost-lp.sol:StrategySushiEthYvBoostLp",
        "label": "withdrawalDevFundFee",
        "offset": 0,
        "slot": "3",
        "type": "t_uint256"
      },
      {
        "astId": 15589,
        "contract": "src/strategies/sushiswap/strategy-sushi-eth-yvboost-lp.sol:StrategySushiEthYvBoostLp",
        "label": "want",
        "offset": 0,
        "slot": "4",
        "type": "t_address"
      },
      {
        "astId": 15594,
        "contract": "src/strategies/sushiswap/strategy-sushi-eth-yvboost-lp.sol:StrategySushiEthYvBoostLp",
        "label": "governance",
        "offset": 0,
        "slot": "5",
        "type": "t_address"
      },
      {
        "astId": 15596,
        "contract": "src/strategies/sushiswap/strategy-sushi-eth-yvboost-lp.sol:StrategySushiEthYvBoostLp",
        "label": "controller",
        "offset": 0,
        "slot": "6",
        "type": "t_address"
      },
      {
        "astId": 15598,
        "contract": "src/strategies/sushiswap/strategy-sushi-eth-yvboost-lp.sol:StrategySushiEthYvBoostLp",
        "label": "strategist",
        "offset": 0,
        "slot": "7",
        "type": "t_address"
      },
      {
        "astId": 15600,
        "contract": "src/strategies/sushiswap/strategy-sushi-eth-yvboost-lp.sol:StrategySushiEthYvBoostLp",
        "label": "timelock",
        "offset": 0,
        "slot": "8",
        "type": "t_address"
      },
      {
        "astId": 15603,
        "contract": "src/strategies/sushiswap/strategy-sushi-eth-yvboost-lp.sol:StrategySushiEthYvBoostLp",
        "label": "univ2Router2",
        "offset": 0,
        "slot": "9",
        "type": "t_address"
      },
      {
        "astId": 15606,
        "contract": "src/strategies/sushiswap/strategy-sushi-eth-yvboost-lp.sol:StrategySushiEthYvBoostLp",
        "label": "sushiRouter",
        "offset": 0,
        "slot": "10",
        "type": "t_address"
      },
      {
        "astId": 15610,
        "contract": "src/strategies/sushiswap/strategy-sushi-eth-yvboost-lp.sol:StrategySushiEthYvBoostLp",
        "label": "harvesters",
        "offset": 0,
        "slot": "11",
        "type": "t_mapping(t_address,t_bool)"
      },
      {
        "astId": 17972,
        "contract": "src/strategies/sushiswap/strategy-sushi-eth-yvboost-lp.sol:StrategySushiEthYvBoostLp",
        "label": "token1",
        "offset": 0,
        "slot": "12",
        "type": "t_address"
      },
      {
        "astId": 17975,
        "contract": "src/strategies/sushiswap/strategy-sushi-eth-yvboost-lp.sol:StrategySushiEthYvBoostLp",
        "label": "keepSUSHI",
        "offset": 0,
        "slot": "13",
        "type": "t_uint256"
      },
      {
        "astId": 17980,
        "contract": "src/strategies/sushiswap/strategy-sushi-eth-yvboost-lp.sol:StrategySushiEthYvBoostLp",
        "label": "poolId",
        "offset": 0,
        "slot": "14",
        "type": "t_uint256"
      },
      {
        "astId": 18914,
        "contract": "src/strategies/sushiswap/strategy-sushi-eth-yvboost-lp.sol:StrategySushiEthYvBoostLp",
        "label": "sushi_yvboost_poolId",
        "offset": 0,
        "slot": "15",
        "type": "t_uint256"
      },
      {
        "astId": 18917,
        "contract": "src/strategies/sushiswap/strategy-sushi-eth-yvboost-lp.sol:StrategySushiEthYvBoostLp",
        "label": "sushi_eth_yvboost_lp",
        "offset": 0,
        "slot": "16",
        "type": "t_address"
      },
      {
        "astId": 18920,
        "contract": "src/strategies/sushiswap/strategy-sushi-eth-yvboost-lp.sol:StrategySushiEthYvBoostLp",
        "label": "yvboost",
        "offset": 0,
        "slot": "17",
        "type": "t_address"
      }
    ],
    "types": {
      "t_address": {
        "encoding": "inplace",
        "label": "address",
        "numberOfBytes": "20"
      },
      "t_bool": {
        "encoding": "inplace",
        "label": "bool",
        "numberOfBytes": "1"
      },
      "t_mapping(t_address,t_bool)": {
        "encoding": "mapping",
        "key": "t_address",
        "label": "mapping(address => bool)",
        "numberOfBytes": "32",
        "value": "t_bool"
      },
      "t_uint256": {
        "encoding": "inplace",
        "label": "uint256",
        "numberOfBytes": "32"
      }
    }
  }
}