{
  "address": "0xf4573d6477924230286B4ED7C3d8AF79500bB916",
  "abi": [
    {
      "inputs": [
        {
          "internalType": "address",
          "name": "_governance",
          "type": "address"
        },
        {
          "internalType": "address",
          "name": "_strategist",
          "type": "address"
        },
        {
          "internalType": "address",
          "name": "_controller",
          "type": "address"
        },
        {
          "internalType": "address",
          "name": "_timelock",
          "type": "address"
        }
      ],
      "stateMutability": "nonpayable",
      "type": "constructor"
    },
    {
      "inputs": [],
      "name": "allVaults",
      "outputs": [
        {
          "internalType": "contract VaultAPI[]",
          "name": "",
          "type": "address[]"
        }
      ],
      "stateMutability": "view",
      "type": "function"
    },
    {
      "inputs": [],
      "name": "balanceOf",
      "outputs": [
        {
          "internalType": "uint256",
          "name": "",
          "type": "uint256"
        }
      ],
      "stateMutability": "view",
      "type": "function"
    },
    {
      "inputs": [],
      "name": "balanceOfPool",
      "outputs": [
        {
          "internalType": "uint256",
          "name": "",
          "type": "uint256"
        }
      ],
      "stateMutability": "view",
      "type": "function"
    },
    {
      "inputs": [],
      "name": "balanceOfWant",
      "outputs": [
        {
          "internalType": "uint256",
          "name": "",
          "type": "uint256"
        }
      ],
      "stateMutability": "view",
      "type": "function"
    },
    {
      "inputs": [],
      "name": "bestVault",
      "outputs": [
        {
          "internalType": "contract VaultAPI",
          "name": "",
          "type": "address"
        }
      ],
      "stateMutability": "view",
      "type": "function"
    },
    {
      "inputs": [],
      "name": "controller",
      "outputs": [
        {
          "internalType": "address",
          "name": "",
          "type": "address"
        }
      ],
      "stateMutability": "view",
      "type": "function"
    },
    {
      "inputs": [],
      "name": "crv_steth_lp",
      "outputs": [
        {
          "internalType": "address",
          "name": "",
          "type": "address"
        }
      ],
      "stateMutability": "view",
      "type": "function"
    },
    {
      "inputs": [],
      "name": "deposit",
      "outputs": [],
      "stateMutability": "nonpayable",
      "type": "function"
    },
    {
      "inputs": [
        {
          "internalType": "address",
          "name": "_target",
          "type": "address"
        },
        {
          "internalType": "bytes",
          "name": "_data",
          "type": "bytes"
        }
      ],
      "name": "execute",
      "outputs": [
        {
          "internalType": "bytes",
          "name": "response",
          "type": "bytes"
        }
      ],
      "stateMutability": "payable",
      "type": "function"
    },
    {
      "inputs": [],
      "name": "getName",
      "outputs": [
        {
          "internalType": "string",
          "name": "",
          "type": "string"
        }
      ],
      "stateMutability": "nonpayable",
      "type": "function"
    },
    {
      "inputs": [],
      "name": "governance",
      "outputs": [
        {
          "internalType": "address",
          "name": "",
          "type": "address"
        }
      ],
      "stateMutability": "view",
      "type": "function"
    },
    {
      "inputs": [
        {
          "internalType": "uint256",
          "name": "amount",
          "type": "uint256"
        },
        {
          "internalType": "uint256",
          "name": "maxMigrationLoss",
          "type": "uint256"
        }
      ],
      "name": "migrate",
      "outputs": [
        {
          "internalType": "uint256",
          "name": "",
          "type": "uint256"
        }
      ],
      "stateMutability": "nonpayable",
      "type": "function"
    },
    {
      "inputs": [
        {
          "internalType": "uint256",
          "name": "amount",
          "type": "uint256"
        }
      ],
      "name": "migrate",
      "outputs": [
        {
          "internalType": "uint256",
          "name": "",
          "type": "uint256"
        }
      ],
      "stateMutability": "nonpayable",
      "type": "function"
    },
    {
      "inputs": [],
      "name": "migrate",
      "outputs": [
        {
          "internalType": "uint256",
          "name": "",
          "type": "uint256"
        }
      ],
      "stateMutability": "nonpayable",
      "type": "function"
    },
    {
      "inputs": [],
      "name": "name",
      "outputs": [
        {
          "internalType": "string",
          "name": "",
          "type": "string"
        }
      ],
      "stateMutability": "view",
      "type": "function"
    },
    {
      "inputs": [],
      "name": "registry",
      "outputs": [
        {
          "internalType": "contract RegistryAPI",
          "name": "",
          "type": "address"
        }
      ],
      "stateMutability": "view",
      "type": "function"
    },
    {
      "inputs": [
        {
          "internalType": "address",
          "name": "_controller",
          "type": "address"
        }
      ],
      "name": "setController",
      "outputs": [],
      "stateMutability": "nonpayable",
      "type": "function"
    },
    {
      "inputs": [
        {
          "internalType": "address",
          "name": "_governance",
          "type": "address"
        }
      ],
      "name": "setGovernance",
      "outputs": [],
      "stateMutability": "nonpayable",
      "type": "function"
    },
    {
      "inputs": [
        {
          "internalType": "address",
          "name": "_registry",
          "type": "address"
        }
      ],
      "name": "setRegistry",
      "outputs": [],
      "stateMutability": "nonpayable",
      "type": "function"
    },
    {
      "inputs": [],
      "name": "strategist",
      "outputs": [
        {
          "internalType": "address",
          "name": "",
          "type": "address"
        }
      ],
      "stateMutability": "view",
      "type": "function"
    },
    {
      "inputs": [],
      "name": "timelock",
      "outputs": [
        {
          "internalType": "address",
          "name": "",
          "type": "address"
        }
      ],
      "stateMutability": "view",
      "type": "function"
    },
    {
      "inputs": [],
      "name": "token",
      "outputs": [
        {
          "internalType": "contract IERC20",
          "name": "",
          "type": "address"
        }
      ],
      "stateMutability": "view",
      "type": "function"
    },
    {
      "inputs": [],
      "name": "totalAssets",
      "outputs": [
        {
          "internalType": "uint256",
          "name": "assets",
          "type": "uint256"
        }
      ],
      "stateMutability": "view",
      "type": "function"
    },
    {
      "inputs": [
        {
          "internalType": "address",
          "name": "account",
          "type": "address"
        }
      ],
      "name": "totalVaultBalance",
      "outputs": [
        {
          "internalType": "uint256",
          "name": "balance",
          "type": "uint256"
        }
      ],
      "stateMutability": "view",
      "type": "function"
    },
    {
      "inputs": [],
      "name": "want",
      "outputs": [
        {
          "internalType": "address",
          "name": "",
          "type": "address"
        }
      ],
      "stateMutability": "view",
      "type": "function"
    },
    {
      "inputs": [
        {
          "internalType": "uint256",
          "name": "_amount",
          "type": "uint256"
        }
      ],
      "name": "withdraw",
      "outputs": [],
      "stateMutability": "nonpayable",
      "type": "function"
    },
    {
      "inputs": [
        {
          "internalType": "contract IERC20",
          "name": "_asset",
          "type": "address"
        }
      ],
      "name": "withdraw",
      "outputs": [
        {
          "internalType": "uint256",
          "name": "balance",
          "type": "uint256"
        }
      ],
      "stateMutability": "nonpayable",
      "type": "function"
    },
    {
      "inputs": [],
      "name": "withdrawAll",
      "outputs": [
        {
          "internalType": "uint256",
          "name": "balance",
          "type": "uint256"
        }
      ],
      "stateMutability": "nonpayable",
      "type": "function"
    },
    {
      "inputs": [
        {
          "internalType": "uint256",
          "name": "_amount",
          "type": "uint256"
        }
      ],
      "name": "withdrawForSwap",
      "outputs": [
        {
          "internalType": "uint256",
          "name": "balance",
          "type": "uint256"
        }
      ],
      "stateMutability": "nonpayable",
      "type": "function"
    },
    {
      "inputs": [],
      "name": "yearn_registry",
      "outputs": [
        {
          "internalType": "address",
          "name": "",
          "type": "address"
        }
      ],
      "stateMutability": "view",
      "type": "function"
    }
  ],
  "transactionHash": "0x26a06096b41b89993292629f39bc39011ed23c2e221d8c7b8e6810efe17a8d90",
  "args": [
    "0x9d074E37d408542FD38be78848e8814AFB38db17",
    "0xaCfE4511CE883C14c4eA40563F176C3C09b4c47C",
    "0x6847259b2B3A4c17e7c43C54409810aF48bA5210",
    "0xD92c7fAa0Ca0e6AE4918f3a83d9832d9CAEAA0d3"
  ],
  "solcInputHash": "5bc21c1fedf6a72455d1a405fa61e053",
  "bytecode": "0x6080604052600980546001600160a01b03199081167306325440d014e39736583c165c2963ba99faf14e17909155600a80549091167350c1a2ea0a861a967d9d0ffe2ae4012c2e0538041790553480156200005957600080fd5b50604051620030fd380380620030fd833981810160405260808110156200007f57600080fd5b50805160208201516040830151606090930151600954600a54600080546001600160a01b039384166001600160a01b0319918216811790925560028054949093169316831790915593949293908585858585620000db57600080fd5b6001600160a01b038416620000ef57600080fd5b6001600160a01b0383166200010357600080fd5b6001600160a01b0382166200011757600080fd5b6001600160a01b0381166200012b57600080fd5b600780546001600160a01b03199081166001600160a01b038981169182179093556003805483168885161790556005805483168785161790556004805483168685161781556006805490931693851693909317909155604080516395d89b4160e01b8152905191926395d89b41928282019260009290829003018186803b158015620001b657600080fd5b505afa158015620001cb573d6000803e3d6000fd5b505050506040513d6000823e601f3d908101601f191682016040526020811015620001f557600080fd5b81019080805160405193929190846401000000008211156200021657600080fd5b9083019060208201858111156200022c57600080fd5b82516401000000008111828201881017156200024757600080fd5b82525081516020918201929091019080838360005b83811015620002765781810151838201526020016200025c565b50505050905090810190601f168015620002a45780820380516001836020036101000a031916815260200191505b506040525050506040516020018080607960f81b81525060010182805190602001908083835b60208310620002eb5780518252601f199092019160209182019101620002ca565b51815160209384036101000a60001901801990921691161790527f20416666696c69617465205374726174656779000000000000000000000000009190930190815260408051808303600c1901815260139092019052805162000358955060089450920191905062000369565b505050505050505050505062000405565b828054600181600116156101000203166002900490600052602060002090601f016020900481019282601f10620003ac57805160ff1916838001178555620003dc565b82800160010185558215620003dc579182015b82811115620003dc578251825591602001919060010190620003bf565b50620003ea929150620003ee565b5090565b5b80821115620003ea5760008155600101620003ef565b612ce880620004156000396000f3fe6080604052600436106101cd5760003560e01c806364901c37116100f7578063ab033ea911610095578063d33219b411610064578063d33219b41461067a578063e95b2de81461068f578063f77c4791146106a4578063fc0c546a146106b9576101cd565b8063ab033ea9146105f3578063c1a3d44c14610626578063c6223e261461063b578063d0e30db014610665576101cd565b8063853828b6116100d1578063853828b6146105635780638fd3ab801461057857806392eefe9b1461058d578063a91ee0dc146105c0576101cd565b806364901c3714610524578063722713f7146105395780637b1039991461054e576101cd565b80631fe4a6861161016f5780633e54bacb1161013e5780633e54bacb14610482578063454b0608146104b257806351cff8d9146104dc5780635aa6e6751461050f576101cd565b80631fe4a686146103f95780632e1a7d4d1461040e57806330e5065e1461043a57806334e8edfe1461046d576101cd565b806311588086116101ab57806311588086146102e857806317d7de7c146102fd5780631cff79cd146103125780631f1fcd51146103c8576101cd565b806301e1d114146101d2578063063effeb146101f957806306fdde031461025e575b600080fd5b3480156101de57600080fd5b506101e76106ce565b60408051918252519081900360200190f35b34801561020557600080fd5b5061020e610779565b60408051602080825283518183015283519192839290830191858101910280838360005b8381101561024a578181015183820152602001610232565b505050509050019250505060405180910390f35b34801561026a57600080fd5b506102736109d9565b6040805160208082528351818301528351919283929083019185019080838360005b838110156102ad578181015183820152602001610295565b50505050905090810190601f1680156102da5780820380516001836020036101000a031916815260200191505b509250505060405180910390f35b3480156102f457600080fd5b506101e7610a67565b34801561030957600080fd5b50610273610a76565b6102736004803603604081101561032857600080fd5b6001600160a01b03823516919081019060408101602082013564010000000081111561035357600080fd5b82018360208201111561036557600080fd5b8035906020019184600183028401116401000000008311171561038757600080fd5b91908080601f016020809104026020016040519081016040528093929190818152602001838380828437600092019190915250929550610b0c945050505050565b3480156103d457600080fd5b506103dd610bef565b604080516001600160a01b039092168252519081900360200190f35b34801561040557600080fd5b506103dd610bfe565b34801561041a57600080fd5b506104386004803603602081101561043157600080fd5b5035610c0d565b005b34801561044657600080fd5b506101e76004803603602081101561045d57600080fd5b50356001600160a01b0316610dbf565b34801561047957600080fd5b506103dd610f8e565b34801561048e57600080fd5b506101e7600480360360408110156104a557600080fd5b5080359060200135610f9d565b3480156104be57600080fd5b506101e7600480360360208110156104d557600080fd5b5035610fcb565b3480156104e857600080fd5b506101e7600480360360208110156104ff57600080fd5b50356001600160a01b0316610ff7565b34801561051b57600080fd5b506103dd611122565b34801561053057600080fd5b506103dd611131565b34801561054557600080fd5b506101e7611140565b34801561055a57600080fd5b506103dd61114b565b34801561056f57600080fd5b506101e761115a565b34801561058457600080fd5b506101e7611315565b34801561059957600080fd5b50610438600480360360208110156105b057600080fd5b50356001600160a01b0316611338565b3480156105cc57600080fd5b50610438600480360360208110156105e357600080fd5b50356001600160a01b03166113a5565b3480156105ff57600080fd5b506104386004803603602081101561061657600080fd5b50356001600160a01b03166114d2565b34801561063257600080fd5b506101e7611541565b34801561064757600080fd5b506101e76004803603602081101561065e57600080fd5b5035611546565b34801561067157600080fd5b506104386116fc565b34801561068657600080fd5b506103dd6117d3565b34801561069b57600080fd5b506103dd6117e2565b3480156106b057600080fd5b506103dd611867565b3480156106c557600080fd5b506103dd611876565b600060606106da610779565b905060005b81518110156107745761076a8282815181106106f757fe5b60200260200101516001600160a01b03166301e1d1146040518163ffffffff1660e01b815260040160206040518083038186803b15801561073757600080fd5b505afa15801561074b573d6000803e3d6000fd5b505050506040513d602081101561076157600080fd5b50518490611885565b92506001016106df565b505090565b600154600254600080546040805163f9c7bba560e01b81526001600160a01b039283166004820152905160609594929092169163f9c7bba591602480820192602092909190829003018186803b1580156107d257600080fd5b505afa1580156107e6573d6000803e3d6000fd5b505050506040513d60208110156107fc57600080fd5b505190508181141561086c57600180548060200260200160405190810160405280929190818152602001828054801561085e57602002820191906000526020600020905b81546001600160a01b03168152600190910190602001808311610840575b5050505050925050506109d6565b60608167ffffffffffffffff8111801561088557600080fd5b506040519080825280602002602001820160405280156108af578160200160208202803683370190505b50905060005b8381101561091457600181815481106108ca57fe5b9060005260206000200160009054906101000a90046001600160a01b03168282815181106108f457fe5b6001600160a01b03909216602092830291909101909101526001016108b5565b50825b828110156109d05760025460005460408051633ddfe34f60e11b81526001600160a01b0392831660048201526024810185905290519190921691637bbfc69e916044808301926020929190829003018186803b15801561097657600080fd5b505afa15801561098a573d6000803e3d6000fd5b505050506040513d60208110156109a057600080fd5b505182518390839081106109b057fe5b6001600160a01b0390921660209283029190910190910152600101610917565b50925050505b90565b6008805460408051602060026001851615610100026000190190941693909304601f81018490048402820184019092528181529291830182828015610a5f5780601f10610a3457610100808354040283529160200191610a5f565b820191906000526020600020905b815481529060010190602001808311610a4257829003601f168201915b505050505081565b6000610a71611140565b905090565b60088054604080516020601f6002600019610100600188161502019095169490940493840181900481028201810190925282815260609390929091830182828015610b025780601f10610ad757610100808354040283529160200191610b02565b820191906000526020600020905b815481529060010190602001808311610ae557829003601f168201915b5050505050905090565b6006546060906001600160a01b03163314610b5a576040805162461bcd60e51b81526020600482015260096024820152682174696d656c6f636b60b81b604482015290519081900360640190fd5b6001600160a01b038316610b9f576040805162461bcd60e51b8152602060048201526007602482015266085d185c99d95d60ca1b604482015290519081900360640190fd5b600080835160208501866113885a03f43d6040519250601f19601f6020830101168301604052808352806000602085013e811560018114610bdf57610be6565b8160208501fd5b50505092915050565b6007546001600160a01b031681565b6005546001600160a01b031681565b6004546001600160a01b03163314610c5a576040805162461bcd60e51b815260206004820152600b60248201526a10b1b7b73a3937b63632b960a91b604482015290519081900360640190fd5b610c63816118df565b50600754604080516370a0823160e01b815230600482015290516000926001600160a01b0316916370a08231916024808301926020929190829003018186803b158015610caf57600080fd5b505afa158015610cc3573d6000803e3d6000fd5b505050506040513d6020811015610cd957600080fd5b50516004805460075460408051636535246160e11b81526001600160a01b03928316948101949094525193945060009391169163ca6a48c2916024808301926020929190829003018186803b158015610d3157600080fd5b505afa158015610d45573d6000803e3d6000fd5b505050506040513d6020811015610d5b57600080fd5b505190506001600160a01b038116610da3576040805162461bcd60e51b8152602060048083019190915260248201526310b530b960e11b604482015290519081900360640190fd5b600754610dba906001600160a01b031682846118ee565b505050565b60006060610dcb610779565b905060005b8151811015610f8757610f7d610f76838381518110610deb57fe5b60200260200101516001600160a01b031663313ce5676040518163ffffffff1660e01b815260040160206040518083038186803b158015610e2b57600080fd5b505afa158015610e3f573d6000803e3d6000fd5b505050506040513d6020811015610e5557600080fd5b50518451600a9190910a90610f7090869086908110610e7057fe5b60200260200101516001600160a01b03166399530b066040518163ffffffff1660e01b815260040160206040518083038186803b158015610eb057600080fd5b505afa158015610ec4573d6000803e3d6000fd5b505050506040513d6020811015610eda57600080fd5b50518651879087908110610eea57fe5b60200260200101516001600160a01b03166370a082318a6040518263ffffffff1660e01b815260040180826001600160a01b0316815260200191505060206040518083038186803b158015610f3e57600080fd5b505afa158015610f52573d6000803e3d6000fd5b505050506040513d6020811015610f6857600080fd5b505190611940565b90611999565b8490611885565b9250600101610dd0565b5050919050565b600a546001600160a01b031681565b6003546000906001600160a01b03163314610fb757600080fd5b610fc23084846119db565b90505b92915050565b6003546000906001600160a01b03163314610fe557600080fd5b610fef3083611b66565b90505b919050565b6004546000906001600160a01b03163314611047576040805162461bcd60e51b815260206004820152600b60248201526a10b1b7b73a3937b63632b960a91b604482015290519081900360640190fd5b6007546001600160a01b0383811691161415611093576040805162461bcd60e51b815260206004808301919091526024820152631dd85b9d60e21b604482015290519081900360640190fd5b604080516370a0823160e01b815230600482015290516001600160a01b038416916370a08231916024808301926020929190829003018186803b1580156110d957600080fd5b505afa1580156110ed573d6000803e3d6000fd5b505050506040513d602081101561110357600080fd5b5051600454909150610ff2906001600160a01b038481169116836118ee565b6003546001600160a01b031681565b6009546001600160a01b031681565b6000610a7130610dbf565b6002546001600160a01b031681565b6004546000906001600160a01b031633146111aa576040805162461bcd60e51b815260206004820152600b60248201526a10b1b7b73a3937b63632b960a91b604482015290519081900360640190fd5b6111ba6111b5611140565b6118df565b50600754604080516370a0823160e01b815230600482015290516001600160a01b03909216916370a0823191602480820192602092909190829003018186803b15801561120657600080fd5b505afa15801561121a573d6000803e3d6000fd5b505050506040513d602081101561123057600080fd5b50516004805460075460408051636535246160e11b81526001600160a01b03928316948101949094525193945060009391169163ca6a48c2916024808301926020929190829003018186803b15801561128857600080fd5b505afa15801561129c573d6000803e3d6000fd5b505050506040513d60208110156112b257600080fd5b505190506001600160a01b0381166112fa576040805162461bcd60e51b8152602060048083019190915260248201526310b530b960e11b604482015290519081900360640190fd5b600754611311906001600160a01b031682846118ee565b5090565b6003546000906001600160a01b0316331461132f57600080fd5b610a7130611b74565b6006546001600160a01b03163314611383576040805162461bcd60e51b81526020600482015260096024820152682174696d656c6f636b60b81b604482015290519081900360640190fd5b600480546001600160a01b0319166001600160a01b0392909216919091179055565b600260009054906101000a90046001600160a01b03166001600160a01b0316635aa6e6756040518163ffffffff1660e01b815260040160206040518083038186803b1580156113f357600080fd5b505afa158015611407573d6000803e3d6000fd5b505050506040513d602081101561141d57600080fd5b50516001600160a01b0316331461143357600080fd5b600280546001600160a01b0319166001600160a01b03838116919091179182905560408051635aa6e67560e01b815290519290911691635aa6e67591600480820192602092909190829003018186803b15801561148f57600080fd5b505afa1580156114a3573d6000803e3d6000fd5b505050506040513d60208110156114b957600080fd5b50516001600160a01b031633146114cf57600080fd5b50565b6003546001600160a01b0316331461151f576040805162461bcd60e51b815260206004820152600b60248201526a21676f7665726e616e636560a81b604482015290519081900360640190fd5b600380546001600160a01b0319166001600160a01b0392909216919091179055565b600090565b6004546000906001600160a01b03163314611596576040805162461bcd60e51b815260206004820152600b60248201526a10b1b7b73a3937b63632b960a91b604482015290519081900360640190fd5b61159f826118df565b50600754604080516370a0823160e01b815230600482015290516001600160a01b03909216916370a0823191602480820192602092909190829003018186803b1580156115eb57600080fd5b505afa1580156115ff573d6000803e3d6000fd5b505050506040513d602081101561161557600080fd5b50516004805460075460408051636535246160e11b81526001600160a01b03928316948101949094525193945060009391169163ca6a48c2916024808301926020929190829003018186803b15801561166d57600080fd5b505afa158015611681573d6000803e3d6000fd5b505050506040513d602081101561169757600080fd5b505190506001600160a01b0381166116df576040805162461bcd60e51b8152602060048083019190915260248201526310b530b960e11b604482015290519081900360640190fd5b6007546116f6906001600160a01b031682846118ee565b50919050565b6004546001600160a01b03163314611749576040805162461bcd60e51b815260206004820152600b60248201526a10b1b7b73a3937b63632b960a91b604482015290519081900360640190fd5b600754604080516370a0823160e01b815230600482015290516000926001600160a01b0316916370a08231916024808301926020929190829003018186803b15801561179457600080fd5b505afa1580156117a8573d6000803e3d6000fd5b505050506040513d60208110156117be57600080fd5b505190506117cf3080836000611b82565b5050565b6006546001600160a01b031681565b6002546000805460408051630e177dc760e41b81526001600160a01b03928316600482015290519293919091169163e177dc7091602480820192602092909190829003018186803b15801561183657600080fd5b505afa15801561184a573d6000803e3d6000fd5b505050506040513d602081101561186057600080fd5b5051905090565b6004546001600160a01b031681565b6000546001600160a01b031681565b600082820183811015610fc2576040805162461bcd60e51b815260206004820152601b60248201527f536166654d6174683a206164646974696f6e206f766572666c6f770000000000604482015290519081900360640190fd5b6000610fef3030846001611f9b565b604080516001600160a01b038416602482015260448082018490528251808303909101815260649091019091526020810180516001600160e01b031663a9059cbb60e01b179052610dba908490612696565b60008261194f57506000610fc5565b8282028284828161195c57fe5b0414610fc25760405162461bcd60e51b8152600401808060200182810382526021815260200180612c326021913960400191505060405180910390fd5b6000610fc283836040518060400160405280601a81526020017f536166654d6174683a206469766973696f6e206279207a65726f000000000000815250612747565b6000806119e66117e2565b90506000816001600160a01b031663ecf708586040518163ffffffff1660e01b815260040160206040518083038186803b158015611a2357600080fd5b505afa158015611a37573d6000803e3d6000fd5b505050506040513d6020811015611a4d57600080fd5b5051604080516278744560e21b815290519192506000916001600160a01b038516916301e1d114916004808301926020929190829003018186803b158015611a9457600080fd5b505afa158015611aa8573d6000803e3d6000fd5b505050506040513d6020811015611abe57600080fd5b50519050808211611ad55760009350505050611b5f565b8560001983108015611ae8575060001981105b15611b09576000611af984846127e9565b905080821115611b07578091505b505b8015611b5a576000611b1e8930846000611f9b565b905080611b3357600095505050505050611b5f565b611b40308a836000611b82565b955086611b4d82886127e9565b1115611b5857600080fd5b505b505050505b9392505050565b6000610fc2838360006119db565b6000610fef82600019611b66565b600080611b8d6117e2565b90508215611c4f576000198414611bbb57600054611bb6906001600160a01b031687308761282b565b611c4f565b600054604080516370a0823160e01b81526001600160a01b03808a1660048301529151611c4f938a9330939116916370a0823191602480820192602092909190829003018186803b158015611c0f57600080fd5b505afa158015611c23573d6000803e3d6000fd5b505050506040513d6020811015611c3957600080fd5b50516000546001600160a01b031692919061282b565b60005460408051636eb1769f60e11b81523060048201526001600160a01b03848116602483015291518793929092169163dd62ed3e91604480820192602092909190829003018186803b158015611ca557600080fd5b505afa158015611cb9573d6000803e3d6000fd5b505050506040513d6020811015611ccf57600080fd5b50511015611d0b5760008054611cf2916001600160a01b0390911690839061288b565b600054611d0b906001600160a01b03168260001961288b565b60008054604080516370a0823160e01b815230600482015290516001600160a01b03909216916370a0823191602480820192602092909190829003018186803b158015611d5757600080fd5b505afa158015611d6b573d6000803e3d6000fd5b505050506040513d6020811015611d8157600080fd5b505190506001600160a01b0386163014611e1e57816001600160a01b0316636e553f6586886040518363ffffffff1660e01b815260040180838152602001826001600160a01b0316815260200192505050602060405180830381600087803b158015611dec57600080fd5b505af1158015611e00573d6000803e3d6000fd5b505050506040513d6020811015611e1657600080fd5b50611ed59050565b6000198514611e6d57816001600160a01b031663b6b55f25866040518263ffffffff1660e01b815260040180828152602001915050602060405180830381600087803b158015611dec57600080fd5b816001600160a01b031663d0e30db06040518163ffffffff1660e01b8152600401602060405180830381600087803b158015611ea857600080fd5b505af1158015611ebc573d6000803e3d6000fd5b505050506040513d6020811015611ed257600080fd5b50505b60008054604080516370a0823160e01b815230600482015290516001600160a01b03909216916370a0823191602480820192602092909190829003018186803b158015611f2157600080fd5b505afa158015611f35573d6000803e3d6000fd5b505050506040513d6020811015611f4b57600080fd5b50519050611f5982826127e9565b93506001600160a01b0388163014801590611f745750600081115b15611f9057600054611f90906001600160a01b031689836118ee565b505050949350505050565b600080611fa66117e2565b90506060611fb2610779565b9050611fbd8161299e565b60005b81518110156125245784158015611ffb5750826001600160a01b0316828281518110611fe857fe5b60200260200101516001600160a01b0316145b156120055761251c565b600082828151811061201357fe5b60200260200101516001600160a01b03166370a082318a6040518263ffffffff1660e01b815260040180826001600160a01b0316815260200191505060206040518083038186803b15801561206757600080fd5b505afa15801561207b573d6000803e3d6000fd5b505050506040513d602081101561209157600080fd5b505190506001600160a01b038916301461214e5761214b818484815181106120b557fe5b60200260200101516001600160a01b031663dd62ed3e8c306040518363ffffffff1660e01b815260040180836001600160a01b03168152602001826001600160a01b031681526020019250505060206040518083038186803b15801561211a57600080fd5b505afa15801561212e573d6000803e3d6000fd5b505050506040513d602081101561214457600080fd5b50516129bc565b90505b61219e8184848151811061215e57fe5b60200260200101516001600160a01b03166375de29026040518163ffffffff1660e01b815260040160206040518083038186803b15801561211a57600080fd5b9050801561251a576001600160a01b038916301461225e578282815181106121c257fe5b60200260200101516001600160a01b03166323b872dd8a30846040518463ffffffff1660e01b815260040180846001600160a01b03168152602001836001600160a01b031681526020018281526020019350505050602060405180830381600087803b15801561223157600080fd5b505af1158015612245573d6000803e3d6000fd5b505050506040513d602081101561225b57600080fd5b50505b600019871461248657600061237584848151811061227857fe5b60200260200101516001600160a01b03166399530b066040518163ffffffff1660e01b815260040160206040518083038186803b1580156122b857600080fd5b505afa1580156122cc573d6000803e3d6000fd5b505050506040513d60208110156122e257600080fd5b50518551610f70908790879081106122f657fe5b60200260200101516001600160a01b031663313ce5676040518163ffffffff1660e01b815260040160206040518083038186803b15801561233657600080fd5b505afa15801561234a573d6000803e3d6000fd5b505050506040513d602081101561236057600080fd5b5051600a0a61236f8c8b6127e9565b90611940565b905060008111801561238657508181105b156124215761241a84848151811061239a57fe5b60200260200101516001600160a01b0316632e1a7d4d836040518263ffffffff1660e01b815260040180828152602001915050602060405180830381600087803b1580156123e757600080fd5b505af11580156123fb573d6000803e3d6000fd5b505050506040513d602081101561241157600080fd5b50518790611885565b9550612480565b61247d84848151811061243057fe5b60200260200101516001600160a01b0316632e1a7d4d846040518263ffffffff1660e01b815260040180828152602001915050602060405180830381600087803b1580156123e757600080fd5b95505b5061250d565b61250a83838151811061249557fe5b60200260200101516001600160a01b0316633ccfd60b6040518163ffffffff1660e01b8152600401602060405180830381600087803b1580156124d757600080fd5b505af11580156124eb573d6000803e3d6000fd5b505050506040513d602081101561250157600080fd5b50518690611885565b94505b84871161251a5750612524565b505b600101611fc0565b50848311156126655761253783866127e9565b60005460408051636eb1769f60e11b81523060048201526001600160a01b0386811660248301529151919092169163dd62ed3e916044808301926020929190829003018186803b15801561258a57600080fd5b505afa15801561259e573d6000803e3d6000fd5b505050506040513d60208110156125b457600080fd5b505110156125d5576000546125d5906001600160a01b03168360001961288b565b6001600160a01b038216636e553f656125ee85886127e9565b896040518363ffffffff1660e01b815260040180838152602001826001600160a01b0316815260200192505050602060405180830381600087803b15801561263557600080fd5b505af1158015612649573d6000803e3d6000fd5b505050506040513d602081101561265f57600080fd5b50859350505b6001600160a01b038616301461268c5760005461268c906001600160a01b031687856118ee565b5050949350505050565b60606126eb826040518060400160405280602081526020017f5361666545524332303a206c6f772d6c6576656c2063616c6c206661696c6564815250856001600160a01b03166129d29092919063ffffffff16565b805190915015610dba5780806020019051602081101561270a57600080fd5b5051610dba5760405162461bcd60e51b815260040180806020018281038252602a815260200180612c53602a913960400191505060405180910390fd5b600081836127d35760405162461bcd60e51b81526004018080602001828103825283818151815260200191508051906020019080838360005b83811015612798578181015183820152602001612780565b50505050905090810190601f1680156127c55780820380516001836020036101000a031916815260200191505b509250505060405180910390fd5b5060008385816127df57fe5b0495945050505050565b6000610fc283836040518060400160405280601e81526020017f536166654d6174683a207375627472616374696f6e206f766572666c6f7700008152506129e9565b604080516001600160a01b0380861660248301528416604482015260648082018490528251808303909101815260849091019091526020810180516001600160e01b03166323b872dd60e01b179052612885908590612696565b50505050565b801580612911575060408051636eb1769f60e11b81523060048201526001600160a01b03848116602483015291519185169163dd62ed3e91604480820192602092909190829003018186803b1580156128e357600080fd5b505afa1580156128f7573d6000803e3d6000fd5b505050506040513d602081101561290d57600080fd5b5051155b61294c5760405162461bcd60e51b8152600401808060200182810382526036815260200180612c7d6036913960400191505060405180910390fd5b604080516001600160a01b038416602482015260448082018490528251808303909101815260649091019091526020810180516001600160e01b031663095ea7b360e01b179052610dba908490612696565b600154815111156114cf5780516117cf906001906020840190612bb6565b60008183106129cb5781610fc2565b5090919050565b60606129e18484600085612a43565b949350505050565b60008184841115612a3b5760405162461bcd60e51b8152602060048201818152835160248401528351909283926044909101919085019080838360008315612798578181015183820152602001612780565b505050900390565b6060612a4e85612bb0565b612a9f576040805162461bcd60e51b815260206004820152601d60248201527f416464726573733a2063616c6c20746f206e6f6e2d636f6e7472616374000000604482015290519081900360640190fd5b60006060866001600160a01b031685876040518082805190602001908083835b60208310612ade5780518252601f199092019160209182019101612abf565b6001836020036101000a03801982511681845116808217855250505050505090500191505060006040518083038185875af1925050503d8060008114612b40576040519150601f19603f3d011682016040523d82523d6000602084013e612b45565b606091505b50915091508115612b595791506129e19050565b805115612b695780518082602001fd5b60405162461bcd60e51b8152602060048201818152865160248401528651879391928392604401919085019080838360008315612798578181015183820152602001612780565b3b151590565b828054828255906000526020600020908101928215612c0b579160200282015b82811115612c0b57825182546001600160a01b0319166001600160a01b03909116178255602090920191600190910190612bd6565b506113119291505b808211156113115780546001600160a01b0319168155600101612c1356fe536166654d6174683a206d756c7469706c69636174696f6e206f766572666c6f775361666545524332303a204552433230206f7065726174696f6e20646964206e6f7420737563636565645361666545524332303a20617070726f76652066726f6d206e6f6e2d7a65726f20746f206e6f6e2d7a65726f20616c6c6f77616e6365a264697066735822122051fd0fceaea656a97c31f46c8e0e3122737ea6f1271c9b860dde4f0a404ae5b164736f6c634300060c0033",
  "devdoc": {
    "kind": "dev",
    "methods": {
      "allVaults()": {
        "returns": {
          "_0": "An array containing instances of VaultAPI"
        }
      },
      "bestVault()": {
        "returns": {
          "_0": "An instance of a VaultAPI"
        }
      },
      "setRegistry(address)": {
        "params": {
          "_registry": "The new _registry address."
        }
      },
      "totalAssets()": {
        "returns": {
          "assets": "the sum of all the assets managed by the underlying vaults."
        }
      },
      "totalVaultBalance(address)": {
        "details": "will be used to get the wrapper balance using totalVaultBalance(address(this)).",
        "params": {
          "account": "The address of the account."
        },
        "returns": {
          "balance": "of token for the account accross all the vaults."
        }
      }
    },
    "version": 1
  },
  "userdoc": {
    "kind": "user",
    "methods": {
      "allVaults()": {
        "notice": "Used to get all vaults from the registery for the token"
      },
      "bestVault()": {
        "notice": "Used to get the most revent vault for the token using the registry."
      },
      "setRegistry(address)": {
        "notice": "Used to update the yearn registry."
      },
      "totalAssets()": {
        "notice": "Used to get the TVL on the underlying vaults."
      },
      "totalVaultBalance(address)": {
        "notice": "Used to get the balance of an account accross all the vaults for a token."
      }
    },
    "version": 1
  },
  "storageLayout": {
    "storage": [
      {
        "astId": 8743,
        "contract": "src/strategies/yearn/strategy-yearn-crvsteth.sol:StrategyYearnCrvSteth",
        "label": "token",
        "offset": 0,
        "slot": "0",
        "type": "t_contract(IERC20)5855"
      },
      {
        "astId": 8746,
        "contract": "src/strategies/yearn/strategy-yearn-crvsteth.sol:StrategyYearnCrvSteth",
        "label": "_cachedVaults",
        "offset": 0,
        "slot": "1",
        "type": "t_array(t_contract(VaultAPI)8732)dyn_storage"
      },
      {
        "astId": 8748,
        "contract": "src/strategies/yearn/strategy-yearn-crvsteth.sol:StrategyYearnCrvSteth",
        "label": "registry",
        "offset": 0,
        "slot": "2",
        "type": "t_contract(RegistryAPI)8575"
      },
      {
        "astId": 24125,
        "contract": "src/strategies/yearn/strategy-yearn-crvsteth.sol:StrategyYearnCrvSteth",
        "label": "governance",
        "offset": 0,
        "slot": "3",
        "type": "t_address"
      },
      {
        "astId": 24127,
        "contract": "src/strategies/yearn/strategy-yearn-crvsteth.sol:StrategyYearnCrvSteth",
        "label": "controller",
        "offset": 0,
        "slot": "4",
        "type": "t_address"
      },
      {
        "astId": 24129,
        "contract": "src/strategies/yearn/strategy-yearn-crvsteth.sol:StrategyYearnCrvSteth",
        "label": "strategist",
        "offset": 0,
        "slot": "5",
        "type": "t_address"
      },
      {
        "astId": 24131,
        "contract": "src/strategies/yearn/strategy-yearn-crvsteth.sol:StrategyYearnCrvSteth",
        "label": "timelock",
        "offset": 0,
        "slot": "6",
        "type": "t_address"
      },
      {
        "astId": 24133,
        "contract": "src/strategies/yearn/strategy-yearn-crvsteth.sol:StrategyYearnCrvSteth",
        "label": "want",
        "offset": 0,
        "slot": "7",
        "type": "t_address"
      },
      {
        "astId": 24135,
        "contract": "src/strategies/yearn/strategy-yearn-crvsteth.sol:StrategyYearnCrvSteth",
        "label": "name",
        "offset": 0,
        "slot": "8",
        "type": "t_string_storage"
      },
      {
        "astId": 25770,
        "contract": "src/strategies/yearn/strategy-yearn-crvsteth.sol:StrategyYearnCrvSteth",
        "label": "crv_steth_lp",
        "offset": 0,
        "slot": "9",
        "type": "t_address"
      },
      {
        "astId": 25773,
        "contract": "src/strategies/yearn/strategy-yearn-crvsteth.sol:StrategyYearnCrvSteth",
        "label": "yearn_registry",
        "offset": 0,
        "slot": "10",
        "type": "t_address"
      }
    ],
    "types": {
      "t_address": {
        "encoding": "inplace",
        "label": "address",
        "numberOfBytes": "20"
      },
      "t_array(t_contract(VaultAPI)8732)dyn_storage": {
        "base": "t_contract(VaultAPI)8732",
        "encoding": "dynamic_array",
        "label": "contract VaultAPI[]",
        "numberOfBytes": "32"
      },
      "t_contract(IERC20)5855": {
        "encoding": "inplace",
        "label": "contract IERC20",
        "numberOfBytes": "20"
      },
      "t_contract(RegistryAPI)8575": {
        "encoding": "inplace",
        "label": "contract RegistryAPI",
        "numberOfBytes": "20"
      },
      "t_contract(VaultAPI)8732": {
        "encoding": "inplace",
        "label": "contract VaultAPI",
        "numberOfBytes": "20"
      },
      "t_string_storage": {
        "encoding": "bytes",
        "label": "string",
        "numberOfBytes": "32"
      }
    }
  }
}