{
  "address": "0xE9F71E65b13a036127F30AE8E397d7a65A51F421",
  "abi": [
    {
      "inputs": [
        {
          "internalType": "address",
          "name": "_governance",
          "type": "address"
        },
        {
          "internalType": "address",
          "name": "_strategist",
          "type": "address"
        },
        {
          "internalType": "address",
          "name": "_controller",
          "type": "address"
        },
        {
          "internalType": "address",
          "name": "_timelock",
          "type": "address"
        }
      ],
      "stateMutability": "nonpayable",
      "type": "constructor"
    },
    {
      "inputs": [],
      "name": "balanceOf",
      "outputs": [
        {
          "internalType": "uint256",
          "name": "",
          "type": "uint256"
        }
      ],
      "stateMutability": "view",
      "type": "function"
    },
    {
      "inputs": [],
      "name": "balanceOfPool",
      "outputs": [
        {
          "internalType": "uint256",
          "name": "",
          "type": "uint256"
        }
      ],
      "stateMutability": "view",
      "type": "function"
    },
    {
      "inputs": [],
      "name": "balanceOfWant",
      "outputs": [
        {
          "internalType": "uint256",
          "name": "",
          "type": "uint256"
        }
      ],
      "stateMutability": "view",
      "type": "function"
    },
    {
      "inputs": [],
      "name": "controller",
      "outputs": [
        {
          "internalType": "address",
          "name": "",
          "type": "address"
        }
      ],
      "stateMutability": "view",
      "type": "function"
    },
    {
      "inputs": [],
      "name": "cvx",
      "outputs": [
        {
          "internalType": "address",
          "name": "",
          "type": "address"
        }
      ],
      "stateMutability": "view",
      "type": "function"
    },
    {
      "inputs": [],
      "name": "deposit",
      "outputs": [],
      "stateMutability": "nonpayable",
      "type": "function"
    },
    {
      "inputs": [
        {
          "internalType": "address",
          "name": "_target",
          "type": "address"
        },
        {
          "internalType": "bytes",
          "name": "_data",
          "type": "bytes"
        }
      ],
      "name": "execute",
      "outputs": [
        {
          "internalType": "bytes",
          "name": "response",
          "type": "bytes"
        }
      ],
      "stateMutability": "payable",
      "type": "function"
    },
    {
      "inputs": [],
      "name": "getHarvestable",
      "outputs": [
        {
          "internalType": "uint256",
          "name": "",
          "type": "uint256"
        },
        {
          "internalType": "uint256",
          "name": "",
          "type": "uint256"
        }
      ],
      "stateMutability": "view",
      "type": "function"
    },
    {
      "inputs": [],
      "name": "getName",
      "outputs": [
        {
          "internalType": "string",
          "name": "",
          "type": "string"
        }
      ],
      "stateMutability": "pure",
      "type": "function"
    },
    {
      "inputs": [],
      "name": "governance",
      "outputs": [
        {
          "internalType": "address",
          "name": "",
          "type": "address"
        }
      ],
      "stateMutability": "view",
      "type": "function"
    },
    {
      "inputs": [],
      "name": "harvest",
      "outputs": [],
      "stateMutability": "nonpayable",
      "type": "function"
    },
    {
      "inputs": [
        {
          "internalType": "address",
          "name": "",
          "type": "address"
        }
      ],
      "name": "harvesters",
      "outputs": [
        {
          "internalType": "bool",
          "name": "",
          "type": "bool"
        }
      ],
      "stateMutability": "view",
      "type": "function"
    },
    {
      "inputs": [],
      "name": "masterChef",
      "outputs": [
        {
          "internalType": "address",
          "name": "",
          "type": "address"
        }
      ],
      "stateMutability": "view",
      "type": "function"
    },
    {
      "inputs": [],
      "name": "performanceDevFee",
      "outputs": [
        {
          "internalType": "uint256",
          "name": "",
          "type": "uint256"
        }
      ],
      "stateMutability": "view",
      "type": "function"
    },
    {
      "inputs": [],
      "name": "performanceDevMax",
      "outputs": [
        {
          "internalType": "uint256",
          "name": "",
          "type": "uint256"
        }
      ],
      "stateMutability": "view",
      "type": "function"
    },
    {
      "inputs": [],
      "name": "performanceTreasuryFee",
      "outputs": [
        {
          "internalType": "uint256",
          "name": "",
          "type": "uint256"
        }
      ],
      "stateMutability": "view",
      "type": "function"
    },
    {
      "inputs": [],
      "name": "performanceTreasuryMax",
      "outputs": [
        {
          "internalType": "uint256",
          "name": "",
          "type": "uint256"
        }
      ],
      "stateMutability": "view",
      "type": "function"
    },
    {
      "inputs": [],
      "name": "poolId",
      "outputs": [
        {
          "internalType": "uint256",
          "name": "",
          "type": "uint256"
        }
      ],
      "stateMutability": "view",
      "type": "function"
    },
    {
      "inputs": [
        {
          "internalType": "address[]",
          "name": "_harvesters",
          "type": "address[]"
        }
      ],
      "name": "revokeHarvesters",
      "outputs": [],
      "stateMutability": "nonpayable",
      "type": "function"
    },
    {
      "inputs": [
        {
          "internalType": "address",
          "name": "_controller",
          "type": "address"
        }
      ],
      "name": "setController",
      "outputs": [],
      "stateMutability": "nonpayable",
      "type": "function"
    },
    {
      "inputs": [
        {
          "internalType": "address",
          "name": "_governance",
          "type": "address"
        }
      ],
      "name": "setGovernance",
      "outputs": [],
      "stateMutability": "nonpayable",
      "type": "function"
    },
    {
      "inputs": [
        {
          "internalType": "uint256",
          "name": "_performanceDevFee",
          "type": "uint256"
        }
      ],
      "name": "setPerformanceDevFee",
      "outputs": [],
      "stateMutability": "nonpayable",
      "type": "function"
    },
    {
      "inputs": [
        {
          "internalType": "uint256",
          "name": "_performanceTreasuryFee",
          "type": "uint256"
        }
      ],
      "name": "setPerformanceTreasuryFee",
      "outputs": [],
      "stateMutability": "nonpayable",
      "type": "function"
    },
    {
      "inputs": [
        {
          "internalType": "address",
          "name": "_strategist",
          "type": "address"
        }
      ],
      "name": "setStrategist",
      "outputs": [],
      "stateMutability": "nonpayable",
      "type": "function"
    },
    {
      "inputs": [
        {
          "internalType": "address",
          "name": "_timelock",
          "type": "address"
        }
      ],
      "name": "setTimelock",
      "outputs": [],
      "stateMutability": "nonpayable",
      "type": "function"
    },
    {
      "inputs": [
        {
          "internalType": "uint256",
          "name": "_withdrawalDevFundFee",
          "type": "uint256"
        }
      ],
      "name": "setWithdrawalDevFundFee",
      "outputs": [],
      "stateMutability": "nonpayable",
      "type": "function"
    },
    {
      "inputs": [
        {
          "internalType": "uint256",
          "name": "_withdrawalTreasuryFee",
          "type": "uint256"
        }
      ],
      "name": "setWithdrawalTreasuryFee",
      "outputs": [],
      "stateMutability": "nonpayable",
      "type": "function"
    },
    {
      "inputs": [],
      "name": "strategist",
      "outputs": [
        {
          "internalType": "address",
          "name": "",
          "type": "address"
        }
      ],
      "stateMutability": "view",
      "type": "function"
    },
    {
      "inputs": [],
      "name": "sushi",
      "outputs": [
        {
          "internalType": "address",
          "name": "",
          "type": "address"
        }
      ],
      "stateMutability": "view",
      "type": "function"
    },
    {
      "inputs": [],
      "name": "sushiRouter",
      "outputs": [
        {
          "internalType": "address",
          "name": "",
          "type": "address"
        }
      ],
      "stateMutability": "view",
      "type": "function"
    },
    {
      "inputs": [],
      "name": "sushi_cvx_eth_lp",
      "outputs": [
        {
          "internalType": "address",
          "name": "",
          "type": "address"
        }
      ],
      "stateMutability": "view",
      "type": "function"
    },
    {
      "inputs": [],
      "name": "sushi_cvx_poolId",
      "outputs": [
        {
          "internalType": "uint256",
          "name": "",
          "type": "uint256"
        }
      ],
      "stateMutability": "view",
      "type": "function"
    },
    {
      "inputs": [],
      "name": "timelock",
      "outputs": [
        {
          "internalType": "address",
          "name": "",
          "type": "address"
        }
      ],
      "stateMutability": "view",
      "type": "function"
    },
    {
      "inputs": [],
      "name": "univ2Router2",
      "outputs": [
        {
          "internalType": "address",
          "name": "",
          "type": "address"
        }
      ],
      "stateMutability": "view",
      "type": "function"
    },
    {
      "inputs": [],
      "name": "want",
      "outputs": [
        {
          "internalType": "address",
          "name": "",
          "type": "address"
        }
      ],
      "stateMutability": "view",
      "type": "function"
    },
    {
      "inputs": [],
      "name": "weth",
      "outputs": [
        {
          "internalType": "address",
          "name": "",
          "type": "address"
        }
      ],
      "stateMutability": "view",
      "type": "function"
    },
    {
      "inputs": [
        {
          "internalType": "address[]",
          "name": "_harvesters",
          "type": "address[]"
        }
      ],
      "name": "whitelistHarvesters",
      "outputs": [],
      "stateMutability": "nonpayable",
      "type": "function"
    },
    {
      "inputs": [
        {
          "internalType": "uint256",
          "name": "_amount",
          "type": "uint256"
        }
      ],
      "name": "withdraw",
      "outputs": [],
      "stateMutability": "nonpayable",
      "type": "function"
    },
    {
      "inputs": [
        {
          "internalType": "contract IERC20",
          "name": "_asset",
          "type": "address"
        }
      ],
      "name": "withdraw",
      "outputs": [
        {
          "internalType": "uint256",
          "name": "balance",
          "type": "uint256"
        }
      ],
      "stateMutability": "nonpayable",
      "type": "function"
    },
    {
      "inputs": [],
      "name": "withdrawAll",
      "outputs": [
        {
          "internalType": "uint256",
          "name": "balance",
          "type": "uint256"
        }
      ],
      "stateMutability": "nonpayable",
      "type": "function"
    },
    {
      "inputs": [
        {
          "internalType": "uint256",
          "name": "_amount",
          "type": "uint256"
        }
      ],
      "name": "withdrawForSwap",
      "outputs": [
        {
          "internalType": "uint256",
          "name": "balance",
          "type": "uint256"
        }
      ],
      "stateMutability": "nonpayable",
      "type": "function"
    },
    {
      "inputs": [],
      "name": "withdrawalDevFundFee",
      "outputs": [
        {
          "internalType": "uint256",
          "name": "",
          "type": "uint256"
        }
      ],
      "stateMutability": "view",
      "type": "function"
    },
    {
      "inputs": [],
      "name": "withdrawalDevFundMax",
      "outputs": [
        {
          "internalType": "uint256",
          "name": "",
          "type": "uint256"
        }
      ],
      "stateMutability": "view",
      "type": "function"
    },
    {
      "inputs": [],
      "name": "withdrawalTreasuryFee",
      "outputs": [
        {
          "internalType": "uint256",
          "name": "",
          "type": "uint256"
        }
      ],
      "stateMutability": "view",
      "type": "function"
    },
    {
      "inputs": [],
      "name": "withdrawalTreasuryMax",
      "outputs": [
        {
          "internalType": "uint256",
          "name": "",
          "type": "uint256"
        }
      ],
      "stateMutability": "view",
      "type": "function"
    }
  ],
  "transactionHash": "0x037387fbda4487a9c7ce5c05a624fbe39ee58ed0aa71d926831be0879485c740",
  "args": [
    "0x9d074E37d408542FD38be78848e8814AFB38db17",
    "0xaCfE4511CE883C14c4eA40563F176C3C09b4c47C",
    "0x6847259b2B3A4c17e7c43C54409810aF48bA5210",
    "0xD92c7fAa0Ca0e6AE4918f3a83d9832d9CAEAA0d3"
  ],
  "solcInputHash": "cdbf34b53dc545830c4fbaf42491e57d",
  "bytecode": "0x60806040526107d0600090815560018181556002829055600391909155600980546001600160a01b0319908116737a250d5630b4cf539739df2c5dacb4c659f2488d17909155600a8054821673d9e1ce17f2641f24ae83637ab66a2cca9c378b9f179055600d91909155600e805482167305767d9ef41dc40689678ffca0608878fb3de906179055600f8054909116734e3fbd56cd56c3e72c1403e103b45db9da5b9d2b179055348015620000b357600080fd5b50604051620033133803806200331383398181016040526080811015620000d957600080fd5b50805160208201516040830151606090930151600d54600e54939492936001600160a01b0316858585858484848484846200011357600080fd5b6001600160a01b0384166200012757600080fd5b6001600160a01b0383166200013b57600080fd5b6001600160a01b0382166200014f57600080fd5b6001600160a01b0381166200016357600080fd5b600480546001600160a01b039687166001600160a01b031991821617909155600580549587169582169590951790945560078054938616938516939093179092556006805491851691841691909117905560088054919093169116179055505050600c9290925550505050505061313380620001e06000396000f3fe6080604052600436106102725760003560e01c80636d13582c1161014f578063b1f55bd4116100c1578063c65e32421161007a578063c65e3242146108d1578063c7b9d530146108fb578063d0e30db01461092e578063d33219b414610943578063f77c479114610958578063fe1f8f7a1461058a57610272565b8063b1f55bd4146107ba578063b9e3748914610835578063bdacb3031461084a578063c04472a71461087d578063c1a3d44c14610892578063c6223e26146108a757610272565b806388993f221161011357806388993f22146106eb5780638ccdbb7014610700578063923c1d611461071557806392eefe9b1461072a578063ab033ea91461075d578063ab73e4331461079057610272565b80636d13582c1461063b578063722713f7146106505780638237859414610665578063853828b61461068f57806387976583146106a457610272565b80633e0dc34e116101e85780634fe809cc116101ac5780634fe809cc1461050c57806351cff8d9146105b457806351f3d0b8146105e7578063575a86b2146105fc57806359739ec4146106115780635aa6e6751461062657610272565b80633e0dc34e1461054b5780633fc8cef3146105605780634641257d14610575578063479119be1461058a5780634b9b7db11461059f57610272565b80631cff79cd1161023a5780631cff79cd146104045780631f1fcd51146104b85780631fe4a686146104cd578063249fb9b4146104e257806326e886c61461050c5780632e1a7d4d1461052157610272565b80630547104d146102775780630a087903146102a55780630e364fb6146102d6578063115880861461035357806317d7de7c1461037a575b600080fd5b34801561028357600080fd5b5061028c61096d565b6040805192835260208301919091528051918290030190f35b3480156102b157600080fd5b506102ba610c6c565b604080516001600160a01b039092168252519081900360200190f35b3480156102e257600080fd5b50610351600480360360208110156102f957600080fd5b810190602081018135600160201b81111561031357600080fd5b82018360208201111561032557600080fd5b803590602001918460208302840111600160201b8311171561034657600080fd5b509092509050610c84565b005b34801561035f57600080fd5b50610368610d5e565b60408051918252519081900360200190f35b34801561038657600080fd5b5061038f610dee565b6040805160208082528351818301528351919283929083019185019080838360005b838110156103c95781810151838201526020016103b1565b50505050905090810190601f1680156103f65780820380516001836020036101000a031916815260200191505b509250505060405180910390f35b61038f6004803603604081101561041a57600080fd5b6001600160a01b038235169190810190604081016020820135600160201b81111561044457600080fd5b82018360208201111561045657600080fd5b803590602001918460018302840111600160201b8311171561047757600080fd5b91908080601f016020809104026020016040519081016040528093929190818152602001838380828437600092019190915250929550610e1d945050505050565b3480156104c457600080fd5b506102ba610f00565b3480156104d957600080fd5b506102ba610f0f565b3480156104ee57600080fd5b506103516004803603602081101561050557600080fd5b5035610f1e565b34801561051857600080fd5b50610368610f6e565b34801561052d57600080fd5b506103516004803603602081101561054457600080fd5b5035610f74565b34801561055757600080fd5b50610368611287565b34801561056c57600080fd5b506102ba61128d565b34801561058157600080fd5b506103516112a5565b34801561059657600080fd5b50610368611a9e565b3480156105ab57600080fd5b506102ba611aa5565b3480156105c057600080fd5b50610368600480360360208110156105d757600080fd5b50356001600160a01b0316611ab4565b3480156105f357600080fd5b50610368611be4565b34801561060857600080fd5b506102ba611bea565b34801561061d57600080fd5b50610368611c02565b34801561063257600080fd5b506102ba611c08565b34801561064757600080fd5b506102ba611c17565b34801561065c57600080fd5b50610368611c26565b34801561067157600080fd5b506103516004803603602081101561068857600080fd5b5035611c46565b34801561069b57600080fd5b50610368611c96565b3480156106b057600080fd5b506106d7600480360360208110156106c757600080fd5b50356001600160a01b0316611e4a565b604080519115158252519081900360200190f35b3480156106f757600080fd5b50610368611e5f565b34801561070c57600080fd5b50610368611e65565b34801561072157600080fd5b506102ba611e6b565b34801561073657600080fd5b506103516004803603602081101561074d57600080fd5b50356001600160a01b0316611e7a565b34801561076957600080fd5b506103516004803603602081101561078057600080fd5b50356001600160a01b0316611ee7565b34801561079c57600080fd5b50610351600480360360208110156107b357600080fd5b5035611f56565b3480156107c657600080fd5b50610351600480360360208110156107dd57600080fd5b810190602081018135600160201b8111156107f757600080fd5b82018360208201111561080957600080fd5b803590602001918460208302840111600160201b8311171561082a57600080fd5b509092509050611fa6565b34801561084157600080fd5b506102ba612061565b34801561085657600080fd5b506103516004803603602081101561086d57600080fd5b50356001600160a01b0316612070565b34801561088957600080fd5b506103686120dd565b34801561089e57600080fd5b506103686120e3565b3480156108b357600080fd5b50610368600480360360208110156108ca57600080fd5b5035612163565b3480156108dd57600080fd5b50610351600480360360208110156108f457600080fd5b503561231b565b34801561090757600080fd5b506103516004803603602081101561091e57600080fd5b50356001600160a01b031661236b565b34801561093a57600080fd5b506103516123da565b34801561094f57600080fd5b506102ba61252e565b34801561096457600080fd5b506102ba61253d565b600080600073ef0881ec094552b2e128cf945ef17a6752b4ec5d6001600160a01b031663195426ec600c54306040518363ffffffff1660e01b815260040180838152602001826001600160a01b031681526020019250505060206040518083038186803b1580156109dd57600080fd5b505afa1580156109f1573d6000803e3d6000fd5b505050506040513d6020811015610a0757600080fd5b5051600c546040805163c346253d60e01b815260048101929092525191925060009173ef0881ec094552b2e128cf945ef17a6752b4ec5d9163c346253d916024808301926020929190829003018186803b158015610a6457600080fd5b505afa158015610a78573d6000803e3d6000fd5b505050506040513d6020811015610a8e57600080fd5b5051600c546040805163d63b3c4960e01b8152600481019290925230602483015260006044830181905290519293506060926001600160a01b0385169263d63b3c49926064808301939192829003018186803b158015610aed57600080fd5b505afa158015610b01573d6000803e3d6000fd5b505050506040513d6000823e601f3d908101601f191682016040908152811015610b2a57600080fd5b8101908080516040519392919084600160201b821115610b4957600080fd5b908301906020820185811115610b5e57600080fd5b82518660208202830111600160201b82111715610b7a57600080fd5b82525081516020918201928201910280838360005b83811015610ba7578181015183820152602001610b8f565b5050505090500160405260200180516040519392919084600160201b821115610bcf57600080fd5b908301906020820185811115610be457600080fd5b82518660208202830111600160201b82111715610c0057600080fd5b82525081516020918201928201910280838360005b83811015610c2d578181015183820152602001610c15565b5050505090500160405250505091505060008082511115610c605781600081518110610c5557fe5b602002602001015190505b92945091925050509091565b736b3595068778dd592e39a122f4f5a5cf09c90fe281565b6005546001600160a01b0316331480610ca757506007546001600160a01b031633145b80610cc15750336000908152600b602052604090205460ff165b610d03576040805162461bcd60e51b815260206004820152600e60248201526d1b9bdd08185d5d1a1bdc9a5e995960921b604482015290519081900360640190fd5b60005b81811015610d59576001600b6000858585818110610d2057fe5b602090810292909201356001600160a01b0316835250810191909152604001600020805460ff1916911515919091179055600101610d06565b505050565b600c54604080516393f1a40b60e01b815260048101929092523060248301528051600092839273ef0881ec094552b2e128cf945ef17a6752b4ec5d926393f1a40b926044808201939291829003018186803b158015610dbc57600080fd5b505afa158015610dd0573d6000803e3d6000fd5b505050506040513d6040811015610de657600080fd5b505191505090565b6040805180820190915260158152740537472617465677953757368694376784574684c7605c1b602082015290565b6008546060906001600160a01b03163314610e6b576040805162461bcd60e51b81526020600482015260096024820152682174696d656c6f636b60b81b604482015290519081900360640190fd5b6001600160a01b038316610eb0576040805162461bcd60e51b8152602060048201526007602482015266085d185c99d95d60ca1b604482015290519081900360640190fd5b600080835160208501866113885a03f43d6040519250601f19601f6020830101168301604052808352806000602085013e811560018114610ef057610ef7565b8160208501fd5b50505092915050565b6004546001600160a01b031681565b6007546001600160a01b031681565b6008546001600160a01b03163314610f69576040805162461bcd60e51b81526020600482015260096024820152682174696d656c6f636b60b81b604482015290519081900360640190fd5b600055565b61271081565b6006546001600160a01b03163314610fc1576040805162461bcd60e51b815260206004820152600b60248201526a10b1b7b73a3937b63632b960a91b604482015290519081900360640190fd5b60048054604080516370a0823160e01b81523093810193909352516000926001600160a01b03909216916370a08231916024808301926020929190829003018186803b15801561101057600080fd5b505afa158015611024573d6000803e3d6000fd5b505050506040513d602081101561103a57600080fd5b505190508181101561106757611058611053838361254c565b612597565b9150611064828261261b565b91505b600061108b620186a06110856003548661267590919063ffffffff16565b906126ce565b905061111d600660009054906101000a90046001600160a01b03166001600160a01b0316638d8f1e676040518163ffffffff1660e01b815260040160206040518083038186803b1580156110de57600080fd5b505afa1580156110f2573d6000803e3d6000fd5b505050506040513d602081101561110857600080fd5b50516004546001600160a01b03169083612710565b600061113b620186a06110856002548761267590919063ffffffff16565b905061118e600660009054906101000a90046001600160a01b03166001600160a01b03166361d027b36040518163ffffffff1660e01b815260040160206040518083038186803b1580156110de57600080fd5b6006546004805460408051636535246160e11b81526001600160a01b039283169381019390935251600093919091169163ca6a48c2916024808301926020929190829003018186803b1580156111e357600080fd5b505afa1580156111f7573d6000803e3d6000fd5b505050506040513d602081101561120d57600080fd5b505190506001600160a01b038116611255576040805162461bcd60e51b8152602060048083019190915260248201526310b530b960e11b604482015290519081900360640190fd5b6112808161126d84611267898861254c565b9061254c565b6004546001600160a01b03169190612710565b5050505050565b600c5481565b73c02aaa39b223fe8d0a0e5c4f27ead9083c756cc281565b336000908152600b602052604090205460ff16806112cd57506005546001600160a01b031633145b806112e257506007546001600160a01b031633145b6112eb57600080fd5b600c5460408051630c7e663b60e11b815260048101929092523060248301525173ef0881ec094552b2e128cf945ef17a6752b4ec5d916318fccc7691604480830192600092919082900301818387803b15801561134757600080fd5b505af115801561135b573d6000803e3d6000fd5b5050600f54604080516370a0823160e01b81523060048201529051600094506001600160a01b0390921692506370a08231916024808301926020929190829003018186803b1580156113ac57600080fd5b505afa1580156113c0573d6000803e3d6000fd5b505050506040513d60208110156113d657600080fd5b5051905080156114585760006113ed8260026126ce565b600a54600f5491925061140e916001600160a01b0390811691166000612762565b600a54600f5461142b916001600160a01b03918216911683612762565b600f54611456906001600160a01b031673c02aaa39b223fe8d0a0e5c4f27ead9083c756cc283612875565b505b604080516370a0823160e01b81523060048201529051600091736b3595068778dd592e39a122f4f5a5cf09c90fe2916370a0823191602480820192602092909190829003018186803b1580156114ad57600080fd5b505afa1580156114c1573d6000803e3d6000fd5b505050506040513d60208110156114d757600080fd5b5051905080156115ab5760006114ee8260026126ce565b600a5490915061151e90736b3595068778dd592e39a122f4f5a5cf09c90fe2906001600160a01b03166000612762565b600a5461154a90736b3595068778dd592e39a122f4f5a5cf09c90fe2906001600160a01b031684612762565b61157d736b3595068778dd592e39a122f4f5a5cf09c90fe273c02aaa39b223fe8d0a0e5c4f27ead9083c756cc283612875565b600f546115a990736b3595068778dd592e39a122f4f5a5cf09c90fe2906001600160a01b031683612875565b505b604080516370a0823160e01b8152306004820152905160009173c02aaa39b223fe8d0a0e5c4f27ead9083c756cc2916370a0823191602480820192602092909190829003018186803b15801561160057600080fd5b505afa158015611614573d6000803e3d6000fd5b505050506040513d602081101561162a57600080fd5b5051600f54604080516370a0823160e01b815230600482015290519293506001600160a01b03909116916370a0823191602480820192602092909190829003018186803b15801561167a57600080fd5b505afa15801561168e573d6000803e3d6000fd5b505050506040513d60208110156116a457600080fd5b5051925080158015906116b75750600083115b15611a9657600a546116e99073c02aaa39b223fe8d0a0e5c4f27ead9083c756cc2906001600160a01b03166000612762565b600a546117159073c02aaa39b223fe8d0a0e5c4f27ead9083c756cc2906001600160a01b031683612762565b600a54600f54611733916001600160a01b0391821691166000612762565b600a54600f54611750916001600160a01b03918216911685612762565b600a54600f546040805162e8e33760e81b815273c02aaa39b223fe8d0a0e5c4f27ead9083c756cc260048201526001600160a01b039283166024820152604481018590526064810187905260006084820181905260a482018190523060c4830152603c420160e48301529151929093169263e8e33700926101048083019360609383900390910190829087803b1580156117e957600080fd5b505af11580156117fd573d6000803e3d6000fd5b505050506040513d606081101561181357600080fd5b5050600654604080516361d027b360e01b8152905173c02aaa39b223fe8d0a0e5c4f27ead9083c756cc29263a9059cbb926001600160a01b03909116916361d027b391600480820192602092909190829003018186803b15801561187657600080fd5b505afa15801561188a573d6000803e3d6000fd5b505050506040513d60208110156118a057600080fd5b5051604080516370a0823160e01b8152306004820152905173c02aaa39b223fe8d0a0e5c4f27ead9083c756cc2916370a08231916024808301926020929190829003018186803b1580156118f357600080fd5b505afa158015611907573d6000803e3d6000fd5b505050506040513d602081101561191d57600080fd5b5051604080516001600160e01b031960e086901b1681526001600160a01b03909316600484015260248301919091525160448083019260209291908290030181600087803b15801561196e57600080fd5b505af1158015611982573d6000803e3d6000fd5b505050506040513d602081101561199857600080fd5b5050600654604080516361d027b360e01b81529051611a96926001600160a01b0316916361d027b3916004808301926020929190829003018186803b1580156119e057600080fd5b505afa1580156119f4573d6000803e3d6000fd5b505050506040513d6020811015611a0a57600080fd5b5051600f54604080516370a0823160e01b815230600482015290516001600160a01b03909216916370a0823191602480820192602092909190829003018186803b158015611a5757600080fd5b505afa158015611a6b573d6000803e3d6000fd5b505050506040513d6020811015611a8157600080fd5b5051600f546001600160a01b03169190612710565b610d59612b9f565b620186a081565b600e546001600160a01b031681565b6006546000906001600160a01b03163314611b04576040805162461bcd60e51b815260206004820152600b60248201526a10b1b7b73a3937b63632b960a91b604482015290519081900360640190fd5b6004546001600160a01b0383811691161415611b50576040805162461bcd60e51b815260206004808301919091526024820152631dd85b9d60e21b604482015290519081900360640190fd5b604080516370a0823160e01b815230600482015290516001600160a01b038416916370a08231916024808301926020929190829003018186803b158015611b9657600080fd5b505afa158015611baa573d6000803e3d6000fd5b505050506040513d6020811015611bc057600080fd5b5051600654909150611bdf906001600160a01b03848116911683612710565b919050565b60035481565b73ef0881ec094552b2e128cf945ef17a6752b4ec5d81565b60005481565b6005546001600160a01b031681565b600a546001600160a01b031681565b6000611c41611c33610d5e565b611c3b6120e3565b9061261b565b905090565b6008546001600160a01b03163314611c91576040805162461bcd60e51b81526020600482015260096024820152682174696d656c6f636b60b81b604482015290519081900360640190fd5b600255565b6006546000906001600160a01b03163314611ce6576040805162461bcd60e51b815260206004820152600b60248201526a10b1b7b73a3937b63632b960a91b604482015290519081900360640190fd5b611cee612d3a565b60048054604080516370a0823160e01b81523093810193909352516001600160a01b03909116916370a08231916024808301926020929190829003018186803b158015611d3a57600080fd5b505afa158015611d4e573d6000803e3d6000fd5b505050506040513d6020811015611d6457600080fd5b50516006546004805460408051636535246160e11b81526001600160a01b03928316938101939093525193945060009392169163ca6a48c291602480820192602092909190829003018186803b158015611dbd57600080fd5b505afa158015611dd1573d6000803e3d6000fd5b505050506040513d6020811015611de757600080fd5b505190506001600160a01b038116611e2f576040805162461bcd60e51b8152602060048083019190915260248201526310b530b960e11b604482015290519081900360640190fd5b600454611e46906001600160a01b03168284612710565b5090565b600b6020526000908152604090205460ff1681565b60015481565b60025481565b600f546001600160a01b031681565b6008546001600160a01b03163314611ec5576040805162461bcd60e51b81526020600482015260096024820152682174696d656c6f636b60b81b604482015290519081900360640190fd5b600680546001600160a01b0319166001600160a01b0392909216919091179055565b6005546001600160a01b03163314611f34576040805162461bcd60e51b815260206004820152600b60248201526a21676f7665726e616e636560a81b604482015290519081900360640190fd5b600580546001600160a01b0319166001600160a01b0392909216919091179055565b6008546001600160a01b03163314611fa1576040805162461bcd60e51b81526020600482015260096024820152682174696d656c6f636b60b81b604482015290519081900360640190fd5b600355565b6005546001600160a01b0316331480611fc957506007546001600160a01b031633145b61200b576040805162461bcd60e51b815260206004820152600e60248201526d1b9bdd08185d5d1a1bdc9a5e995960921b604482015290519081900360640190fd5b60005b81811015610d59576000600b600085858581811061202857fe5b602090810292909201356001600160a01b0316835250810191909152604001600020805460ff191691151591909117905560010161200e565b6009546001600160a01b031681565b6008546001600160a01b031633146120bb576040805162461bcd60e51b81526020600482015260096024820152682174696d656c6f636b60b81b604482015290519081900360640190fd5b600880546001600160a01b0319166001600160a01b0392909216919091179055565b600d5481565b60048054604080516370a0823160e01b81523093810193909352516000926001600160a01b03909216916370a08231916024808301926020929190829003018186803b15801561213257600080fd5b505afa158015612146573d6000803e3d6000fd5b505050506040513d602081101561215c57600080fd5b5051905090565b6006546000906001600160a01b031633146121b3576040805162461bcd60e51b815260206004820152600b60248201526a10b1b7b73a3937b63632b960a91b604482015290519081900360640190fd5b6121bc82612597565b5060048054604080516370a0823160e01b81523093810193909352516001600160a01b03909116916370a08231916024808301926020929190829003018186803b15801561220957600080fd5b505afa15801561221d573d6000803e3d6000fd5b505050506040513d602081101561223357600080fd5b50516006546004805460408051636535246160e11b81526001600160a01b03928316938101939093525193945060009392169163ca6a48c291602480820192602092909190829003018186803b15801561228c57600080fd5b505afa1580156122a0573d6000803e3d6000fd5b505050506040513d60208110156122b657600080fd5b505190506001600160a01b0381166122fe576040805162461bcd60e51b8152602060048083019190915260248201526310b530b960e11b604482015290519081900360640190fd5b600454612315906001600160a01b03168284612710565b50919050565b6008546001600160a01b03163314612366576040805162461bcd60e51b81526020600482015260096024820152682174696d656c6f636b60b81b604482015290519081900360640190fd5b600155565b6005546001600160a01b031633146123b8576040805162461bcd60e51b815260206004820152600b60248201526a21676f7665726e616e636560a81b604482015290519081900360640190fd5b600780546001600160a01b0319166001600160a01b0392909216919091179055565b60048054604080516370a0823160e01b81523093810193909352516000926001600160a01b03909216916370a08231916024808301926020929190829003018186803b15801561242957600080fd5b505afa15801561243d573d6000803e3d6000fd5b505050506040513d602081101561245357600080fd5b50519050801561252b57600454612489906001600160a01b031673ef0881ec094552b2e128cf945ef17a6752b4ec5d6000612762565b6004546124b4906001600160a01b031673ef0881ec094552b2e128cf945ef17a6752b4ec5d83612762565b600c5460408051638dbdbe6d60e01b81526004810192909252602482018390523060448301525173ef0881ec094552b2e128cf945ef17a6752b4ec5d91638dbdbe6d91606480830192600092919082900301818387803b15801561251757600080fd5b505af1158015611280573d6000803e3d6000fd5b50565b6008546001600160a01b031681565b6006546001600160a01b031681565b600061258e83836040518060400160405280601e81526020017f536166654d6174683a207375627472616374696f6e206f766572666c6f770000815250612d45565b90505b92915050565b600c5460408051630ad58d2f60e01b81526004810192909252602482018390523060448301525160009173ef0881ec094552b2e128cf945ef17a6752b4ec5d91630ad58d2f91606480820192869290919082900301818387803b1580156125fd57600080fd5b505af1158015612611573d6000803e3d6000fd5b5093949350505050565b60008282018381101561258e576040805162461bcd60e51b815260206004820152601b60248201527f536166654d6174683a206164646974696f6e206f766572666c6f770000000000604482015290519081900360640190fd5b60008261268457506000612591565b8282028284828161269157fe5b041461258e5760405162461bcd60e51b815260040180806020018281038252602181526020018061307d6021913960400191505060405180910390fd5b600061258e83836040518060400160405280601a81526020017f536166654d6174683a206469766973696f6e206279207a65726f000000000000815250612ddc565b604080516001600160a01b038416602482015260448082018490528251808303909101815260649091019091526020810180516001600160e01b031663a9059cbb60e01b179052610d59908490612e41565b8015806127e8575060408051636eb1769f60e11b81523060048201526001600160a01b03848116602483015291519185169163dd62ed3e91604480820192602092909190829003018186803b1580156127ba57600080fd5b505afa1580156127ce573d6000803e3d6000fd5b505050506040513d60208110156127e457600080fd5b5051155b6128235760405162461bcd60e51b81526004018080602001828103825260368152602001806130c86036913960400191505060405180910390fd5b604080516001600160a01b038416602482015260448082018490528251808303909101815260649091019091526020810180516001600160e01b031663095ea7b360e01b179052610d59908490612e41565b6001600160a01b03821661288857600080fd5b60606001600160a01b03841673c02aaa39b223fe8d0a0e5c4f27ead9083c756cc214806128d157506001600160a01b03831673c02aaa39b223fe8d0a0e5c4f27ead9083c756cc2145b15612957576040805160028082526060820183529091602083019080368337019050509050838160008151811061290457fe5b60200260200101906001600160a01b031690816001600160a01b031681525050828160018151811061293257fe5b60200260200101906001600160a01b031690816001600160a01b031681525050612a17565b604080516003808252608082019092529060208201606080368337019050509050838160008151811061298657fe5b60200260200101906001600160a01b031690816001600160a01b03168152505073c02aaa39b223fe8d0a0e5c4f27ead9083c756cc2816001815181106129c857fe5b60200260200101906001600160a01b031690816001600160a01b03168152505082816002815181106129f657fe5b60200260200101906001600160a01b031690816001600160a01b0316815250505b600a546001600160a01b03166338ed17398360008430612a3842603c61261b565b6040518663ffffffff1660e01b81526004018086815260200185815260200180602001846001600160a01b03168152602001838152602001828103825285818151815260200191508051906020019060200280838360005b83811015612aa8578181015183820152602001612a90565b505050509050019650505050505050600060405180830381600087803b158015612ad157600080fd5b505af1158015612ae5573d6000803e3d6000fd5b505050506040513d6000823e601f3d908101601f191682016040526020811015612b0e57600080fd5b8101908080516040519392919084600160201b821115612b2d57600080fd5b908301906020820185811115612b4257600080fd5b82518660208202830111600160201b82111715612b5e57600080fd5b82525081516020918201928201910280838360005b83811015612b8b578181015183820152602001612b73565b505050509050016040525050505050505050565b60048054604080516370a0823160e01b81523093810193909352516000926001600160a01b03909216916370a08231916024808301926020929190829003018186803b158015612bee57600080fd5b505afa158015612c02573d6000803e3d6000fd5b505050506040513d6020811015612c1857600080fd5b50519050801561252b57600654604080516361d027b360e01b81529051612caa926001600160a01b0316916361d027b3916004808301926020929190829003018186803b158015612c6857600080fd5b505afa158015612c7c573d6000803e3d6000fd5b505050506040513d6020811015612c9257600080fd5b505160005461126d9061271090611085908690612675565b60065460408051638d8f1e6760e01b81529051612d32926001600160a01b031691638d8f1e67916004808301926020929190829003018186803b158015612cf057600080fd5b505afa158015612d04573d6000803e3d6000fd5b505050506040513d6020811015612d1a57600080fd5b505160015461126d9061271090611085908690612675565b61252b6123da565b61252b611053610d5e565b60008184841115612dd45760405162461bcd60e51b81526004018080602001828103825283818151815260200191508051906020019080838360005b83811015612d99578181015183820152602001612d81565b50505050905090810190601f168015612dc65780820380516001836020036101000a031916815260200191505b509250505060405180910390fd5b505050900390565b60008183612e2b5760405162461bcd60e51b8152602060048201818152835160248401528351909283926044909101919085019080838360008315612d99578181015183820152602001612d81565b506000838581612e3757fe5b0495945050505050565b6060612e96826040518060400160405280602081526020017f5361666545524332303a206c6f772d6c6576656c2063616c6c206661696c6564815250856001600160a01b0316612ef29092919063ffffffff16565b805190915015610d5957808060200190516020811015612eb557600080fd5b5051610d595760405162461bcd60e51b815260040180806020018281038252602a81526020018061309e602a913960400191505060405180910390fd5b6060612f018484600085612f09565b949350505050565b6060612f1485613076565b612f65576040805162461bcd60e51b815260206004820152601d60248201527f416464726573733a2063616c6c20746f206e6f6e2d636f6e7472616374000000604482015290519081900360640190fd5b60006060866001600160a01b031685876040518082805190602001908083835b60208310612fa45780518252601f199092019160209182019101612f85565b6001836020036101000a03801982511681845116808217855250505050505090500191505060006040518083038185875af1925050503d8060008114613006576040519150601f19603f3d011682016040523d82523d6000602084013e61300b565b606091505b5091509150811561301f579150612f019050565b80511561302f5780518082602001fd5b60405162461bcd60e51b8152602060048201818152865160248401528651879391928392604401919085019080838360008315612d99578181015183820152602001612d81565b3b15159056fe536166654d6174683a206d756c7469706c69636174696f6e206f766572666c6f775361666545524332303a204552433230206f7065726174696f6e20646964206e6f7420737563636565645361666545524332303a20617070726f76652066726f6d206e6f6e2d7a65726f20746f206e6f6e2d7a65726f20616c6c6f77616e6365a264697066735822122006f8ba4e51dfac2ddb250127cc5041ca716dbff0bf4159d8ac3b0b97b04e474c64736f6c634300060c0033",
  "devdoc": {
    "kind": "dev",
    "methods": {},
    "version": 1
  },
  "userdoc": {
    "kind": "user",
    "methods": {},
    "version": 1
  },
  "storageLayout": {
    "storage": [
      {
        "astId": 20478,
        "contract": "src/strategies/convex/strategy-sushi-cvx-eth-lp.sol:StrategySushiCvxEthLp",
        "label": "performanceTreasuryFee",
        "offset": 0,
        "slot": "0",
        "type": "t_uint256"
      },
      {
        "astId": 20484,
        "contract": "src/strategies/convex/strategy-sushi-cvx-eth-lp.sol:StrategySushiCvxEthLp",
        "label": "performanceDevFee",
        "offset": 0,
        "slot": "1",
        "type": "t_uint256"
      },
      {
        "astId": 20490,
        "contract": "src/strategies/convex/strategy-sushi-cvx-eth-lp.sol:StrategySushiCvxEthLp",
        "label": "withdrawalTreasuryFee",
        "offset": 0,
        "slot": "2",
        "type": "t_uint256"
      },
      {
        "astId": 20496,
        "contract": "src/strategies/convex/strategy-sushi-cvx-eth-lp.sol:StrategySushiCvxEthLp",
        "label": "withdrawalDevFundFee",
        "offset": 0,
        "slot": "3",
        "type": "t_uint256"
      },
      {
        "astId": 20501,
        "contract": "src/strategies/convex/strategy-sushi-cvx-eth-lp.sol:StrategySushiCvxEthLp",
        "label": "want",
        "offset": 0,
        "slot": "4",
        "type": "t_address"
      },
      {
        "astId": 20506,
        "contract": "src/strategies/convex/strategy-sushi-cvx-eth-lp.sol:StrategySushiCvxEthLp",
        "label": "governance",
        "offset": 0,
        "slot": "5",
        "type": "t_address"
      },
      {
        "astId": 20508,
        "contract": "src/strategies/convex/strategy-sushi-cvx-eth-lp.sol:StrategySushiCvxEthLp",
        "label": "controller",
        "offset": 0,
        "slot": "6",
        "type": "t_address"
      },
      {
        "astId": 20510,
        "contract": "src/strategies/convex/strategy-sushi-cvx-eth-lp.sol:StrategySushiCvxEthLp",
        "label": "strategist",
        "offset": 0,
        "slot": "7",
        "type": "t_address"
      },
      {
        "astId": 20512,
        "contract": "src/strategies/convex/strategy-sushi-cvx-eth-lp.sol:StrategySushiCvxEthLp",
        "label": "timelock",
        "offset": 0,
        "slot": "8",
        "type": "t_address"
      },
      {
        "astId": 20515,
        "contract": "src/strategies/convex/strategy-sushi-cvx-eth-lp.sol:StrategySushiCvxEthLp",
        "label": "univ2Router2",
        "offset": 0,
        "slot": "9",
        "type": "t_address"
      },
      {
        "astId": 20518,
        "contract": "src/strategies/convex/strategy-sushi-cvx-eth-lp.sol:StrategySushiCvxEthLp",
        "label": "sushiRouter",
        "offset": 0,
        "slot": "10",
        "type": "t_address"
      },
      {
        "astId": 20522,
        "contract": "src/strategies/convex/strategy-sushi-cvx-eth-lp.sol:StrategySushiCvxEthLp",
        "label": "harvesters",
        "offset": 0,
        "slot": "11",
        "type": "t_mapping(t_address,t_bool)"
      },
      {
        "astId": 23176,
        "contract": "src/strategies/convex/strategy-sushi-cvx-eth-lp.sol:StrategySushiCvxEthLp",
        "label": "poolId",
        "offset": 0,
        "slot": "12",
        "type": "t_uint256"
      },
      {
        "astId": 15119,
        "contract": "src/strategies/convex/strategy-sushi-cvx-eth-lp.sol:StrategySushiCvxEthLp",
        "label": "sushi_cvx_poolId",
        "offset": 0,
        "slot": "13",
        "type": "t_uint256"
      },
      {
        "astId": 15122,
        "contract": "src/strategies/convex/strategy-sushi-cvx-eth-lp.sol:StrategySushiCvxEthLp",
        "label": "sushi_cvx_eth_lp",
        "offset": 0,
        "slot": "14",
        "type": "t_address"
      },
      {
        "astId": 15125,
        "contract": "src/strategies/convex/strategy-sushi-cvx-eth-lp.sol:StrategySushiCvxEthLp",
        "label": "cvx",
        "offset": 0,
        "slot": "15",
        "type": "t_address"
      }
    ],
    "types": {
      "t_address": {
        "encoding": "inplace",
        "label": "address",
        "numberOfBytes": "20"
      },
      "t_bool": {
        "encoding": "inplace",
        "label": "bool",
        "numberOfBytes": "1"
      },
      "t_mapping(t_address,t_bool)": {
        "encoding": "mapping",
        "key": "t_address",
        "label": "mapping(address => bool)",
        "numberOfBytes": "32",
        "value": "t_bool"
      },
      "t_uint256": {
        "encoding": "inplace",
        "label": "uint256",
        "numberOfBytes": "32"
      }
    }
  }
}