{
  "address": "0xb7BfC69E94A62d2B1a8d5EDD03246918Cb32337c",
  "abi": [
    {
      "inputs": [
        {
          "internalType": "address",
          "name": "_governance",
          "type": "address"
        },
        {
          "internalType": "address",
          "name": "_strategist",
          "type": "address"
        },
        {
          "internalType": "address",
          "name": "_controller",
          "type": "address"
        },
        {
          "internalType": "address",
          "name": "_timelock",
          "type": "address"
        }
      ],
      "stateMutability": "nonpayable",
      "type": "constructor"
    },
    {
      "inputs": [],
      "name": "balanceOf",
      "outputs": [
        {
          "internalType": "uint256",
          "name": "",
          "type": "uint256"
        }
      ],
      "stateMutability": "view",
      "type": "function"
    },
    {
      "inputs": [],
      "name": "balanceOfPool",
      "outputs": [
        {
          "internalType": "uint256",
          "name": "",
          "type": "uint256"
        }
      ],
      "stateMutability": "view",
      "type": "function"
    },
    {
      "inputs": [],
      "name": "balanceOfWant",
      "outputs": [
        {
          "internalType": "uint256",
          "name": "",
          "type": "uint256"
        }
      ],
      "stateMutability": "view",
      "type": "function"
    },
    {
      "inputs": [],
      "name": "controller",
      "outputs": [
        {
          "internalType": "address",
          "name": "",
          "type": "address"
        }
      ],
      "stateMutability": "view",
      "type": "function"
    },
    {
      "inputs": [],
      "name": "convex",
      "outputs": [
        {
          "internalType": "address",
          "name": "",
          "type": "address"
        }
      ],
      "stateMutability": "view",
      "type": "function"
    },
    {
      "inputs": [],
      "name": "convexMasterchef",
      "outputs": [
        {
          "internalType": "address",
          "name": "",
          "type": "address"
        }
      ],
      "stateMutability": "view",
      "type": "function"
    },
    {
      "inputs": [],
      "name": "convex_poolId",
      "outputs": [
        {
          "internalType": "uint256",
          "name": "",
          "type": "uint256"
        }
      ],
      "stateMutability": "view",
      "type": "function"
    },
    {
      "inputs": [],
      "name": "deposit",
      "outputs": [],
      "stateMutability": "nonpayable",
      "type": "function"
    },
    {
      "inputs": [
        {
          "internalType": "address",
          "name": "_target",
          "type": "address"
        },
        {
          "internalType": "bytes",
          "name": "_data",
          "type": "bytes"
        }
      ],
      "name": "execute",
      "outputs": [
        {
          "internalType": "bytes",
          "name": "response",
          "type": "bytes"
        }
      ],
      "stateMutability": "payable",
      "type": "function"
    },
    {
      "inputs": [],
      "name": "getHarvestable",
      "outputs": [
        {
          "internalType": "uint256",
          "name": "",
          "type": "uint256"
        }
      ],
      "stateMutability": "view",
      "type": "function"
    },
    {
      "inputs": [],
      "name": "getName",
      "outputs": [
        {
          "internalType": "string",
          "name": "",
          "type": "string"
        }
      ],
      "stateMutability": "pure",
      "type": "function"
    },
    {
      "inputs": [],
      "name": "governance",
      "outputs": [
        {
          "internalType": "address",
          "name": "",
          "type": "address"
        }
      ],
      "stateMutability": "view",
      "type": "function"
    },
    {
      "inputs": [],
      "name": "harvest",
      "outputs": [],
      "stateMutability": "nonpayable",
      "type": "function"
    },
    {
      "inputs": [
        {
          "internalType": "address",
          "name": "",
          "type": "address"
        }
      ],
      "name": "harvesters",
      "outputs": [
        {
          "internalType": "bool",
          "name": "",
          "type": "bool"
        }
      ],
      "stateMutability": "view",
      "type": "function"
    },
    {
      "inputs": [],
      "name": "performanceDevFee",
      "outputs": [
        {
          "internalType": "uint256",
          "name": "",
          "type": "uint256"
        }
      ],
      "stateMutability": "view",
      "type": "function"
    },
    {
      "inputs": [],
      "name": "performanceDevMax",
      "outputs": [
        {
          "internalType": "uint256",
          "name": "",
          "type": "uint256"
        }
      ],
      "stateMutability": "view",
      "type": "function"
    },
    {
      "inputs": [],
      "name": "performanceTreasuryFee",
      "outputs": [
        {
          "internalType": "uint256",
          "name": "",
          "type": "uint256"
        }
      ],
      "stateMutability": "view",
      "type": "function"
    },
    {
      "inputs": [],
      "name": "performanceTreasuryMax",
      "outputs": [
        {
          "internalType": "uint256",
          "name": "",
          "type": "uint256"
        }
      ],
      "stateMutability": "view",
      "type": "function"
    },
    {
      "inputs": [],
      "name": "poolId",
      "outputs": [
        {
          "internalType": "uint256",
          "name": "",
          "type": "uint256"
        }
      ],
      "stateMutability": "view",
      "type": "function"
    },
    {
      "inputs": [
        {
          "internalType": "address[]",
          "name": "_harvesters",
          "type": "address[]"
        }
      ],
      "name": "revokeHarvesters",
      "outputs": [],
      "stateMutability": "nonpayable",
      "type": "function"
    },
    {
      "inputs": [
        {
          "internalType": "address",
          "name": "_controller",
          "type": "address"
        }
      ],
      "name": "setController",
      "outputs": [],
      "stateMutability": "nonpayable",
      "type": "function"
    },
    {
      "inputs": [
        {
          "internalType": "address",
          "name": "_governance",
          "type": "address"
        }
      ],
      "name": "setGovernance",
      "outputs": [],
      "stateMutability": "nonpayable",
      "type": "function"
    },
    {
      "inputs": [
        {
          "internalType": "uint256",
          "name": "_performanceDevFee",
          "type": "uint256"
        }
      ],
      "name": "setPerformanceDevFee",
      "outputs": [],
      "stateMutability": "nonpayable",
      "type": "function"
    },
    {
      "inputs": [
        {
          "internalType": "uint256",
          "name": "_performanceTreasuryFee",
          "type": "uint256"
        }
      ],
      "name": "setPerformanceTreasuryFee",
      "outputs": [],
      "stateMutability": "nonpayable",
      "type": "function"
    },
    {
      "inputs": [
        {
          "internalType": "address",
          "name": "_strategist",
          "type": "address"
        }
      ],
      "name": "setStrategist",
      "outputs": [],
      "stateMutability": "nonpayable",
      "type": "function"
    },
    {
      "inputs": [
        {
          "internalType": "address",
          "name": "_timelock",
          "type": "address"
        }
      ],
      "name": "setTimelock",
      "outputs": [],
      "stateMutability": "nonpayable",
      "type": "function"
    },
    {
      "inputs": [
        {
          "internalType": "uint256",
          "name": "_withdrawalDevFundFee",
          "type": "uint256"
        }
      ],
      "name": "setWithdrawalDevFundFee",
      "outputs": [],
      "stateMutability": "nonpayable",
      "type": "function"
    },
    {
      "inputs": [
        {
          "internalType": "uint256",
          "name": "_withdrawalTreasuryFee",
          "type": "uint256"
        }
      ],
      "name": "setWithdrawalTreasuryFee",
      "outputs": [],
      "stateMutability": "nonpayable",
      "type": "function"
    },
    {
      "inputs": [],
      "name": "strategist",
      "outputs": [
        {
          "internalType": "address",
          "name": "",
          "type": "address"
        }
      ],
      "stateMutability": "view",
      "type": "function"
    },
    {
      "inputs": [],
      "name": "sushiRouter",
      "outputs": [
        {
          "internalType": "address",
          "name": "",
          "type": "address"
        }
      ],
      "stateMutability": "view",
      "type": "function"
    },
    {
      "inputs": [],
      "name": "sushi_convex_eth_lp",
      "outputs": [
        {
          "internalType": "address",
          "name": "",
          "type": "address"
        }
      ],
      "stateMutability": "view",
      "type": "function"
    },
    {
      "inputs": [],
      "name": "timelock",
      "outputs": [
        {
          "internalType": "address",
          "name": "",
          "type": "address"
        }
      ],
      "stateMutability": "view",
      "type": "function"
    },
    {
      "inputs": [],
      "name": "univ2Router2",
      "outputs": [
        {
          "internalType": "address",
          "name": "",
          "type": "address"
        }
      ],
      "stateMutability": "view",
      "type": "function"
    },
    {
      "inputs": [],
      "name": "want",
      "outputs": [
        {
          "internalType": "address",
          "name": "",
          "type": "address"
        }
      ],
      "stateMutability": "view",
      "type": "function"
    },
    {
      "inputs": [],
      "name": "weth",
      "outputs": [
        {
          "internalType": "address",
          "name": "",
          "type": "address"
        }
      ],
      "stateMutability": "view",
      "type": "function"
    },
    {
      "inputs": [
        {
          "internalType": "address[]",
          "name": "_harvesters",
          "type": "address[]"
        }
      ],
      "name": "whitelistHarvesters",
      "outputs": [],
      "stateMutability": "nonpayable",
      "type": "function"
    },
    {
      "inputs": [
        {
          "internalType": "uint256",
          "name": "_amount",
          "type": "uint256"
        }
      ],
      "name": "withdraw",
      "outputs": [],
      "stateMutability": "nonpayable",
      "type": "function"
    },
    {
      "inputs": [
        {
          "internalType": "contract IERC20",
          "name": "_asset",
          "type": "address"
        }
      ],
      "name": "withdraw",
      "outputs": [
        {
          "internalType": "uint256",
          "name": "balance",
          "type": "uint256"
        }
      ],
      "stateMutability": "nonpayable",
      "type": "function"
    },
    {
      "inputs": [],
      "name": "withdrawAll",
      "outputs": [
        {
          "internalType": "uint256",
          "name": "balance",
          "type": "uint256"
        }
      ],
      "stateMutability": "nonpayable",
      "type": "function"
    },
    {
      "inputs": [
        {
          "internalType": "uint256",
          "name": "_amount",
          "type": "uint256"
        }
      ],
      "name": "withdrawForSwap",
      "outputs": [
        {
          "internalType": "uint256",
          "name": "balance",
          "type": "uint256"
        }
      ],
      "stateMutability": "nonpayable",
      "type": "function"
    },
    {
      "inputs": [],
      "name": "withdrawalDevFundFee",
      "outputs": [
        {
          "internalType": "uint256",
          "name": "",
          "type": "uint256"
        }
      ],
      "stateMutability": "view",
      "type": "function"
    },
    {
      "inputs": [],
      "name": "withdrawalDevFundMax",
      "outputs": [
        {
          "internalType": "uint256",
          "name": "",
          "type": "uint256"
        }
      ],
      "stateMutability": "view",
      "type": "function"
    },
    {
      "inputs": [],
      "name": "withdrawalTreasuryFee",
      "outputs": [
        {
          "internalType": "uint256",
          "name": "",
          "type": "uint256"
        }
      ],
      "stateMutability": "view",
      "type": "function"
    },
    {
      "inputs": [],
      "name": "withdrawalTreasuryMax",
      "outputs": [
        {
          "internalType": "uint256",
          "name": "",
          "type": "uint256"
        }
      ],
      "stateMutability": "view",
      "type": "function"
    }
  ],
  "transactionHash": "0x18f7932007ec03fc67c45a2c5931850ab739976f52825f78178d10a27208297a",
  "args": [
    "0x9d074E37d408542FD38be78848e8814AFB38db17",
    "0xaCfE4511CE883C14c4eA40563F176C3C09b4c47C",
    "0x6847259b2B3A4c17e7c43C54409810aF48bA5210",
    "0xD92c7fAa0Ca0e6AE4918f3a83d9832d9CAEAA0d3"
  ],
  "solcInputHash": "8884fa8ab65fb5cd2e58029c024f69ed",
  "bytecode": "0x60806040526107d0600090815560018181556002829055600391909155600980546001600160a01b0319908116737a250d5630b4cf539739df2c5dacb4c659f2488d17909155600a8054821673d9e1ce17f2641f24ae83637ab66a2cca9c378b9f179055600d91909155600e80549091167305767d9ef41dc40689678ffca0608878fb3de9061790553480156200009557600080fd5b5060405162002f3838038062002f3883398181016040526080811015620000bb57600080fd5b50805160208201516040830151606090930151600d54600e54939492936001600160a01b031685858585848484848484620000f557600080fd5b6001600160a01b0384166200010957600080fd5b6001600160a01b0383166200011d57600080fd5b6001600160a01b0382166200013157600080fd5b6001600160a01b0381166200014557600080fd5b600480546001600160a01b039687166001600160a01b031991821617909155600580549587169582169590951790945560078054938616938516939093179092556006805491851691841691909117905560088054919093169116179055505050600c92909255505050505050612d7680620001c26000396000f3fe6080604052600436106102675760003560e01c80638237859411610144578063bdacb303116100b6578063c87867411161007a578063c8786741146108cb578063d0e30db0146108e0578063d33219b4146108f5578063d7ae7f0a1461090a578063f77c47911461091f578063fe1f8f7a1461056657610267565b8063bdacb303146107fc578063c1a3d44c1461082f578063c6223e2614610844578063c65e32421461086e578063c7b9d5301461089857610267565b80638d4d1044116101085780638d4d1044146106c757806392eefe9b146106dc578063ab033ea91461070f578063ab73e43314610742578063b1f55bd41461076c578063b9e37489146107e757610267565b80638237859414610617578063853828b614610641578063879765831461065657806388993f221461069d5780638ccdbb70146106b257610267565b80633e849b60116101dd57806351cff8d9116101a157806351cff8d91461057b57806351f3d0b8146105ae57806359739ec4146105c35780635aa6e675146105d85780636d13582c146105ed578063722713f71461060257610267565b80633e849b60146105275780633fc8cef31461053c5780634641257d14610551578063479119be146105665780634fe809cc146104d357610267565b80631f1fcd511161022f5780631f1fcd51146104635780631fe4a68614610494578063249fb9b4146104a957806326e886c6146104d35780632e1a7d4d146104e85780633e0dc34e1461051257610267565b80630547104d1461026c5780630e364fb614610293578063115880861461031057806317d7de7c146103255780631cff79cd146103af575b600080fd5b34801561027857600080fd5b50610281610934565b60408051918252519081900360200190f35b34801561029f57600080fd5b5061030e600480360360208110156102b657600080fd5b810190602081018135600160201b8111156102d057600080fd5b8201836020820111156102e257600080fd5b803590602001918460208302840111600160201b8311171561030357600080fd5b5090925090506109c4565b005b34801561031c57600080fd5b50610281610a9e565b34801561033157600080fd5b5061033a610b2e565b6040805160208082528351818301528351919283929083019185019080838360005b8381101561037457818101518382015260200161035c565b50505050905090810190601f1680156103a15780820380516001836020036101000a031916815260200191505b509250505060405180910390f35b61033a600480360360408110156103c557600080fd5b6001600160a01b038235169190810190604081016020820135600160201b8111156103ef57600080fd5b82018360208201111561040157600080fd5b803590602001918460018302840111600160201b8311171561042257600080fd5b91908080601f016020809104026020016040519081016040528093929190818152602001838380828437600092019190915250929550610b5b945050505050565b34801561046f57600080fd5b50610478610c3e565b604080516001600160a01b039092168252519081900360200190f35b3480156104a057600080fd5b50610478610c4d565b3480156104b557600080fd5b5061030e600480360360208110156104cc57600080fd5b5035610c5c565b3480156104df57600080fd5b50610281610cac565b3480156104f457600080fd5b5061030e6004803603602081101561050b57600080fd5b5035610cb2565b34801561051e57600080fd5b50610281610fc5565b34801561053357600080fd5b50610281610fcb565b34801561054857600080fd5b50610478610fd1565b34801561055d57600080fd5b5061030e610fe9565b34801561057257600080fd5b5061028161170e565b34801561058757600080fd5b506102816004803603602081101561059e57600080fd5b50356001600160a01b0316611715565b3480156105ba57600080fd5b50610281611845565b3480156105cf57600080fd5b5061028161184b565b3480156105e457600080fd5b50610478611851565b3480156105f957600080fd5b50610478611860565b34801561060e57600080fd5b5061028161186f565b34801561062357600080fd5b5061030e6004803603602081101561063a57600080fd5b503561188f565b34801561064d57600080fd5b506102816118df565b34801561066257600080fd5b506106896004803603602081101561067957600080fd5b50356001600160a01b0316611a93565b604080519115158252519081900360200190f35b3480156106a957600080fd5b50610281611aa8565b3480156106be57600080fd5b50610281611aae565b3480156106d357600080fd5b50610478611ab4565b3480156106e857600080fd5b5061030e600480360360208110156106ff57600080fd5b50356001600160a01b0316611acc565b34801561071b57600080fd5b5061030e6004803603602081101561073257600080fd5b50356001600160a01b0316611b39565b34801561074e57600080fd5b5061030e6004803603602081101561076557600080fd5b5035611ba8565b34801561077857600080fd5b5061030e6004803603602081101561078f57600080fd5b810190602081018135600160201b8111156107a957600080fd5b8201836020820111156107bb57600080fd5b803590602001918460208302840111600160201b831117156107dc57600080fd5b509092509050611bf8565b3480156107f357600080fd5b50610478611cb3565b34801561080857600080fd5b5061030e6004803603602081101561081f57600080fd5b50356001600160a01b0316611cc2565b34801561083b57600080fd5b50610281611d2f565b34801561085057600080fd5b506102816004803603602081101561086757600080fd5b5035611d7e565b34801561087a57600080fd5b5061030e6004803603602081101561089157600080fd5b5035611f36565b3480156108a457600080fd5b5061030e600480360360208110156108bb57600080fd5b50356001600160a01b0316611f86565b3480156108d757600080fd5b50610478611ff5565b3480156108ec57600080fd5b5061030e61200d565b34801561090157600080fd5b50610478612162565b34801561091657600080fd5b50610478612171565b34801561092b57600080fd5b50610478612180565b600c5460408051637ca7d8bf60e01b8152600481019290925230602483015251600091735f465e9fcffc217c5849906216581a657cd6060591637ca7d8bf91604480820192602092909190829003018186803b15801561099357600080fd5b505afa1580156109a7573d6000803e3d6000fd5b505050506040513d60208110156109bd57600080fd5b5051905090565b6005546001600160a01b03163314806109e757506007546001600160a01b031633145b80610a015750336000908152600b602052604090205460ff165b610a43576040805162461bcd60e51b815260206004820152600e60248201526d1b9bdd08185d5d1a1bdc9a5e995960921b604482015290519081900360640190fd5b60005b81811015610a99576001600b6000858585818110610a6057fe5b602090810292909201356001600160a01b0316835250810191909152604001600020805460ff1916911515919091179055600101610a46565b505050565b600c54604080516393f1a40b60e01b8152600481019290925230602483015280516000928392735f465e9fcffc217c5849906216581a657cd60605926393f1a40b926044808201939291829003018186803b158015610afc57600080fd5b505afa158015610b10573d6000803e3d6000fd5b505050506040513d6040811015610b2657600080fd5b505191505090565b60408051808201909152601381527205374726174656779436f6e7665784574684c7606c1b602082015290565b6008546060906001600160a01b03163314610ba9576040805162461bcd60e51b81526020600482015260096024820152682174696d656c6f636b60b81b604482015290519081900360640190fd5b6001600160a01b038316610bee576040805162461bcd60e51b8152602060048201526007602482015266085d185c99d95d60ca1b604482015290519081900360640190fd5b600080835160208501866113885a03f43d6040519250601f19601f6020830101168301604052808352806000602085013e811560018114610c2e57610c35565b8160208501fd5b50505092915050565b6004546001600160a01b031681565b6007546001600160a01b031681565b6008546001600160a01b03163314610ca7576040805162461bcd60e51b81526020600482015260096024820152682174696d656c6f636b60b81b604482015290519081900360640190fd5b600055565b61271081565b6006546001600160a01b03163314610cff576040805162461bcd60e51b815260206004820152600b60248201526a10b1b7b73a3937b63632b960a91b604482015290519081900360640190fd5b60048054604080516370a0823160e01b81523093810193909352516000926001600160a01b03909216916370a08231916024808301926020929190829003018186803b158015610d4e57600080fd5b505afa158015610d62573d6000803e3d6000fd5b505050506040513d6020811015610d7857600080fd5b5051905081811015610da557610d96610d91838361218f565b6121da565b9150610da2828261225e565b91505b6000610dc9620186a0610dc3600354866122b890919063ffffffff16565b90612311565b9050610e5b600660009054906101000a90046001600160a01b03166001600160a01b0316638d8f1e676040518163ffffffff1660e01b815260040160206040518083038186803b158015610e1c57600080fd5b505afa158015610e30573d6000803e3d6000fd5b505050506040513d6020811015610e4657600080fd5b50516004546001600160a01b03169083612353565b6000610e79620186a0610dc3600254876122b890919063ffffffff16565b9050610ecc600660009054906101000a90046001600160a01b03166001600160a01b03166361d027b36040518163ffffffff1660e01b815260040160206040518083038186803b158015610e1c57600080fd5b6006546004805460408051636535246160e11b81526001600160a01b039283169381019390935251600093919091169163ca6a48c2916024808301926020929190829003018186803b158015610f2157600080fd5b505afa158015610f35573d6000803e3d6000fd5b505050506040513d6020811015610f4b57600080fd5b505190506001600160a01b038116610f93576040805162461bcd60e51b8152602060048083019190915260248201526310b530b960e11b604482015290519081900360640190fd5b610fbe81610fab84610fa5898861218f565b9061218f565b6004546001600160a01b03169190612353565b5050505050565b600c5481565b600d5481565b73c02aaa39b223fe8d0a0e5c4f27ead9083c756cc281565b336000908152600b602052604090205460ff168061101157506005546001600160a01b031633145b8061102657506007546001600160a01b031633145b61102f57600080fd5b735f465e9fcffc217c5849906216581a657cd606056001600160a01b031663441a3e70600c5460006040518363ffffffff1660e01b81526004018083815260200182815260200192505050600060405180830381600087803b15801561109457600080fd5b505af11580156110a8573d6000803e3d6000fd5b5050604080516370a0823160e01b8152306004820152905160009350734e3fbd56cd56c3e72c1403e103b45db9da5b9d2b92506370a0823191602480820192602092909190829003018186803b15801561110157600080fd5b505afa158015611115573d6000803e3d6000fd5b505050506040513d602081101561112b57600080fd5b5051905080156111d3576000611142826002612311565b600a5490915061117290734e3fbd56cd56c3e72c1403e103b45db9da5b9d2b906001600160a01b031660006123a5565b600a5461119e90734e3fbd56cd56c3e72c1403e103b45db9da5b9d2b906001600160a01b0316836123a5565b6111d1734e3fbd56cd56c3e72c1403e103b45db9da5b9d2b73c02aaa39b223fe8d0a0e5c4f27ead9083c756cc2836124b8565b505b604080516370a0823160e01b8152306004820152905160009173c02aaa39b223fe8d0a0e5c4f27ead9083c756cc2916370a0823191602480820192602092909190829003018186803b15801561122857600080fd5b505afa15801561123c573d6000803e3d6000fd5b505050506040513d602081101561125257600080fd5b5051604080516370a0823160e01b81523060048201529051919250734e3fbd56cd56c3e72c1403e103b45db9da5b9d2b916370a0823191602480820192602092909190829003018186803b1580156112a957600080fd5b505afa1580156112bd573d6000803e3d6000fd5b505050506040513d60208110156112d357600080fd5b5051915080158015906112e65750600082115b1561170257600a546113189073c02aaa39b223fe8d0a0e5c4f27ead9083c756cc2906001600160a01b031660006123a5565b600a546113449073c02aaa39b223fe8d0a0e5c4f27ead9083c756cc2906001600160a01b0316836123a5565b600a5461137190734e3fbd56cd56c3e72c1403e103b45db9da5b9d2b906001600160a01b031660006123a5565b600a5461139d90734e3fbd56cd56c3e72c1403e103b45db9da5b9d2b906001600160a01b0316846123a5565b600a546040805162e8e33760e81b8152734e3fbd56cd56c3e72c1403e103b45db9da5b9d2b600482015273c02aaa39b223fe8d0a0e5c4f27ead9083c756cc26024820152604481018590526064810184905260006084820181905260a482018190523060c4830152603c420160e483015291516001600160a01b039093169263e8e337009261010480840193606093929083900390910190829087803b15801561144657600080fd5b505af115801561145a573d6000803e3d6000fd5b505050506040513d606081101561147057600080fd5b5050600654604080516361d027b360e01b8152905173c02aaa39b223fe8d0a0e5c4f27ead9083c756cc29263a9059cbb926001600160a01b03909116916361d027b391600480820192602092909190829003018186803b1580156114d357600080fd5b505afa1580156114e7573d6000803e3d6000fd5b505050506040513d60208110156114fd57600080fd5b5051604080516370a0823160e01b8152306004820152905173c02aaa39b223fe8d0a0e5c4f27ead9083c756cc2916370a08231916024808301926020929190829003018186803b15801561155057600080fd5b505afa158015611564573d6000803e3d6000fd5b505050506040513d602081101561157a57600080fd5b5051604080516001600160e01b031960e086901b1681526001600160a01b03909316600484015260248301919091525160448083019260209291908290030181600087803b1580156115cb57600080fd5b505af11580156115df573d6000803e3d6000fd5b505050506040513d60208110156115f557600080fd5b5050600654604080516361d027b360e01b81529051611702926001600160a01b0316916361d027b3916004808301926020929190829003018186803b15801561163d57600080fd5b505afa158015611651573d6000803e3d6000fd5b505050506040513d602081101561166757600080fd5b5051604080516370a0823160e01b81523060048201529051734e3fbd56cd56c3e72c1403e103b45db9da5b9d2b916370a08231916024808301926020929190829003018186803b1580156116ba57600080fd5b505afa1580156116ce573d6000803e3d6000fd5b505050506040513d60208110156116e457600080fd5b5051734e3fbd56cd56c3e72c1403e103b45db9da5b9d2b9190612353565b61170a6127e2565b5050565b620186a081565b6006546000906001600160a01b03163314611765576040805162461bcd60e51b815260206004820152600b60248201526a10b1b7b73a3937b63632b960a91b604482015290519081900360640190fd5b6004546001600160a01b03838116911614156117b1576040805162461bcd60e51b815260206004808301919091526024820152631dd85b9d60e21b604482015290519081900360640190fd5b604080516370a0823160e01b815230600482015290516001600160a01b038416916370a08231916024808301926020929190829003018186803b1580156117f757600080fd5b505afa15801561180b573d6000803e3d6000fd5b505050506040513d602081101561182157600080fd5b5051600654909150611840906001600160a01b03848116911683612353565b919050565b60035481565b60005481565b6005546001600160a01b031681565b600a546001600160a01b031681565b600061188a61187c610a9e565b611884611d2f565b9061225e565b905090565b6008546001600160a01b031633146118da576040805162461bcd60e51b81526020600482015260096024820152682174696d656c6f636b60b81b604482015290519081900360640190fd5b600255565b6006546000906001600160a01b0316331461192f576040805162461bcd60e51b815260206004820152600b60248201526a10b1b7b73a3937b63632b960a91b604482015290519081900360640190fd5b61193761297d565b60048054604080516370a0823160e01b81523093810193909352516001600160a01b03909116916370a08231916024808301926020929190829003018186803b15801561198357600080fd5b505afa158015611997573d6000803e3d6000fd5b505050506040513d60208110156119ad57600080fd5b50516006546004805460408051636535246160e11b81526001600160a01b03928316938101939093525193945060009392169163ca6a48c291602480820192602092909190829003018186803b158015611a0657600080fd5b505afa158015611a1a573d6000803e3d6000fd5b505050506040513d6020811015611a3057600080fd5b505190506001600160a01b038116611a78576040805162461bcd60e51b8152602060048083019190915260248201526310b530b960e11b604482015290519081900360640190fd5b600454611a8f906001600160a01b03168284612353565b5090565b600b6020526000908152604090205460ff1681565b60015481565b60025481565b734e3fbd56cd56c3e72c1403e103b45db9da5b9d2b81565b6008546001600160a01b03163314611b17576040805162461bcd60e51b81526020600482015260096024820152682174696d656c6f636b60b81b604482015290519081900360640190fd5b600680546001600160a01b0319166001600160a01b0392909216919091179055565b6005546001600160a01b03163314611b86576040805162461bcd60e51b815260206004820152600b60248201526a21676f7665726e616e636560a81b604482015290519081900360640190fd5b600580546001600160a01b0319166001600160a01b0392909216919091179055565b6008546001600160a01b03163314611bf3576040805162461bcd60e51b81526020600482015260096024820152682174696d656c6f636b60b81b604482015290519081900360640190fd5b600355565b6005546001600160a01b0316331480611c1b57506007546001600160a01b031633145b611c5d576040805162461bcd60e51b815260206004820152600e60248201526d1b9bdd08185d5d1a1bdc9a5e995960921b604482015290519081900360640190fd5b60005b81811015610a99576000600b6000858585818110611c7a57fe5b602090810292909201356001600160a01b0316835250810191909152604001600020805460ff1916911515919091179055600101611c60565b6009546001600160a01b031681565b6008546001600160a01b03163314611d0d576040805162461bcd60e51b81526020600482015260096024820152682174696d656c6f636b60b81b604482015290519081900360640190fd5b600880546001600160a01b0319166001600160a01b0392909216919091179055565b60048054604080516370a0823160e01b81523093810193909352516000926001600160a01b03909216916370a08231916024808301926020929190829003018186803b15801561099357600080fd5b6006546000906001600160a01b03163314611dce576040805162461bcd60e51b815260206004820152600b60248201526a10b1b7b73a3937b63632b960a91b604482015290519081900360640190fd5b611dd7826121da565b5060048054604080516370a0823160e01b81523093810193909352516001600160a01b03909116916370a08231916024808301926020929190829003018186803b158015611e2457600080fd5b505afa158015611e38573d6000803e3d6000fd5b505050506040513d6020811015611e4e57600080fd5b50516006546004805460408051636535246160e11b81526001600160a01b03928316938101939093525193945060009392169163ca6a48c291602480820192602092909190829003018186803b158015611ea757600080fd5b505afa158015611ebb573d6000803e3d6000fd5b505050506040513d6020811015611ed157600080fd5b505190506001600160a01b038116611f19576040805162461bcd60e51b8152602060048083019190915260248201526310b530b960e11b604482015290519081900360640190fd5b600454611f30906001600160a01b03168284612353565b50919050565b6008546001600160a01b03163314611f81576040805162461bcd60e51b81526020600482015260096024820152682174696d656c6f636b60b81b604482015290519081900360640190fd5b600155565b6005546001600160a01b03163314611fd3576040805162461bcd60e51b815260206004820152600b60248201526a21676f7665726e616e636560a81b604482015290519081900360640190fd5b600780546001600160a01b0319166001600160a01b0392909216919091179055565b735f465e9fcffc217c5849906216581a657cd6060581565b60048054604080516370a0823160e01b81523093810193909352516000926001600160a01b03909216916370a08231916024808301926020929190829003018186803b15801561205c57600080fd5b505afa158015612070573d6000803e3d6000fd5b505050506040513d602081101561208657600080fd5b50519050801561215f576004546120bc906001600160a01b0316735f465e9fcffc217c5849906216581a657cd6060560006123a5565b6004546120e7906001600160a01b0316735f465e9fcffc217c5849906216581a657cd60605836123a5565b735f465e9fcffc217c5849906216581a657cd606056001600160a01b031663e2bbb158600c54836040518363ffffffff1660e01b81526004018083815260200182815260200192505050600060405180830381600087803b15801561214b57600080fd5b505af1158015610fbe573d6000803e3d6000fd5b50565b6008546001600160a01b031681565b600e546001600160a01b031681565b6006546001600160a01b031681565b60006121d183836040518060400160405280601e81526020017f536166654d6174683a207375627472616374696f6e206f766572666c6f770000815250612988565b90505b92915050565b6000735f465e9fcffc217c5849906216581a657cd606056001600160a01b031663441a3e70600c54846040518363ffffffff1660e01b81526004018083815260200182815260200192505050600060405180830381600087803b15801561224057600080fd5b505af1158015612254573d6000803e3d6000fd5b5093949350505050565b6000828201838110156121d1576040805162461bcd60e51b815260206004820152601b60248201527f536166654d6174683a206164646974696f6e206f766572666c6f770000000000604482015290519081900360640190fd5b6000826122c7575060006121d4565b828202828482816122d457fe5b04146121d15760405162461bcd60e51b8152600401808060200182810382526021815260200180612cc06021913960400191505060405180910390fd5b60006121d183836040518060400160405280601a81526020017f536166654d6174683a206469766973696f6e206279207a65726f000000000000815250612a1f565b604080516001600160a01b038416602482015260448082018490528251808303909101815260649091019091526020810180516001600160e01b031663a9059cbb60e01b179052610a99908490612a84565b80158061242b575060408051636eb1769f60e11b81523060048201526001600160a01b03848116602483015291519185169163dd62ed3e91604480820192602092909190829003018186803b1580156123fd57600080fd5b505afa158015612411573d6000803e3d6000fd5b505050506040513d602081101561242757600080fd5b5051155b6124665760405162461bcd60e51b8152600401808060200182810382526036815260200180612d0b6036913960400191505060405180910390fd5b604080516001600160a01b038416602482015260448082018490528251808303909101815260649091019091526020810180516001600160e01b031663095ea7b360e01b179052610a99908490612a84565b6001600160a01b0382166124cb57600080fd5b60606001600160a01b03841673c02aaa39b223fe8d0a0e5c4f27ead9083c756cc2148061251457506001600160a01b03831673c02aaa39b223fe8d0a0e5c4f27ead9083c756cc2145b1561259a576040805160028082526060820183529091602083019080368337019050509050838160008151811061254757fe5b60200260200101906001600160a01b031690816001600160a01b031681525050828160018151811061257557fe5b60200260200101906001600160a01b031690816001600160a01b03168152505061265a565b60408051600380825260808201909252906020820160608036833701905050905083816000815181106125c957fe5b60200260200101906001600160a01b031690816001600160a01b03168152505073c02aaa39b223fe8d0a0e5c4f27ead9083c756cc28160018151811061260b57fe5b60200260200101906001600160a01b031690816001600160a01b031681525050828160028151811061263957fe5b60200260200101906001600160a01b031690816001600160a01b0316815250505b600a546001600160a01b03166338ed1739836000843061267b42603c61225e565b6040518663ffffffff1660e01b81526004018086815260200185815260200180602001846001600160a01b03168152602001838152602001828103825285818151815260200191508051906020019060200280838360005b838110156126eb5781810151838201526020016126d3565b505050509050019650505050505050600060405180830381600087803b15801561271457600080fd5b505af1158015612728573d6000803e3d6000fd5b505050506040513d6000823e601f3d908101601f19168201604052602081101561275157600080fd5b8101908080516040519392919084600160201b82111561277057600080fd5b90830190602082018581111561278557600080fd5b82518660208202830111600160201b821117156127a157600080fd5b82525081516020918201928201910280838360005b838110156127ce5781810151838201526020016127b6565b505050509050016040525050505050505050565b60048054604080516370a0823160e01b81523093810193909352516000926001600160a01b03909216916370a08231916024808301926020929190829003018186803b15801561283157600080fd5b505afa158015612845573d6000803e3d6000fd5b505050506040513d602081101561285b57600080fd5b50519050801561215f57600654604080516361d027b360e01b815290516128ed926001600160a01b0316916361d027b3916004808301926020929190829003018186803b1580156128ab57600080fd5b505afa1580156128bf573d6000803e3d6000fd5b505050506040513d60208110156128d557600080fd5b5051600054610fab9061271090610dc39086906122b8565b60065460408051638d8f1e6760e01b81529051612975926001600160a01b031691638d8f1e67916004808301926020929190829003018186803b15801561293357600080fd5b505afa158015612947573d6000803e3d6000fd5b505050506040513d602081101561295d57600080fd5b5051600154610fab9061271090610dc39086906122b8565b61215f61200d565b61215f610d91610a9e565b60008184841115612a175760405162461bcd60e51b81526004018080602001828103825283818151815260200191508051906020019080838360005b838110156129dc5781810151838201526020016129c4565b50505050905090810190601f168015612a095780820380516001836020036101000a031916815260200191505b509250505060405180910390fd5b505050900390565b60008183612a6e5760405162461bcd60e51b81526020600482018181528351602484015283519092839260449091019190850190808383600083156129dc5781810151838201526020016129c4565b506000838581612a7a57fe5b0495945050505050565b6060612ad9826040518060400160405280602081526020017f5361666545524332303a206c6f772d6c6576656c2063616c6c206661696c6564815250856001600160a01b0316612b359092919063ffffffff16565b805190915015610a9957808060200190516020811015612af857600080fd5b5051610a995760405162461bcd60e51b815260040180806020018281038252602a815260200180612ce1602a913960400191505060405180910390fd5b6060612b448484600085612b4c565b949350505050565b6060612b5785612cb9565b612ba8576040805162461bcd60e51b815260206004820152601d60248201527f416464726573733a2063616c6c20746f206e6f6e2d636f6e7472616374000000604482015290519081900360640190fd5b60006060866001600160a01b031685876040518082805190602001908083835b60208310612be75780518252601f199092019160209182019101612bc8565b6001836020036101000a03801982511681845116808217855250505050505090500191505060006040518083038185875af1925050503d8060008114612c49576040519150601f19603f3d011682016040523d82523d6000602084013e612c4e565b606091505b50915091508115612c62579150612b449050565b805115612c725780518082602001fd5b60405162461bcd60e51b81526020600482018181528651602484015286518793919283926044019190850190808383600083156129dc5781810151838201526020016129c4565b3b15159056fe536166654d6174683a206d756c7469706c69636174696f6e206f766572666c6f775361666545524332303a204552433230206f7065726174696f6e20646964206e6f7420737563636565645361666545524332303a20617070726f76652066726f6d206e6f6e2d7a65726f20746f206e6f6e2d7a65726f20616c6c6f77616e6365a2646970667358221220eff54ea7621d26c383ca5ecf5c5be4b5b0d32b6bd14ec1782e2620bc192938b064736f6c634300060c0033",
  "devdoc": {
    "kind": "dev",
    "methods": {},
    "version": 1
  },
  "userdoc": {
    "kind": "user",
    "methods": {},
    "version": 1
  },
  "storageLayout": {
    "storage": [
      {
        "astId": 20486,
        "contract": "src/strategies/convex/strategy-convex-eth-lp.sol:StrategyConvexEthLp",
        "label": "performanceTreasuryFee",
        "offset": 0,
        "slot": "0",
        "type": "t_uint256"
      },
      {
        "astId": 20492,
        "contract": "src/strategies/convex/strategy-convex-eth-lp.sol:StrategyConvexEthLp",
        "label": "performanceDevFee",
        "offset": 0,
        "slot": "1",
        "type": "t_uint256"
      },
      {
        "astId": 20498,
        "contract": "src/strategies/convex/strategy-convex-eth-lp.sol:StrategyConvexEthLp",
        "label": "withdrawalTreasuryFee",
        "offset": 0,
        "slot": "2",
        "type": "t_uint256"
      },
      {
        "astId": 20504,
        "contract": "src/strategies/convex/strategy-convex-eth-lp.sol:StrategyConvexEthLp",
        "label": "withdrawalDevFundFee",
        "offset": 0,
        "slot": "3",
        "type": "t_uint256"
      },
      {
        "astId": 20509,
        "contract": "src/strategies/convex/strategy-convex-eth-lp.sol:StrategyConvexEthLp",
        "label": "want",
        "offset": 0,
        "slot": "4",
        "type": "t_address"
      },
      {
        "astId": 20514,
        "contract": "src/strategies/convex/strategy-convex-eth-lp.sol:StrategyConvexEthLp",
        "label": "governance",
        "offset": 0,
        "slot": "5",
        "type": "t_address"
      },
      {
        "astId": 20516,
        "contract": "src/strategies/convex/strategy-convex-eth-lp.sol:StrategyConvexEthLp",
        "label": "controller",
        "offset": 0,
        "slot": "6",
        "type": "t_address"
      },
      {
        "astId": 20518,
        "contract": "src/strategies/convex/strategy-convex-eth-lp.sol:StrategyConvexEthLp",
        "label": "strategist",
        "offset": 0,
        "slot": "7",
        "type": "t_address"
      },
      {
        "astId": 20520,
        "contract": "src/strategies/convex/strategy-convex-eth-lp.sol:StrategyConvexEthLp",
        "label": "timelock",
        "offset": 0,
        "slot": "8",
        "type": "t_address"
      },
      {
        "astId": 20523,
        "contract": "src/strategies/convex/strategy-convex-eth-lp.sol:StrategyConvexEthLp",
        "label": "univ2Router2",
        "offset": 0,
        "slot": "9",
        "type": "t_address"
      },
      {
        "astId": 20526,
        "contract": "src/strategies/convex/strategy-convex-eth-lp.sol:StrategyConvexEthLp",
        "label": "sushiRouter",
        "offset": 0,
        "slot": "10",
        "type": "t_address"
      },
      {
        "astId": 20530,
        "contract": "src/strategies/convex/strategy-convex-eth-lp.sol:StrategyConvexEthLp",
        "label": "harvesters",
        "offset": 0,
        "slot": "11",
        "type": "t_mapping(t_address,t_bool)"
      },
      {
        "astId": 15174,
        "contract": "src/strategies/convex/strategy-convex-eth-lp.sol:StrategyConvexEthLp",
        "label": "poolId",
        "offset": 0,
        "slot": "12",
        "type": "t_uint256"
      },
      {
        "astId": 15127,
        "contract": "src/strategies/convex/strategy-convex-eth-lp.sol:StrategyConvexEthLp",
        "label": "convex_poolId",
        "offset": 0,
        "slot": "13",
        "type": "t_uint256"
      },
      {
        "astId": 15130,
        "contract": "src/strategies/convex/strategy-convex-eth-lp.sol:StrategyConvexEthLp",
        "label": "sushi_convex_eth_lp",
        "offset": 0,
        "slot": "14",
        "type": "t_address"
      }
    ],
    "types": {
      "t_address": {
        "encoding": "inplace",
        "label": "address",
        "numberOfBytes": "20"
      },
      "t_bool": {
        "encoding": "inplace",
        "label": "bool",
        "numberOfBytes": "1"
      },
      "t_mapping(t_address,t_bool)": {
        "encoding": "mapping",
        "key": "t_address",
        "label": "mapping(address => bool)",
        "numberOfBytes": "32",
        "value": "t_bool"
      },
      "t_uint256": {
        "encoding": "inplace",
        "label": "uint256",
        "numberOfBytes": "32"
      }
    }
  }
}